:020000040800F2
:10000000F04F0020995500080151000807510008E1
:1000100000000000000000000000000000000000E0
:100020000000000000000000000000004929010855
:100030000000000000000000712A0108B92A010830
:10004000E9550008E9550008E9550008E955000898
:10005000E9550008E9550008E9550008E955000888
:10006000E9550008E9550008E9550008E955000878
:10007000E95500080D510008E955000889510008AC
:10008000E9550008E9550008E9550008000000009E
:10009000E9550008E9550008E9550008A151000894
:1000A000E9550008E9550008E9550008D151000854
:1000B000E9550008E955000800000000E951000872
:1000C00010B5064C2378002B07D1054B002B02D02E
:1000D000044800E000BF0123237010BDA0020020EF
:1000E00000000000C8630108044B10B5002B03D0CA
:1000F0000349044800E000BF10BDC04600000000F6
:10010000A4020020C863010802780B78002A03D0FB
:10011000013001319A42F7D0D01A70470023C25CF7
:100120000133002AFBD1581E7047000003B471460A
:10013000490840004900095E49008E4403BC7047ED
:10014000002243088B4274D303098B425FD3030A16
:100150008B4244D3030B8B4228D3030C8B420DD329
:10016000FF22090212BA030C8B4202D312120902B7
:1001700065D0030B8B4219D300E0090AC30B8B42F5
:1001800001D3CB03C01A5241830B8B4201D38B03A3
:10019000C01A5241430B8B4201D34B03C01A524148
:1001A000030B8B4201D30B03C01A5241C30A8B428B
:1001B00001D3CB02C01A5241830A8B4201D38B0276
:1001C000C01A5241430A8B4201D34B02C01A52411A
:1001D000030A8B4201D30B02C01A5241CDD2C3098C
:1001E0008B4201D3CB01C01A524183098B4201D308
:1001F0008B01C01A524143098B4201D34B01C01AF3
:10020000524103098B4201D30B01C01A5241C3086A
:100210008B4201D3CB00C01A524183088B4201D3D9
:100220008B00C01A524143088B4201D34B00C01AC5
:100230005241411A00D20146524110467047FFE731
:1002400001B5002000F0F0F802BDC0460029F7D04B
:1002500076E7704703460B437FD4002243088B4266
:1002600074D303098B425FD3030A8B4244D3030B3D
:100270008B4228D3030C8B420DD3FF22090212BA02
:10028000030C8B4202D31212090265D0030B8B427E
:1002900019D300E0090AC30B8B4201D3CB03C01A68
:1002A0005241830B8B4201D38B03C01A5241430B43
:1002B0008B4201D34B03C01A5241030B8B4201D333
:1002C0000B03C01A5241C30A8B4201D3CB02C01A9E
:1002D0005241830A8B4201D38B02C01A5241430A16
:1002E0008B4201D34B02C01A5241030A8B4201D305
:1002F0000B02C01A5241CDD2C3098B4201D3CB01AC
:10030000C01A524183098B4201D38B01C01A52415A
:1003100043098B4201D34B01C01A524103098B425E
:1003200001D30B01C01A5241C3088B4201D3CB0049
:10033000C01A524183088B4201D38B00C01A52412C
:1003400043088B4201D34B00C01A5241411A00D2DC
:1003500001465241104670475DE0CA0F00D0494245
:10036000031000D34042534000229C4603098B42B5
:100370002DD3030A8B4212D3FC22890112BA030A3D
:100380008B420CD3890192118B4208D389019211BF
:100390008B4204D389013AD0921100E08909C30944
:1003A0008B4201D3CB01C01A524183098B4201D346
:1003B0008B01C01A524143098B4201D34B01C01A31
:1003C000524103098B4201D30B01C01A5241C308A9
:1003D0008B4201D3CB00C01A524183088B4201D318
:1003E0008B00C01A5241D9D243088B4201D34B0033
:1003F000C01A5241411A00D20146634652415B1075
:10040000104601D34042002B00D549427047634655
:100410005B1000D3404201B5002000F005F802BD9A
:100420000029F8D016E770477047C0468446080098
:100430006146FFE71FB500F013FA002801D4002140
:10044000C8421FBD10B500F09FF94042013010BDF9
:1004500010B500F005FA002801DB002010BD0120D6
:1004600010BDC04610B500F0FBF9002801DD0020EA
:1004700010BD012010BDC04610B500F0ABF900283A
:1004800001DC002010BD012010BDC04610B500F0F9
:10049000A1F9002801DA002010BD012010BDC046DE
:1004A000002B15D1002A13D1002906DB01DC00281E
:1004B00006D00020C043410802E080210906002048
:1004C00007B4024801A14018029003BD5DFFFFFF81
:1004D00003B4684601B5029800F038F9019B9E46C6
:1004E00002B00CBC7047C046002B11D1002A0FD1BE
:1004F000002900D1002802D00021C943080007B418
:10050000024802A14018029003BDC0461DFFFFFF34
:1005100003B4684601B5029800F04CF8019B9E4672
:1005200002B00CBC7047C046F0B5CE469946030CED
:100530009C46130447461B0C1D000E006146040434
:10054000240C80B50700100C4B43654341436043C6
:100550002C0CC01820188C46834203D980235B02E0
:100560009846C444494679435643030C2D042D0C48
:100570008919634400044019C918C0BCB946B04683
:10058000F0BDC0469E2110B5C905041CFFF77EFFD3
:10059000002803D1201C00F095FC10BD9E21201CDA
:1005A000C90500F0EFFA00F08DFC80231B069C4685
:1005B0006044F2E7F0B557464E464546DE46E0B5A4
:1005C00004000D009246994683B08B4230D82DD05E
:1005D0004946504601F062FB29000600200001F068
:1005E0005DFB331A9846203B34D49B4653465A460B
:1005F000934042461F00534693401E00AF423BD8F3
:10060000AF4200D179E05B46A41BBD41002B00DA6C
:1006100076E0002200230092019301235A46934082
:100620000193012342469340009329E08242CFD9AF
:1006300000220023009201930C9B002B01D01C6030
:100640005D600098019903B0F0BCBB46B246A94674
:10065000A046F0BD42469B4620239B1A5246DA40F4
:10066000414613004A468A40170042461F435346FC
:1006700093401E00AF42C3D9002200230092019391
:100680004346002BD8D0FB0772081A4346467B0826
:100690000EE0AB4201D1A2420CD8A41A9D41012028
:1006A00024196D410021013E24184D41002E06D031
:1006B000AB42EED9013E24196D41002EF8D10098CD
:1006C00001995B4600196941002B24DB2B005A4637
:1006D0004446D3402A00E2401C005B461500002B34
:1006E0002ADB26009E40330026004746BE403200EB
:1006F000801A9941009001919EE7A342BCD882E7FD
:100700004246202300219B1A0022009101920122DF
:10071000DA40019285E7424620239B1A2A0046468A
:100720009A402300F340444613432A00E2401C0051
:100730005B461500002BD4DA42462F00202326000A
:1007400097409B1ADE403B003343CDE7F8B5CE46D9
:10075000474680B59146984604000D0001F0AAFA7C
:1007600007000E0002000B0048464146FFF7DCFE82
:10077000241A8D41089B380031001C605D60C0BCAC
:10078000B946B046F8BDC04670B5420045024E02BB
:100790004C00C30F6D0A0120120E760A240EC90FF9
:1007A000FF2A06D0FF2C03D0A24201D1B54206D0C9
:1007B00070BD002DFCD1FF2CFAD1002EF8D18B4258
:1007C00006D00120002AF3D12800431E9841EFE70C
:1007D0000020EDE770B5420045024E024C00C30F09
:1007E0006D0A120E760A240EC80FFF2A1BD0FF2CAA
:1007F0000ED0002A1BD1002C01D1002E1CD0002DC0
:100800000CD083421CD00221581E0840013870BD14
:10081000002E22D1002AF4D1002DF2D10028F6D1E9
:1008200001204042F3E7002D17D1FF2CF0D0002C1F
:10083000E7D1002EE5D1E6E70020002DE7D0E2E782
:10084000A24205DCEADBB54202D8E7D30020DEE7AE
:100850004342584140000138D9E702204042D6E7E0
:1008600070B5420045024E024C00C30F6D0A120ED5
:10087000760A240EC80FFF2A0BD0FF2C0DD0002AB9
:100880001FD1002C16D1002E14D10020002D10D025
:1008900009E0002D0CD1FF2C13D1002E08D1002A25
:1008A00008D0834212D00221581E0840013800E0CF
:1008B000022070BD002DF4D10028FAD10120404261
:1008C000F7E7002CEDD1002EEBD1ECE7A24205DCDE
:1008D000F2DBB54202D8EFD30020EAE743425841A9
:1008E00040000138E5E7C04643025B0AF0B54F46D9
:1008F00046469946D646C30F45009846C0B54B4676
:100900000F1C2D0E00D1CBE0FF2D00D1CFE08022B7
:10091000DB00D2041A430023914600269A467F3D0D
:100920007C027B00640A1B0EFF0F002B00D1A9E0A4
:10093000FF2B11D08022E400D204144342467F3BB7
:100940005B197A400020D2B25D1C0A2E13DD3A00FA
:100950000B2E47D047463FE02B00FF33002C1ED123
:1009600002221643424601357A40D2B2FF350A2EA2
:1009700000DDE4E00220022E1CDC013E012E42D804
:1009800002283DD0012866D100200021C00508437F
:10099000D2071043E0BCBA46B146A846F0BD0322D8
:1009A0001643424601357A40D2B2FF350A2E00DDA9
:1009B000E4E003200121B140A626F60031420AD12D
:1009C0009026B600314216D1B93EFF3E0E421AD0F3
:1009D000A146824600E0170053463A00022B0FD092
:1009E0004C4650460328CDD18021C90321434902FA
:1009F000FF20490ACAE780210022FF20C903C5E77A
:100A0000FF200021C2E7200C49462404240C2700C3
:100A10000E0C0904090C74434F4346434843390CF8
:100A2000001909188C4203D980204002844666448C
:100A30003F0408043F0CC0198401671EBC41090C27
:100A4000800E8919044389010C43090171D50123E2
:100A500061081C400C432B007F33002B51DD6107E4
:100A600004D00F212140042900D00434210103D5F2
:100A7000434B1C402B008033FE2BC1DCA101490AF3
:100A8000D8B283E7002C2CD1012342461E432B0011
:100A90007A400120D2B25D1C0A2E00DD57E76AE7DA
:100AA000002B10D10123042600259A4638E7002B9D
:100AB00004D102230826FF259A4631E703230C269A
:100AC000FF259A462CE7484601F0CAF84A46431FDC
:100AD00076259A4000236D42914600269A462D1AAB
:100AE0001EE7200001F0BCF84246431F9C402B1A31
:100AF000763B7A400020D2B25D1C0A2E00DD26E74C
:100B000039E70121CB1A1B2B00DD3DE79E35210083
:100B1000AC40D940631E9C4121434B0704D00F23B6
:100B20000B40042B00D004314B0104D501200021DF
:100B30002CE71D008FE789010020490A26E70223E0
:100B40000F2E0CD180214B46C9030B420DD00C4215
:100B50000BD1214349023A00FF20490A16E70B2E28
:100B600000D0F7E6A1469A4636E780214B46C903F6
:100B7000194349024246FF20490A07E70323DFE7FA
:100B8000FFFFFFF7F0B5C64643025B0A4500DA00F7
:100B9000C40F48024F009446420A1E00904600B51A
:100BA0002D0E3F0EC90F8009FF2F59D00122514051
:100BB0008C4239D0EA1B002A58DD002F68D0FF2D67
:100BC00000D1D1E08023DB0418431B2A00DCE3E0E2
:100BD00001236246D31A5A0100D4ACE09B019E095E
:100BE000300001F03DF8330005388340854200DCD9
:100BF000C6E0B24A2D1A13405A0704D00F221A40F9
:100C0000042A00D004335A0100D497E06A1CFE2D58
:100C100000D184E09B015E0AD2B2D0053043E407E4
:100C2000204380BCB846F0BDEA1B002A41DD002FFE
:100C30006BD0FF2D00D197E08023DB0418431B2AE3
:100C400000DCCCE0012363445A0174D50135FF2D4B
:100C500065D001229A491A405B080B401343CBE749
:100C600000281FD08C4222D02A00FF3A002A35D01B
:100C70007A1B002D00D099E06346002B00D1DDE007
:100C8000531E012A00D105E1FF2A6BD01A0094E01F
:100C9000002873D0511E012A00D1DFE0FF2A63D063
:100CA0000A0092E701225140A14200D082E72A00C7
:100CB000FF3A002A36D07A1B002D00D1AAE0FF2F80
:100CC00000D1DAE080236146DB0419438C461B2AFD
:100CD00000DCD4E001233D001B18B5E7FE276A1CA9
:100CE000174271D1002D00D09EE06346002B00D149
:100CF000D5E00022002800D18FE71B1A5E0100D446
:100D0000D6E063460C00C31A76E7002836D0511EA1
:100D1000012A00D19AE0FF2A26D00A008FE7FF229D
:100D200000267AE7FE276A1C174262D0FF2AF6D017
:100D30001500604443085A0700D05FE7DB08FF2D29
:100D400012D05B025E0AEAB267E76246002A00D16F
:100D500093E0002808D08022D203134204D04046FA
:100D6000104201D10C004346002BD8D08026F60358
:100D70001E437602FF22760A4FE743461500DEE760
:100D80002022401B0130121A19009340C1405A1E04
:100D9000934100250B432FE720239B1A0100984025
:100DA0000300D1405A1E93410B4312E7FF2FD9D0C5
:100DB00080236446DB041C43A4461B2A52DD012326
:100DC0000C003D00C31A06E763461E1A730139D4AE
:100DD000002E00D004E70024002200261DE7202377
:100DE0009B1A010098400300D1405A1E93410B43C7
:100DF00029E7002DA9D16346002B56D000220028F8
:100E000000D10AE7030063445A0194D52B4A013507
:100E1000134090E76346002BAFD0531E012A15D034
:100E2000FF2A2AD01A0052E76246002A91D10028F0
:100E300098D180260024FF22F603EEE60C004346FC
:100E400015007CE763460C00C61AC9E6030063443C
:100E500001255A0100D46EE70225FAE66346012512
:100E60001B1AB8E664462023D4409B1A62469A4077
:100E700013005A1E93412343A2E7434674E7614699
:100E80002023D1409B1A62469A4013005A1E934178
:100E90000B4320E763460C000125C31A9BE600289C
:100EA00099D00C0046460022B7E646460022B4E63A
:100EB000002B00D03FE700240026AEE6FFFFFFFB3B
:100EC000FFFFFF7D41024200C30F490A0020120EBE
:100ED0007E2A03DD9D2A02DD094A9818704780208A
:100EE00000040143952A07DC9620821AD14048422B
:100EF000002BF3D10800F1E7963A9140F7E7C0469E
:100F0000FFFFFF7F70B5002813D0C317C5185D40E1
:100F1000C40F280000F0A4FE9E2301001B1A962B8C
:100F20000FDC082831D008398D406D026D0AD8B227
:100F300002E0002400200025C0052843E4072043E8
:100F400070BD992B0CDD0522121A2800D04002003A
:100F500008001B3085402800451EA84102431500AB
:100F6000052916DC2A000F4802406E0709D00F261B
:100F70003540042D05D00432550102D59F2302408F
:100F80005B1A9201550AD8B2D6E76D0296206D0A17
:100F9000D2E74A1F95402A00024802406E07F0D06F
:100FA000E5E7C046FFFFFFFBF0B557464E46454616
:100FB000DE46E0B50C031F004B008146924605005B
:100FC00085B0240B5B0DCE0F002B00D152E1D24A2D
:100FD000934200D16EE1420FE400144380221204D8
:100FE00022439046CD4AC50093469B440023994630
:100FF00000933C037B005046240B5B0DFF0F002B3E
:1010000000D11AE1C44A934200D15EE1420FE400EC
:101010002243802424041443C04AC10094465A4603
:101020006344D31A9B46002033007B409A464B46CC
:101030000F2B27D8BA4A9B00D3589F46B246009B35
:10104000022B16D0032B00D187E2012B00D0D5E074
:101050000023002200251B0513435246D2071343E9
:101060002800190005B0F0BCBB46B246A946A04610
:10107000F0BD00220025A84BEDE7BA46A0460D00C2
:101080000090DCE7444500D2C4E100D1BFE1012378
:101090005B429C462E0040460025E34423020C0E92
:1010A0001C431B0C994623040A021F0C494600925C
:1010B0000197FFF7CBF802007A430B04310C80460E
:1010C00019438A4207D901235B429C460919E0442F
:1010D0008C4200D801E2881A4946FFF7B7F8019A16
:1010E000360442430904360C03000E43B24204D9CD
:1010F0003619013BB44200D8E9E1B01A4246009EDD
:1011000012041A43330C1F00110C9046029313046F
:101110003204160C32001B0C5A4303967B434E4399
:101120007943170CBC469B1963449E4203D9802621
:101130007602B44661441E0C711816041B04360C6A
:101140009E19884202D312D1B54210D243465A1E8C
:10115000009B9C4665441F009D429B415B421B19BE
:10116000C018844200D29EE100D199E19046AE1BA6
:10117000B542AD41401A6D42401B844200D1D2E1DC
:101180004946FFF763F8019A0B044243310C05000E
:1011900019438A4200D96CE1881A4946FFF756F88C
:1011A000019A360442430904360C03000E43B2424E
:1011B00000D953E10398B61A02002D041D43029F83
:1011C0002B041B0C5A437B439C46290C4843130CAD
:1011D000844463447943984203D980204002844682
:1011E0006144180C12041B04120C40189B18864210
:1011F00000D200E100D1FBE001231D43494B5B44D9
:10120000002B00DCAAE06A0700D03DE1E908424675
:10121000D20106D54246444B1A4080239046DB005B
:101220005B44424A934200DD23E742465B05550793
:1012300052020D43120B5B0D0DE75146214300D1C5
:101240007CE0002C00D1FBE0200000F009FD020052
:101250000B3A1D239B1A52460100DA4053460839C7
:101260008B408C4019001443314B58449B468344B7
:101270000020D9E603002343984644D0002C00D137
:10128000CFE0200000F0ECFC010002000B391D2330
:101290005B1A49461000D940083884400B004D467F
:1012A000234398468540234B9B1A9B46002399462F
:1012B00000939EE60200224390461DD108229B46E1
:1012C000022300259146009393E65146214309D11C
:1012D00002234A461A43184B91469C46002402209A
:1012E000E344A1E603234A461A43134B91469C4626
:1012F00051460320E34497E60C229B460323A04675
:101300009146009375E60423994600239B460133DA
:10131000002500936DE6C046FF07000001FCFFFFBB
:1013200090670108FF030000FFFFFFFEFE070000BB
:10133000F30300000DFCFFFF01F8FFFF4A46012305
:101340001A439146002401206EE6002380229A462B
:101350000025884B12037EE601256D420122D21A38
:10136000382A00DD74E61F2A00DCBDE01F21494257
:10137000CB1A4146D9400B00202A04D041467E4A70
:101380005A4491400D4329004A1E914119430723B5
:101390001D0000220D400B4200D1D0E00F2200239F
:1013A0000A40042A00D1C7E00A1D8A428941494205
:1013B0005B1811001A0200D4BEE0012300220025B0
:1013C00049E6802243461203134208D0144206D154
:1013D00022431203BA460D00664B120B3BE68022F5
:1013E000434612031A431203B246624B120B32E613
:1013F000002B00D102E7A6196A1EA64200D289E09E
:10140000864200D29FE000D1AFE01500F4E6A94289
:1014100000D93CE64346DE0758086B081E43ED073B
:101420003CE600F01DFC01000200153120321C29B1
:1014300000DC2CE74B46083883400025984632E70D
:1014400000F00EFC03001A00153220301C2A00DCCC
:10145000FFE65446083B00219C4005E73619013B56
:10146000B44200D9A6E6B24200D8A3E6831E3619DC
:10147000A0E60919013D8C4200D98DE68A4200D8C8
:101480008AE6851E091987E60F222A40042A00D120
:10149000BCE6291DA942AD416D42C908A844B6E683
:1014A000AF4200D962E6814204D800D05EE6AE4287
:1014B00000D85BE602235B429C46009BE0449C46CE
:1014C00065449D429B415B421B19C0184FE6B242E6
:1014D00000D812E6831E36190FE68A4200D8FAE5D4
:1014E000831E98460919F6E5244B28005B444146C3
:1014F0009D409940D0406B1E9D4143460143294386
:10150000D3404A0700D155E70F220A40042A00D0F1
:101510004AE74FE71500864200D06DE6009A9A42EE
:1015200000D069E66AE6164B5B44002B00DC13E74B
:1015300001250021A8446AE65D075B021A0BC90871
:1015400000230D4387E50099023D4A008A42BF41CE
:101550007F423F19F6190092DDE7802243461203CD
:101560001A431203034B120B75E500999942EAD313
:101570001500D3E7FF0700003E0400001E04000032
:10158000FF030000F0B54546DE4657464E46E0B53F
:101590001F000B031B0B9B464D00CB0F0400914615
:1015A000984687B06D0D00D1CDE1CE4B9D4200D164
:1015B000E9E15A46430FD2001343802212041A4332
:1015C000C3009A46C84B93469C46002300266544B8
:1015D00000933C037B004846240B5B0DFF0F002B60
:1015E00000D189E1BF4A934219D0420FE40022435F
:1015F000802424041443BC4A002194464246634498
:101600005B190193019B7A400133C000D2B202936F
:101610000A2E1CDD3A000B2E5ED0474656E04946A6
:10162000B04B2143EB18019300292AD180200222DC
:1016300000012B0084461643424663447A40D2B2EE
:1016400002930A2E00DD31E2002000240221022E46
:1016500026DC013E012E52D802294CD0012900D0AF
:1016600018E10023002400251B052343D207134360
:101670002800190007B0F0BCBB46B246A946A046F8
:10168000F0BD8021032209012B008C4616434246FF
:1016900063447A40D2B202930A2E00DD28E203218D
:1016A0000125B540AC46A6266346F60035403342D8
:1016B0000BD19026B600334218D1B93EFF3E1E42F0
:1016C0001DD0A3468246009100E0170000993A0021
:1016D000022910D05C4650460329BFD180231B034A
:1016E0001C43240305007F4B240BBDE7802400220C
:1016F0007C4B2403B8E7002400257A4BB4E753461B
:101700001E04360C1F0C3300010C0004000C434374
:10171000984603007B43994633004B439C4643461F
:101720000D001B0C9A467D43CC44D4440095E14502
:1017300004D980235B0299464D44009563461B0CF7
:101740001D0063461B049C4643461B041B0C984625
:10175000634643440393230C984633002404240C2B
:1017600063439C4623007B43994643465E435F4365
:101770004E446346B2461E0C5644B14503D98023FD
:101780005B0299464F44330C99463B004B4405930A
:101790006346AC461F043F0C3604F619B444634656
:1017A00004935B461B0C9C465B461F043F0C3B00AE
:1017B00043439946634643439A464B4660461B0C57
:1017C0009B4648437943514459448A4503D9802371
:1017D0005B029A4650440B0C9A464B461B041B0C6A
:1017E00099463B006343090445464944994663468C
:1017F0005C436B439C464B461B0C98466F433F191A
:1018000047445044BC4203D980235B029846C444F9
:10181000049B009D98464544B542B64173429846A4
:101820004B461E04059B3C049946360CA4194C44B7
:10183000A14683466E18C1448E428941CB445D4621
:1018400049426D189C42A441C1459B41834580415A
:101850008D4289415B4264421C434042039B4942A2
:10186000014370023F0C1843E419471EB841641845
:101870006444F60D61023043EC0D6E020C433043BC
:10188000C90100D4F1E00121430801400B43E00706
:10189000184364081549029B8C466344002B00DC06
:1018A00097E0410709D00F210140042905D0011D0F
:1018B00081428041404224180800E10106D5802180
:1018C000C9008C460A4B1C40029B634409498B4269
:1018D00000DD10E76107C50864025B050D43240BBA
:1018E0005B0DC1E6FF07000001FCFFFFFF030000E6
:1018F000FFFFFFFEFE0700004B46234359D0002C9C
:1019000000D1A3E0200000F0ABF9010003000B3987
:101910001D22521A49461800D1404A4608388240D2
:10192000844010000C43744AEB1A944642466344C8
:101930000193019B7A4001330021D2B202930A2E17
:1019400000DD67E683E65B4603439A462AD05B46A2
:10195000002B6DD0584600F083F9010003000B39CD
:101960001D22521A210018005D46D14008388540DA
:101970000A0084402A439346A2465F4D0026ED1A92
:101980000023009325E65B4603439A4605D10023D6
:101990009B460233082600931BE6032382460C264F
:1019A000009316E600239B4601330426002500938E
:1019B0000FE64246013301951E43019B7A400133F5
:1019C000002400200121D2B202930A2E00DD21E67C
:1019D0003DE60121C91A382900DD42E61F2947DD0D
:1019E0001F2625007642F31ADD402B00202905D062
:1019F0004249029D8C466544AC402043411E8841CB
:101A0000184307231D000024054003424AD00F233A
:101A100000240340042B42D0031D834280414042F6
:101A20002418180023023AD50123002400251BE6C0
:101A300000F016F901000300153120331C298FDD59
:101A40000838002284409246A34696E700F008F941
:101A500001000300153120331C2900DC58E7020087
:101A60004C46083A002094405DE7019B029311E741
:101A7000234B26009C460300029DCB406544AE40AC
:101A80001E430300AB40581E834130001843CC4036
:101A90004307C7D00F230340042BBDD1C2E765071E
:101AA0006402240BC00800230543DDE50025022362
:101AB0000F2E0CD180245B46240323420ED02142FA
:101AC0000CD10C4324033A000E4B240BCCE50B2E17
:101AD00000D0A2E58B46AA460093F7E580245B463A
:101AE00024031C43240342465546064B240BBBE506
:101AF0004D4621000323DBE70DFCFFFF3E04000001
:101B00001E040000FF07000010B5041E10D000F0F6
:101B1000A7F80F4B1B1A0A2811DC0B222100121AFE
:101B2000D14015300A035B058440120B5B0D01E0C8
:101B3000002300221B0513432000190010BD2200C2
:101B40000B3882405B0512030024120B5B0DF1E79A
:101B50001E0400000200F0B54B000D03400F5B0DAA
:101B6000CC0F6D0A3A490543581CD70008420AD0E9
:101B700038495918FE2916DDFF200022C005104300
:101B8000E4072043F0BD002B06D13D4326D00522BB
:101B90009201520AD8B2F1E72F43EDD08022D2034E
:101BA000FF202A43EAE700291BDD9201501E8241F3
:101BB000ED007F0F2A433A43530747D00F231340CA
:101BC000042B00D004328023DB0413403ED0481C99
:101BD000FE29D1D09201520AC0B2CFE700200022E4
:101BE000CCE70A0017322FDB802636042E431E2551
:101BF0006D1A1F2D11DD02225242521A3100D140BE
:101C0000202D04D0144A944663449E4037433A0042
:101C1000531E9A410A430021CEE7104A38009446E9
:101C2000634498403A00411E88419E40EA40304358
:101C3000024300215307C1D180211300C9040120B0
:101C40000B400A42C6D1A3E70023A0E70B009FE7A1
:101C5000FE07000080FCFFFFA2FCFFFF82FCFFFFED
:101C60001C2101231B04984201D3000C10391B0ACC
:101C7000984201D3000A08391B09984201D3000990
:101C8000043902A2105C40187047C04604030202E7
:101C900001010101000000000000000010B5002952
:101CA00003D1FFF7DDFF203002E00800FFF7D8FF87
:101CB00010BDC046F0B557464E464546DE46E0B537
:101CC0000F001900002306009846100083B0002F73
:101CD00007DA33003C0000275E42A74101235B4244
:101CE0009846002907DA4346DB430C009846030078
:101CF00000215842A14134003D0082468946B94244
:101D000069D866D049465046FFF7C8FF8346390078
:101D10003000FFF7C3FF5B461B1A9C46203B6BD489
:101D2000514699409B4660460B00514681400A004F
:101D3000BB4200D973E0BB4200D17AE034003D00E1
:101D40005946A41A9D41002900DA75E000210020BF
:101D500001260090019159468E4001966146012668
:101D60008E4061460096002960D0D90756080E4380
:101D70005F086146012200230CE0AF4201D1A64278
:101D80000AD8A41BBD4124196D410139A4185D4135
:101D9000002906D0AF42F0D9013924196D4100293C
:101DA000F8D1009801995B4600196941002B4EDB80
:101DB0002E002C00DE406346DC405B46002B56DBE9
:101DC00034009C4023006446A6403200801A9941AA
:101DD00003E0B04296D9002000214346002B04D0F6
:101DE00003000C0000215842A14103B0F0BCBB46E7
:101DF000B246A946A046F0BD624648469B4620230F
:101E0000514690409B1AD9400300009100996046CA
:101E10000B43514681400A00BB4200D88BE70021AA
:101E2000002000900191614600299ED100980199FF
:101E3000D3E7B142F3D881E7614620260127761A1D
:101E400000200021F74000900191019786E762464B
:101E500020239B1A2A009A40260013006246D6408F
:101E60002C001E436346DC405B46002BA8DA62462A
:101E70002023350094409B1ADD4023002B43A2E72A
:101E800080B588B000AFF860B9607A603B601F230E
:101E9000FB1800221A707B6800221A603B6800223F
:101EA0001A60FB6A00221A60FB6A1A68BB6A1A6031
:101EB0000023BB6147E0BB699B00FA68D3181B682D
:101EC0007B617A69BB689A423ADB3B68BA691A60FF
:101ED000BB699B00FA68D3181A68FB6A1A60BB6971
:101EE000002B12D0BB695A1E7B681A60BB692E4A50
:101EF000944663449B00FA68D3181A68BB6A1A6058
:101F00001F23FB1801221A7021E0BB695A1C3B6891
:101F10001A60BB6901339B00FA68D3181A68FB6A20
:101F20001A607B68BA691A60BB699B00FA68D318AB
:101F30001A68BB6A1A601F23FB1801221A7006E098
:101F4000BB690133BB61BA693B6B9A42B3DBBB6AC5
:101F50001B68002B20D1FB6A1B68002B1CD13B6B3C
:101F60005A1E3B681A603B681B689B00FA68D318CE
:101F70001A68FB6A1A603B681B685A1E7B681A6005
:101F80007B681B689B00FA68D3181A68BB6A1A60E2
:101F90001F23FB1801221A701F23FB181B7818003F
:101FA000BD4608B080BDC046FFFFFF3F80B584B08E
:101FB00000AFF860B9607A603B607A68BB689A42AB
:101FC00007D13A68BB69D318002B00DA01335B10E4
:101FD0001DE0FA68BB689A4201DA3B6817E0FA68CC
:101FE0007B689A4201DDBB6911E0FA68BB68D31ACD
:101FF000B9693A688A1A5A4310007A68BB68D31ADA
:102000001900FEF727F903001A003B68D3181800DF
:10201000BD4604B080BD0000B0B588B004AF02007A
:10202000FB1D1A70BB1D0A1C1A700C217B18BA1DEF
:1020300012781A70104B1868FB1D1B789AB20F2586
:102040007C190A230293012301937B180093012337
:10205000442104F0D5FA030023707B191B78002B70
:1020600005D0064B064A07481A2111F097FCC046D6
:10207000BD4604B0B0BDC04600000020E0630108CA
:10208000D0670108E4630108B0B588B004AF02006E
:10209000FB1D1A70124B1868FB1D1B789AB20F2596
:1020A0007C190A230293012301930C23FB1800934C
:1020B0000123442104F0A4FA030023707B191B7848
:1020C000002B05D0074B084A0848242111F066FC74
:1020D0000C23FB181B781800BD4604B0B0BDC046E9
:1020E00000000020E0630108E0670108E4630108E4
:1020F00080B500AF79216520FFF78EFF8221312066
:10210000FFF78AFF0A2003F0ADFAC046BD4680BD46
:10211000F0B585B000AF0200FB1D1A70FB1D1B78E7
:1021200019006B20FFF778FF01216C20FFF774FF87
:10213000192003F097FA0F257C196720FFF7A4FFF9
:10214000030023700E26BC196820FFF79DFF0300D3
:102150002370064B7A1912781A70044BBA19127848
:102160005A70024B1800BD4605B0F0BD18030020A0
:1021700080B584B000AF0200FB1D1A70FB1D1B78F8
:102180001800FFF7C5FF0300FB60FB6801331B78F5
:102190009BB21B029AB2FB681B789BB2D3189BB20E
:1021A0001800BD4604B080BD80B586B000AF020007
:1021B000FB1D1A70BB1D0A1C1A70FB1D1B78180032
:1021C000FFF7A6FF03007B61BB1D1B781800FFF71C
:1021D0009FFF03003B613B695A780C217B181A7002
:1021E0003B691A787B185A707B695A787B189A7009
:1021F0007B691A787B18DA703B695A7808203B189B
:102200001A703B691A783B185A707B185A783B1839
:102210009A707B181A783B18DA70BB68181CBD4698
:1022200006B080BD80B500AF01210020FFF7BCFFE4
:10223000021C334B9A6203210220FFF7B5FF021CF8
:102240002F4BDA6205210420FFF7AEFF021C2C4B56
:102250001A6307210620FFF7A7FF021C284B5A63C9
:1022600009210820FFF7A0FF021C254B9A630B21D0
:102270000A20FFF799FF021C214BDA630D210C2085
:10228000FFF792FF021C1E4B1A640F210E20FFF76E
:102290008BFF021C1A4B5A6411211020FFF784FF98
:1022A000021C174B9A6413211220FFF77DFF021CBA
:1022B000134BDA6415211420FFF776FF021C104B34
:1022C0001A6517211620FFF76FFF021C0C4B5A6589
:1022D00019211820FFF768FF021C094B9A652A2074
:1022E000FFF746FF03001A00054B5A842B20FFF727
:1022F0003FFF03001A00024B9A84C046BD4680BDD2
:10230000BC02002080B500AF00210D20FFF784FE45
:1023100005210E20FFF780FE45210F20FFF77CFEF0
:1023200005210B20FFF778FE03210920FFF774FE3B
:10233000FFF7DEFEFFF776FFC046BD4680BD80B5E5
:1023400082B000AF3A60BB1D021C1A803B1D0A1C04
:102350001A803B6800221A80C046BD4602B080BD8C
:1023600080B582B000AF7860C046BD4602B080BD87
:1023700080B584B000AFF8607A600B23FB180A1CAC
:102380001A707B6801221A70C046BD4604B080BD39
:1023900080B584B000AF0200FB1D1A700823FB1843
:1023A000180008231A00002112F015F9FB1D1B78F4
:1023B000002B02D0012B05D009E00823FB180122D5
:1023C0001A6004E00823FB18104A1A60C046104B3C
:1023D0001B689A6A0E4B1B68D20CD2049A620C4B93
:1023E0001B68996A08203B181B685B035A0B084B53
:1023F0001B680A439A623A18054B1100180003F053
:10240000C5FBC046BD4604B080BDC0460200000406
:102410002003002080B500AF044B012201211800E9
:1024200004F03BF8C046BD4680BDC04600040050E5
:1024300080B582B000AF3A60BB1D021C1A803B1D04
:102440000A1C1A803B6800221A80C046BD4602B0B2
:1024500080BD000080B582B000AF78600020FFF73B
:1024600097FF0A4B180003F095FA084B012118005A
:1024700003F0E4FA054B180003F07CFB03009AB26A
:102480007B681A80C046BD4602B080BD2003002094
:1024900080B586B000AFF8607A600B203B180A1C4C
:1024A0001A703B181B78022B20D022DC002B1FD087
:1024B000012B1ED10120FFF76BFF114B180003F019
:1024C00069FA0F4B0121180003F0B8FA0C4B180001
:1024D00003F050FB03007B617B699BB2180000F0A6
:1024E000E7FC03001A00FB681A8002E0C04600E027
:1024F000C0467B6801221A70C046BD4606B080BD4A
:102500002003002080B586B002AF00F0AFF914239D
:10251000BB6000233B600023FB601CE03B00180015
:1025200000F07AFB3B681049181CFEF7DDF9031C2C
:10253000181CFEF727F803007B600C4A0C497B68E7
:102540000193FB68009313003022012001F0F4FE98
:10255000FB680133FB60FA68BB689A42DEDBC04669
:10256000C046BD4604B080BD0000C842F067010807
:102570000468010890B585B000AF0200FB1D1A7019
:1025800008243B19180008231A00002112F023F830
:1025900020003B180F4A1A600F4B1B689A6A0E4BBB
:1025A0001B68D20CD2049A620B4B1B68996A3B18C9
:1025B0001B685B035A0B084B1B680A439A623A1864
:1025C000054B1100180003F0E1FAC046BD4605B006
:1025D00090BDC046100000102003002080B582B0DE
:1025E00000AF78600020FFF7C5FF0A4B180003F02A
:1025F000D1F9084B0121180003F020FA054B18000F
:1026000003F0B8FA03009AB27B681A80C046BD4650
:1026100002B080BD20030020B0B58CB002AFF860DE
:102620007A600B23FB180A1C1A7001F05BFF272548
:102630007C194E4B180000F0EFFA030023707B1951
:102640001B78012B05D17B6800221A7001F038FF3E
:1026500088E02723FB181B78022B18D1434B1B68FB
:102660004349181CFEF740F9031C24257C19181C4B
:10267000FDF788FF030023807B191B883D4A3E49F4
:10268000009313005F22012001F056FE0AE0272389
:10269000FB181B78394A3849009313006322012044
:1026A00001F04AFE314B1B680021181CFDF7D0FEDB
:1026B000031E03D02D4B00221A603CE0304B1B78E8
:1026C000002B06D02E4B00221A70284B1A682D4B77
:1026D0001A60264B1B682649181CFEF705F9031CD7
:1026E000181CFEF7EFFB03003B62264B1B682049DA
:1026F000181CFEF7F9F8031C181CFEF7E3FB030097
:10270000FB613A6AFB69D31ADA179B185340BB6125
:10271000BB691D4A93420ADD1C4B174977220120F1
:1027200001F00AFE174B1A68104B1A6003E00F4BBA
:102730001A68144B1A600D4B1B680D49181CFEF7E4
:10274000D3F8031C16257C19181CFDF71BFF03008A
:102750002380FB687A1912881A8001F0B1FE7B6829
:1027600001221A70BD460AB0B0BDC0460400002068
:102770000000C84224680108046801084068010894
:10278000080000201C030020DC050000546801083C
:1027900080B500AF02F066FEC046BD4680BDC046B3
:1027A00000B583B0019010F02BF90023054A1268A0
:1027B00011684B624A6A019B9A42FBD310F032F9CE
:1027C00003B000BD0C00002010B5FFF7E9FF10BDFD
:1027D00070B501250A4C0B4A61690B4B29436161B5
:1027E0001868118803F03CFE012804D000206369BA
:1027F000AB43636170BD636983436361FAE7C046BD
:10280000000400501400002010000020002809D00F
:10281000012806D1074A084B12681B8851690B43EF
:1028200053617047034A044B1268198853698B43FC
:102830005361F6E71000002014000020002809D0A2
:10284000012806D18023074ADB00126811680B4378
:1028500013607047034B04491A6813680B401360F8
:10286000F7E7C04610000020FFF3FFFF80B500AF80
:10287000FFF78EFF0120FFF7C9FF0120FFF7DEFF02
:102880000020FFF7DBFFC046BD4680BD80B582B0AB
:1028900000AF00237B600120FFF7D0FF0020FFF78F
:1028A000B5FFFA235B001800FFF78EFF0020FFF74B
:1028B000C5FF0120FFF788FF09E07B6801337B60DB
:1028C0007A68FA239B009A4201D900230AE0FFF7B5
:1028D0007FFF0300012BF0D0C046FFF779FF031EF6
:1028E000FBD001231800BD4602B080BD80B584B086
:1028F00000AF0200FB1D1A700023FB602BE00120DB
:10290000FFF79CFF0020FFF781FF0720FFF75CFF28
:10291000FB1D1B780122134003D00120FFF776FF37
:1029200002E00020FFF772FF3220FFF74DFF00208A
:10293000FFF784FFFB1DFA1D127852081A70C0467B
:10294000C046C046C046C046C046C046C046C04657
:10295000FB680133FB60FB68072BD0D9C046C0463B
:10296000BD4604B080BDC04690B585B000AF0F2312
:10297000FB1800221A70FB1D00221A700823BB608E
:1029800024E00020FFF742FF0120FFF757FFC04679
:10299000C046C0460020FFF751FFFC1DFFF718FF9F
:1029A000030023700F217B181B785B08DBB25AB23F
:1029B000FB1D1B78DB015BB213435AB27B181A7004
:1029C0003020FFF701FFBB68013BBB60BB68002BF9
:1029D000D7D10F23FB181B781800BD4605B090BD5A
:1029E00080B584B000AF0200FB1D1A70BB1D0A1C2D
:1029F0001A70FB1DF91DBA1D097812784A401A7029
:102A00000F23FB1800221A7019E0FB1D1B7801220E
:102A1000134009D0FB1D1B785B08DAB2FB1D742143
:102A200049424A401A7004E0FB1DFA1D1278520810
:102A30001A700F22BB18BA18127801321A700F23BD
:102A4000FB181B78072BE0D9FB1D1B781800BD462F
:102A500004B080BDB0B588B000AF78601F23FB180C
:102A600000221A70FFF712FF031E5AD0C820FFF78A
:102A7000ABFECC20FFF73AFFC820FFF7A5FEBE2033
:102A8000FFF734FFC820FFF79FFE0023BB611DE066
:102A9000FFF76AFF030019000C243A19BB69D31829
:102AA0000A1C1A70C820FFF78FFE3A19BB69D318A9
:102AB0001A781F23FC18FB181B7811001800FFF769
:102AC0008FFF03002370BB690133BB61BB69072B18
:102AD000DEDD0C217B185B789BB21B029AB27B185F
:102AE0001B789BB2D3189AB27B681A80C820FFF774
:102AF0006BFE17257C19FFF737FF030023707A1947
:102B00001F23FB1812781B789A4208D0074BAE227D
:102B1000FF320749012001F00FFC032302E00023EC
:102B200000E001231800BD4608B0B0BD7C68010874
:102B30000468010880B500AFFFF7A8FE031E0DD0A2
:102B40003220FFF741FECC20FFF7D0FE3220FFF706
:102B50003BFE4420FFF7CAFE002300E001231800DB
:102B6000BD4680BD80B584B000AF78600F217B1872
:102B700000221A707A6880231B029A420CD37B18B9
:102B800001221A707B68DB437B607B685B045B0C13
:102B90007B607B6801337B600F23FB181B78002B65
:102BA00017D07868FEF7B0FF0022184BFEF7EAFC5A
:102BB00002000B00100019000022154BFEF7F4F97B
:102BC00002000B0010001900FEF7C4FF031CBB60DD
:102BD00016E07868FEF798FF00220E4BFEF7D2FC55
:102BE00002000B00100019000022094BFEF7DCF96F
:102BF00002000B0010001900FEF7ACFF031CBB60C5
:102C0000BB68181CBD4604B080BDC04600401FC054
:102C100000408F4000401F40F0B587B002AF7860A1
:102C20000C23FB1800221A800F23FB1800221A70B5
:102C30007B68334A1A60334B1B78022B02D1314B2D
:102C400000221A702F4B1B78002B02D0012B0ED0C4
:102C50003CE00FF0D5FE0F23FC18FFF76BFF0300DD
:102C600023700FF0DFFE274B01221A7032E00FF0C5
:102C7000C7FE0F257C190C26BB191800FFF7EAFECA
:102C8000030023700FF0CEFE2C003B191B78002BA5
:102C900018D1BB191B881800FFF764FF021C7B6862
:102CA0001A60184B02221A700FF0AAFE3C19FFF7A7
:102CB00041FF030023700FF0B5FE124B01221A7082
:102CC000022319E00F4B03221A7003E00D4B002280
:102CD0001A70C0460F22BB181B78002B0AD0BB18F5
:102CE0001B78094A09480A49009313000200012091
:102CF00001F022FB034B1B781800BD4605B0F0BD68
:102D00000000C8C21A030020906801080E020000EB
:102D100004680108F0B599B004AF3A60BB1D021C0D
:102D20001A803B1D0A1C1A803B1D1B88FB64BB1DBF
:102D30001B88BB643B1D1B8864211800FDF700FA4B
:102D400003009BB27B647B6C3B647B6C0133FB6355
:102D50003B6C002B08DB3B6C332B05DCFB6B002B47
:102D600002DBFB6B332B03DD3B6800221A8099E00A
:102D70000023BB6200237B6200233B620023FB61D4
:102D80000023BB6100237B6100233B610023FB60C8
:102D90003A6C1300DB009B185B009B181B01434A35
:102DA00098183B26BC192023FD182823FA18B96C63
:102DB0004C2302931C23FB1801932423FB1800933C
:102DC0002B00FFF75DF803002370FA6B1300DB00A4
:102DD0009B185B009B181B01344A98183A23FC1877
:102DE0001022BD181822BA18B96C4C2302930C2378
:102DF000FB1801931423FB1800932B00FFF740F8F6
:102E000003002370BB191B7801225340DBB2002B57
:102E100007D13A23FB181B7801225340DBB2002B69
:102E200003D03B6800221A803CE0BB6A6422534313
:102E3000BB623B6A642253433B62BB6964225343D7
:102E4000BB613B69642253433B613B6C6422534347
:102E50003B64FB6B64225343FB63796AFA69BC6A87
:102E60003B6AB86C00932300FFF7A0F803007B6374
:102E70007969FA68BC693B69B86C00932300FFF775
:102E800095F803003B637C6BFA6B396CF86C3B6B19
:102E900000932300FFF78AF80300FB62FB6A9AB2F3
:102EA0003B681A80BD4615B0F0BDC046A068010859
:102EB000B0B592B004AF0200BB1D1A80FA239B0389
:102EC0003B63304BFB62BB1D1B881900386BFDF761
:102ED000C1F903002C4A94466344BB62BB6A002BD1
:102EE00002DC00239BB248E0B96AF86AFDF7B2F948
:102EF00003007B620023BB6100237B6100233B61F5
:102F00000023FB6000233B620C23FC181023FA18FB
:102F1000796A1E487E2302931423FB180193182319
:102F2000FB1800932300FEF7ABFF3A69184B9200A1
:102F3000D358FB61FA68164B9200D3583B627B6A08
:102F400064225A431000BB6964225A4311007B6912
:102F500064225A43FB6964245C433B6A64256B43E7
:102F600000932300FFF722F803007B637B6B002BA9
:102F700001DA00237B637B6B9BB21800BD460EB069
:102F8000B0BDC0468096980018FCFFFF30A5010830
:102F900028A7010880B582B000AF3B0018000823C5
:102FA0001A00002111F017FB3B4B3C4A1A603A4BC8
:102FB0000122DA63384B04221A64374B40225A64E8
:102FC000354B00229A64344B8022D2025A60324B35
:102FD00000229A60304B07229A632F4B01221A611C
:102FE0002D4B0022DA602C4B2022002199542A4BD1
:102FF000212200219954284B00229A62264BC2229A
:10300000FF325A62244B2C2200219954224B042275
:103010005A61214B00221A631F4B00229A611E4BFA
:1030200000225A631C4B0022DA611B4B180002F08D
:103030003DFB031E01D001F013FB3B0001221A608F
:103040003B00802252015A603A00134B11001800D5
:1030500002F09CFD031E01D001F002FB3B00104A70
:103060001A603A000C4B1100180002F08FFD031E8D
:1030700001D001F0F5FA3B000A4A1A603A00064B0B
:103080001100180002F082FD031E01D001F0E8FAE1
:10309000C046BD4602B080BD200300200024014090
:1030A000020000041000001090B589B000AF7860F5
:1030B0000C243B19180014231A00002111F08BFA7C
:1030C0007B681B68144A934222D1144B5A6B134BF2
:1030D000802189000A435A63104BDA6A0F4B0121A1
:1030E0000A43DA620D4BDB6A01221340BB60BB6806
:1030F0003B1913221A603B1903225A603B19002224
:103100009A603A19A023DB051100180003F02AF891
:10311000C046BD4609B090BD0024014000100240E9
:1031200090B587B002AF78600F217B187A6812786B
:103130001A707B181B78082B08DC022B6BDB082B22
:1031400069D89A00384BD3181B689F46552B64D01A
:1031500061E0032000F0D2F8002000F0B5FF5FE04E
:10316000324B33495122012001F0E6F8022000F0F1
:10317000C5F855E07B689A782E4B1A702D4B1B785A
:103180001A002D4B2A4900925922012001F0D4F84F
:1031900046E07B689A78294B1A70284B1B781A00F6
:1031A000274B234900925F22012001F0C5F8234BF1
:1031B0001B78002B04D0234B1B6801221A712FE0CF
:1031C000204B1B6800221A711F4B01221A701F4BE3
:1031D00000221A7024E00E243B197A6892781A7043
:1031E0003B191B78642B1AD83B191B78002B16D07F
:1031F0003B191B78164A0E490093130072220120D6
:1032000001F09AF801F06EF9124B3A1912781A701F
:1032100001F056F903E0C04602E0C04600E0C046B7
:10322000C046BD4605B090BD20A901080464010850
:10323000206401089C0300203C6401089B030020DB
:103240005C64010858000020160000209A0300204A
:103250007464010854000020B0B584B000AF7860F9
:10326000154B00221A707B6819787B689A1C7B6862
:103270005B780F257C19114801F048FC030023708E
:103280007B191B789AB20E257C190C4B1100180083
:103290000FF0D0FE030023707B191B78002B03D1A5
:1032A000074B01221A7002E0054B01221A70C0463A
:1032B000BD4604B0B0BDC0469A0300207C03002088
:1032C0001600002080B582B000AF78600A4B1B78F2
:1032D000DBB2002B0BD0084B00221A707B681B78E6
:1032E000002B05D07B681800FFF7B6FF00E0C04652
:1032F000BD4602B080BDC0461600002080B58AB031
:1033000000AF0200FB1D1A70FB1D1B78FF2B08D0BD
:103310001EDC032B16D01BDC012B08D0022B0CD09B
:1033200016E00823FB18180000F0A0F910E00823AD
:10333000FB18180000F01AF80AE00823FB18180020
:1033400000F0B0F90823FB18180000F005F9C0469A
:10335000054B18680823F918002300220DF050FAD5
:10336000C046BD460AB080BDA403002090B585B01C
:1033700000AF78607B680233FB607B6801221A70C3
:103380000B203B1800221A703B181B783A18591C66
:1033900011701A00FB689B1801221A706A4B1A6898
:1033A0003B181B7804003918581C08701900FB687A
:1033B0005B18127D1A7020003B181B783A18591CB4
:1033C00011701A00FB689B1864221A703B181B7856
:1033D0003A18591C11701A00FB689B1864221A7065
:1033E000594B1A6804003B191B783919581C08708E
:1033F0001900FB685B18527D1A703B191B783A194B
:10340000591C11701A00FB689B1800221A704E4B51
:103410001B68D9893B191B783A19581C10701A007F
:10342000FB689B18CAB21A70474B1B68DB891B0AE2
:1034300099B23B191B783A19581C10701A00FB6896
:103440009B18CAB21A70414B19883B191B783A195C
:10345000581C10701A00FB689B18CAB21A703B4BBC
:103460001B881B0A99B23B191B783A19581C10701B
:103470001A00FB689B18CAB21A70354B19883B19A1
:103480001B783A19581C10701A00FB689B18CAB2B6
:103490001A702F4B1B881B0A99B23B191B783A19DB
:1034A000581C10701A00FB689B18CAB21A70264B81
:1034B0001B68198A3B191B783A19581C10701A009E
:1034C000FB689B18CAB21A701F4B1B681B8A1B0A29
:1034D00099B23B191B783A19581C10701A00FB68F6
:1034E0009B18CAB21A70184B1B68598A3B191B7873
:1034F0003A19581C10701A00FB689B18CAB21A704F
:10350000114B1B685B8A1B0A99B23B191B783A194D
:10351000581C10701A00FB689B18CAB21A703B192D
:103520001B7820003A19591C11701A00FB689B186F
:10353000084A12781A707B683A1812785A70C04696
:10354000BD4605B090BDC046500000200A040020D2
:10355000080400204C00002090B585B000AF7860D2
:103560007B6803221A707B680233BB600F243B190F
:1035700000221A703B191B783A19591C11701A0055
:10358000BB689B1801221A70364B19683B191B78CF
:103590003A19581C10701A00BB689B18CAB21A70EE
:1035A000304B59683B191B783A19581C10701A0097
:1035B000BB689B18CAB21A702B4B1B68002B0CD02F
:1035C000294B1A683B191B783919581C08701900C7
:1035D000BB685B18127D1A700AE00F22BB181B78BB
:1035E000BA18591C11701A00BB689B18FF221A7078
:1035F0000F203B181B783A18591C11701A00BB6831
:103600009B1864221A703B181B783A18591C1170C9
:103610001A00BB689B1864221A70134B1B68002B9E
:103620000CD0114B1A683B181B783918581C0870BD
:103630001900BB685B18527D1A700AE00F22BB1894
:103640001B78BA18591C11701A00BB689B1800220D
:103650001A707B680F22BA1812785A70C046BD469D
:1036600005B090BD00FC01085000002080B584B07A
:1036700000AF78607B68FF221A707B680233074ACC
:103680000749180010F080FE0300FB60FB68DAB207
:103690007B685A70C046BD4604B080BD8C6401088A
:1036A000A064010880B584B000AF78607B68023305
:1036B000FB607B6802221A700B203B1800221A70F4
:1036C0003B181B783A18591C11701A00FB689B189C
:1036D00005221A703B181B783A18591C11701A00F1
:1036E000FB689B1801221A707B683A1812785A708E
:1036F000C046BD4604B080BD80B500AF254B26490D
:103700006A22012000F018FE00F0ECFE234B1B683B
:1037100000221A70214B1B6800225A701F4B1B6835
:1037200000229A701D4B1B680A22DA701B4B1B6823
:1037300000221A71194B1B6800225A71174B1B6823
:1037400000229A71154B1B680022DA71144B180085
:103750000CF092FD0200134B1A600022202104207D
:103760000CF099FF0200104B1A6000222021042067
:103770000CF091FF02000D4B1A600D4A0D4B002119
:1037800018000CF0B7FB02000B4B1A60C046BD4698
:1037900080BDC046D8640108EC64010858000020D0
:1037A000D4A90108B8030020A0030020A40300202E
:1037B000B0A90108BD370008B403002090B587B058
:1037C00002AF7860FA235B001A000221012000F0AA
:1037D000D5FB704B1A686F4B5B686F486F4901935C
:1037E00000920300D822012000F0A6FD6C4B0021BE
:1037F000180002F0D9FA6B4B6849DB22012000F077
:103800009BFD694B0022DA75674B02229A75664B65
:10381000664A1A60644B664A5A60634B654A9A600E
:10382000614B654A9A61604B05229A815E4B00228A
:103830001A755D4B01225A755B4B33220021995456
:10384000594B322201219954574B584ADA61564B51
:10385000574A1A62544B574A5A62534B564A5A6354
:10386000514B05221A85504B3022012199544E4B61
:103870003122012199544C4B4F22012199544A4B3A
:103880004E2200219954484B4C4A9A63464B4C4A6D
:10389000DA63454B4B4A1A64434B4B4A1A65424B19
:1038A000442214219952404B4C22022199543E4B00
:1038B0004D22002199543C4B6B22022199543A4BE2
:1038C0006A2200219954384B404A5A65364B404A87
:1038D0009A65354B3F4ADA65334B3F4ADA66324BDD
:1038E000602205219952304B6822032199542E4BB6
:1038F000692200219954394B832252002749012023
:1039000000F01AFD0F217B18FF221A700C007B18A3
:10391000180001F0DDFA21007B181B78FF2B18D06E
:103920007B181B781A001300DB009B1A9B001E4AB1
:103930009A182B4B1A607B181B78180001F01CFB9F
:10394000284B0E22FF3215490090012000F0F4FCB4
:1039500015E00F23FB181B78180001F00DFB224B1C
:103960001222FF320D490090012000F0E5FC1C4BB3
:1039700000221A6000220121002000F0FFFA00F06E
:10398000D9FE00F09DFD00200DF010FDC046BD46A3
:1039900005B090BD00FC010804650108EC64010855
:1039A0002003002020650108E405002055240008BC
:1039B000912400081524000831240008DD250008A2
:1039C0001926000805250008152D000861230008A8
:1039D00071230008052300083F2300083065010813
:1039E000500000206C6501088065010890B589B021
:1039F00000AF0C243B19180014231A00002110F00A
:103A0000EAFD2A4BDA6A294B01210A43DA62274B85
:103A1000DB6A01221340BB60BB68244BDA6A234B8C
:103A200002210A43DA62214BDB6A022213407B60E7
:103A30007B68A023DB0500222021180002F02DFD69
:103A40001B491C4B0022180002F027FD194B0122D4
:103A50003821180002F021FD3B1920221A603B1981
:103A600001225A603B1900229A603B190222DA6057
:103A70003A19A023DB051100180002F073FB2100A6
:103A80007B180D4A1A607B1801225A607B180022AD
:103A90009A607B180022DA607B18064A1900100031
:103AA00002F060FBC046BD4609B090BD0010024068
:103AB00001800000000400503980000080B500AF94
:103AC0001B4B1C4A1A601A4B1B4A5A60184B0022A7
:103AD0009A60174B0122DA60154B00221A61144BD1
:103AE00000225A61124B00229A61114B0022DA61C6
:103AF0000F4B00221A620E4B180002F0EBFC031E63
:103B000001D000F0ADFD0A4B0021180003F054FE77
:103B1000031E01D000F0A4FD054B0021180003F0A6
:103B200097FE031E01D000F09BFDC046BD4680BD40
:103B3000BC030020005400408266500090B589B05C
:103B400000AF78600C243B19180014231A000021E0
:103B500010F041FD7B681B681B4A934230D11B4B20
:103B6000DA6A1A4B02210A43DA62184BDB6A022234
:103B70001340BB60BB6821007B18C0221A607B1811
:103B800012225A607B1800229A607B180322DA60A6
:103B90007B1801221A617B180D4A1900100002F0EF
:103BA000E1FA0A4B9A6B094B802189030A439A6315
:103BB00000220321172002F01DFA172002F02FFA2D
:103BC000C046BD4609B090BD005400400010024000
:103BD0000004005080B584B000AF0200BB1D1A8005
:103BE000BB1D1B88180000F0DBF80300FB60FB68BE
:103BF000180000F013F803001800BD4604B080BDA3
:103C000080B582B000AF78607A68034B1A60C04616
:103C1000BD4602B080BDC0461C00002080B582B009
:103C200000AF7860554B1B68002B08D17B6864227D
:103C30005A43524B1A60524B00221A707AE07B684A
:103C400064225A434D4B1B68D31A1800FDF75AF9EA
:103C5000031C4C49181CFCF747FE031C181CFDF7FD
:103C600031F90200454B1B68D218444B1A60434B94
:103C70001B6864211800FCF7EDFA03001A007B684A
:103C8000D31AD9175A184A403F4B1B689A422BDA6D
:103C90003E4B1B78002B02D13D4B05221A603C4B5A
:103CA0001B68002B1CDD7B6864225A43334B1B6866
:103CB000D31A1800FDF726F9031C3649181CFCF727
:103CC00013FE031C181CFDF7FDF802002B4B1B68AC
:103CD000D2182A4B1A602E4B1B685A1E2C4B1A60A6
:103CE0002A4B01221A701CE0284B1B78002B15D0A0
:103CF000224B1B6864211800FCF7ACFA03001A0081
:103D00000123191C7B68934201DC0023191CCBB2F0
:103D10001A001B4B1A701D4B00221A701C4B0022FC
:103D20001A601A4B1B78002B04D17B6864225A431B
:103D3000124B1A60154B1B78002B0FD0104B1B78C1
:103D4000002B0BD0124B1A68134B1B689A4205DDEF
:103D50000B4B00221A700E4B00221A60074B1B6897
:103D600064211800FCF776FA03009AB20B4B1A8014
:103D7000034B1B781800BD4602B080BD1004002024
:103D80000C0400200AD7A33B1C00002024000020C4
:103D9000140400209A99993E200000200804002075
:103DA00080B582B000AF7860144B1B88002B03D124
:103DB0007B689AB2114B1A80104B1B881A007B68E3
:103DC0009B1A1800FDF79EF8021C0D4B1B68191C6E
:103DD000101CFCF789FD031C181CFDF773F8030089
:103DE0009AB2064B1B88D3189AB2044B1A80034B25
:103DF0001B881800BD4602B080BDC0460A040020E2
:103E00001800002080B582B000AF0200BB1D1A80F0
:103E1000074B00221A80074B00221A60064B002233
:103E20001A70064B00221A60C046BD4602B080BD23
:103E30000A040020100400200C04002014040020B8
:103E400090B583B000AF040008001100FB1D221CD8
:103E50001A70BB1D021C1A707B1D0A1C1A700F4BB6
:103E600038229A61FB1D1B78002B03D00B4B80225C
:103E700092039A61BB1D1B78002B03D0074B802255
:103E800052039A617B1D1B78002B03D0034B8022C9
:103E900012039A61C046BD4603B090BD00040050B5
:103EA00080B584B002AF264B1B68002B08D1254B90
:103EB0002548002201210CF0D9F80200204B1A609D
:103EC0001F4B1B6818000CF093F91D4B1A681F4B11
:103ED0005B68190010000CF051F903007B600023AF
:103EE0003B6015E01A4A1B493B68009313003222DD
:103EF000012000F021FA124B1A68144B5B6819007C
:103F000010000CF03BF903007B603B6801333B6021
:103F10007B68002B02D03B68092BE3D90DF09AFB9C
:103F200002000D4B1A607B68002B05D00B4B094932
:103F30003922012000F000FAC046BD4602B080BD23
:103F400018040020E4A90108F94000082800002016
:103F5000A0650108BC6501081C040020D0650108AB
:103F600080B500AF044B012252425A60FFF798FF20
:103F7000C046BD4680BDC0462800002080B582B046
:103F800000AF3A60FB1D021C1A70BB1D0A1C1A70A0
:103F9000274B1B7801225340DBB2002B44D1244B2A
:103FA000FA1D12785A70224BBA1D12789A70204B63
:103FB0003A685A601E4B00229A60FB1D1B78052B45
:103FC00028D89A001B4BD3181B689F46012200215A
:103FD0000020FFF735FF1DE0002201210020FFF740
:103FE0002FFF17E0002200210120FFF729FF11E039
:103FF000012201210020FFF723FF0BE00022012115
:104000000120FFF71DFF05E0012201210120FFF73C
:1040100017FFC046BB1D1B78022B02D1FFF740FFE4
:1040200003E0FFF79DFF00E0C046BD4602B080BD43
:1040300028000020F4A9010880B582B000AF02007A
:10404000FB1D1A70FB1D1B7801225340DBB2002BB5
:1040500005D0002200210020FFF7F2FE2CE0184BD3
:104060005B78052B28D89A00164BD3181B689F46FF
:10407000012200210020FFF7E3FE1DE000220121C4
:104080000020FFF7DDFE17E0002200210120FFF7EE
:10409000D7FE11E0012201210020FFF7D1FE0BE045
:1040A000002201210120FFF7CBFE05E001220121C2
:1040B0000120FFF7C5FEC046C046BD4602B080BD28
:1040C000280000200CAA010880B582B000AF0200D1
:1040D000FB1D1A70002200210020FFF7B1FE054BE6
:1040E000FA1D12789A70FFF73BFFC046BD4602B03A
:1040F00080BDC0462800002080B582B000AF786047
:104100000C4B1B78002B10D00A4B9B6801221340EC
:1041100003D10020FFF790FF02E00120FFF78CFFA2
:10412000044B9B685A1C034B9A60C046BD4602B0C4
:1041300080BDC0462800002080B582B000AF786006
:104140007B68DB6980221340802B01D1012300E0D2
:1041500000231800BD4602B080BD80B582B000AF1C
:1041600078600A00FB1C1A70FB1C1A787B689A6244
:10417000C046BD4602B080BD80B582B000AF786059
:10418000C0460A4B1B681800FFF7D6FF031EF8D085
:10419000064B1B687A68D2B211001800FFF7DDFFEA
:1041A0007B681800BD4602B080BDC0466007002095
:1041B00090B58BB002AF78600BF078FE0300FB6126
:1041C000FB69FA2291001800FCF740F80B00BB6174
:1041D000FB69FA2291001800FBF7B2FF0300FB61B4
:1041E000FB693C211800FCF731F80B007B61FB698F
:1041F0003C211800FBF7A4FF0300FB61FB693C2195
:104200001800FCF723F80B003B61FB693C21180008
:10421000FBF796FF0300FB61FB69FB603C69FA68F2
:1042200006497868BB6901937B690093230010F00D
:10423000ABF8C046BD4609B090BDC0461C6601083B
:10424000B0B588B002AF786008243B191800FFF7BA
:10425000AFFF7B6818697B689A69134B9200D55849
:104260007B689A687B685B693C19104901930092EE
:104270002B0022000FF0F6FF7B6818697B685968F5
:104280007B681B681A000FF0EBFC7B681B69190048
:104290000A2010F01DF87B681B6918000FF022FF40
:1042A000C046BD4606B0B0BD3400002030660108EF
:1042B00080B500AF064B5B68002B06D0044B5A68F4
:1042C000034B1B68190001209047C046BD4680BDC6
:1042D0002004002080B500AF064B5B68002B06D0A1
:1042E000044B5A68034B1B68190000209047C046D6
:1042F000BD4680BD2004002080B584B000AF78604A
:1043000039607B68DB68002B0ED1002010F08AFA40
:1043100002000B00BA60FB600823FB18180010F0C5
:1043200063F902007B68DA607B683A681A61C0460C
:10433000BD4604B080BD000008B490B58EB000AF9B
:10434000F860B9607A6014243B1918001C231A0025
:10435000002110F040F93B197A6C5A603B19BA6899
:104360009A603B197A685A613B19FA689A61FFF7BB
:104370009FFF2D4B1B7B01225340DBB2002B14D03F
:10438000294B9B68FA689A420FDB284B1B68DA6856
:104390003B1911001800FFF7AFFF4823FA183B192B
:1043A0001A603B191800FFF74BFF00237B6323E0E3
:1043B0007A6B13005B009B189B0010331A001A4B9A
:1043C000D3183B633B6B9B68FA689A4211DB3B6BEB
:1043D0005A6814243B1911001800FFF78DFF482379
:1043E000FA1821007B181A603B6B1B687A181000C2
:1043F00098477B6B01337B637B6B1F2B0ADC0A497D
:104400007A6B13005B009B189B00CB1810331B6862
:10441000002BCDD1FFF75EFFC046BD460EB090BC6D
:1044200008BC01B01847C04620040020400200200C
:1044300080B500AF0F4B104A1A600E4B00225A6035
:104440000C4B00229A600B4B0C4A5A61094B00221C
:104450001A62084B00225A62064B00229A62054BF0
:10446000180003F041FA031E01D000F0F9F8C0462D
:10447000BD4680BDB0050020007C0040FFFF00006D
:1044800080B582B000AF78607B681B680A4A9342AF
:104490000ED10A4B9A6B094B802109060A439A6395
:1044A000002203210D2001F0A5FD0D2001F0B7FD34
:1044B000C046BD4602B080BD007C004000100240F6
:1044C00080B582B000AFB9235B007B607A68044B93
:1044D0001100180003F094FAC046BD4602B080BD3A
:1044E000B005002080B500AF034B180003F0FEFAC2
:1044F000C046BD4680BDC046B005002080B500AFB7
:1045000001F074F800F01AF8FFF770FAFEF742FDB8
:10451000FFF7D4FA00F0C4FFFFF78AFF00F034FF82
:10452000002201210120FFF729FD0EF0A7FC0BF06E
:1045300061FCFFF7E1F80BF089FCFEE790B59DB058
:1045400000AF38243B19180038231A00002110F05E
:1045500042F82423FB18180014231A00002110F03D
:104560003AF83B00180024231A00002110F033F819
:10457000314B1B68314A1A402F4B802109010A43F5
:104580001A6021007B182A221A607B180122DA6047
:104590007B1810221A617B1801225A617B180122B4
:1045A0009A617B1802229A627B180022DA627B18D9
:1045B00000221A637B188022D2035A637B181800EA
:1045C00005F016FB031E01D000F04AF824217B18E9
:1045D0000F221A607B1803225A607B1800229A600F
:1045E0007B180022DA607B1800221A617B180121F7
:1045F000180005F0D1FE031E01D000F031F83B0099
:10460000C9221A603B0000229A603B0000225A61D6
:104610003B008022D2041A623B008022D202DA617F
:104620003B00180006F00EF9031E01D000F018F848
:10463000C046BD461DB090BD00700040FFE7FFFFC3
:1046400080B582B000AF78607B681A688023DB0594
:104650009A4201D100F0EAFFC046BD4602B080BDDB
:1046600080B500AF72B6C046FEE780B584B000AF3B
:1046700078600A00BB1C1A807B6800221A607B6885
:1046800000221A760023FB6011E07A68FB685B0069
:10469000D3180433BA1C12881A807B681A68BB1CB2
:1046A0001B88D2187B681A60FB680133FB60FB68CB
:1046B000092BEADDC046C046BD4604B080BD80B5CA
:1046C00082B000AF78600A00BB1C1A807B681B6850
:1046D0007A68127E796852008A18043212889A1A0F
:1046E0007B681A607B681A68BB1C1B88D2187B68C1
:1046F0001A607B681B7E7A685B00D3180433BA1C8F
:1047000012881A807B681B7E01330A211800FBF790
:1047100087FE0B00DAB27B681A767B681B680A2179
:104720001800FBF70DFD03009BB21800BD4602B058
:1047300080BD000080B500AF0E4A0F4B002118006D
:104740000BF0D8FB02000D4B1A600D4A0D4B0021F7
:1047500018000BF0CFFB02000B4B1A600B4A0C4BFE
:10476000002118000BF0C6FB02000A4B1A60C0467D
:10477000BD4680BD44A9010899470008A803002050
:1047800068A90108554A0008AC0300208CA901085B
:10479000994A0008B0030020B0B584B000AF78603B
:1047A000A24B1B68002B48D0A04B1B689B68002BBA
:1047B00043D09E4B1B689B6898479C4B1B681A68AC
:1047C0009A4B1B680E33180090470B217B18002270
:1047D0001A70964B1B685C68944B1B68103318006A
:1047E000924B1B689B7D0D007A181900A04764202E
:1047F00000F038FF8D4B1B685C688C4B1B681033D6
:1048000018008A4B1B689B7D7A191900A047874BBB
:104810001B68DA89864B11001800FFF726FF834BCF
:104820001B681A8A834B11001800FFF71EFF7F4B8D
:104830001B68DB891800FFF7E5FA01235B421900CA
:1048400000200DF045FB7C4B1B68012252421100F9
:1048500018000CF0B1F9754B1B68002B00D1DCE09F
:10486000764B1B78DAB2764B1B78DBB29A4241D09A
:10487000734B1B78DAB2714B1A70704B1B78DBB23A
:104880001A001300DB009B1A9B006E4A9A18674BB4
:104890001A60664B1B689B68002B03D0634B1B6838
:1048A0009B689847614B1B681A68604B1B680E3306
:1048B000180090475D4B1B68DA895D4B11001800AA
:1048C000FFF7D3FE594B1B681A8A5A4B1100180088
:1048D000FFF7CBFE554B1B68DB891800FFF792FAF8
:1048E000524B1B689B891800FFF78AF9564B1B68CF
:1048F00001225A714D4B1B681A684C4B1B680E33D2
:1049000018009047504B1B685A790132D2B25A7145
:10491000464B1B68DA890E257C19454B110018009F
:10492000FFF7CDFE03002380404B1B687A191288E5
:10493000DA813E4B1B68DB891800FFF74BF9030057
:104940001A00424B1A70394B1B689B69002B0DD023
:10495000364B1B689C69354B1B68D889334B1B68E9
:10496000198A324B1B6812331A00A047364B1B685A
:104970005B78002B25D0344B1B6800225A700A212B
:104980007B1800221A70294B1B685C68274B1B6838
:1049900010331800254B1B689B7D0D007A181900F9
:1049A000A0477B191B78002B0BD0204B1B681A8A61
:1049B0001E4B1C681F4B11001800FFF780FE030000
:1049C0002382214B1B6801229A71214B1B7819000D
:1049D0006420FBF73FFC03001A000C217B181A80AF
:1049E000194B1B685B799BB27A1812889A4214D8CB
:1049F000154B1B689B79002B0FD0134B1B680022B3
:104A00009A71114B1B6801225A710F4B1B681B795D
:104A1000002B02D00120FEF771FC074B1868002321
:104A2000002200210BF0ECFE07E7C04650000020FA
:104A30005406002070060020B8030020E005002086
:104A4000E1050020E4050020580000204C00002073
:104A50005400002080B584B000AF78600A4B0B4949
:104A60008A220120FFF768FC0023FB60084B1B68CB
:104A700001225242074918000BF0EDFF054B1800C8
:104A8000FEF74EFBF2E7C046406601085466010897
:104A9000A00300209406002080B584B000AF7860A9
:104AA000154B1649A0220120FFF746FC0023FB60AE
:104AB000134B1B6801225242124918000BF0CBFF26
:104AC000114B1B6801225242110018000CF074F8BF
:104AD0000300012B0BD10B4B1800FEF7F3FB0A4B25
:104AE00018680023002200210BF08AFEE0E7FB6833
:104AF0000133FB60DCE7C0466C66010854660108C0
:104B0000A4030020B4060020B8030020F0B587B04D
:104B100000AFF86008007A6019000B243B19021CF2
:104B20001A700A203B180A1C1A70FB68EE221A70D1
:104B3000FB68013301007A1812780532D2B21A707C
:104B4000FB6802333A1912781A70FB68D81C0D0002
:104B50007B191A787B68190010F070FAFB68023331
:104B60003A1912781A707B191B7803331A00FB6804
:104B70009B18FF221A707B191B780333DAB21726B1
:104B8000BC19FB681100180000F012F80300237034
:104B90007B191B780433FA68D318BA1912781A7083
:104BA0007B191B780533DBB21800BD4607B0F0BD9A
:104BB00080B584B000AF78600A00FB1C1A700F2328
:104BC000FB1800221A700023BB600CE0BB687A68F7
:104BD000D31819780F22BB18BA1812788A181A70CD
:104BE000BB680133BB60FB1C1B78BA689A42EDDBE3
:104BF0000F23FB181B781800BD4604B080BD0000D1
:104C000080B582B000AF0200FB1D1A70034B1A780A
:104C1000024B1A70C046BD4602B080BDD4060020CB
:104C200080B582B000AF0200FB1D1A70FB1D1B781F
:104C30005BB2DB435BB2064A127852B213405BB2FE
:104C4000DAB2034B1A70C046BD4602B080BDC04602
:104C5000D406002090B589B000AF1B4BDA6A1A4B1E
:104C600001210A43DA62184BDB6A01221340BB6060
:104C7000BB68154BDA6A144B02210A43DA62124B05
:104C8000DB6A022213407B607B680C243B1918000E
:104C900014231A0000210FF09EFC21007B18012232
:104CA0001A607B1801225A607B1800229A607B18D8
:104CB0000022DA607B18054A1900100001F052FA50
:104CC000C046BD4609B090BD00100240000400502F
:104CD000B0B588B000AF08243B19180014231A009F
:104CE00000210FF078FC244BDA6A234B02210A439F
:104CF000DA62214BDB6A022213407B607B688023EF
:104D00001B021E480022190001F0C7FB3B1980223C
:104D100012021A603B1900225A603B1901229A6064
:104D20003B190022DA603B19144A1900100001F007
:104D300019FA322000F096FC1F257C1980231B02F3
:104D40000E4A1900100001F08BFB030023707B1941
:104D50001B78012B06D10820FFF752FF0720FFF731
:104D60005FFF05E00820FFF75BFF0720FFF748FF24
:104D7000C046BD4608B0B0BD00100240000400505F
:104D8000B0B586B000AF3B00180014231A00002114
:104D90000FF021FCA023DB0500220221180001F006
:104DA0007CFB3B0002221A603B0000225A603B0061
:104DB00000229A603B000022DA603A00A023DB0563
:104DC0001100180001F0CEF9254B00220121180036
:104DD00001F063FB322000F045FC17257C19A0236D
:104DE000DB050221180001F03BFB030023707B1957
:104DF0001B78012B06D10320FFF702FF0C20FFF7E1
:104E00000FFF05E00320FFF70BFF0C20FFF7F8FE74
:104E1000134B01220121180001F03FFB322000F06A
:104E200021FC17257C19A023DB050221180001F0C5
:104E300017FB030023707B191B78002B06D1082079
:104E4000FFF7DEFE0320FFF7EBFE05E00820FFF78B
:104E5000E7FE0320FFF7D4FEC046BD4606B0B0BD56
:104E60000004005090B589B000AF3A00134B3833BE
:104E700013CB13C213CB13C21B6813603B009B6898
:104E8000002B17D03B009B6898471E23FB1800227D
:104E90001A80FDF7FBFC02001D217B181A707B189D
:104EA0001B78002B03D00220FFF7AAFE02E00220AD
:104EB000FFF7B6FEC046BD4609B090BDE405002030
:104EC00080B500AF0120FFF7ABFEC046BD4680BDF8
:104ED00080B584B000AF7860254B0F221A70FFF7C1
:104EE000B9FEFFF7F5FEFFF74BFFFFF7BBFFFFF73C
:104EF000E7FFFEF77BFDFEF74DF81D4B1B78002BFF
:104F000009D01B4B1B781A00194B1B78013B13402F
:104F100001D1012200E000220F203B181A701A78FC
:104F200001210A401A703B181B7801225340DBB262
:104F3000002B18D10E4B1B780F2B15D89A000D4B58
:104F4000D3181B689F467B6803221A700CE07B68AD
:104F500002221A7008E07B6801221A7004E07B6864
:104F600000221A7000E0C046BD4604B080BDC046B5
:104F7000D406002024AA010880B582B000AF020048
:104F8000FB1D1A70FB1D1B78082B0ED89A00094BCD
:104F9000D3181B689F46084B08E0084B06E0084BF7
:104FA00004E0084B02E0084B00E0084B1800BD4647
:104FB00002B080BD64AA0108806601088C66010801
:104FC00098660108A4660108B4660108C466010871
:104FD00080B500AF0B4B5A6B0A4B01210A435A6351
:104FE000084B9A6B074B802149050A439A630223B9
:104FF0005B4200220321180000F0FCFFC046BD46C2
:1050000080BDC04600100240B0B58CB000AF7860E3
:105010007B68002219000F2000F0ECFF0F2000F049
:10502000FEFF324B9A6B314B01210A439A630823EE
:10503000FA180C243B191100180005F0D1FB3B199C
:10504000DB687B627B6A002B04D105F09DFB0300CB
:10505000FB6204E005F098FB03005B00FB62FB6A67
:1050600023491800FBF76CF80300013B3B62214B1E
:105070008022D2051A601F4B1F4ADA601D4B3A6A24
:105080005A601C4B00221A611A4B00229A602B2591
:105090007C19184B180005F02BFD030023707B19B9
:1050A0001B78002B1BD17C19124B180005F060FDFA
:1050B000030023707B191B78002B10D17B68032B16
:1050C00009D87B68002219000F2000F093FF0B4BDA
:1050D0007A681A6003E02B23FB1801221A702B2335
:1050E000FB181B781800BD460CB0B0BD0010024084
:1050F00040420F00D8060020E703000064000020B3
:1051000080B500AFFEE780B500AFFEE780B582B0A6
:1051100000AF1A4B180002F021FD194B1B68DB7918
:10512000002B27D1164B1B6801221A70BB1D0A22C7
:105130001A80134B1B689A780132D2B29A70104BC6
:105140001B689B789BB2BA1D12889A4207D10C4B00
:105150001B6801225A700A4B1B6800229A70094B87
:105160001B68002B06D0074B186800230222002181
:105170000CF0F4FEC046BD4602B080BDB005002074
:1051800058000020A803002080B500AF034B180092
:1051900005F040FDC046BD4680BDC046D806002093
:1051A00080B500AF094B1B689A69E023DB00134010
:1051B00004D0064B180001F071FB03E0034B18000C
:1051C00001F052FBC046BD4680BDC046BC03002076
:1051D00080B500AF034B180006F0A2F8C046BD46EC
:1051E00080BDC0466007002080B500AF034B1800AB
:1051F00002F0C2FFC046BD4680BDC046E843002065
:1052000080B500AF01231800BD4680BD80B582B0D7
:1052100000AF786039600FF0CFFE030016221A60ED
:1052200001235B421800BD4602B080BD80B582B04C
:1052300000AF786001235A427B6811001800FFF725
:10524000E5FFFEE780B586B000AFF860B9607A6030
:1052500000237B610AE000E000BF0100BB685A1C2C
:10526000BA60CAB21A707B6901337B617A697B6864
:105270009A42F0DB7B681800BD4606B080BD80B561
:1052800086B000AFF860B9607A6000237B6109E006
:10529000BB685A1CBA601B781800FEF76DFF7B696B
:1052A00001337B617A697B689A42F1DB7B68180085
:1052B000BD4606B080BD80B582B000AF78600123E6
:1052C0005B421800BD4602B080BD80B582B000AF21
:1052D000786039603B68802292015A600023180090
:1052E000BD4602B080BD80B582B000AF78600123BA
:1052F0001800BD4602B080BD80B584B000AFF86034
:10530000B9607A6000231800BD4604B080BD00007B
:1053100080B586B000AF7860144A154BD31A7B6114
:105320007B693B61134B1B68002B02D1114B124A66
:105330001A60104B1A687B68D3183A699A4207D2F0
:105340000FF03AFE03000C221A6001235B4209E0D1
:10535000084B1B68FB60074B1A687B68D218054B2B
:105360001A60FB681800BD4606B080BDF04F0020F3
:10537000000200001C070020704A002080B500AF2A
:10538000C046BD4680BD000080B586B000AF082392
:10539000FB18180010231A0000210FF01CF93B0025
:1053A000180008231A0000210FF015F91E4B1F4AA0
:1053B0001A601D4B18225A601B4B00229A601A4B30
:1053C0001B4ADA60184B00221A61174B00225A61FF
:1053D000154B180005F08CFB031E01D0FFF740F9B8
:1053E00008217B18802252011A607A180E4B110096
:1053F000180005F0F7FC031E01D0FFF731F93B0060
:1054000000221A603B0000225A603A00064B11004D
:10541000180005F0D3FE031E01D0FFF721F9C046A6
:10542000BD4606B080BDC0462007002000080140F0
:10543000FFFF000080B582B000AF78607B681B681A
:10544000064A934205D1064B5A6B054B04210A4389
:105450005A63C046BD4602B080BDC0460008014048
:105460000010024080B500AF0B4B5A6B0A4B042171
:105470000A435A63084B5A6C074B04210A435A6487
:10548000064B1B681A68054B1B6801210A431A600A
:10549000C046BD4680BDC046001002402007002027
:1054A00080B500AF144B154A1A60134BE12252022B
:1054B0005A60114B00229A600F4B0022DA600E4BAB
:1054C00000221A610C4B0C225A610B4B00229A618C
:1054D000094B0022DA61084B00221A62064B0022B7
:1054E0005A62054B180005F0C7FE031E01D0FFF7F6
:1054F000B7F8C046BD4680BD6007002000380140B7
:1055000090B589B000AF78600C243B1918001423C3
:105510001A0000210FF05FF87B681B681C4A934259
:1055200032D11C4B5A6B1B4B8021C9010A435A6371
:10553000184BDA6A174B01210A43DA62154BDB6A12
:1055400001221340BB60BB683B19C022D2001A6025
:1055500021007B1802225A607B1800229A607B1877
:105560000322DA607B1804221A617A18A023DB0573
:105570001100180000F0F6FD002203211B2000F0AE
:1055800039FD1B2000F04BFDC046BD4609B090BD63
:1055900000380140001002400D4885460D480E4974
:1055A0000E4A002302E0D458C4500433C4188C427D
:1055B000F9D30B4A0B4C002301E013600432A242E2
:1055C000FBD3FFF7DBFE0FF0FDFCFEF797FFFEE7D6
:1055D000F04F002000000020A0020020DCAE0108F7
:1055E000A00200206C4A0020FEE7000080B582B0D7
:1055F00000AFFB1D00221A700B4B1A680A4B4021AA
:105600000A431A600320FFF7FFFC031E03D0FB1DB3
:1056100001221A7001E0FFF7DBFCFB1D1B7818006C
:10562000BD4602B080BDC0460020024080B500AF3C
:10563000054B1B781A00054B1B68D218034B1A60E8
:10564000C046BD4680BDC04668000020E40700207B
:1056500080B500AF024B1B681800BD4680BDC04638
:10566000E407002080B584B000AF7860FFF7F0FF5A
:105670000300BB607B68FB60FB68013305D00A4B0D
:105680001B781A00FB689B18FB60C046FFF7E0FF21
:105690000200BB68D31AFA689A42F7D8C046C046DF
:1056A000BD4604B080BDC0466800002080B582B011
:1056B00000AF78607B68002B01D1012359E17B6842
:1056C0005B6D002B0AD17B6800229A657B685022B3
:1056D000002199547B681800FDF7E6FC7B685B6D40
:1056E00010221340102B05D07B681B689B68042296
:1056F00013400BD07B685B6D10221A437B685A65A0
:105700007B68502200219954012332E17B685B6D54
:105710009A4A134002221A437B685A657B681B68C9
:105720009B6803221340012B08D17B681B681B6810
:1057300001221340012B01D1012300E00023002BA3
:1057400049D17B685A68C0231B069A420BD07B68FC
:105750005A688023DB059A4205D07B685A6880230B
:105760001B069A4211D17B681B681A697B681B680B
:10577000920092081A617B681B6819697B685A68F5
:105780007B681B680A431A6114E07B681B681A690E
:105790007B681B68920092081A61794B1A68784BF3
:1057A00078490A401A60764B19687B685A68744BCE
:1057B0000A431A607B681B68DA687B681B681821DB
:1057C0008A43DA607B681B68D9687B689A687B6863
:1057D0001B680A43DA606A4B1A68694B6A490A40D7
:1057E0001A60674B19687B685B6B5A06644B0A4307
:1057F0001A607B681B689A6880235B05134008D198
:105800007B681B689A687B681B68802149050A438E
:105810009A607B681B68DA687B681B685B490A4092
:10582000DA607B681B68D9687B68DA687B681B690B
:10583000022B01D1042300E000231A437B682020BF
:105840001B5C5B031A437B682C201B5C5B001A43C8
:105850007B681B6B1A437B689B699B031A437B68BD
:10586000DB69DB031A437B681B680A43DA607B68E9
:105870005A6AC223FF339A420BD07B681B68D968EF
:105880007B685A6A7B689B6A1A437B681B680A4379
:10589000DA607B6821229B5C012B1AD17B68202275
:1058A0009B5C002B09D17B681B68DA687B681B68EE
:1058B000802149020A43DA600BE07B685B6D20229D
:1058C0001A437B685A657B689B6D01221A437B688B
:1058D0009A657B68DB6B012B1FD17B681B681A699B
:1058E0007B681B682A490A401A617B681B68196932
:1058F0007B681A6C7B685B6C1A437B689B6C1A43F1
:105900007B681B680A431A617B681B681A697B689D
:105910001B6801210A431A610EE07B681B681B6942
:1059200001221340012B07D17B681B681A697B6831
:105930001B6801218A431A617B681B685A697B686E
:105940001B6807218A435A617B681B6859697B6819
:105950009A6B7B681B680A435A617B6800229A65D0
:105960007B685B6D0322934301221A437B685A656F
:1059700000231800BD4602B080BDC046FDFEFFFFFB
:1059800008270140FFFFC3FFFFFFFFFD1902FEFFD5
:1059900003FCFFFF90B585B000AF78600F23FB18C4
:1059A00000221A707B681B689B680422134038D160
:1059B0007B6850229B5C012B01D1022338E07B687D
:1059C0005022012199547B68DB69012B07D00F23FA
:1059D000FC187B68180000F05FF9030023700F23A8
:1059E000FB181B78002B20D17B685B6D124A13409B
:1059F000802252001A437B685A657B6800229A65B0
:105A00007B685022002199547B681B681C221A6015
:105A10007B681B689A687B681B6804210A439A604C
:105A200003E00F23FB1802221A700F23FB181B78C8
:105A30001800BD4605B090BDFEF0FFFF80B584B0F4
:105A400000AF786039600023BB600023FB607B6897
:105A50005B69082B02D10823FB6014E07B681B689C
:105A6000DB6801221340012B0BD17B685B6D202288
:105A70001A437B685A657B685022002199540123A0
:105A800072E00C23FB60FFF7E3FD0300BB601FE047
:105A90003B6801331CD03B68002B07D0FFF7D8FDD3
:105AA0000200BB68D31A3A689A4211D27B681B681D
:105AB0001B68FA6813400BD17B685B6D04221A43A4
:105AC0007B685A657B6850220021995403234BE080
:105AD0007B681B681B68FA681340D9D07B685B6DD4
