:020000040800F2
:1000000000500020597A0008997600089D76000873
:1000100000000000000000000000000000000000E0
:10002000000000000000000000000000E5020108E0
:100030000000000000000000C103010805040108E1
:10004000A97A0008A97A0008A97A0008A97A000804
:10005000A97A0008A97A0008A97A0008A97A0008F4
:10006000A97A0008A97A0008A1760008A97A0008F0
:10007000A97A0008B1760008A97A0008017700087B
:10008000A97A0008A97A0008A97A000800000000EF
:10009000A97A0008A97A0008A97A0008117700084F
:1000A000A97A0008A97A0008A97A0008317700081F
:1000B000A97A0008A97A000800000000417700082A
:1000C00010B5064C2378002B07D1054B002B02D02E
:1000D000044800E000BF0123237010BDE0020020AF
:1000E000000000001C2F0108044B10B5002B03D0AA
:1000F0000349044800E000BF10BDC04600000000F6
:10010000E40200201C2F01080023C25C0133002AF6
:10011000FBD1581E7047000003B4714649084000E7
:100120004900095E49008E4403BC70470022430821
:100130008B4274D303098B425FD3030A8B4244D3AF
:10014000030B8B4228D3030C8B420DD3FF220902F1
:1001500012BA030C8B4202D31212090265D0030BB0
:100160008B4219D300E0090AC30B8B4201D3CB03A6
:10017000C01A5241830B8B4201D38B03C01A5241E8
:10018000430B8B4201D34B03C01A5241030B8B42EA
:1001900001D30B03C01A5241C30A8B4201D3CB02D5
:1001A000C01A5241830A8B4201D38B02C01A5241BA
:1001B000430A8B4201D34B02C01A5241030A8B42BD
:1001C00001D30B02C01A5241CDD2C3098B4201D3D5
:1001D000CB01C01A524183098B4201D38B01C01A53
:1001E000524143098B4201D34B01C01A52410309CA
:1001F0008B4201D30B01C01A5241C3088B4201D379
:10020000CB00C01A524183088B4201D38B00C01A25
:10021000524143088B4201D34B00C01A5241411A4C
:1002200000D20146524110467047FFE701B5002059
:1002300000F0F0F802BDC0460029F7D076E770471D
:1002400003460B437FD4002243088B4274D3030937
:100250008B425FD3030A8B4244D3030B8B4228D3D8
:10026000030C8B420DD3FF22090212BA030C8B42FE
:1002700002D31212090265D0030B8B4219D300E09E
:10028000090AC30B8B4201D3CB03C01A5241830B23
:100290008B4201D38B03C01A5241430B8B4201D3D3
:1002A0004B03C01A5241030B8B4201D30B03C01AFC
:1002B0005241C30A8B4201D3CB02C01A5241830A76
:1002C0008B4201D38B02C01A5241430A8B4201D3A5
:1002D0004B02C01A5241030A8B4201D30B02C01ACF
:1002E0005241CDD2C3098B4201D3CB01C01A524136
:1002F00083098B4201D38B01C01A524143098B42BF
:1003000001D34B01C01A524103098B4201D30B01A7
:10031000C01A5241C3088B4201D3CB00C01A5241CC
:1003200083088B4201D38B00C01A524143088B4291
:1003300001D34B00C01A5241411A00D2014652412A
:10034000104670475DE0CA0F00D04942031000D349
:100350004042534000229C4603098B422DD3030A9E
:100360008B4212D3FC22890112BA030A8B420CD3AE
:10037000890192118B4208D3890192118B4204D3D7
:1003800089013AD0921100E08909C3098B4201D357
:10039000CB01C01A524183098B4201D38B01C01A91
:1003A000524143098B4201D34B01C01A5241030908
:1003B0008B4201D30B01C01A5241C3088B4201D3B7
:1003C000CB00C01A524183088B4201D38B00C01A64
:1003D0005241D9D243088B4201D34B00C01A52413B
:1003E000411A00D20146634652415B10104601D3C8
:1003F0004042002B00D54942704763465B1000D352
:10040000404201B5002000F005F802BD0029F8D0F7
:1004100016E770477047C0468446100062468C4617
:100420001900634600E0C0461FB502F065F90028D8
:1004300001D40021C8421FBD10B502F0A9F8404206
:10044000013010BD10B502F057F9002801DB002083
:1004500010BD012010BDC04610B502F04DF90028B6
:1004600001DD002010BD012010BDC04610B502F016
:10047000D3F8002801DC002010BD012010BDC046CB
:1004800010B502F0C9F8002801DA002010BD0120E3
:1004900010BDC046844608006146FFE71FB500F066
:1004A000DDFC002801D40021C8421FBD10B500F0BA
:1004B00065FC4042013010BD10B500F0CFFC0028B3
:1004C00001DB002010BD012010BDC04610B500F0BA
:1004D000C5FC002801DD002010BD012010BDC04674
:1004E00010B500F073FC002801DC002010BD0120D5
:1004F00010BDC04610B500F069FC002801DA0020EC
:1005000010BD012010BDC046002B11D1002A0FD113
:10051000002900D1002802D00021C943080007B4F7
:10052000024802A14018029003BDC046E9FEFFFF49
:1005300003B4684601B5029800F04CF8019B9E4652
:1005400002B00CBC7047C046F0B5CE469946030CCD
:100550009C46130447461B0C1D000E006146040414
:10056000240C80B50700100C4B43654341436043A6
:100570002C0CC01824188C46A34203D980235B029C
:100580009846C444494679435643230C2D042D0C08
:100590008919634424046019C918C0BCB946B0461F
:1005A000F0BDC0469E2110B5C905041CFFF7A2FF8F
:1005B000002803D1201C01F057F810BD9E21201CFB
:1005C000C90500F0EDFD01F04FF880231B069C46A5
:1005D0006044F2E7F0B557464E464546DE46E0B584
:1005E00004000D009246994683B08B4230D82DD03E
:1005F0004946504603F076F929000600200003F032
:1006000071F9331A9846203B34D49B4653465A46D8
:10061000934042461F00534693401E00AF423BD8D2
:10062000AF4200D179E05B46A41BBD41002B00DA4C
:1006300076E0002200230092019301235A46934062
:100640000193012342469340009329E08242CFD98F
:1006500000220023009201930C9B002B01D01C6010
:100660005D600098019903B0F0BCBB46B246A94654
:10067000A046F0BD42469B4620239B1A5246DA40D4
:10068000414613004A468A40170042461F435346DC
:1006900093401E00AF42C3D9002200230092019371
:1006A0004346002BD8D0FB0772081A4346467B0806
:1006B0000EE0AB4201D1A2420CD8A41A9D41012008
:1006C00024196D410021013E24184D41002E06D011
:1006D000AB42EED9013E24196D41002EF8D10098AD
:1006E00001995B4600196941002B24DB2B005A4617
:1006F0004446D3402A00E2401C005B461500002B14
:100700002ADB26009E40330026004746BE403200CA
:10071000801A9941009001919EE7A342BCD882E7DC
:100720004246202300219B1A0022009101920122BF
:10073000DA40019285E7424620239B1A2A0046466A
:100740009A402300F340444613432A00E2401C0031
:100750005B461500002BD4DA42462F0020232600EA
:1007600097409B1ADE403B003343CDE7F8B54B0280
:100770005A0A94464A00C90FCE4647468946450064
:1007800046022D0E120E80B59909770AC40FB609DC
:10079000AB1A4C4520D0002B0CDD002A34D10029A7
:1007A0002AD05A1E012B00D18FE0FF2B00D1CDE0C3
:1007B00013002FE0002B60D0531B002D00D0EEE083
:1007C000002E00D13EE15C1E012B00D16BE1FF2B1E
:1007D00000D1B9E02300E7E0002B00DCA4E0002A10
:1007E00069D0FF2D00D1B1E08022D20411431B2B30
:1007F00000DCE9E02B000536F708FF2B00D1A5E06F
:100800007A02520AD8B230E0FF2D00D19EE0802259
:10081000D204114301201B2B08DC08002022D84001
:10082000D31A99400B005A1E93411843361A73018C
:1008300000D471E0B601B709380003F035F83B0089
:100840000538834085424DDDB44E2D1A1E405A07AF
:1008500068D00F221340042B64D00436730161D595
:10086000681CFE2D54D1FF200022C0051043E40770
:100870002043C0BCB946B046F8BDFE229046681C75
:100880000200404610426BD1002D00D0DDE0002E6A
:1008900000D102E10029B3D08022771AD204174296
:1008A00000D136E14C468E1B61D00120164230D17A
:1008B0000023F708A4E700299ED05A1E012B00D17F
:1008C000CAE0FF2B42D0130091E7711A4B0100D40C
:1008D000D1E08F01BF09380002F0E6FF3B00053888
:1008E000834001252022401B0130121A1E00934034
:1008F000C6405A1E93411E4339D0730700D11BE1F5
:100900000F2300253340042BA7D1012072017CD591
:10091000C0B2B201520AA8E7730703D00F233340D5
:10092000042B9AD12B0067E7002B23D0531B002DFB
:100930007BD1002E00D186E05D1E012B00D18BE023
:10094000FF2B02D02B0075E04C466746002F00D1EC
:1009500089E78022D2033A435202FF20520A84E7F9
:10096000771A7B016BD4002F00D065E700240020AC
:1009700000227AE7FE226B1C1A4249D1002D00D0DA
:100980009FE0002E00D1BAE0002900D1CFE072181C
:10099000530100D4CDE092010120520A65E7FF2AFD
:1009A000D2D08020C004064301201B2B08DC30007D
:1009B0002024D840E31A9E4033005C1EA341184314
:1009C0004C4615000E1A32E708002022D840D31AF0
:1009D00099400B005A1E93410343F61873019BD5AF
:1009E0000135FF2D00D13EE701234D497208334008
:1009F0000A401A431600530704D00F231340042B58
:100A000000D02AE7730100D52AE72B00F708F7E6A4
:100A1000FF2B00D127E7711849084A072FD00F2272
:100A20000A40042A2BD00E1DE6E6FF2A8DD0802036
:100A3000C00406431B2B24DD13004E1DDCE64C4690
:100A40008F1BF9E64C460E00D6E6002E49D1002950
:100A500068D067464C467CE77018430174D530492E
:100A600040080140430709D00F230340042B05D061
:100A700002230E1DC0E60123CF08C1E60223CF08E2
:100A8000BEE620253000D840EB1A9E4033005D1EA4
:100A9000AB41034315005E18A0E7002900D165E7CC
:100AA0004C466746ACE68F1B7B012ED5BF01BF09C4
:100AB000380002F0F9FE3B00053883404C46013512
:100AC00010E7002E00D140E7002900D141E7802344
:100AD000DB039F4200D23CE79C4500D339E76746E1
:100AE00037E7002900D134E78023DB039F4200D29F
:100AF0002FE79C4500D32CE74C46674629E70029A1
:100B000000D134E70023CF087AE64C460123FF08E2
:100B100076E6002F00D129E7FF0871E6FFFFFFFB13
:100B2000FFFFFF7D80220024FF20D2039DE60023EB
:100B300066E60023D70863E60120720100D5E7E6E8
:100B400031000023CF085BE60123C70858E6C04602
:100B5000F0B546464F46D6464502C0B5C30F4700DE
:100B600098460E1C6D0A3F0E5BD0FF2F21D08023CC
:100B7000ED00DB041D43002399469A467F3F740233
:100B80007300640A1B0EF60F002B20D0FF2B43D0FE
:100B900080220020E400D20414437F3B4246FF1A27
:100BA0004B4672400F2B00D99DE071499B00CB58FA
:100BB0009F46002D5AD108239946063B74029A4657
:100BC0007300FF27640A1B0EF60F002BDED1002CEA
:100BD0003BD1012342464946724019430E2918D899
:100BE0006448890041588F465346022B00D1B8E033
:100BF000032B6ED042462C00012B40D10020002454
:100C0000C0052043D2071043E0BCBA46B146A8460F
:100C1000F0BDFF200024F3E7002C20D10223FF3F8A
:100C2000D8E7002D05D104239946033B00279A46B7
:100C3000A5E7280002F038FE7627431F9D400023D9
:100C40007F4299469A463F1A99E7200002F02CFE0F
:100C5000431F9C4076235B421B1A00209EE7032320
:100C60004A461A4391460320FC3397E70C239946E2
:100C7000093BFF279A4682E703282CD03200380030
:100C80007F30002847DD630704D00F232340042B67
:100C900000D00434230103D53800374B80301C408A
:100CA000FE28B6DCA401640AC0B2A9E780240022B1
:100CB000FF20E403A4E78023DB031D4201D01C4294
:100CC0000BD08024E4032C4364024246FF20640AD4
:100CD00096E746462C008023DB031C436402320067
:100CE000FF20640A8CE76D01600185422DD21B2331
:100CF0000024013F0126290064006D00002901DB6A
:100D0000854201D32D1A3443013B002BF3D16B1ED6
:100D10009D412C43B3E701231B1A1B2B00DD6DE71C
:100D200021009E37D940BC400B00611E8C412343FB
:100D3000590704D00F211940042900D00433590168
:100D400013D49B0100205C0A5AE71A2301242D1AB0
:100D5000D0E7981E43425841404232000024C0B2BE
:100D60004EE74246FF2000244AE70120002447E7DF
:100D7000782F0108B82F0108FFFFFFF770B5420078
:100D80004E024C0045026D0A120EC30F760A240E65
:100D9000C90FFF2A10D0FF2C0CD00120A2420AD18B
:100DA000B54208D18B420FD0002A04D12800431E3F
:100DB000984100E0012070BD0120FF2CFBD135439C
:100DC000F9D14B401800F6E70020F4E730B54200B7
:100DD00044024D02C30F4800640A120E6D0A000E51
:100DE000C90FFF2A18D0FF280AD0002A1ED10028D8
:100DF0000AD1002D29D0002C2DD14800013830BD5A
:100E0000002D25D1002A01D1002CF6D08B4219D01B
:100E100001205B421843F2E7002C19D1FF28F7D1DB
:100E2000002D15D100208B42F2D1E8E70028EFD049
:100E30008B42EDD18242EBDC04DBAC42E8D80020EF
:100E4000AC42DCD258000138D9E7002CD7D0DFE71C
:100E500002204042D3E78B42DAD1EEE730B54200C0
:100E600044024D02C30F4800640A120E6D0A000EC0
:100E7000C90FFF2A17D0FF280AD0002A1BD100284B
:100E80000AD1002D1DD0002C2DD14800013811E0D1
:100E9000002D0ED1002A01D1002CF6D08B420CD1AE
:100EA0005800013806E0002C03D1FF2805D1002DA1
:100EB00015D0022030BD002806D101205B42184326
:100EC000F8E7002CF6D0F8E78B42F6D18242F4DC4A
:100ED000E6DBAC42F1D80020AC42EBD2E0E70020E8
:100EE0008B42EAD1E6E78B42E7D1F2E7F0B54F4615
:100EF0004646D6464400C0B546020F1C760A240E6C
:100F0000C50F002C00D1DAE0FF2C74D08023F6004E
:100F1000DB041E43002399469A467F3C7B025B0A12
:100F200098467B001B0EFF0F002B74D0FF2B00D1C7
:100F30008EE042468021D200C90411437F3B2A0043
:100F4000E4184B467A408846D2B20A2B75DC4B46F1
:100F50000020022B0FDD494601238B40A621C9004A
:100F60000B4269D1902189000B4200D000E1882119
:100F7000194200D0F5E041460904090C4346080037
:100F8000350C36041B0C360C704369435E435D43DD
:100F90007618030C9B19994203D9802149028C468B
:100FA000654400041904000C09188E01701E864166
:100FB0001B0C890E5B190E439B011E431B016CD455
:100FC00023007F33002B00DCB1E0150071070BD04C
:100FD0000F2021003040042806D00436320103D50A
:100FE0006E4B1E400B008033FE2B00DDBDE0B201D6
:100FF000520ADBB248E0002E00D092E00823994666
:10100000063B9A467B025B0A98467B00FF241B0E38
:10101000FF0F002B8AD14246002A64D14946013293
:10102000114389460A2908DC7D400120EAB20229E1
:1010300091DC1500002227E015005346022B00D159
:1010400093E0032B1AD0012B2CD1002300221BE0AC
:101050004346FF34002B55D003214B460B43190068
:101060000A2B00DC92E00F2B00D08CE08022D20310
:10107000164203D04346134200D17DE08022D203C2
:1010800032435202520AFF23D805ED07104328438A
:10109000E0BCBA46B146A846F0BD01231500710870
:1010A0001E400E4323008033611C002B41DD72077C
:1010B00094D00F223240042A00D08EE78EE7002E13
:1010C00005D104239946033B00249A4626E73000C5
:1010D00002F0EAFB7624431F9E40002364429946B7
:1010E0009A46241A1AE7404602F0DEFB4B46241AC1
:1010F000763C0A2BA1DC4346053883407D40984668
:10110000EAB224E74A46023313432A007A40D2B2B5
:101110000A2B92DC49461500002926D09946022068
:1011200019E70C239946093BFF249A46F6E6150079
:1011300021000122D31A1B2B00DD86E79E313200ED
:101140008E40DA40731E9E413243530704D00F2372
:101150001340042B00D00432530110D50123002288
:1011600092E73D004646824667E7FF2300228BE771
:1011700080220025D20386E73D001A4383E79201CF
:101180000023520A80E73D00464677E72A00012304
:101190007A408B400320D2B2E9E6C046FFFFFFF75A
:1011A000F8B54746CE46430280B55F0A9B09450025
:1011B0004A009C464B02C40FCE0F2D0E580A120E49
:1011C0009909FF2A6BD001235E40AB1AB4424BD081
:1011D000002B00DCFFE0002A00D188E0FF2D00D1C9
:1011E000EFE08022D204114301201B2B08DC080011
:1011F0002022D840D31A99400B005A1E934118431D
:1012000063461B1A9C4663465B0100D4CDE06346EF
:101210009F01BF09380002F047FB3B0005388340BF
:10122000854200DCA2E0B74A2D1A1A4094465A07BC
:1012300000D1C3E00F221340042B00D1BEE00423F1
:101240009846C44463465B0100D4B7E0681CFE2D99
:1012500000D0A5E0FF200022C0051043E407204392
:10126000C0BCB946B046F8BD002B00DCEBE1002A5B
:1012700046D0FF2D00D1A4E08022D20411431B2BC5
:1012800000DCFBE0052398462B00C4446246D708E7
:10129000FF2B00D195E07A02520AD8B2DCE72B008E
:1012A000FF3B9946002918D101235E40B44200D18A
:1012B000CAE04B46002B2DD0002D00D03CE1FF238F
:1012C0006446002C00D15FE15D1E012B00D174E16A
:1012D0003400FF2B74D02B0003E1B44200D19CE01A
:1012E000002B17D0002DEAD0070034006CE0002955
:1012F000CCD05A1E012B2BD0FF2B62D0130073E7EA
:101300000029C3D05A1E012B00D11EE1FF2B58D05B
:101310001300B4E7FE226B1C1A420DD1002D60D0E1
:101320006346002B00D020E1002900D028E1802274
:101330000024FF20D2038FE763465F1A7B0100D5AC
:10134000FEE0002F00D065E700240020002283E7A4
:101350006346591A4B0100D419E18F01BF093800C7
:1013600002F0A2FA3B000538834001252022401BF1
:101370000130121A19009340C1405A1E934119437B
:101380008C460B1EE1D05B0700D152E10F230025F4
:101390000B40042B00D052E701204A0100D492E018
:1013A000C0B263469A01520A56E763465B0705D00E
:1013B0000F2362461340042B00D040E72B0065E763
:1013C0000700002F00D145E78022D2033A435202A2
:1013D000FF20520A40E7002B79D1FE226B1C1A42F3
:1013E000AAD16346002B00D1F5E0002900D1D1E05D
:1013F0005F1A8023DB041F4200D10EE16246012404
:101400008A1A944600203440002A00D124E70120A3
:101410001A42C6D10023D7083DE7002B17D0002D74
:1014200000D0AFE0FF236546002D00D1ADE05E1E89
:10143000012B00D189E0FF2BC2D01B2E00DCABE0DA
:101440004B1D9C46130021E74B46002B70D1FE221A
:101450006B1C1A425ED1002D00D0C3E06346002B06
:1014600000D1D0E0002900D194E00A006244530189
:1014700000D4D8E092010120520AEDE608002022B3
:10148000D840D31A99400B005A1E934103439C4401
:1014900063465B0189D50135FF2D00D1DAE662464E
:1014A00001231949134052080A401A431300944675
:1014B0005B0704D00F231340042B00D0BFE6634624
:1014C0005B0100D5C2E66346DF082B00E3E6531B51
:1014D000002D00D1F4E680206446C0040443A446F5
:1014E000340001201B2B09DC20256046D840EB1A74
:1014F00065469D402B005D1EAB4118430B1A9C4670
:10150000150080E6FFFFFFFBFFFFFF7DFE226B1C47
:101510001342A3D0FF2B00D19CE6614449084A073F
:1015200049D00F220A40042A45D00A1D9446ADE650
:10153000002D00D176E78DE63400FF2000228BE6F7
:1015400063460124CF1A344064E661444B016DD5F3
:1015500048084449014043072CD00F230340042B83
:1015600028D00B1D9C46022390E6002900D12BE7D2
:101570008023DB039F4200D226E7984200D323E773
:101580000124344007001FE734008C467EE6012327
:10159000CF0880E600237EE620206546801B85403C
:1015A00063462800F340451EA84103439C461500AE
:1015B0008C446DE70223CF086DE60F1B7B0128D515
:1015C000BF01BF09380002F06FF93B0005388340C6
:1015D00034000125CAE6002900D1B5E60124070040
:1015E000344058E66346002B00D1E9E6002900D1DB
:1015F000EAE68023DB039F4200D2E5E6984200D36F
:10160000E2E60700E0E6002900D19EE60023CF08CD
:1016100041E634000123FF083DE6002F00D193E6A8
:101620000023FF0837E60023D70834E60123CF085C
:1016300031E680220B00D20401201340114200D079
:10164000AEE6CF0827E6002B00D15FE7561B002D42
:1016500001D13300E7E680236046DB04184384466B
:10166000EBE6C046FFFFFF7D41024200C30F490A7F
:101670000020120E7E2A03DD9D2A02DD094A9818F9
:101680007047802000040143952A07DC9620821AC7
:10169000D1404842002BF3D10800F1E7963A91403F
:1016A000F7E7C046FFFFFF7F70B5002812D0C317D1
:1016B000C5185D40C40F280002F0F6F89E231B1ADF
:1016C000962B0FDC082838D0083885406D026D0A4B
:1016D000D8B202E0002400200025C0052843E4071A
:1016E000204370BD992B14DC421F95402A001549F8
:1016F000114055071CD00F252A40042A18D0043168
:10170000CA08490115D59F235202181A550AC0B2BA
:10171000E3E705222900121AD14002001B3295404E
:101720002A00551EAA410A43064911405507E2D135
:10173000CA085202550AD8B2CFE76D026D0A8E3040
:10174000CBE7C046FFFFFFFB10B5041E0DD002F033
:10175000ABF89E231B1A962B0CDC082834D00838D3
:1017600084406402640AD8B201E000200024C0056D
:10177000204310BD992B13DC421F9440144A224091
:1017800061071CD00F212140042918D00432D4084D
:10179000520115D59F236402181A640AC0B2E6E705
:1017A000020021001B3291400A00511E8A4105218E
:1017B000091ACC401443064A22406107E2D1D408FA
:1017C0006402640AD8B2D2E76402640A8E30CEE7BB
:1017D000FFFFFFFBF0B54F464646D646C0B582B088
:1017E000009001910E034C00CD0F710A009E5F0026
:1017F000760F0E43009900920193C90089461903A0
:101800007B0D9846019B490ADB0F9C46009B009A82
:101810005B0F0B434146640DD200611A654500D150
:10182000A6E0002972DD4746002F00D1DDE0CC4F55
:10183000BC4200D19AE10127382917DC80273F04F8
:101840003B431F2900DDDDE12027781A1F00874078
:10185000BA461700CF4084463800574607436046D3
:101860008240CB40501E8241F61A17434B46DF1B85
:10187000B94580414042361A330200D4FFE0760277
:10188000760A002E00D13CE1300002F00DF8030092
:10189000083B20213800CA1AD0409E4002009F40D9
:1018A00032439C4200DDA6E1181B0130091A3E00BC
:1018B0008F40C6407B1E9F4113008B4037431F4320
:1018C000C2403B0016000024134300D1DFE17B0738
:1018D00000D132E30F233A003B40042B04D03A1DE1
:1018E000BA42BF417F42F619330200D423E39C4B36
:1018F00001349C4200D1B4E09A4B64051E40640D53
:101900007707D20876021743360BACE0002900D1E6
:101910007EE04146091B002C00D060E134004846BF
:10192000044300D1C9E14C1E012900D12EE28C4DA7
:10193000A94200D124E20127382C11DC21001F2903
:1019400000DD0BE2202437004846641AA740C84057
:1019500007434846A040CE40441EA0419B1B07437E
:10196000D71BBA4292415242654644469E1A83E7CB
:10197000002900DC9CE04746002F67D11F00174379
:1019800000D1E4E0481E012900D19BE1744FB94227
:1019900000D1EBE001270100382811DC1F2900DD10
:1019A000C7E12027781A1F00844687401000C840EE
:1019B000074360468240CB40501E8241F6181743D1
:1019C0004F444F45804140423618330257D5644B4F
:1019D00001349C4245D00121624B7A081E403940B7
:1019E0000A43F7071743760871E71F00174300D132
:1019F000ADE04F1EBC46012900D182E1584FB942EB
:101A000000D190E161460127382900DD2EE718E773
:101A1000554F611C394200D0D0E0310048461F00CC
:101A200001431743002C00D03DE1002900D1BCE167
:101A3000002F00D0BFE14B460021D80877070743AD
:101A4000F00806034C05360B640D0CE0444FBC4215
:101A500000D18BE001273829B2DC80273F043B43CB
:101A60009CE70026002724053443ED072C4338006B
:101A7000210002B0E0BCBA46B146A846F0BD7B07E3
:101A800004D00F233B40042B00D028E7F808344B48
:101A900077070743F0089C4200D04AE23B0003432B
:101AA00059D080263603064336032D4C360BDAE731
:101AB000002961D04146091B002C00D1B9E0284C17
:101AC000A04500D1A5E10127382913DC8024240496
:101AD00026431F2900DDC8E1202437004846641A48
:101AE000A740C84007434846A040CE40441EA041FE
:101AF0009B190743BF189742924152424446D61859
:101B000063E7380001F0D0FE030018331F2B00DC20
:101B1000BFE63A00083882409C4200DD83E01B1B90
:101B2000581C1F2800DCB4E117001F3BDF402028B1
:101B300005D040231B1A9A40531E9A411743002494
:101B4000002F0AD07B0700D0C4E626009EE74B4654
:101B50000C00D8089BE70027014C002683E7C0460D
:101B6000FF070000FFFF7FFFFE0700004B467707DF
:101B7000D8080743F00891E7CD4F611C39426BD17B
:101B8000310048460143002C00D04BE11F001743B1
:101B9000002900D181E1002F00D14CE74A444A4599
:101BA0008041F61840423618330200D5B0E11700E4
:101BB0009146374300D03EE7002654E74946891A4C
:101BC0008846C145BF41F11A7F42C91B0F0261D44B
:101BD00047460F4300D1BDE00E00474651E6B54CE5
:101BE000A04500D100E10127382900DDB8E68024B6
:101BF00024042643A3E6B04EE41A16407B0700D027
:101C00003FE743E70F001800203FF84084462029B3
:101C100003D04027791A8B401A43531E9A416346DA
:101C200017001F4322E6A448E11A10404707C008E6
:101C300007E734004846044300D1FAE04C1E01296E
:101C400000D1D7E09B4FB94200D1E2E00127382C08
:101C500000DD4FE721003CE7964CA14200D1DDE0DA
:101C60004A444A458041F31840421818C7075208B1
:101C700017434608520705D00F220C003A40042AA9
:101C800000D02CE67607FF0837430009D9E6002785
:101C90000026E8E64946571ABA4292419E1B524234
:101CA0006546B61AEDE5002900D0C6E0002F67D1E1
:101CB000802600257F4C3603D5E665460C001E00C5
:101CC000D008E4E64A444A458041F31840421818D7
:101CD0001100030200D496E0774B49081840C3076F
:101CE0000B434408490700D129E10F221A40042A76
:101CF00000D1EAE01F1D9F42B64176423619022408
:101D0000C4E649468F1AB9458041F61A4042361A50
:101D1000330206D47307FF0801211F43F00890E641
:101D200065460124ABE54B467707D8080743F00822
:101D3000B4E60F001800203FF8408446202903D065
:101D40004027791A8B401A43531E9A416346170065
:101D50001F4335E600250024002684E60C003500EC
:101D6000203CE540202905D04024611A8E40494698
:101D7000314389464846411E884107002F43EFE51D
:101D8000D2085F0765461743D80887E6171ABA4294
:101D900092419E1B5242B61A3302C1D47307FF0808
:101DA000654601211F43F0084BE6002F7BD06546B6
:101DB0001E0091463FE6811A8846C145A441F11AAA
:101DC0006442091B80242404214277D0101A8242E5
:101DD000924107009E1B5242B61A374300D0A0E042
:101DE0006546002400263EE65F07D2086546174395
:101DF000D80853E6811891429241F0185242801857
:101E0000030200D568E74707C9080F43C00801214E
:101E100017E6D2085F071743D8083FE60C000026F4
:101E2000002720E6002956D15F07D2081743D808BB
:101E300034E60C001E00D00829E6C10870070143F3
:101E4000F008002F62D080242403204207D0DE084F
:101E5000264204D165463000D1085B0719434F0F75
:101E6000C900C9087F070F4318E60C003000203C6A
:101E7000E0408446202905D04024611A8E4049461E
:101E8000314389464846411E8841614607000F4359
:101E900030E620210027091A0EE51E00002F00D091
:101EA00022E5002458E7002500240026DBE5C04693
:101EB000FE070000FF070000FFFF7FFF47460F43BC
:101EC00000D147E70E00C146B5E5DF0864070221EF
:101ED00027430009B5E51900C008770707431143F8
:101EE000F008002900D1D9E580210903084207D074
:101EF000DC080C4204D1D2085B071A43170020000B
:101F00007B0FFF00FF085B071F43C7E50F00C5E518
:101F1000124BD20833405F075B02012417431E0BAC
:101F2000A1E5264212D00D4B6546020001241E4059
:101F3000E6E4210085E51700A8E53A00D4E4DB08D3
:101F400064071C432700022100097AE5C0087707CF
:101F5000074365460021F00873E5C046FFFF7FFF99
:101F6000F0B5DE46454657464E46E0B587B000928E
:101F700001930B031B0B9B46CA0F4B0004008046CA
:101F80005B0D029200D198E07C4A934237D05946CB
:101F9000420FC9000A43802109041143C200904640
:101FA000774A894692469A44002300240393009E70
:101FB000019F3B031B0B9B467B0030005B0DFD0F1D
:101FC000002B59D06D4A934248D05946720FC90030
:101FD0000A438021090411438B466949F2008C466B
:101FE00051466344CB1A9A460021029E6E40F6B2D7
:101FF0000F2C00D9CEE0634BA4001B599F465A46D4
:102000000243914600D090E09A460223904608246D
:102010000393CCE7CB464246029D0399022900D1A7
:10202000DEE1032900D18DE0012900D079E12E0005
:1020300000220023002490461B052343F607334368
:102040004046190007B0F0BCBB46B246A946A046C0
:10205000F0BD002200249046484BEDE75A46009B15
:102060001A43494B9C46E244002A59D102231C439F
:10207000002302219B46B8E75A46009B1A4349D0E9
:102080005B46002B00D19CE1584601F00DFC02009C
:1020900003000B3A1D27009EBA1A19005846D64075
:1020A00008398840320002439346009A8A403749F3
:1020B00053448A4600219A4497E75B460343994676
:1020C00021D05B46002B00D169E1584601F0ECFBC2
:1020D0000B235B429C460200844466461D239B1BE7
:1020E000260011005846DE4008398840330003437B
:1020F000994623008B409846254B00249B1A9A460C
:102100000023039353E7002398469A46013304249F
:1021100003934CE701231C43002301219B4664E702
:102120000323320003211C435FE79A460323D94669
:102130000C2403933BE700238024984600260F4B92
:10214000240379E780245B4624031C4324032E00E8
:1021500090460A4B240B6FE780244B46240323420E
:1021600002D05B462342F0D080244B4624031C431C
:102170002403029E014B240B5EE7C046FF070000CC
:1021800001FCFFFFF42F010801F8FFFFF30300003B
:102190000DFCFFFFCB4500D2F8E000D1F3E00123B6
:1021A0005B429C46444648460025E2445B46170E87
:1021B0001B021F43190C3B04120200971F0C91468F
:1021C00002910397FEF738F802007A430B04210CC2
:1021D000804619438A4209D9009F0123BC465B42CD
:1021E00061449C46E0448F4200D85CE1881A029921
:1021F000FEF722F8039A240442430904240C030046
:102200000C43A24206D90099013B8C466444A1428A
:1022100000D842E1A01A424612041A4393464B46A4
:1022200059461B0C1F0004930B0449460904090C72
:102230000C001B0C5C43120C7B43884651437A43D1
:10224000270CBC465B186344994203D9802149029C
:102250008C466244190C24041B04240C8A181C1993
:10226000904202D316D1A54214D25B46009F013B97
:102270004D4405934D459B41BC465B426344C018A9
:10228000874200D302E1824200D929E100D124E152
:10229000059B9B462C1BA542AD41009B801A6D42BD
:1022A000401B834200D10FE10299FDF7C5FF039A5D
:1022B0000B044243210C050019438A4200D9CBE0AC
:1022C000881A0299FDF7B8FF039A240442430904CF
:1022D000240C03000C43A24200D9CAE04146A41AD0
:1022E0002A041A43049F13041B0C594340467B43A2
:1022F0009C46150C68430B0C844463447D43984210
:1023000003D98020400284466544180C09041B044C
:10231000090C40195B18844227D323D001233500D0
:102320001A43944B5344002B60DD510700D086E0E4
:102330002E00D1085A46D20106D55A468E4B1A4075
:1023400080239346DB0053448C4A934200DD80E6B1
:102350005A4652070A4390465A465B055402240BDC
:102360005B0D69E63500002BDBD0009D511EAC46AD
:102370006444AC4200D29EE0844200D2E1E000D14D
:10238000EEE00A00CAE7424500D908E74B46DC0701
:10239000580843465B081C434346DD0706E701F047
:1023A00083FA15239C4684440200634620321C2B8A
:1023B00000DC92E6230008388340994600239846C3
:1023C0009AE601F071FA02000300153220331C2A4C
:1023D00000DC5FE600990838814000228B4666E603
:1023E00000222E0000249046654B25E62E00012198
:1023F000C91A382900DD1BE61F297EDC614814005C
:1024000050445B4682408340CC40501E824123436F
:102410001A435B46CB40510709D00F2111400429D4
:1024200005D0111D9142924152429B180A00190297
:1024300000D49BE00022012300249046FCE50F21FC
:102440001140042900D173E7111D9142924152427B
:102450002E00C90893446DE7009B013D9C466144F2
:102460008B4200D92CE78A4200D829E7851E6144B7
:1024700026E70099013B8C466444A14200D92DE730
:10248000A24200D82AE7831E644427E7874200D08F
:10249000FEE6A94500D9FBE6F5E6A24200D8B9E67A
:1024A000831E6444B6E68A4200D89FE6BC46831E7B
:1024B000984661449AE60A00844200D02EE74B45D4
:1024C00000D02BE735002CE72A4B2F4A5344924586
:1024D00043DB0122002193442CE7AC4200D8D7E62D
:1024E00002235B429C4600994D444D459B41E34489
:1024F0008C465B426344C018CCE61F204042C31A9E
:102500005846D840202904D05946204B534499407E
:102510000A43531E9A410723190002430024114025
:10252000134209D008331340042B1DD0131D9342CE
:1025300089411A0049424907D2080A4390460023BC
:102540007AE54946009F4D004D458941BC464942C8
:102550006144A946023A6418AEE70122524246E7B6
:102560009945EED30A00AAE70021E5E759075B0287
:102570001C0BE1E7FF030000FFFFFFFEFE0700006A
:10258000FF0700001E04000002FCFFFF3E040000E5
:10259000F0B55746DE464E464546E0B50D00040010
:1025A000E80F83460903D80F090B824619488C4669
:1025B0001F0369005E00490D3F0B760D814218D064
:1025C00086420FD00120B1420DD1BC450BD19442BF
:1025D00009D1D3451CD0002905D160462043431EB4
:1025E000984100E00120F0BCBB46B246A946A04697
:1025F000F0BD01208E42F6D1614639430F001743EA
:102600002743F0D15B465246981A431E9841EAE7A9
:102610000020E8E7FF070000F0B557464E46454664
:10262000DE46E0B50D000E034900490D8A46DF0F76
:10263000E90FBC4683B02F4F04008046019158003B
:1026400019039146360B090B400DBA451DD0B8420F
:102650000DD05746002F2AD13443002824D10A43F5
:1026600036D0002C41D163465800013815E01143A3
:1026700038D15346002B01D12643F4D0019B63454A
:1026800007D1019B5800013807E026432AD1504565
:1026900021D00120019B5F42384303B0F0BCBB4610
:1026A000B246A946A046F0BD002CDCD0E6E70028E3
:1026B000EFD0019B6345ECD18245EADCE1DB8E4241
:1026C000E7D8DED1C845E4D80020C845E5D2D8E730
:1026D000002CE2D0DDE7114304D1019B6345D8D142
:1026E0000020DAE702204042D7E7019B6345E6D0AD
:1026F000CFE7C046FF070000F0B557464E464546B7
:10270000DE46E0B50D000E034900490D8A46DF0F95
:10271000E90FBC4683B02E4F04008046019158005B
:1027200019039146360B090B400DBA451ED0B8422D
:102730000DD05746002F27D13443002833D10A4308
:1027400034D0002C40D163465800013815E01143C5
:1027500012D15346002B01D12643F4D0019B63458F
:102760001DD00120019B5F42384306E0264303D180
:102770005045F6D111431CD0022003B0F0BCBB463B
:10278000B246A946A046F0BD0028EAD0019B6345A9
:10279000E7D18245E5DC02DB8E42E2D80ED0019B18
:1027A00058000138E9E7002CCDD0D7E7002CE4D061
:1027B000D7E7019B00206345DFD0D2E7C845D0D8DA
:1027C0000020C845D9D2EAE7019B6345E4D0C8E7B9
:1027D000FF070000F0B557464E46DE464546E0B5D9
:1027E0001F000B031B0B16009A46CA0F4B00040078
:1027F000914685B05B0D00D1CFE1CD4A934255D0D3
:102800005146420FC9000A43802109041143C20006
:102810009046C84A8A4693469B440023002502936B
:102820003C037B00FA0F0196240B5B0D009200D154
:1028300088E1BF4A934200D192E0BE4A9446634485
:102840009B440A2D42DCE400730F23438024494655
:1028500024041C43F3000193009B00205940CBB299
:102860000393022D00DC94E00123AB401D00A6235E
:102870002A00DB001A401D4200D029E290239B0071
:102880001D4200D14DE20023802499462403A84B29
:1028900010004A461B052343D2071343190005B015
:1028A000F0BCBB46B246A946A046F0BD5246024324
:1028B000904600D0ACE19B46022392460825029345
:1028C000AEE7009BA2469946019B9846029B022BCD
:1028D00000D1CAE1032B00D192E1012B10D10023DA
:1028E00000240022D4E701227B083A4013435246D9
:1028F000D2071343984653465B089A46039B994672
:102900005B46581C8023DB005B44002B00DCB1E1FC
:10291000424652070BD00F2241460A40042A06D0F5
:102920004246111D414592418846524292445246C8
:10293000D20106D55246804B1A4080239246DB00D6
:10294000C3187E4A934200DD8FE14246D1085246C9
:1029500052070A4351465B054C02240B5B0D97E777
:10296000734B26439C46E344002E00D16FE10323C2
:1029700049461D43009B5940CBB203930A2D00DD0D
:1029800033E10123AB401D000323029388222A4236
:1029900097D1424643461204120C160001981D0CB2
:1029A000030C0004000C4643B4461E006E43009620
:1029B000160007005E436146B0466F430E0CB844F4
:1029C0004644B74205D9802149028846009F4744C2
:1029D000009761460904090C370C36048C46310017
:1029E000614401911100260C2404240C61438C469F
:1029F0002100694389466146090C884672434A446E
:102A000042447543914503D9802149028846454493
:102A1000110C884661460904090C8C461204624474
:102A2000B91802915146090C8C4651460F043F0CCF
:102A30003900414345448846614641438A46414600
:102A40006046090C894658437B4353444B449A459E
:102A500003D98021490289464844190C89464146D8
:102A60000904090C8846390061431B044344884625
:102A700061464C4371438C46414677430E0C3F19E7
:102A8000F6194844B44203D9802149028946CC440E
:102A90000299009F894631044F4489464146974236
:102AA00092410C04240C4C44FF1852426419A118A2
:102AB0009F429B41884682465B429946904592419F
:102AC000AC42A441C244D1445242644214439945A9
:102AD0009B41824592415B42524213434A46360C27
:102AE000A419E31863445B02D20D1A43019992467C
:102AF0007A020A43501E8241FF0D17434A46520292
:102B00001743B846DB0100D5EDE60D4B039A5B4455
:102B10009146002B00DCACE03A00520700D110E7F0
:102B20000F2258463A40042A00D0F9E609E7C04689
:102B3000FF07000001FCFFFFFFFFFFFEFE07000094
:102B4000FF030000220032436FD0002C00D1C2E00E
:102B5000200000F0A9FE020003000B3A1D20821A9B
:102B600030001900D04008398C4002002243340064
:102B70008C405946CB1A86498B469B440A2D00DD72
:102B8000A4E64946009B01945940CBB214000020B2
:102B90000393022D00DD67E6FBE6534603439846A8
:102BA0003CD05346002B00D1A3E0504600F07CFE01
:102BB0000B235B429C4602008444110050460839B6
:102BC00088401D23804660461B1A2000D840030021
:102BD000404603439A4623008B4098466C4B0025A1
:102BE0009B1A9B46002302931AE60F2D00D0C9E0E2
:102BF000802352461B031A4202D01C4200D192E0AD
:102C00008024534624031C4324034246240B3EE6FF
:102C10009B46032380460C25029301E600239A4637
:102C20009B46013304250293FAE501210D430A2D49
:102C300000DD4BE6494600984140C9B20391022DA0
:102C400000DC96E000230024012001930CE64946B5
:102C50000223009A2B435140CAB203920A2B00DD93
:102C600034E6002D57D1039B994600240022494B9E
:102C70000EE658460121C91A382900DD2FE61F2922
:102C800056DD1F2254465242D31ADC40202907D079
:102C9000414B42469C465346604483401A4390460B
:102CA00042460721531E9A410B0022431340002441
:102CB000114209D00F231340042B5DD0111D914206
:102CC0009B410A005B425B07D2081A430023DFE501
:102CD000039B9946FAE5019800F0E6FD0200030027
:102CE000153220331C2A00DC38E7019A083882406C
:102CF0003FE700F0D9FD15239C468444020063465B
:102D000020321C2B00DC58E70023984623000838AB
:102D100083409A4662E71D000023002402200193AD
:102D2000A2E5029032E61C43009B019A9946AEE56B
:102D30001A4B5246C31840469A40C8400243404688
:102D400098400300581E834154461A43CC40530711
:102D500009D00F231340042B05D0131D9342924139
:102D60005242A4181A00230208D50123002400228D
:102D70008EE5894600248BE50023A5E763076402FE
:102D8000240BA1E7009BA2469946019B984637E792
:102D90000DFCFFFFFF0700003E0400001E040000C2
:102DA000F0B557464E464546DE46E0B583B0009046
:102DB00001910C034D00CE0F610A009C5F00640F6F
:102DC0000C43009900920193C80019037B0D9946AA
:102DD000019BCC4FDB0F9C464B0A00998046490F64
:102DE0001943009B8B46DA0092466D0DB94500D120
:102DF000BFE00123614659404B468C46EB1A8E4298
:102E000075D0002B00DCA3E24946002900D1CEE0BA
:102E1000BD4200D100E20127382B19DC802759463A
:102E20003F0439438B461F2B00DDFAE12027F91AB6
:102E30008C4659466746B9400F001100D9400F43F0
:102E400061468A40511E8A415946D9401743641A47
:102E5000C71BB84280414042241A230200D440E1FB
:102E60006402640A002C00D154E1200000F01CFD33
:102E70000300083B20213800CA1AD0409C400200C1
:102E80009F4022439D4200DDA6E1581B0130091AF4
:102E90003C008F40C4407B1E9F4113008B40274362
:102EA0001F43C2403B0014000025134300D1F7E14B
:102EB0007B0700D177E30F2338003B40042B04D07D
:102EC000381DB842BF417F42E419230200D468E3B1
:102ED0008C4B01359D4200D1F4E08B4B6D051C40BD
:102EE0006D0D6707C00864020743240BECE0002B5C
:102EF00000DC29E34946002900D0D6E059461143B9
:102F000000D12EE1591E012B00D1E6E1BB4200D1D8
:102F100082E101270B00382914DC1F2B00DD3CE285
:102F20002027F91A8C4659466746B9400F00110010
:102F3000D9400F4361468A40511E8A415946D940C3
:102F4000174364183F1887428041404224182302E7
:102F500000D4C6E06B4B01359D4200D1B2E00121A7
:102F6000694B7A081C4039400A43E7071743640855
:102F70009EE7664B11438A46EB18002928D0664528
:102F80002CD0002B5BD0002D00D12CE15B46664697
:102F90005F07D2081743DD083B002B4300D1E2E076
:102FA000802424032C432403564D240B8CE05946E3
:102FB000114300D1D5E0591E012B00D1B9E1BB422C
:102FC00000D1B1E101270B00382900DD40E72AE7F5
:102FD0006146012779408C466645D2D1002B00D14D
:102FE000C5E0002D00D055E14B462500054300D13A
:102FF00012E2591E8C46012B00D149E2414DAB42F1
:1030000000D18FE20127382911DC63461F2B00DD38
:103010005BE26146202327005B1A050098409F4031
:10302000CD40431E9841CC402F430743A344BF18D3
:103030009742924152425A4414004D4687E7344F1A
:103040006B1C3B4200D0B6E05946230011430F00F1
:103050000343002D00D026E1002B00D1C0E1002960
:1030600000D1A1E0831A98465B464045AD41E31A82
:103070006D425B1B80252D042B4200D14BE15B464A
:10308000101A824292411C1B0700012663465242DD
:10309000A41A27431E40002F00D142E12C4200D148
:1030A0006DE2194B01251C401BE7BD4200D13BE1FD
:1030B0000127382B00DD45E7802759463F04394377
:1030C0008B462AE7002400272D052543F6073543C4
:1030D0003800290003B0F0BCBB46B246A946A04662
:1030E000F0BD7B0704D00F233B40042B00D0E7E664
:1030F0002B00F808034A67070743E508934200D10D
:103100004AE7A5E0FF070000FFFF7FFF01F8FFFF90
:10311000FE070000380000F0C7FB030018331F2B28
:1031200000DCA7E63A00083882409D4200DD8AE0D4
:103130005B1B581C1F2800DCD8E117001F3BDF4039
:10314000202805D040231B1A9A40531E9A4117434A
:103150000025002F00D1E5E07B0700D0ABE62C0076
:10316000C6E7C008C6E700270024D14DACE7D14F21
:103170006B1C3B4271D123000343002D00D04EE174
:103180005746002B00D1B5E1002F0DD083188342A4
:1031900080415C4440422418220200D5C8E11F004F
:1031A0009846274300D1BCE043466707DB081F432E
:1031B000E50800234CE0831A98465B464045BF4132
:1031C000E31A7F42DB1B1F027CD447461F4300D11A
:1031D000A6E01C00474645E6B74CED1A14407B07B5
:1031E00000D080E784E74B462500054366D05F1E8C
:1031F000012B00D1FCE0AE4DAB4200D15EE1664652
:10320000382F00DCB4E00120171ABA4292415B4625
:1032100052424D469C1A20E66707C0080743E5085E
:10322000BAE61F005946203FF9400F00202B05D079
:103230004021CB1A594699400A43924653465A1E9A
:1032400093411F4304E6EB1A9B4D15406F07ED08B1
:103250002C035D05240B6D0D36E7954DAB4200D177
:10326000D6E0821821008242804159444042081829
:10327000C707520817434408520700D485E10F22BC
:103280001D003A40042A00D01AE6FF0864072743CD
:103290000509DDE75B46D2085F071743DD087BE6DB
:1032A0000027002410E7002B00D0D6E0002900D032
:1032B0002FE1802400267E4D240305E766465C4608
:1032C000D00817E75B46171ABA4292411C1B012629
:1032D00063465242A41A1E40C4E5831883428041CB
:1032E0005C44404225182A0200D4DAE0724A5B08A6
:1032F0001540EA071A4369085B0700D44AE10F2327
:103300001340042B00D1FCE0171D9742A4416442F6
:1033100002256418ECE647461C001F4300D043E733
:10332000002600250024CFE6C00867070743E5080C
:1033300032E6871A5B46B8428041E41A4042241ABA
:10334000230228D46307FF081F43E50801237FE712
:10335000002B00D173E64B465F1B3B00002D00D1D4
:1033600042E7382F00DDECE080230E001B041C43F5
:103370001F2F25DC20252300ED1B0100A840AB40BA
:10338000F940451EA8410B43FC4018435B461B1BFC
:103390009B4639E76646012562E51F005946203FF6
:1033A000F9408C46202B05D040275946FB1A9940FE
:1033B0000A43924657467B1E9F4163461F43C1E521
:1033C0003B002500203BDD40202F04D04023DB1BA9
:1033D0009C40204380464046431E9841284313E7C3
:1033E00000299DD0012663465C4690461E40DBE6E0
:1033F000171A5B46BA4292411C1B5242A41A23027E
:10340000C8D46307FF081F4366460123E5081FE78A
:103410001D000024002757E65C46D0086AE6002B12
:1034200000D137E75346C00867070743E508002B7C
:1034300000D1B1E580231B031D4208D05946C808BE
:10344000184204D1D20849070A43170005007B0F30
:10345000FF00FF085B071F439EE5C0086307184392
:10346000E508002953D080231B031D420AD059468A
:10347000CC081C4206D1012663462500D008490726
:1034800008431E40470FC000C0087F07074383E57D
:103490008318934292415C445242A5182A0200D5F7
:1034A00024E76F07DB081F43ED080123D0E6C04681
:1034B000FF070000FE070000FFFF7FFF5B46D2080A
:1034C0005F0766461743DD0866E52500203BDD40C3
:1034D0006346202B05D0402361465B1A9C40204365
:1034E000804647467B1E9F412F43A0E520210027B1
:1034F000091AD2E4002F00D113E75C46170000251B
:10350000F6E5D708490702230F432D09A0E6070077
:1035100042E55B4601265F07DD086346D208174394
:103520001E4039E55B46D2085F071743DD0833E5E7
:103530001E4ADB0822405707520201251F43140B85
:10354000C2E50E0001205FE6002B0DD04B465B1B51
:103550009C46002D00D148E50127382B00DD66E5AB
:1035600080231B041C4350E56B1C114D2B4200D0E3
:1035700073E65946230011438A46034300E6670772
:10358000C00800230743E50862E66407FF082743F5
:1035900005095DE6D208490711430F0002232D09F2
:1035A00056E60700A4E538008FE4C046FFFF7FFF22
:1035B000FE070000F0B5C6461E03360BB0460D4EA2
:1035C0000C034D005F0000B5240B6D0D7F0DB5425F
:1035D0000BD0084900208F4204D1464616433000E4
:1035E000431E984180BCB846F0BD04430120002C26
:1035F000F8D1EEE7FF0700000B00020070B5164D92
:103600000C0382B04900002000920193240B490D65
:10361000DE0FA94204DD1148814203DD104BF01892
:1036200002B070BD8020400320430E4C641A1F2C52
:1036300008DD0D4B5B1AD84003005842002EEFD135
:103640001800EDE7094B009A9C46030061448B404B
:10365000E2401343F1E7C046FE0300001D040000F2
:10366000FFFFFF7F3304000013040000EDFBFFFFAA
:1036700070B5002816D0C317C5185D40C40F2800C8
:1036800000F012F9104B1B1A5B055B0D0A2814DCC5
:1036900002002E00153296400B22121AD5402D033F
:1036A0002D0B03E000240023002500261B052B43DF
:1036B000E40723433000190070BD0B3885402D030B
:1036C00000262D0BF2E7C0461E04000010B5041EB4
:1036D00010D000F0E9F80E4B1B1A5B055B0D0A28B1
:1036E0000FDC0B222100121AD14015300A0384404E
:1036F000120B01E0002300221B05134320001900D8
:1037000010BD22000B38824012030024120BF3E795
:103710001E04000070B542024300C40FFE201B0EC1
:10372000591C550A08420CD0E02189008C466D07CF
:10373000120B63441B051343E407234328001900BD
:1037400070BD002B14D1002D1BD0280000F0ACF868
:103750000A281CDC0B232A001B1ADA40030015334D
:103760009D400E4B12031B1A5B05120B5B0DE1E72C
:10377000002D09D0130B802212031A436D07084B4A
:10378000D8E700230022D5E70022054BD2E703004B
:103790002A000B3B9A400025E3E7C046890300005E
:1037A000FF070000F0B54B000F035B0D3A4C450FCF
:1037B00083B07F0A5E1C2F4300900191CA0FC500A1
:1037C00026420BD035495C18FE2C13DDFF20002368
:1037D000C0051843D207104303B0F0BD3D43002B92
:1037E00001D10020F4E7002DF0D08023DB03FF207F
:1037F0003B43EDE7002C0CDD009BFF009B01581EB6
:103800008341690F3B430B43590727D1DB08E0B2E3
:10381000DEE72100173131DB80211E200904394306
:10382000001B1F282DDD02267642341B0E00E640C9
:103830003400202804D01A488446634499400D433C
:103840002B00591E8B412343590703D00F211940E8
:1038500004290BD19B0100205B0AB9E70F21194015
:10386000042904D19B015B0AE0B2B1E700240433D0
:103870005901F7D501340023E0B2A9E70020002365
:10388000A6E7084C1C192B00A540C340A140681EA8
:10389000854129430B43D7E7FE07000080FCFFFF6B
:1038A000A2FCFFFF82FCFFFF1C2101231B049842A6
:1038B00001D3000C10391B0A984201D3000A0839C1
:1038C0001B09984201D30009043902A2105C401878
:1038D0007047C0460403020201010101000000001C
:1038E0000000000010B5002903D1FFF7DDFF2030F4
:1038F00002E00800FFF7D8FF10BDC04670B545468E
:103900004E46D646944660B51A00079B0024994659
:10391000089B654698462C60454614602C604D46D1
:10392000099B2C60002B21DD050003E001340435E8
:10393000A3421BD02E688E42F8DB464614602968ED
:103940003160002C27D06546611E296017498A46E0
:103950005444A40021584C462160002923D0012161
:10396000080070BCB246A946A04670BD002144467E
:103970002468002CF4D1013B136099000B58414698
:103980000B6013686246013B13604A469B001B585C
:1039900001211360E4E70121116041683160614653
:1039A0000C602968D7E70131E1E7C046FFFFFF3F20
:1039B00070B505001C008A420DD01800A94209DC30
:1039C0000498AA4206DB6D1AC01A6843511AFCF724
:1039D00037FC001970BD049B1B19D80FC01840108C
:1039E000F8E7C04603000002000A1B0202D5FF23CD
:1039F0001B0618437047C04680231B04984203D31C
:103A0000C0434002400AC0437047C0461A2110B567
:103A1000024B034A03480DF01BF9C046343001083D
:103A2000B038010838300108242110B5024B034A90
:103A300003480DF00DF9C04634300108A0380108E4
:103A400038300108F0B5C6460A23012400B5234EDC
:103A500086B005AD2870984602936B224421300051
:103A600001940095093B05F0F7F9002831D1434650
:103A700004AF3C706C220293442101233000019476
:103A8000009705F0E9F9002823D1193004F034F843
:103A9000434667220293442101233000019400959C
:103AA00005F0DAF9002816D143462D7868220293F2
:103AB0004421012330000194009705F0CDF900283E
:103AC00009D107483B780570437006B080BCB84602
:103AD000F0BDFFF79BFFFFF7A7FFC04610060020D1
:103AE000FC020020F0B500220A2601258DB0A14C71
:103AF00009AB1A704421009320000123029601951E
:103B00000D3205F0A9F9002800D031E1052708ABF6
:103B10001F700E220093442101232000029601957C
:103B200005F09AF9002800D022E1452207AB1A706F
:103B3000442100932000012302960195363A05F0B6
:103B40008BF9002800D013E106AB1F700B22009305
:103B50004421012320000296019505F07DF90028FB
:103B600000D005E1032205AB1A7044210093200028
:103B7000012302960195063205F06EF9002800D067
:103B8000F6E079220BAB1A70442100932000012348
:103B900002960195143A05F05FF9002800D0E7E09D
:103BA00082220AAB1A70442100932000012302965E
:103BB0000195513A05F050F9002800D0D8E00A30BC
:103BC00003F09AFF0020FFF73DFF0120FFF73AFFC7
:103BD000017842780B0213430904674C12060B4329
:103BE00013430220A362FFF72DFF0320FFF72AFFF4
:103BF000017842780B021343090412060B43134366
:103C00000420E362FFF71EFF0520FFF71BFF01788A
:103C100042780B021343090412060B431343062098
:103C20002363FFF70FFF0720FFF70CFF01784278AF
:103C30000B021343090412060B431343082063636A
:103C4000FFF700FF0920FFF7FDFE017842780B0225
:103C50001343090412060B4313430A20A363FFF71F
:103C6000F1FE0B20FFF7EEFE017842780B021343C2
:103C7000090412060B4313430C20E363FFF7E2FE33
:103C80000D20FFF7DFFE017842780B021343090491
:103C900012060B4313430E202364FFF7D3FE0F20BD
:103CA000FFF7D0FE017842780B0213430904120695
:103CB0000B43134310206364FFF7C4FE1120FFF78A
:103CC000C1FE017842780B021343090412060B432C
:103CD00013431220A364FFF7B5FE1320FFF7B2FED3
:103CE000017842780B021343090412060B43134375
:103CF0001420E364FFF7A6FE1520FFF7A3FE01786A
:103D000042780B021343090412060B431343162097
:103D10002365FFF797FE1720FFF794FE017842789E
:103D20000B021343090412060B4313431820636567
:103D3000FFF788FE1920FFF785FE017842780B0215
:103D4000134309040B43120613432A20A365FFF70C
:103D500079FE437802781B0213432B206384FFF71C
:103D600071FE437802781B021343A3840DB0F0BDAB
:103D7000FFF74CFE10060020000300200023136014
:103D80007047C0467047C046012313707047C04655
:103D900010B501220121034804F088FC0A200AF032
:103DA0008FF810BD00040050F8B54746CE46164BBC
:103DB000164E80B514005F681A683368050000214C
:103DC000181C90469946FCF771FB002808D17668CC
:103DD0000021301CFCF76AFB002801D1C846371CC3
:103DE0002800FDF761FC4146FDF780F8391CFCF71F
:103DF000BDFC0749FDF77AF8FDF736FC2060C0BC32
:103E0000B946B046F8BDC046403F010800F8010879
:103E10000000C8420023012130B50F4C83B0226856
:103E20000193936A0500DB0CDB049362936A0091B3
:103E30000B4393626946200004F042F8200003F02F
:103E4000A1FF0221200003F0C9FF200004F034F894
:103E5000288003B030BDC0466805002070B505005D
:103E6000140082B0012903D00123237002B070BD79
:103E70000023104E019332680F4B01310093936A77
:103E80003000DB0CDB049362936A0B439362694658
:103E900004F016F8300003F075FF0221300003F043
:103EA0009DFF300004F008F880B201F085FB286027
:103EB000DAE7C046680500200200000480221206EE
:103EC0009446074B10B51C68064B58681968604447
:103ED000FCF73EFEFDF7C8FBE389C01A606110BD28
:103EE000F8000020403F0108F0B5DE464E4645464A
:103EF0005746E0B52B4C8BB0A07CE37C00041B0242
:103F00001843237D1843FFF777FD637B0500207B73
:103F10001B0200041843A37B1843FFF76DFD236CBD
:103F200006009846A079E37900041B021843237A1F
:103F3000276A1843FFF760FD636C81469B461A4B66
:103F40001A78002A22D1194B9A465846FFF7E2FB0D
:103F50004B460890099140460693FFF7DBFB04901F
:103F60000591381CFFF7D6FB114C029003912300FA
:103F7000F222514600200196009502F017FB0BB08B
:103F8000F0BCBB46B246A946A046F0BD00221A705E
:103F9000064A00209246074BEF22514602F006FBEC
:103FA000D3E7C046F004002000000020A83001083C
:103FB000B430010858300108F0B5CE46474680B508
:103FC00097B001F0A5FF242304AD24220021FE2098
:103FD0002B7002F05FF8012800D163E11124122652
:103FE000FF276C446E4422009021FE20277037701A
:103FF00002F0CAF832009121FE2002F0C5F8B54B5C
:10400000B549994688463278237812021343002036
:10401000462200930B00494602F0C8FA0122902183
:10402000FE2002F037F802229121FE2002F032F841
:1040300022009021FE2002F0A7F832009121FE20FC
:1040400002F0A2F8327823781202134349464D2237
:1040500000200093434602F0A9FA01229F4B302131
:104060001A700A230932FE202B7002F013F80A207E
:1040700009F026FF2A003021FE2002F085F80A20F0
:1040800009F01EFF072307229321FE202B7002F068
:1040900001F80A2009F014FF2A009421FE2002F002
:1040A00073F80A2009F00CFF812381229421FE205D
:1040B0002B7001F0EFFF0A2009F002FF2A00942183
:1040C000FE2002F061F80A2009F0FAFE2F237F2477
:1040D0002F229521FE202B7001F0DCFF0A2009F031
:1040E000EFFE96212A78FE2001F0D4FF7F22A42142
:1040F000FE202C7001F0CEFFFF22A521FE202F70A4
:1041000001F0C8FF13226A441470A42105ACFE20FC
:10411000277002F039F82200A521FE2002F034F8C1
:104120001624152200236A446C44A621FE20137035
:10413000237002F029F82200A721FE2002F024F8C3
:1041400006AB9846402640221800444664490DF0CC
:1041500049FC764216AF361B31192278FE20C9B2CF
:10416000013401F097FFA742F6D1002407229F21D6
:10417000FE2001F08FFFC022A021FE2001F08AFF67
:10418000F822A121FE2001F085FF4022A221FE207D
:1041900001F080FF0A202C7009F092FEAE212A78EF
:1041A000FE2001F077FF0A2009F08AFEAF212A786D
:1041B000FE2001F06FFF0A2009F082FEB0212A786C
:1041C000FE2001F067FF0A2009F07AFEB1212A786B
:1041D000FE2001F05FFF0A202C7009F071FEB5216E
:1041E0002A78FE2001F056FF0A2009F069FEB62168
:1041F0002A78FE2001F04EFF0A2009F061FEB72167
:104200002A78FE2001F046FF0A2009F059FEB82165
:104210002A78FE2001F03EFF0022B921FE2001F0A5
:1042200039FF0022BA21FE2001F034FF0022BB2119
:10423000FE2001F02FFF0A2009F042FE0323424630
:10424000B921FE2001F060FFAE2249460020254B37
:1042500002F0ACF9424692784946029242465278C0
:10426000214B01924246127800200092AF2202F0C8
:104270009DF90A2009F024FE6B46DC7517236B4478
:104280001A009621FE2001F07FFF6B46DB7D9B0626
:104290005B0F072B1BD8154A9B00D3589F46144A27
:1042A000144B1A6017B0C0BCB946B046F0BD8322AB
:1042B000D205F5E78422D205F2E70F4AF0E785221E
:1042C000D205EDE70D4AEBE78622D205E8E7822228
:1042D000D205E5E7A8300108CC3001083C050020F4
:1042E000382F0108E030010808310108C038010802
:1042F0000000404138050020000040420000C0425C
:10430000054B10B5186C05491400FCF7EFFDFDF7DF
:10431000ABF9206010BDC046F00400200000C84288
:10432000F8B5754B05001B78002B00D1F8BD734C18
:10433000032322000221FE2001F0E6FE0028F5D131
:1043400023781A0700D5BBE09B0768D43022637836
:104350001A4215D16A4C2368002B05D109F046FD9D
:104360002060FFF7C1FDE1E709F040FDFA22236874
:104370005200C31A9342D9D32060FFF7B5FDD5E7A9
:10438000220009232221FE200F3201F0BDFE002869
:10439000E0D1E07B237C00041B021843637C1843BC
:1043A000FFF72AFBFDF780F95649FCF79FFD564EB3
:1043B0003168FCF7CDFBE37CE061A07C1B020004CC
:1043C0001843237D1843FFF717FBFDF76DF94D499F
:1043D000FCF78CFD3168FCF7BBFBA37D2062607DA0
:1043E0001B0200041843E37D1843FFF705FBFDF7AC
:1043F0005BF94449FCF77AFD3168FCF7A9FB637B64
:104400006062207B1B0200041843A37B1843FFF764
:10441000F3FA3E4B000A9C46604428809AE73C4EE3
:10442000062332001921FE2001F06EFE00288DD1F6
:104430003078737800041B021843B37837001843B0
:10444000FFF7DAFAFDF730F9D8218905FCF74EFDC0
:10445000093FF8637B7B387B1B0200041843BB7B5E
:104460001843FFF7C9FAFDF71FF9D8218905FCF7B2
:104470003DFDBB7A3864787A1B0200041843FB7A4E
:104480001843FFF7B9FAFDF70FF91E49FCF72EFDA7
:104490001D4E3168FCF75CFB7B7BF862387B1B02AE
:1044A00000041843BB7B1843FFF7A6FAFDF7FCF89E
:1044B0001449FCF71BFD3168FCF74AFB386345E7FC
:1044C00003231021E21CFE3001F01EFE002801D063
:1044D000237839E7E078237900041B0218436379D5
:1044E0001843FFF789FAFDF7DFF8E2218905FCF7A9
:1044F000FDFC2378A06327E73C050020F0040020A2
:10450000EC0400200080093938050020FF7F0000FE
:10451000F9040020F8B500230127144D13702B78FF
:10452000060014001F4200D1F8BD03231621FE200F
:10453000AA1D01F0E9FD0028F6D1A879EB79000465
:104540001B0218432B7A1843FFF756FAFDF7ACF815
:10455000E2218905FCF7CAFC054968642770FCF76D
:10456000C5FCFDF781F83060DEE7C046F0040020AE
:104570000000C842F0B5DE4657464E464546E0B517
:104580008BB002F00FF90022B521FE2001F082FD70
:104590000A2009F095FC0022B621FE2001F07AFDE8
:1045A000002302AA9383B521023309AAFE2001F059
:1045B000ABFD482276490020764BFF320C00079174
:1045C00001F0F4FF02AA527F2100019202AA127F99
:1045D000714B0092A4220020520001F0E7FF00235B
:1045E0006E4C9A46303326009946213B9B466C4DD3
:1045F00091366C4FFF36AB4402E00434A64258D0EB
:1046000003232A000221FE2001F07EFD0028F4D1C0
:104610004A466B781A42F0D009235A462221FE30CE
:1046200001F072FD0028E8D1E87B2B7C00041B021E
:1046300018436B7C1843FFF7DFF9FDF735F85A494B
:10464000FCF754FC3968FCF783FAEB7CE861A87C42
:104650001B02000418432B7D1843FFF7CDF9FDF72B
:1046600023F85149FCF742FC3968FCF771FAAB7D3D
:104670002862687D1B0200041843EB7D1843FFF796
:10468000BBF9FDF711F84849FCF730FC3968FCF735
:104690005FFAAB7CEA7C1B04120213432A7D68623A
:1046A00013432360322004349A4409F009FCA642E3
:1046B000A6D164215046FBF7C3FD8146FDF744F8BF
:1046C0008521C905FCF712FC3968FCF741FAFBF7B4
:1046D00069FF0400FFF786F9002852DB8025E30913
:1046E0006D02ED1AAEB22002000AFFF785F9FCF761
:1046F000DBFF2D49FCF7FAFB3968FCF729FA804605
:10470000FFF7F2FB4046FFF705F84B468822274C9F
:1047100002950195079D04900591009329002300BF
:104720000020FF3201F042FFC622340AF6B2204BCD
:104730002900002001960094520001F037FFE2B2F8
:10474000B521FE2001F0A6FC0A2009F0B9FB3200D9
:10475000B621FE2001F09EFC0A2009F0B1FB0023E7
:1047600002AAB5219383FE20023309AA01F0CCFCF2
:1047700002F00EF80BB0F0BCBB46B246A946A0460C
:10478000F0BD80256D042D1BED09AEB2ABE7C04630
:10479000A830010818310108403101085C030020ED
:1047A000F00400203805002000800939503101084C
:1047B000A031010810B504000BF0DEFD0023054A0E
:1047C000126812685362536AA342FCD30BF0E0FDF7
:1047D00010BDC04608000020054B064A10B51868F9
:1047E000118803F05DFF013843425841C0B210BD4B
:1047F0000400002002000020034A044B12681B88BA
:1048000051690B43536170470400002002000020EF
:10481000034A044B1268198853698B4353617047EC
:104820000400002002000020034B04491A681368AA
:104830000B4013607047C04604000020FFF3FFFFE9
:104840008023034ADB00126811680B431360704732
:1048500004000020F0B54546DE464E465746E0B51A
:10486000804683B0C820FFF7A5FF0825CC24012689
:1048700013E0FFF7C1FF3220FFF79CFF6408FFF74A
:10488000D3FFC046C046C046C046C046C046C0462C
:10489000C046C046013D002D0BD0FFF7D1FFFFF70A
:1048A000B7FF0720FFF786FF2642E2D1FFF7B0FFF0
:1048B000E1E7C820FFF77EFF0825BE24012613E0AC
:1048C000FFF79AFF3220FFF775FF6408FFF7ACFF90
:1048D000C046C046C046C046C046C046C046C046A8
:1048E000C046013D002D0BD0FFF7AAFFFFF790FF58
:1048F0000720FFF75FFF2642E2D1FFF789FFE1E7DC
:10490000C820FFF757FF02AB9A460023EB469946B3
:104910000125732408260027FFF77AFFFFF790FF91
:10492000C046C046C046FFF77FFFFFF755FF7B0834
:10493000C0010343013E3020DFB2FFF73BFF002EF2
:10494000EAD15B46C8201F70FFF734FF4B465F403B
:104950002B003B405B427A08A3435340DAB22B4022
:104960005B425208A3435340DAB22B405B425208E9
:10497000A3435340DAB22B405B425208A343534057
:10498000DAB22B405B425208A3435340DAB22B40C9
:104990005B425208A3435340DAB22B405B425208B9
:1049A000A3435340DAB22B405B42A3435208534027
:1049B000DBB2994601239C46E344D345AAD16B461A
:1049C00042461B88C8201380FFF7F4FE0825002408
:1049D000FFF71EFFFFF734FFC046C046C046FFF793
:1049E00023FFFFF7F9FE6408C0010443013D3020B6
:1049F000FFF7E0FEE4B2002DEAD100204C4506D0DE
:104A0000EA22064B0649520001F0D0FD032003B014
:104A1000F0BCBB46B246A946A046F0BDC83101086D
:104A2000F0310108F0B5DE464E4657464546E0B542
:104A300085B002F089FFFFF7DFFEFFF701FFFFF708
:104A4000F3FE6F4B142699466E4B6F4F984608E065
:104A5000002B0ED0012B58D03A70013E002E00D111
:104A60007FE000236946CB813B780022022BEFD107
:104A70003A700BF081FCFFF7E3FEFFF7C9FEFA2066
:104A80004000FFF797FEFFF7CFFE0120FFF792FEF1
:104A90005E4D03E0013D002D00D169E0FFF79CFE73
:104AA00004000128F6D0FFF797FE0028FBD0322043
:104AB000FFF780FE08239A46073BCC249B4617E06D
:104AC000FFF79AFE3220FFF775FE6408FFF7ACFE91
:104AD000C046C046C046C046C046C046C046C046A6
:104AE000C04601235B429C46E2445346002B50D013
:104AF000FFF7A6FEFFF78CFE0720FFF75BFE5B4685
:104B00002342DDD1FFF784FEDCE70BF035FCFFF735
:104B100097FEFFF77DFEFA204000FFF74BFEFFF700
:104B200083FE0120FFF746FE384C02E0013C002CDA
:104B30002AD0FFF751FE0128F8D0FFF74DFE0028DC
:104B4000FBD00E236B441800FFF784FE04000BF02B
:104B50001FFC002C50D10223013E3B70002E00D0E0
:104B60007FE705B0F0BCBB46B246A946A046F0BD03
:104B70000BF00EFC01203C704B460090414600209B
:104B8000234A01F013FD68E70BF002FC0324012027
:104B9000F1E73220FFF70EFE08239A46073B442434
:104BA0009B4617E0FFF728FE3220FFF703FE64085C
:104BB000FFF73AFEC046C046C046C046C046C046A3
:104BC000C046C046C04601235B429C46E244534671
:104BD000002B0CD0FFF734FEFFF71AFE0720FFF77B
:104BE000E9FD5B462342DDD1FFF712FEDCE70BF067
:104BF000CFFB01233B7030E720000324BBE7C04616
:104C0000FC310108F031010844050020E9030000EF
:104C1000350200000023102130B50F4C83B022680C
:104C200001930E4B05000093936A2000DB0CDB041C
:104C30009362936A0B439362694603F041F9200043
:104C400003F0A0F80121200003F0C8F8200003F0D1
:104C500033F9288003B030BD680500201000001033
:104C600010B5FFF7EDFDFFF7D3FDFA204000FFF789
:104C7000A1FDFFF7D9FD0120FFF79CFD084C02E0E4
:104C8000013C002C09D0FFF7A7FD0128F8D0FFF761
:104C9000A3FD0028FBD0012010BD0020FCE7C0468A
:104CA000E9030000F0B585B000236946704ECB8162
:104CB000704B0500036033780022022B44D0002B98
:104CC00043D0012B3CD10BF057FBFFF7B9FDFFF7A9
:104CD0009FFDFA204000FFF76DFDFFF7A5FD0120C5
:104CE000FFF768FD644C03E0013C002C00D17DE03F
:104CF000FFF772FD0128F7D0FFF76EFD0028FBD00B
:104D00000E236B441800FFF7A5FD04000BF040FBD9
:104D1000002C00D09CE06B46D88980231B0298426F
:104D200000D398E0FEF7D2FCFE2300229B05FDF79E
:104D300051FDFEF737FD022328603370022001E0A9
:104D40000020327005B0F0BD32700BF015FBFFF79C
:104D500077FDFFF75DFDFA204000FFF72BFDFFF721
:104D600063FD0120FFF726FD434D02E0013D002DCC
:104D70002FD0FFF731FD04000128F7D0FFF72CFDFD
:104D80000028FBD03220FFF715FD0825CC24012791
:104D900013E0FFF731FD3220FFF70CFD6408FFF749
:104DA00043FDC046C046C046C046C046C046C04699
:104DB000C046C046013D002D1DD0FFF741FDFFF765
:104DC00027FD0720FFF7F6FC2742E2D1FFF720FD81
:104DD000E1E70BF0DDFA01203470284B0090284900
:104DE0000020284A01F0E2FB3078ABE70BF0D0FA64
:104DF00003240120F0E73220FFF7DCFC08254424DF
:104E0000012713E0FFF7F8FC3220FFF7D3FC64081A
:104E1000FFF70AFDC046C046C046C046C046C04671
:104E2000C046C046C046013D002D0BD0FFF708FD2F
:104E3000FFF7EEFC0720FFF7BDFC2742E2D1FFF7AA
:104E4000E7FCE1E70BF0A4FA01230120337079E7D6
:104E500020000324C0E7C0434004400C0130FEF7AB
:104E600035FC0022084BFDF7B5FCFEF79BFC62E722
:104E7000440500200000C8C2E9030000FC3101081D
:104E8000F031010835020000000080BFF0B5D646C1
:104E90004F464646C0B582B00700150001F082FCBF
:104EA000524E3000FFF7FEFE012800D198E00328A3
:104EB00000D18DE03368994600234846191C984676
:104EC000FBF7FAFA041E00D07EE049494846FCF799
:104ED0000DF8FCF7C9FB474B80461A78002A20D012
:104EE0004A461C70444B45491A609A4600909D22E0
:104EF0000020434B019401F059FB534630683C4974
:104F00001860FBF7F3FFFBF74DFB80B2386001F050
:104F10003FFC01232B7002B0E0BCBA46B146A84664
:104F2000F0BD354B324918689A46FBF7DFFFFCF7B6
:104F30009BFB4346314A1C1A91464246E317E4184C
:104F40005C40009249469D2200202D4B019401F0C7
:104F50002DFBC82CD1DDA02249460020294B01F0B1
:104F600025FB53461B68A222494600203360264B8E
:104F700001F01CFB02F0E8FCFFF73EFCFFF760FCD1
:104F8000FFF752FCFFF75CFCFFF742FCFA20400001
:104F9000FFF710FCFFF748FC0120FFF70BFC1B4C50
:104FA00002E0013C002C07D0FFF716FC0128F8D0E6
:104FB000FFF712FC0028FBD00D493068FBF796FF85
:104FC000FBF7F0FA80B2A1E74346002033609DE78B
:104FD00000908B2200200E4B084901F0E7FA69E7A8
:104FE00000232B7001F0D4FB95E7C0461000002091
:104FF0000000C8420C00002040050020F0310108EC
:10500000203201084832010870320108E90300002B
:105010000C320108F0B5D6464F464646C0B53E4B69
:1050200082B099461B68060008009A469046FEF733
:105030004DFB3A4A3A4BFDF7CDFB3A4A3A4BFCF767
:10504000C9FB02000B00FDF7C5FB040030000D009A
:10505000FCF77AFBFEF75EFB53461A685B68FCF7C9
:105060007FFF324B06001B680F001869FEF752FBEA
:1050700002000B0030003900FDF7ACFB53469A6983
:10508000DB69FCF7A7FB53461A6A5B6AFCF768FF0B
:10509000220006000F002B0020002900FDF79AFBDC
:1050A00002000B0030003900FCF794FB0022204B7B
:1050B0000DF024F81B4A1C4BFDF772FE00221D4B1D
:1050C000FDF788FBFEF798FA43461B4C18601B4A15
:1050D0001B4B00902100002001F068FA194A43465A
:1050E0009446FA221B6852006344934208D94A4608
:1050F000154B136002B0E0BCBA46B146A846F0BDFD
:105100004A46124B2100136093220020104B92005C
:1051100001F04CFAEEE7C046140000207B14AE47C5
:10512000E17A843F6666666666127140F800002088
:105130000000D03F00005940F03101084602000055
:105140008032010854F2FFFF180000207000002098
:1051500090320108F0B58BB01422002105A80CF0A4
:1051600049FBA02001220221C00503F09FFA012281
:105170000121504803F09AFA0122A020022306924E
:10518000002205A9C00505930792089303F0B8F81B
:105190000A230122B021484803F0B6FF002801D0BD
:1051A0000BB0F0BD02AC022322003421B03000F07D
:1051B000ABFF00283CD0042322003A21B02000F0AD
:1051C000A3FF051E5ED001AA02232821B02000F013
:1051D0009BFF6B4639491A795B790291A371AA2327
:1051E0000021E371963B217162712372012008F066
:1051F00067FE220009232321B02000F0FBFE0120DE
:1052000008F05EFE6A4609230121D370B020083BF6
:10521000033200F0EFFE012008F052FE6A468023C0
:105220000B21D370B0207F3B033200F0E3FEB7E7E1
:1052300022786378224D12029B184B2122002B808A
:10524000B030022300F060FF237860781B022E88C4
:10525000C01880B2801BFCF727FA1A49FBF746FEFC
:10526000194B051C18603000FCF76EFA1749061C34
:10527000281CFBF73BFE011C301CFBF791FF144F71
:10528000386098E7029A134B64201A6008F018FE01
:10529000220004234521B020029500F035FF029A38
:1052A0000D4B49211A60B02001230C4A00F02CFF5D
:1052B00089E7C046000400501006002020156D0547
:1052C00052050020CDCC4C3D640500200000A041DB
:1052D00060050020580500205C05002054050020D2
:1052E000F8B5214B14001B78A52B00D0F8BD1F4B3F
:1052F0001868FEF781FB8011FCF7D6F91C4B196882
:10530000FBF734FA1B4B1968FBF722FC1A4B051C00
:105310001A491868FBF72AFA011CFBF7E7FD011C84
:10532000FBF7E4FD291CFBF721FAFEF7F3F9002255
:10533000134B0CF0E3FE134B06001A682123D05CDC
:105340000F00FCF7B1F9104A104B051C3900300072
:10535000FDF726FDFEF726FA011C281CFBF7C6FD0B
:10536000FCF782F92060C1E75405002048050020C1
:105370005C050020580500204C050020339388432D
:105380000000D03FF8000020666666666612714035
:1053900010B584B000236A460400D37101210133A3
:1053A000B020073200F0B0FE6B46DB799B0601D5DA
:1053B000002801D004B010BD0523042102AAB0309A
:1053C00000F0A2FE0028F5D16A46D17A127B0B4B81
:1053D000090252181A806B466A461B7A527A1B02DF
:1053E0009B186A46927A1B029B18054A1360054A6D
:1053F0001B0A944663442380DCE7C0465005002026
:1054000048050020FF7F0000104B70B5060018888B
:105410001500FCF799F90E4B1968FBF7C1FE0D4B0F
:105420001968FBF795FB0C4B041C18600B4B1A68B2
:105430002223D05CFCF738F9211CFBF757FDFCF761
:1054400013F9012330602B7070BDC0465005002059
:1054500060050020640500204C050020F8000020B5
:105460007047C046F0B5354D8BB00A230522462162
:10547000280003F049FE002801D00BB0F0BD102237
:10548000002106A80CF0B6F9802301261B022C4847
:1054900005A912240A270593079602F031FF1A2363
:1054A0006C442370812246210094193B2800029706
:1054B000019603F05FFB132393222370462100948F
:1054C000123B28000297019603F054FB0F2384221D
:1054D0002370462100940E3B28000297019603F0AA
:1054E00049FBF0239722237046210094EF3B2800CC
:1054F0000297019603F03EFB452394222370462138
:105500000094443B280013240297019603F032FBD9
:10551000FF236C4423709922FE3B4621280002970A
:105520000196009403F098FC23781B07A5D53C2234
:105530000420044B044901F039F89EE710060020CE
:1055400000040050A0320108D432010810607047F6
:10555000F0B5CE46474616251726002380B587B0FE
:105560006D446E442B7033700A3399460F4C02938E
:10557000093B070001939A22462120000095984696
:1055800003F06AFC4B46029343469B22019346215B
:105590002000009603F060FC32782B78120213434F
:1055A0003B8007B0C0BCB946B046F0BD1006002035
:1055B000002303601370704770B5010088B01A486B
:1055C000FAF73EFE194BC118002929D01848FAF7FE
:1055D00037FE002304006425049305930693079384
:1055E000A633029305AB019304AB2100009306AAF6
:1055F00007AB1048FEF782F92000079C0E4EA4006E
:10560000A459069B6C439B009B59059A04996B43D4
:105610006A43694368430094FEF7CAF908B070BD55
:1056200028204042FAE7C04618FCE70318FCFFFFB9
:1056300080969800783B0108E038010810B582B0E8
:105640000822002168460CF0D5F880210122264C62
:10565000264BC9026160022123600C23E2632261B0
:10566000C222A163002123640023FF326262963AC2
:10567000FF3AA1542000283A6364A364A360E36066
:105680002384A36262612363A3616363E36102F025
:105690009DFA00281CD101230093802369465B01F9
:1056A0002000019302F00CFC00281AD1104B69462F
:1056B0002000009302F004FC00280FD10D4B694636
:1056C0002000009302F0FCFB002804D102B010BDC2
:1056D00001F0F8F8DFE701F0F5F8F7E701F0F2F88C
:1056E000ECE701F0EFF8E1E7680500200024014055
:1056F000020000041000001010B5040088B014224D
:10570000002102A80CF076F80E4B22689A4201D0D4
:1057100008B010BD80220C4B9200596BA0200A43A8
:105720005A630122D96AC0051143D962DB6A02A912
:105730001A400192019B132203230292039302F069
:10574000DFFDE5E7002401400010024070B5047859
:1057500005008CB0082C07D8012C37D9082C35D877
:10576000814BA4001B599F46512C00D1C8E0522CFC
:105770002ED101F017F8A87800F048FDEE782D79C9
:1057800031002B0003AA00F035FC012304A90C70A2
:105790008B70C8700E714D71002D00D1E1E00422B4
:1057A0000435113303A8EDB26B44140006780132BE
:1057B000D2B21E5501309542F7D16C4B00221868C9
:1057C0004D70002308F0A8FD00F0E2FF0CB070BDA2
:1057D000502CFBD100F0E6FF0121654C49422068C6
:1057E00009F03AF9634B1868C36A002B00D0984758
:1057F000002300220021206808F08EFD00F0C8FF81
:10580000E4E782785C4C5D4B2270012000925C4999
:10581000612200F0CBFE2378002B00D194E001221E
:10582000584B1B681A71D1E78278574B01201A70C8
:1058300053490092554B5B2200F0B8FEC6E7532255
:10584000534B4F49012000F0B1FE032304A90B7014
:10585000023B8B704F4B1A685B68CA700B71454BEB
:105860001B68002B79D020229A5C4A7122229A5C14
:105870008A7121229A5CCA7123229B5C00220B72DE
:1058800007234B70394B1868002308F045FD9DE74E
:105890008478631E632B99D8742201203E4B3849CB
:1058A000009400F083FE00F07DFF3C4B1C7000F084
:1058B0006FFF8BE7032304A90B70023B8B70354B02
:1058C0001A685B68CA700B712A4B1B68002B46D0A4
:1058D00020229A5C4A7122229A5C8A7121229A5C67
:1058E000CA7123229B5C00220B7207234B701F4B53
:1058F0001868002308F010FD002000F035FE65E771
:1059000000F050FFA87800F081FCEE782D7931008E
:105910002B0003AA00F0F8FB002304A90C708B7085
:10592000C8700E714D71002D1BD004220435123346
:1059300003A8EDB26B44140006780132D2B21E55B2
:105940000130AA42F7D138E701210E4A12681371DB
:10595000134A1170134A137038E7FF2285E7FF22BC
:10596000B8E7042529E7C046103E010808060020D4
:10597000F4050020F8000020C5050020343301089C
:1059800004330108F0000020C4050020143301088E
:10599000DC32010800FC01084C330108F40000204F
:1059A000C8000020C605002070B50D4C2378002BE0
:1059B00004D0002323700278002A00D170BD094A68
:1059C000094D137043780178821C280001F0F8F922
:1059D000010028000AF0D6FE01232370EEE7C0463E
:1059E000C8000020C6050020C805002010B588B0FA
:1059F0006C4603284AD8012823D903232370023B8D
:105A0000A370284B1A685B68E2702371264B1B68F1
:105A1000002B45D020229A5C627122229A5CA271EE
:105A200021229A5CE27123229B5C2372072363701C
:105A30001E4B002221001868002308F06DFC08B0FE
:105A400010BD0128F4D12022174BA0701B689A5C6E
:105A5000E27022229A5C227121229A5C62712322D6
:105A60009A5CA2710022E271DA892281104A1288BE
:105A70006281104A1288A2811A8B9B8BE281238259
:105A80000D4B1B78A3740D4B2380D1E7FF28CFD19A
:105A900011220B49A01C0BF0A5FF0A4B2380C7E77E
:105AA000FF22B9E700FC0108F800002008060020EA
:105AB0006606002068060020FC000020011100009E
:105AC00064330108FF100000012300B5094A83B0C8
:105AD000116B0A2019431163126B032113400193C8
