:020000040800F2
:10000000005000200D7E00084D7A0008517A00084B
:1000100000000000000000000000000000000000E0
:10002000000000000000000000000000950601082C
:10003000000000000000000071070108B50701087A
:100040005D7E00085D7E00085D7E00085D7E000824
:100050005D7E00085D7E00085D7E00085D7E000814
:100060005D7E00085D7E0008557A00085D7E000810
:100070005D7E0008657A00085D7E0008B57A00089C
:100080005D7E00085D7E00085D7E000800000000C7
:100090005D7E00085D7E00085D7E0008C57A000870
:1000A0005D7E00085D7E00085D7E0008E57A000840
:1000B0005D7E00085D7E000800000000F57A000803
:1000C00010B5064C2378002B07D1054B002B02D02E
:1000D000044800E000BF0123237010BDD8020020B7
:1000E00000000000CC320108044B10B5002B03D0F7
:1000F0000349044800E000BF10BDC04600000000F6
:10010000DC020020CC3201080023C25C0133002A4B
:10011000FBD1581E7047000003B4714649084000E7
:100120004900095E49008E4403BC70470022430821
:100130008B4274D303098B425FD3030A8B4244D3AF
:10014000030B8B4228D3030C8B420DD3FF220902F1
:1001500012BA030C8B4202D31212090265D0030BB0
:100160008B4219D300E0090AC30B8B4201D3CB03A6
:10017000C01A5241830B8B4201D38B03C01A5241E8
:10018000430B8B4201D34B03C01A5241030B8B42EA
:1001900001D30B03C01A5241C30A8B4201D3CB02D5
:1001A000C01A5241830A8B4201D38B02C01A5241BA
:1001B000430A8B4201D34B02C01A5241030A8B42BD
:1001C00001D30B02C01A5241CDD2C3098B4201D3D5
:1001D000CB01C01A524183098B4201D38B01C01A53
:1001E000524143098B4201D34B01C01A52410309CA
:1001F0008B4201D30B01C01A5241C3088B4201D379
:10020000CB00C01A524183088B4201D38B00C01A25
:10021000524143088B4201D34B00C01A5241411A4C
:1002200000D20146524110467047FFE701B5002059
:1002300000F0F0F802BDC0460029F7D076E770471D
:1002400003460B437FD4002243088B4274D3030937
:100250008B425FD3030A8B4244D3030B8B4228D3D8
:10026000030C8B420DD3FF22090212BA030C8B42FE
:1002700002D31212090265D0030B8B4219D300E09E
:10028000090AC30B8B4201D3CB03C01A5241830B23
:100290008B4201D38B03C01A5241430B8B4201D3D3
:1002A0004B03C01A5241030B8B4201D30B03C01AFC
:1002B0005241C30A8B4201D3CB02C01A5241830A76
:1002C0008B4201D38B02C01A5241430A8B4201D3A5
:1002D0004B02C01A5241030A8B4201D30B02C01ACF
:1002E0005241CDD2C3098B4201D3CB01C01A524136
:1002F00083098B4201D38B01C01A524143098B42BF
:1003000001D34B01C01A524103098B4201D30B01A7
:10031000C01A5241C3088B4201D3CB00C01A5241CC
:1003200083088B4201D38B00C01A524143088B4291
:1003300001D34B00C01A5241411A00D2014652412A
:10034000104670475DE0CA0F00D04942031000D349
:100350004042534000229C4603098B422DD3030A9E
:100360008B4212D3FC22890112BA030A8B420CD3AE
:10037000890192118B4208D3890192118B4204D3D7
:1003800089013AD0921100E08909C3098B4201D357
:10039000CB01C01A524183098B4201D38B01C01A91
:1003A000524143098B4201D34B01C01A5241030908
:1003B0008B4201D30B01C01A5241C3088B4201D3B7
:1003C000CB00C01A524183088B4201D38B00C01A64
:1003D0005241D9D243088B4201D34B00C01A52413B
:1003E000411A00D20146634652415B10104601D3C8
:1003F0004042002B00D54942704763465B1000D352
:10040000404201B5002000F005F802BD0029F8D0F7
:1004100016E770477047C0468446100062468C4617
:100420001900634600E0C0461FB502F083F90028BA
:1004300001D40021C8421FBD10B502F0C7F84042E8
:10044000013010BD10B502F075F9002801DB002065
:1004500010BD012010BDC04610B502F06BF9002898
:1004600001DD002010BD012010BDC04610B502F016
:10047000F1F8002801DC002010BD012010BDC046AD
:1004800010B502F0E7F8002801DA002010BD0120C5
:1004900010BDC046844608006146FFE71FB500F066
:1004A000FBFC002801D40021C8421FBD10B500F09C
:1004B00083FC4042013010BD10B500F0EDFC002877
:1004C00001DB002010BD012010BDC04610B500F0BA
:1004D000E3FC002801DD002010BD012010BDC04656
:1004E00010B500F091FC002801DC002010BD0120B7
:1004F00010BDC04610B500F087FC002801DA0020CE
:1005000010BD012010BDC046002B11D1002A0FD113
:10051000002900D1002802D00021C943080007B4F7
:10052000024802A14018029003BDC046E9FEFFFF49
:1005300003B4684601B5029800F06AF8019B9E4634
:1005400002B00CBC7047C046F0B5CE469946030CCD
:100550009C46130447461B0C1D000E006146040414
:10056000240C80B50700100C4B43654341436043A6
:100570002C0CC01824188C46A34203D980235B029C
:100580009846C444494679435643230C2D042D0C08
:100590008919634424046019C918C0BCB946B0461F
:1005A000F0BDC0469E2110B5C905041CFFF7A2FF8F
:1005B000002803D1201C01F075F810BD9E21201CDD
:1005C000C90500F00BFE01F06DF880231B069C4668
:1005D0006044F2E770B500220C4B04000D00FFF7F9
:1005E0004FFF002804D12000290003F023F870BD3C
:1005F000064B00222000290002F0F0FB03F01AF85D
:1006000080231B069C466044F1E7C0460000E041A1
:10061000F0B557464E464546DE46E0B504000D00AF
:100620009246994683B08B4230D82DD049465046E9
:1006300003F076F929000600200003F071F9331A5F
:100640009846203B34D49B4653465A4693404246F4
:100650001F00534693401E00AF423BD8AF4200D12B
:1006600079E05B46A41BBD41002B00DA76E0002256
:1006700000230092019301235A46934001930123E2
:1006800042469340009329E08242CFD900220023C2
:10069000009201930C9B002B01D01C605D600098C0
:1006A000019903B0F0BCBB46B246A946A046F0BDD6
:1006B00042469B4620239B1A5246DA40414613008D
:1006C0004A468A40170042461F43534693401E0045
:1006D000AF42C3D900220023009201934346002B6E
:1006E000D8D0FB0772081A4346467B080EE0AB429F
:1006F00001D1A2420CD8A41A9D41012024196D41B8
:100700000021013E24184D41002E06D0AB42EED907
:10071000013E24196D41002EF8D1009801995B46E5
:1007200000196941002B24DB2B005A464446D34074
:100730002A00E2401C005B461500002B2ADB260045
:100740009E40330026004746BE403200801A994141
:10075000009001919EE7A342BCD882E74246202345
:1007600000219B1A0022009101920122DA4001929D
:1007700085E7424620239B1A2A0046469A402300DA
:10078000F340444613432A00E2401C005B46150038
:10079000002BD4DA42462F002023260097409B1AD4
:1007A000DE403B003343CDE7F8B54B025A0A94468E
:1007B0004A00C90FCE4647468946450046022D0EDF
:1007C000120E80B59909770AC40FB609AB1A4C45C9
:1007D00020D0002B0CDD002A34D100292AD05A1E4B
:1007E000012B00D18FE0FF2B00D1CDE013002FE0D3
:1007F000002B60D0531B002D00D0EEE0002E00D166
:100800003EE15C1E012B00D16BE1FF2B00D1B9E072
:100810002300E7E0002B00DCA4E0002A69D0FF2DD4
:1008200000D1B1E08022D20411431B2B00DCE9E0AF
:100830002B000536F708FF2B00D1A5E07A02520AFB
:10084000D8B230E0FF2D00D19EE08022D2041143C7
:1008500001201B2B08DC08002022D840D31A994025
:100860000B005A1E93411843361A730100D471E0ED
:10087000B601B709380003F035F83B00053883406E
:1008800085424DDDB44E2D1A1E405A0768D00F2206
:100890001340042B64D00436730161D5681CFE2D0F
:1008A00054D1FF200022C0051043E4072043C0BC00
:1008B000B946B046F8BDFE229046681C020040468C
:1008C00010426BD1002D00D0DDE0002E00D102E1FE
:1008D0000029B3D08022771AD204174200D136E122
:1008E0004C468E1B61D00120164230D10023F70800
:1008F000A4E700299ED05A1E012B00D1CAE0FF2B8D
:1009000042D0130091E7711A4B0100D4D1E08F015E
:10091000BF09380002F0E6FF3B000538834001259F
:100920002022401B0130121A1E009340C6405A1E5E
:1009300093411E4339D0730700D11BE10F230025DB
:100940003340042BA7D1012072017CD5C0B2B20183
:10095000520AA8E7730703D00F233340042B9AD120
:100960002B0067E7002B23D0531B002D7BD1002EDB
:1009700000D186E05D1E012B00D18BE0FF2B02D061
:100980002B0075E04C466746002F00D189E7802296
:10099000D2033A435202FF20520A84E7771A7B01BE
:1009A0006BD4002F00D065E70024002000227AE7F6
:1009B000FE226B1C1A4249D1002D00D09FE0002E70
:1009C00000D1BAE0002900D1CFE07218530100D461
:1009D000CDE092010120520A65E7FF2AD2D08020A3
:1009E000C004064301201B2B08DC30002024D84023
:1009F000E31A9E4033005C1EA34118434C46150089
:100A00000E1A32E708002022D840D31A99400B0072
:100A10005A1E93410343F61873019BD50135FF2DF0
:100A200000D13EE701234D49720833400A401A4382
:100A30001600530704D00F231340042B00D02AE7DD
:100A4000730100D52AE72B00F708F7E6FF2B00D14A
:100A500027E7711849084A072FD00F220A40042AB5
:100A60002BD00E1DE6E6FF2A8DD08020C004064361
:100A70001B2B24DD13004E1DDCE64C468F1BF9E6D4
:100A80004C460E00D6E6002E49D1002968D06746B4
:100A90004C467CE77018430174D53049400801404A
:100AA000430709D00F230340042B05D002230E1D5A
:100AB000C0E60123CF08C1E60223CF08BEE6202509
:100AC0003000D840EB1A9E4033005D1EAB4103431B
:100AD00015005E18A0E7002900D165E74C4667467F
:100AE000ACE68F1B7B012ED5BF01BF09380002F099
:100AF000F9FE3B00053883404C46013510E7002ED7
:100B000000D140E7002900D141E78023DB039F4269
:100B100000D23CE79C4500D339E7674637E7002918
:100B200000D134E78023DB039F4200D22FE79C45AE
:100B300000D32CE74C46674629E7002900D134E76B
:100B40000023CF087AE64C460123FF0876E6002F03
:100B500000D129E7FF0871E6FFFFFFFBFFFFFF7DE4
:100B600080220024FF20D2039DE6002366E60023B6
:100B7000D70863E60120720100D5E7E631000023C3
:100B8000CF085BE60123C70858E6C046F0B54646E5
:100B90004F46D6464502C0B5C30F470098460E1CC7
:100BA0006D0A3F0E5BD0FF2F21D08023ED00DB04C8
:100BB0001D43002399469A467F3F74027300640ADE
:100BC0001B0EF60F002B20D0FF2B43D080220020DD
:100BD000E400D20414437F3B4246FF1A4B46724066
:100BE0000F2B00D99DE071499B00CB589F46002DEB
:100BF0005AD108239946063B74029A467300FF2790
:100C0000640A1B0EF60F002BDED1002C3BD1012312
:100C100042464946724019430E2918D86448890053
:100C200041588F465346022B00D1B8E0032B6ED0BB
:100C300042462C00012B40D100200024C005204357
:100C4000D2071043E0BCBA46B146A846F0BDFF202B
:100C50000024F3E7002C20D10223FF3FD8E7002D2A
:100C600005D104239946033B00279A46A5E72800AF
:100C700002F038FE7627431F9D4000237F429946AD
:100C80009A463F1A99E7200002F02CFE431F9C4031
:100C900076235B421B1A00209EE703234A461A4331
:100CA00091460320FC3397E70C239946093BFF2725
:100CB0009A4682E703282CD0320038007F30002883
:100CC00047DD630704D00F232340042B00D00434F6
:100CD000230103D53800374B80301C40FE28B6DC9A
:100CE000A401640AC0B2A9E780240022FF20E40323
:100CF000A4E78023DB031D4201D01C420BD08024DB
:100D0000E4032C4364024246FF20640A96E7464609
:100D10002C008023DB031C4364023200FF20640AA2
:100D20008CE76D01600185422DD21B230024013F19
:100D30000126290064006D00002901DB854201D3F2
:100D40002D1A3443013B002BF3D16B1E9D412C43E4
:100D5000B3E701231B1A1B2B00DD6DE721009E3733
:100D6000D940BC400B00611E8C412343590704D07D
:100D70000F211940042900D00433590113D49B01D9
:100D800000205C0A5AE71A2301242D1AD0E7981E86
:100D900043425841404232000024C0B24EE742462E
:100DA000FF2000244AE70120002447E728330108F8
:100DB00068330108FFFFFFF770B542004E024C0098
:100DC00045026D0A120EC30F760A240EC90FFF2AC0
:100DD00010D0FF2C0CD00120A2420AD1B54208D17C
:100DE0008B420FD0002A04D12800431E984100E016
:100DF000012070BD0120FF2CFBD13543F9D14B40C0
:100E00001800F6E70020F4E730B5420044024D0236
:100E1000C30F4800640A120E6D0A000EC90FFF2AA4
:100E200018D0FF280AD0002A1ED100280AD1002D90
:100E300029D0002C2DD14800013830BD002D25D1FE
:100E4000002A01D1002CF6D08B4219D001205B4240
:100E50001843F2E7002C19D1FF28F7D1002D15D146
:100E600000208B42F2D1E8E70028EFD08B42EDD191
:100E70008242EBDC04DBAC42E8D80020AC42DCD29E
:100E800058000138D9E7002CD7D0DFE702204042D4
:100E9000D3E78B42DAD1EEE730B5420044024D028F
:100EA000C30F4800640A120E6D0A000EC90FFF2A14
:100EB00017D0FF280AD0002A1BD100280AD1002D04
:100EC0001DD0002C2DD14800013811E0002D0ED18D
:100ED000002A01D1002CF6D08B420CD158000138E9
:100EE00006E0002C03D1FF2805D1002D15D00220EB
:100EF00030BD002806D101205B421843F8E7002CE2
:100F0000F6D0F8E78B42F6D18242F4DCE6DBAC4265
:100F1000F1D80020AC42EBD2E0E700208B42EAD1CE
:100F2000E6E78B42E7D1F2E7F0B54F464646D646B4
:100F30004400C0B546020F1C760A240EC50F002CD3
:100F400000D1DAE0FF2C74D08023F600DB041E43CE
:100F5000002399469A467F3C7B025B0A98467B00B9
:100F60001B0EFF0F002B74D0FF2B00D18EE04246EA
:100F70008021D200C90411437F3B2A00E4184B466C
:100F80007A408846D2B20A2B75DC4B460020022BF1
:100F90000FDD494601238B40A621C9000B4269D1D0
:100FA000902189000B4200D000E18821194200D035
:100FB000F5E041460904090C43460800350C3604A7
:100FC0001B0C360C704369435E435D437618030C7B
:100FD0009B19994203D9802149028C46654400043B
:100FE0001904000C09188E01701E86411B0C890E15
:100FF0005B190E439B011E431B016CD423007F33FE
:10100000002B00DCB1E0150071070BD00F20210090
:101010003040042806D00436320103D56E4B1E4002
:101020000B008033FE2B00DDBDE0B201520ADBB2C3
:1010300048E0002E00D092E008239946063B9A46ED
:101040007B025B0A98467B00FF241B0EFF0F002BE0
:101050008AD14246002A64D1494601321143894669
:101060000A2908DC7D400120EAB2022991DC150042
:10107000002227E015005346022B00D193E0032BFA
:101080001AD0012B2CD1002300221BE04346FF3451
:10109000002B55D003214B460B4319000A2B00DCD3
:1010A00092E00F2B00D08CE08022D203164203D0B6
:1010B0004346134200D17DE08022D20332435202E4
:1010C000520AFF23D805ED0710432843E0BCBA4677
:1010D000B146A846F0BD0123150071081E400E431D
:1010E00023008033611C002B41DD720794D00F2256
:1010F0003240042A00D08EE78EE7002E05D104236B
:101100009946033B00249A4626E7300002F0EAFBAA
:101110007624431F9E400023644299469A46241A2F
:101120001AE7404602F0DEFB4B46241A763C0A2BB7
:10113000A1DC4346053883407D409846EAB224E767
:101140004A46023313432A007A40D2B20A2B92DC79
:1011500049461500002926D09946022019E70C239C
:101160009946093BFF249A46F6E615002100012224
:10117000D31A1B2B00DD86E79E3132008E40DA4009
:10118000731E9E413243530704D00F231340042B98
:1011900000D00432530110D50123002292E73D0014
:1011A0004646824667E7FF2300228BE78022002520
:1011B000D20386E73D001A4383E792010023520AD7
:1011C00080E73D00464677E72A0001237A408B40BE
:1011D0000320D2B2E9E6C046FFFFFFF7F8B5474665
:1011E000CE46430280B55F0A9B0945004A009C46F3
:1011F0004B02C40FCE0F2D0E580A120E9909FF2A6A
:101200006BD001235E40AB1AB4424BD0002B00DC04
:10121000FFE0002A00D188E0FF2D00D1EFE080221E
:10122000D204114301201B2B08DC08002022D840E7
:10123000D31A99400B005A1E9341184363461B1A58
:101240009C4663465B0100D4CDE063469F01BF0925
:10125000380002F047FB3B0005388340854200DC44
:10126000A2E0B74A2D1A1A4094465A0700D1C3E0AB
:101270000F221340042B00D1BEE004239846C4443F
:1012800063465B0100D4B7E0681CFE2D00D0A5E0EA
:10129000FF200022C0051043E4072043C0BCB9462C
:1012A000B046F8BD002B00DCEBE1002A46D0FF2D54
:1012B00000D1A4E08022D20411431B2B00DCFBE010
:1012C000052398462B00C4446246D708FF2B00D163
:1012D00095E07A02520AD8B2DCE72B00FF3B994630
:1012E000002918D101235E40B44200D1CAE04B4628
:1012F000002B2DD0002D00D03CE1FF236446002CB4
:1013000000D15FE15D1E012B00D174E13400FF2BA1
:1013100074D02B0003E1B44200D19CE0002B17D025
:10132000002DEAD0070034006CE00029CCD05A1E12
:10133000012B2BD0FF2B62D0130073E70029C3D001
:101340005A1E012B00D11EE1FF2B58D01300B4E729
:10135000FE226B1C1A420DD1002D60D06346002B7B
:1013600000D020E1002900D028E180220024FF20C5
:10137000D2038FE763465F1A7B0100D5FEE0002FA2
:1013800000D065E700240020002283E76346591A55
:101390004B0100D419E18F01BF09380002F0A2FA15
:1013A0003B000538834001252022401B0130121AE2
:1013B00019009340C1405A1E934119438C460B1E9D
:1013C000E1D05B0700D152E10F2300250B40042B35
:1013D00000D052E701204A0100D492E0C0B2634637
:1013E0009A01520A56E763465B0705D00F2362460F
:1013F0001340042B00D040E72B0065E70700002FC7
:1014000000D145E78022D2033A435202FF20520A1C
:1014100040E7002B79D1FE226B1C1A42AAD1634609
:10142000002B00D1F5E0002900D1D1E05F1A802324
:10143000DB041F4200D10EE1624601248A1A944661
:1014400000203440002A00D124E701201A42C6D1EE
:101450000023D7083DE7002B17D0002D00D0AFE0C8
:10146000FF236546002D00D1ADE05E1E012B00D1AB
:1014700089E0FF2BC2D01B2E00DCABE04B1D9C464D
:10148000130021E74B46002B70D1FE226B1C1A4241
:101490005ED1002D00D0C3E06346002B00D1D0E028
:1014A000002900D194E00A006244530100D4D8E03E
:1014B00092010120520AEDE608002022D840D31AFA
:1014C00099400B005A1E934103439C4463465B01C1
:1014D00089D50135FF2D00D1DAE66246012319498D
:1014E000134052080A401A43130094465B0704D085
:1014F0000F231340042B00D0BFE663465B0100D5E9
:10150000C2E66346DF082B00E3E6531B002D00D143
:10151000F4E680206446C0040443A446340001205D
:101520001B2B09DC20256046D840EB1A65469D4000
:101530002B005D1EAB4118430B1A9C46150080E63C
:10154000FFFFFFFBFFFFFF7DFE226B1C1342A3D0BA
:10155000FF2B00D19CE6614449084A0749D00F227D
:101560000A40042A45D00A1D9446ADE6002D00D15C
:1015700076E78DE63400FF2000228BE663460124E7
:10158000CF1A344064E661444B016DD548084449A4
:10159000014043072CD00F230340042B28D00B1D00
:1015A0009C46022390E6002900D12BE78023DB0331
:1015B0009F4200D226E7984200D323E7012434401B
:1015C00007001FE734008C467EE60123CF0880E643
:1015D00000237EE620206546801B85406346280068
:1015E000F340451EA84103439C4615008C446DE71B
:1015F0000223CF086DE60F1B7B0128D5BF01BF0971
:10160000380002F06FF93B000538834034000125B3
:10161000CAE6002900D1B5E601240700344058E6A7
:101620006346002B00D1E9E6002900D1EAE68023D9
:10163000DB039F4200D2E5E6984200D3E2E60700D2
:10164000E0E6002900D19EE60023CF0841E6340001
:101650000123FF083DE6002F00D193E60023FF0899
:1016600037E60023D70834E60123CF0831E680228D
:101670000B00D20401201340114200D0AEE6CF0887
:1016800027E6002B00D15FE7561B002D01D1330068
:10169000E7E680236046DB0418438446EBE6C04659
:1016A000FFFFFF7D41024200C30F490A0020120ED6
:1016B0007E2A03DD9D2A02DD094A981870478020A2
:1016C00000040143952A07DC9620821AD140484243
:1016D000002BF3D10800F1E7963A9140F7E7C046B6
:1016E000FFFFFF7F70B5002812D0C317C5185D40FB
:1016F000C40F280002F0F6F89E231B1A962B0FDC6D
:10170000082838D0083885406D026D0AD8B202E04A
:10171000002400200025C0052843E407204370BDB5
:10172000992B14DC421F95402A001549114055079A
:101730001CD00F252A40042A18D00431CA084901B8
:1017400015D59F235202181A550AC0B2E3E70522A5
:101750002900121AD14002001B3295402A00551E62
:10176000AA410A43064911405507E2D1CA0852026C
:10177000550AD8B2CFE76D026D0A8E30CBE7C0466E
:10178000FFFFFFFB10B5041E0DD002F0ABF89E2347
:101790001B1A962B0CDC082834D0083884406402CD
:1017A000640AD8B201E000200024C005204310BD27
:1017B000992B13DC421F9440144A224061071CD02D
:1017C0000F212140042918D00432D408520115D524
:1017D0009F236402181A640AC0B2E6E702002100DF
:1017E0001B3291400A00511E8A410521091ACC4042
:1017F0001443064A22406107E2D1D4086402640A15
:10180000D8B2D2E76402640A8E30CEE7FFFFFFFB56
:10181000F0B54F464646D646C0B582B0009001911D
:101820000E034C00CD0F710A009E5F00760F0E4331
:10183000009900920193C900894619037B0D9846CF
:10184000019B490ADB0F9C46009B009A5B0F0B43F0
:101850004146640DD200611A654500D1A6E0002919
:1018600072DD4746002F00D1DDE0CC4FBC4200D1F5
:101870009AE10127382917DC80273F043B431F29C1
:1018800000DDDDE12027781A1F008740BA461700E7
:10189000CF40844638005746074360468240CB40DD
:1018A000501E8241F61A17434B46DF1BB945804153
:1018B0004042361A330200D4FFE07602760A002E48
:1018C00000D13CE1300002F00DF80300083B20217C
:1018D0003800CA1AD0409E4002009F4032439C42CA
:1018E00000DDA6E1181B0130091A3E008F40C640FA
:1018F0007B1E9F4113008B4037431F43C2403B0078
:1019000016000024134300D1DFE17B0700D132E34E
:101910000F233A003B40042B04D03A1DBA42BF418A
:101920007F42F619330200D423E39C4B01349C42DE
:1019300000D1B4E09A4B64051E40640D7707D208CD
:1019400076021743360BACE0002900D17EE0414619
:10195000091B002C00D060E134004846044300D14C
:10196000C9E14C1E012900D12EE28C4DA94200D1C3
:1019700024E20127382C11DC21001F2900DD0BE2B5
:10198000202437004846641AA740C8400743484609
:10199000A040CE40441EA0419B1B0743D71BBA4228
:1019A00092415242654644469E1A83E7002900DC74
:1019B0009CE04746002F67D11F00174300D1E4E0A9
:1019C000481E012900D19BE1744FB94200D1EBE0E0
:1019D00001270100382811DC1F2900DDC7E120277D
:1019E000781A1F00844687401000C84007436046AD
:1019F0008240CB40501E8241F61817434F444F455A
:101A0000804140423618330257D5644B01349C4222
:101A100045D00121624B7A081E4039400A43F7073E
:101A20001743760871E71F00174300D1ADE04F1E42
:101A3000BC46012900D182E1584FB94200D190E162
:101A400061460127382900DD2EE718E7554F611C54
:101A5000394200D0D0E0310048461F00014317430F
:101A6000002C00D03DE1002900D1BCE1002F00D0C6
:101A7000BFE14B460021D80877070743F00806036B
:101A80004C05360B640D0CE0444FBC4200D18BE09A
:101A900001273829B2DC80273F043B439CE700261E
:101AA000002724053443ED072C433800210002B001
:101AB000E0BCBA46B146A846F0BD7B0704D00F2370
:101AC0003B40042B00D028E7F808344B7707074346
:101AD000F0089C4200D04AE23B00034359D08026E4
:101AE0003603064336032D4C360BDAE7002961D066
:101AF0004146091B002C00D1B9E0284CA04500D17B
:101B0000A5E10127382913DC8024240426431F295A
:101B100000DDC8E1202437004846641AA740C840C9
:101B200007434846A040CE40441EA0419B190743AE
:101B3000BF189742924152424446D61863E7380094
:101B400001F0D0FE030018331F2B00DCBFE63A0083
:101B5000083882409C4200DD83E01B1B581C1F2874
:101B600000DCB4E117001F3BDF40202805D04023F4
:101B70001B1A9A40531E9A4117430024002F0AD083
:101B80007B0700D0C4E626009EE74B460C00D80831
:101B90009BE70027014C002683E7C046FF070000B3
:101BA000FFFF7FFFFE0700004B467707D80807437B
:101BB000F00891E7CD4F611C39426BD131004846A6
:101BC0000143002C00D04BE11F001743002900D136
:101BD00081E1002F00D14CE74A444A458041F61884
:101BE00040423618330200D5B0E117009146374322
:101BF00000D03EE7002654E74946891A8846C14589
:101C0000BF41F11A7F42C91B0F0261D447460F43FF
:101C100000D1BDE00E00474651E6B54CA04500D1CD
:101C200000E10127382900DDB8E68024240426439A
:101C3000A3E6B04EE41A16407B0700D03FE743E727
:101C40000F001800203FF8408446202903D0402789
:101C5000791A8B401A43531E9A41634617001F435B
:101C600022E6A448E11A10404707C00807E73400FD
:101C70004846044300D1FAE04C1E012900D1D7E0C8
:101C80009B4FB94200D1E2E00127382C00DD4FE73D
:101C900021003CE7964CA14200D1DDE04A444A4590
:101CA0008041F31840421818C707520817434608E6
:101CB000520705D00F220C003A40042A00D02CE62F
:101CC0007607FF0837430009D9E600270026E8E633
:101CD0004946571ABA4292419E1B52426546B61A6D
:101CE000EDE5002900D0C6E0002F67D18026002551
:101CF0007F4C3603D5E665460C001E00D008E4E6AE
:101D00004A444A458041F318404218181100030222
:101D100000D496E0774B49081840C3070B434408AA
:101D2000490700D129E10F221A40042A00D1EAE034
:101D30001F1D9F42B641764236190224C4E6494629
:101D40008F1AB9458041F61A4042361A330206D43A
:101D50007307FF0801211F43F00890E66546012440
:101D6000ABE54B467707D8080743F008B4E60F0009
:101D70001800203FF8408446202903D04027791AD4
:101D80008B401A43531E9A41634617001F4335E6A2
:101D900000250024002684E60C003500203CE540A8
:101DA000202905D04024611A8E4049463143894696
:101DB0004846411E884107002F43EFE5D2085F07E0
:101DC00065461743D80887E6171ABA4292419E1B08
:101DD0005242B61A3302C1D47307FF086546012187
:101DE0001F43F0084BE6002F7BD065461E0091464E
:101DF0003FE6811A8846C145A441F11A6442091B95
:101E000080242404214277D0101A82429241070094
:101E10009E1B5242B61A374300D0A0E0654600240C
:101E200000263EE65F07D20865461743D80853E60A
:101E3000811891429241F01852428018030200D555
:101E400068E74707C9080F43C008012117E6D20811
:101E50005F071743D8083FE60C000026002720E65E
:101E6000002956D15F07D2081743D80834E60C0082
:101E70001E00D00829E6C10870070143F008002FB2
:101E800062D080242403204207D0DE08264204D1F9
:101E900065463000D1085B0719434F0FC900C908D8
:101EA0007F070F4318E60C003000203CE0408446DA
:101EB000202905D04024611A8E4049463143894685
:101EC0004846411E8841614607000F4330E6202105
:101ED0000027091A0EE51E00002F00D022E500247D
:101EE00058E7002500240026DBE5C046FE07000079
:101EF000FF070000FFFF7FFF47460F4300D147E782
:101F00000E00C146B5E5DF0864070221274300093A
:101F1000B5E51900C008770707431143F008002909
:101F200000D1D9E580210903084207D0DC080C4222
:101F300004D1D2085B071A43170020007B0FFF0073
:101F4000FF085B071F43C7E50F00C5E5124BD2082A
:101F500033405F075B02012417431E0BA1E52642B5
:101F600012D00D4B6546020001241E40E6E421001C
:101F700085E51700A8E53A00D4E4DB0864071C43B4
:101F80002700022100097AE5C00877070743654664
:101F90000021F00873E5C046FFFF7FFFF0B5DE4685
:101FA000454657464E46E0B587B0009201930B0375
:101FB0001B0B9B46CA0F4B00040080465B0D029230
:101FC00000D198E07C4A934237D05946420FC9006D
:101FD0000A43802109041143C2009046774A89468A
:101FE00092469A44002300240393009E019F3B03E2
:101FF0001B0B9B467B0030005B0DFD0F002B59D067
:102000006D4A934248D05946720FC9000A43802155
:10201000090411438B466949F2008C4651466344DA
:10202000CB1A9A460021029E6E40F6B20F2C00D9C0
:10203000CEE0634BA4001B599F465A46024391468B
:1020400000D090E09A460223904608240393CCE700
:10205000CB464246029D0399022900D1DEE10329C5
:1020600000D18DE0012900D079E12E00002200236B
:10207000002490461B052343F607334340461900CE
:1020800007B0F0BCBB46B246A946A046F0BD002250
:1020900000249046484BEDE75A46009B1A43494BB3
:1020A0009C46E244002A59D102231C43002302210A
:1020B0009B46B8E75A46009B1A4349D05B46002B23
:1020C00000D19CE1584601F00DFC020003000B3AE0
:1020D0001D27009EBA1A19005846D6400839884074
:1020E000320002439346009A8A40374953448A4655
:1020F00000219A4497E75B460343994621D05B460B
:10210000002B00D169E1584601F0ECFB0B235B4248
:102110009C460200844466461D239B1B260011003A
:102120005846DE400839884033000343994623006F
:102130008B409846254B00249B1A9A460023039314
:1021400053E7002398469A460133042403934CE74F
:1021500001231C43002301219B4664E70323320033
:1021600003211C435FE79A460323D9460C240393BB
:102170003BE700238024984600260F4B240379E791
:1021800080245B4624031C4324032E0090460A4B04
:10219000240B6FE780244B462403234202D05B4686
:1021A0002342F0D080244B4624031C432403029E88
:1021B000014B240B5EE7C046FF07000001FCFFFF58
:1021C000A433010801F8FFFFF30300000DFCFFFF3B
:1021D000CB4500D2F8E000D1F3E001235B429C46FE
:1021E000444648460025E2445B46170E1B021F4347
:1021F000190C3B04120200971F0C914602910397A1
:10220000FEF71AF802007A430B04210C80461943AA
:102210008A4209D9009F0123BC465B4261449C4627
:10222000E0448F4200D85CE1881A0299FEF704F876
:10223000039A240442430904240C03000C43A242E1
:1022400006D90099013B8C466444A14200D842E182
:10225000A01A424612041A4393464B4659461B0C99
:102260001F0004930B0449460904090C0C001B0CC5
:102270005C43120C7B43884651437A43270CBC468F
:102280005B186344994203D9802149028C46624419
:10229000190C24041B04240C8A181C19904202D324
:1022A00016D1A54214D25B46009F013B4D440593D5
:1022B0004D459B41BC465B426344C018874200D3F6
:1022C00002E1824200D929E100D124E1059B9B462D
:1022D0002C1BA542AD41009B801A6D42401B8342DE
:1022E00000D10FE10299FDF7A7FF039A0B044243C7
:1022F000210C050019438A4200D9CBE0881A0299C3
:10230000FDF79AFF039A240442430904240C0300B6
:102310000C43A24200D9CAE04146A41A2A041A4337
:10232000049F13041B0C594340467B439C46150CE9
:1023300068430B0C844463447D43984203D9802056
:10234000400284466544180C09041B04090C40191A
:102350005B18844227D323D0012335001A43944BC2
:102360005344002B60DD510700D086E02E00D108D9
:102370005A46D20106D55A468E4B1A4080239346C0
:10238000DB0053448C4A934200DD80E65A465207F4
:102390000A4390465A465B055402240B5B0D69E6DE
:1023A0003500002BDBD0009D511EAC466444AC428E
:1023B00000D29EE0844200D2E1E000D1EEE00A00CB
:1023C000CAE7424500D908E74B46DC0758084346B0
:1023D0005B081C434346DD0706E701F083FA15233B
:1023E0009C4684440200634620321C2B00DC92E6AB
:1023F0002300083883409946002398469AE601F066
:1024000071FA02000300153220331C2A00DC5FE65B
:1024100000990838814000228B4666E600222E0093
:1024200000249046654B25E62E000121C91A382963
:1024300000DD1BE61F297EDC6148140050445B462A
:1024400082408340CC40501E824123431A435B4666
:10245000CB40510709D00F211140042905D0111D8F
:102460009142924152429B180A00190200D49BE00B
:102470000022012300249046FCE50F21114004298D
:1024800000D173E7111D9142924152422E00C908BA
:1024900093446DE7009B013D9C4661448B4200D90B
:1024A0002CE78A4200D829E7851E614426E7009977
:1024B000013B8C466444A14200D92DE7A24200D8DA
:1024C0002AE7831E644427E7874200D0FEE6A94539
:1024D00000D9FBE6F5E6A24200D8B9E6831E6444C3
:1024E000B6E68A4200D89FE6BC46831E9846614401
:1024F0009AE60A00844200D02EE74B4500D02BE735
:1025000035002CE72A4B2F4A5344924543DB0122E6
:10251000002193442CE7AC4200D8D7E602235B426B
:102520009C4600994D444D459B41E3448C465B429B
:102530006344C018CCE61F204042C31A5846D84016
:10254000202904D05946204B534499400A43531E36
:102550009A4107231900024300241140134209D075
:1025600008331340042B1DD0131D934289411A00D8
:1025700049424907D2080A43904600237AE5494672
:10258000009F4D004D458941BC4649426144A946E2
:10259000023A6418AEE70122524246E79945EED36B
:1025A0000A00AAE70021E5E759075B021C0BE1E7F7
:1025B000FF030000FFFFFFFEFE070000FF07000013
:1025C0001E04000002FCFFFF3E040000F0B5574669
:1025D000DE464E464546E0B50D000400E80F834652
:1025E0000903D80F090B824619488C461F0369005E
:1025F0005E00490D3F0B760D814218D086420FD008
:102600000120B1420DD1BC450BD1944209D1D34533
:102610001CD0002905D160462043431E984100E0AC
:102620000120F0BCBB46B246A946A046F0BD012041
:102630008E42F6D1614639430F0017432743F0D14C
:102640005B465246981A431E9841EAE70020E8E7A5
:10265000FF070000F0B557464E464546DE46E0B55A
:102660000D000E034900490D8A46DF0FE90FBC46F5
:1026700083B02F4F04008046019158001903914602
:10268000360B090B400DBA451DD0B8420DD0574648
:10269000002F2AD13443002824D10A4336D0002CFD
:1026A00041D163465800013815E0114338D15346F3
:1026B000002B01D12643F4D0019B634507D1019B38
:1026C0005800013807E026432AD1504521D0012087
:1026D000019B5F42384303B0F0BCBB46B246A946FB
:1026E000A046F0BD002CDCD0E6E70028EFD0019B2F
:1026F0006345ECD18245EADCE1DB8E42E7D8DED1EE
:10270000C845E4D80020C845E5D2D8E7002CE2D07F
:10271000DDE7114304D1019B6345D8D10020DAE7FE
:1027200002204042D7E7019B6345E6D0CFE7C04691
:10273000FF070000F0B557464E464546DE46E0B579
:102740000D000E034900490D8A46DF0FE90FBC4614
:1027500083B02E4F04008046019158001903914622
:10276000360B090B400DBA451ED0B8420DD0574666
:10277000002F27D13443002833D10A4334D0002C12
:1027800040D163465800013815E0114312D1534639
:10279000002B01D12643F4D0019B63451DD00120BD
:1027A000019B5F42384306E0264303D15045F6D1F2
:1027B00011431CD0022003B0F0BCBB46B246A94670
:1027C000A046F0BD0028EAD0019B6345E7D18245D1
:1027D000E5DC02DB8E42E2D80ED0019B58000138C6
:1027E000E9E7002CCDD0D7E7002CE4D0D7E7019B58
:1027F00000206345DFD0D2E7C845D0D80020C845C7
:10280000D9D2EAE7019B6345E4D0C8E7FF0700009F
:10281000F0B557464E46DE464546E0B51F000B0371
:102820001B0B16009A46CA0F4B000400914685B058
:102830005B0D00D1CFE1CD4A934255D05146420FB6
:10284000C9000A43802109041143C2009046C84AC6
:102850008A4693469B440023002502933C037B0059
:10286000FA0F0196240B5B0D009200D188E1BF4A5C
:10287000934200D192E0BE4A944663449B440A2DA1
:1028800042DCE400730F23438024494624041C43A4
:10289000F3000193009B00205940CBB20393022D1B
:1028A00000DC94E00123AB401D00A6232A00DB00DE
:1028B0001A401D4200D029E290239B001D4200D106
:1028C0004DE20023802499462403A84B10004A4679
:1028D0001B052343D2071343190005B0F0BCBB46C8
:1028E000B246A946A046F0BD52460243904600D0EB
:1028F000ACE19B460223924608250293AEE7009B7B
:10290000A2469946019B9846029B022B00D1CAE140
:10291000032B00D192E1012B10D1002300240022CF
:10292000D4E701227B083A4013435246D2071343AF
:10293000984653465B089A46039B99465B46581C4B
:102940008023DB005B44002B00DCB1E142465207F0
:102950000BD00F2241460A40042A06D04246111DE0
:10296000414592418846524292445246D20106D590
:102970005246804B1A4080239246DB00C3187E4AA1
:10298000934200DD8FE14246D108524652070A4386
:1029900051465B054C02240B5B0D97E7734B2643B6
:1029A0009C46E344002E00D16FE1032349461D43BA
:1029B000009B5940CBB203930A2D00DD33E1012384
:1029C000AB401D000323029388222A4297D142463E
:1029D00043461204120C160001981D0C030C00044F
:1029E000000C4643B4461E006E43009616000700D6
:1029F0005E436146B0466F430E0CB8444644B7424E
:102A000005D9802149028846009F474400976146C6
:102A10000904090C370C36048C46310061440191DD
:102A20001100260C2404240C61438C4621006943C8
:102A300089466146090C884672434A4442447543BC
:102A4000914503D98021490288464544110C8846A6
:102A500061460904090C8C4612046244B9180291BB
:102A60005146090C8C4651460F043F0C3900414336
:102A700045448846614641438A4641466046090CC2
:102A8000894658437B4353444B449A4503D980219C
:102A9000490289464844190C894641460904090CF3
:102AA0008846390061431B044344884661464C43D1
:102AB00071438C46414677430E0C3F19F619484442
:102AC000B44203D9802149028946CC440299009F2F
:102AD000894631044F4489464146974292410C044D
:102AE000240C4C44FF1852426419A1189F429B4188
:102AF000884682465B42994690459241AC42A44149
:102B0000C244D14452426442144399459B41824598
:102B100092415B42524213434A46360CA419E318D1
:102B200063445B02D20D1A43019992467A020A432A
:102B3000501E8241FF0D17434A4652021743B846C2
:102B4000DB0100D5EDE60D4B039A5B449146002B6B
:102B500000DCACE03A00520700D110E70F225846E3
:102B60003A40042A00D0F9E609E7C046FF07000012
:102B700001FCFFFFFFFFFFFEFE070000FF03000058
:102B8000220032436FD0002C00D1C2E0200000F0C0
:102B9000A9FE020003000B3A1D20821A3000190022
:102BA000D04008398C400200224334008C40594602
:102BB000CB1A86498B469B440A2D00DDA4E6494684
:102BC000009B01945940CBB2140000200393022DC6
:102BD00000DD67E6FBE65346034398463CD0534688
:102BE000002B00D1A3E0504600F07CFE0B235B429B
:102BF0009C460200844411005046083988401D2339
:102C0000804660461B1A2000D8400300404603431C
:102C10009A4623008B4098466C4B00259B1A9B4696
:102C2000002302931AE60F2D00D0C9E080235246FC
:102C30001B031A4202D01C4200D192E0802453466A
:102C400024031C4324034246240B3EE69B460323F5
:102C500080460C25029301E600239A469B460133E9
:102C600004250293FAE501210D430A2D00DD4BE610
:102C7000494600984140C9B20391022D00DC96E01C
:102C800000230024012001930CE649460223009A08
:102C90002B435140CAB203920A2B00DD34E6002DCB
:102CA00057D1039B994600240022494B0EE6584613
:102CB0000121C91A382900DD2FE61F2956DD1F2200
:102CC00054465242D31ADC40202907D0414B424699
:102CD0009C465346604483401A439046424607212F
:102CE000531E9A410B00224313400024114209D085
:102CF0000F231340042B5DD0111D91429B410A000C
:102D00005B425B07D2081A430023DFE5039B994629
:102D1000FAE5019800F0E6FD0200030015322033C9
:102D20001C2A00DC38E7019A083882403FE700F0AF
:102D3000D9FD15239C4684440200634620321C2B97
:102D400000DC58E7002398462300083883409A4661
:102D500062E71D000023002402200193A2E50290F7
:102D600032E61C43009B019A9946AEE51A4B524647
:102D7000C31840469A40C84002434046984003006A
:102D8000581E834154461A43CC40530709D00F23A1
:102D90001340042B05D0131D934292415242A418B4
:102DA0001A00230208D50123002400228EE589465B
:102DB00000248BE50023A5E763076402240BA1E749
:102DC000009BA2469946019B984637E70DFCFFFF02
:102DD000FF0700003E0400001E040000F0B5574647
:102DE0004E464546DE46E0B583B0009001910C03A7
:102DF0004D00CE0F610A009C5F00640F0C430099E8
:102E000000920193C80019037B0D9946019BCC4F9A
:102E1000DB0F9C464B0A00998046490F1943009BE3
:102E20008B46DA0092466D0DB94500D1BFE0012313
:102E3000614659404B468C46EB1A8E4275D0002BAA
:102E400000DCA3E24946002900D1CEE0BD4200D11A
:102E500000E20127382B19DC802759463F0439430B
:102E60008B461F2B00DDFAE12027F91A8C465946C4
:102E70006746B9400F001100D9400F4361468A40B0
:102E8000511E8A415946D9401743641AC71BB8429C
:102E900080414042241A230200D440E16402640AC3
:102EA000002C00D154E1200000F01CFD0300083B81
:102EB00020213800CA1AD0409C4002009F40224383
:102EC0009D4200DDA6E1581B0130091A3C008F40ED
:102ED000C4407B1E9F4113008B4027431F43C240C9
:102EE0003B0014000025134300D1F7E17B0700D11C
:102EF00077E30F2338003B40042B04D0381DB84241
:102F0000BF417F42E419230200D468E38C4B0135B2
:102F10009D4200D1F4E08B4B6D051C406D0D6707A1
:102F2000C00864020743240BECE0002B00DC29E31B
:102F30004946002900D0D6E05946114300D12EE180
:102F4000591E012B00D1E6E1BB4200D182E10127ED
:102F50000B00382914DC1F2B00DD3CE22027F91A76
:102F60008C4659466746B9400F001100D9400F43BF
:102F700061468A40511E8A415946D9401743641818
:102F80003F188742804140422418230200D4C6E003
:102F90006B4B01359D4200D1B2E00121694B7A08AB
:102FA0001C4039400A43E707174364089EE7664B15
:102FB00011438A46EB18002928D066452CD0002BF7
:102FC0005BD0002D00D12CE15B4666465F07D2083E
:102FD0001743DD083B002B4300D1E2E080242403AB
:102FE0002C432403564D240B8CE05946114300D149
:102FF000D5E0591E012B00D1B9E1BB4200D1B1E1AE
:1030000001270B00382900DD40E72AE76146012748
:1030100079408C466645D2D1002B00D1C5E0002D09
:1030200000D055E14B462500054300D112E2591E60
:103030008C46012B00D149E2414DAB4200D18FE2D9
:103040000127382911DC63461F2B00DD5BE2614656
:10305000202327005B1A050098409F40CD40431E67
:103060009841CC402F430743A344BF189742924155
:1030700052425A4414004D4687E7344F6B1C3B4282
:1030800000D0B6E05946230011430F000343002D42
:1030900000D026E1002B00D1C0E1002900D1A1E041
:1030A000831A98465B464045AD41E31A6D425B1B6F
:1030B00080252D042B4200D14BE15B46101A824241
:1030C00092411C1B0700012663465242A41A274363
:1030D0001E40002F00D142E12C4200D16DE2194B7D
:1030E00001251C401BE7BD4200D13BE10127382BE5
:1030F00000DD45E7802759463F0439438B462AE7E0
:10310000002400272D052543F60735433800290004
:1031100003B0F0BCBB46B246A946A046F0BD7B0753
:1031200004D00F233B40042B00D0E7E62B00F80827
:10313000034A67070743E508934200D14AE7A5E041
:10314000FF070000FFFF7FFF01F8FFFFFE07000001
:10315000380000F0C7FB030018331F2B00DCA7E684
:103160003A00083882409D4200DD8AE05B1B581C13
:103170001F2800DCD8E117001F3BDF40202805D0C6
:1031800040231B1A9A40531E9A4117430025002FD3
:1031900000D1E5E07B0700D0ABE62C00C6E7C00815
:1031A000C6E700270024D14DACE7D14F6B1C3B4252
:1031B00071D123000343002D00D04EE15746002B70
:1031C00000D1B5E1002F0DD08318834280415C44CB
:1031D00040422418220200D5C8E11F009846274328
:1031E00000D1BCE043466707DB081F43E508002326
:1031F0004CE0831A98465B464045BF41E31A7F4244
:10320000DB1B1F027CD447461F4300D1A6E01C00F5
:10321000474645E6B74CED1A14407B0700D080E7DF
:1032200084E74B462500054366D05F1E012B00D185
:10323000FCE0AE4DAB4200D15EE16646382F00DCCB
:10324000B4E00120171ABA4292415B4652424D4601
:103250009C1A20E66707C0080743E508BAE61F0086
:103260005946203FF9400F00202B05D04021CB1AB2
:10327000594699400A43924653465A1E93411F436A
:1032800004E6EB1A9B4D15406F07ED082C035D0516
:10329000240B6D0D36E7954DAB4200D1D6E0821878
:1032A000210082428041594440420818C707520811
:1032B00017434408520700D485E10F221D003A400D
:1032C000042A00D01AE6FF08640727430509DDE752
:1032D0005B46D2085F071743DD087BE60027002422
:1032E00010E7002B00D0D6E0002900D02FE1802489
:1032F00000267E4D240305E766465C46D00817E7A6
:103300005B46171ABA4292411C1B01266346524281
:10331000A41A1E40C4E58318834280415C444042A5
:1033200025182A0200D4DAE0724A5B081540EA0741
:103330001A4369085B0700D44AE10F231340042BAA
:1033400000D1FCE0171D9742A44164420225641895
:10335000ECE647461C001F4300D043E7002600254B
:103360000024CFE6C00867070743E50832E6871A5E
:103370005B46B8428041E41A4042241A230228D412
:103380006307FF081F43E50801237FE7002B00D1F7
:1033900073E64B465F1B3B00002D00D142E7382F00
:1033A00000DDECE080230E001B041C431F2F25DCF6
:1033B00020252300ED1B0100A840AB40F940451E2D
:1033C000A8410B43FC4018435B461B1B9B4639E757
:1033D0006646012562E51F005946203FF9408C46AC
:1033E000202B05D040275946FB1A99400A439246A4
:1033F00057467B1E9F4163461F43C1E53B002500A6
:10340000203BDD40202F04D04023DB1B9C40204389
:1034100080464046431E9841284313E700299DD02B
:10342000012663465C4690461E40DBE6171A5B4663
:10343000BA4292411C1B5242A41A2302C8D4630709
:10344000FF081F4366460123E5081FE71D0000240F
:10345000002757E65C46D0086AE6002B00D137E724
:103460005346C00867070743E508002B00D1B1E5C4
:1034700080231B031D4208D05946C808184204D1B6
:10348000D20849070A43170005007B0FFF00FF0819
:103490005B071F439EE5C00863071843E508002942
:1034A00053D080231B031D420AD05946CC081C422E
:1034B00006D1012663462500D008490708431E406F
:1034C000470FC000C0087F07074383E58318934276
:1034D00092415C445242A5182A0200D524E76F07A6
:1034E000DB081F43ED080123D0E6C046FF070000BC
:1034F000FE070000FFFF7FFF5B46D2085F076646BE
:103500001743DD0866E52500203BDD406346202BA0
:1035100005D0402361465B1A9C40204380464746C5
:103520007B1E9F412F43A0E520210027091AD2E4EA
:10353000002F00D113E75C4617000025F6E5D708F9
:10354000490702230F432D09A0E6070042E55B4629
:1035500001265F07DD086346D20817431E4039E5A0
:103560005B46D2085F071743DD0833E51E4ADB08D8
:1035700022405707520201251F43140BC2E50E00DB
:1035800001205FE6002B0DD04B465B1B9C46002DB7
:1035900000D148E50127382B00DD66E580231B04B8
:1035A0001C4350E56B1C114D2B4200D073E659466D
:1035B000230011438A46034300E66707C00800233F
:1035C0000743E50862E66407FF08274305095DE64F
:1035D000D208490711430F0002232D0956E60700C0
:1035E000A4E538008FE4C046FFFF7FFFFE07000020
:1035F000F0B5C6461E03360BB0460D4E0C034D000B
:103600005F0000B5240B6D0D7F0DB5420BD008494E
:1036100000208F4204D1464616433000431E984195
:1036200080BCB846F0BD04430120002CF8D1EEE781
:10363000FF0700000B00020070B5164D0C0382B0AE
:103640004900002000920193240B490DDE0FA9428E
:1036500004DD1148814203DD104BF01802B070BD4B
:103660008020400320430E4C641A1F2C08DD0D4BB4
:103670005B1AD84003005842002EEFD11800EDE746
:10368000094B009A9C46030061448B40E24013437F
:10369000F1E7C046FE0300001D040000FFFFFF7FAE
:1036A0003304000013040000EDFBFFFF70B5002899
:1036B00016D0C317C5185D40C40F280000F012F9DA
:1036C000104B1B1A5B055B0D0A2814DC02002E0050
:1036D000153296400B22121AD5402D032D0B03E014
:1036E00000240023002500261B052B43E407234369
:1036F0003000190070BD0B3885402D0300262D0BBE
:10370000F2E7C0461E04000010B5041E10D000F001
:10371000E9F80E4B1B1A5B055B0D0A280FDC0B2228
:103720002100121AD14015300A038440120B01E027
:10373000002300221B0513432000190010BD2200A6
:103740000B38824012030024120BF3E71E04000022
:1037500070B542024300C40FFE201B0E591C550ACF
:1037600008420CD0E02189008C466D07120B63449F
:103770001B051343E40723432800190070BD002BE9
:1037800014D1002D1BD0280000F0ACF80A281CDC56
:103790000B232A001B1ADA40030015339D400E4B01
:1037A00012031B1A5B05120B5B0DE1E7002D09D01C
:1037B000130B802212031A436D07084BD8E700232E
:1037C0000022D5E70022054BD2E703002A000B3B7D
:1037D0009A400025E3E7C04689030000FF07000088
:1037E000F0B54B000F035B0D3A4C450F83B07F0AD9
:1037F0005E1C2F4300900191CA0FC50026420BD0DA
:1038000035495C18FE2C13DDFF200023C00518434A
:10381000D207104303B0F0BD3D43002B01D100207F
:10382000F4E7002DF0D08023DB03FF203B43EDE7DE
:10383000002C0CDD009BFF009B01581E8341690F8B
:103840003B430B43590727D1DB08E0B2DEE72100F9
:10385000173131DB80211E2009043943001B1F284A
:103860002DDD02267642341B0E00E640340020286F
:1038700004D01A488446634499400D432B00591ED6
:103880008B412343590703D00F21194004290BD141
:103890009B0100205B0AB9E70F211940042904D1DC
:1038A0009B015B0AE0B2B1E7002404335901F7D56C
:1038B00001340023E0B2A9E700200023A6E7084C6A
:1038C0001C192B00A540C340A140681E8541294317
:1038D0000B43D7E7FE07000080FCFFFFA2FCFFFFC1
:1038E00082FCFFFF1C2101231B04984201D3000C22
:1038F00010391B0A984201D3000A08391B09984263
:1039000001D30009043902A2105C40187047C04678
:103910000403020201010101000000000000000098
:1039200010B5002903D1FFF7DDFF203002E00800C9
:10393000FFF7D8FF10BDC04670B545464E46D64687
:10394000944660B51A00079B00249946089B65467B
:1039500098462C60454614602C604D46099B2C60AF
:10396000002B21DD050003E001340435A3421BD008
:103970002E688E42F8DB4646146029683160002CC0
:1039800027D06546611E296017498A465444A40021
:1039900021584C462160002923D00121080070BC29
:1039A000B246A946A04670BD002144462468002CBA
:1039B000F4D1013B136099000B5841460B6013682A
:1039C0006246013B13604A469B001B58012113606D
:1039D000E4E7012111604168316061460C602968AB
:1039E000D7E70131E1E7C046FFFFFF3F70B50500B3
:1039F0001C008A420DD01800A94209DC0498AA4292
:103A000006DB6D1AC01A6843511AFCF719FC00193D
:103A100070BD049B1B19D80FC0184010F8E7C046B2
:103A200003000002000A1B0202D5FF231B061843F5
:103A30007047C04680231B04984203D3C043400212
:103A4000400AC0437047C0461A2110B5024B034AD2
:103A500003480DF0D5FAC046E43301082C3D0108B7
:103A6000E8330108242110B5024B034A03480DF046
:103A7000C7FAC046E43301081C3D0108E8330108D9
:103A8000F0B5C6460A23012400B5234E86B005AD25
:103A90002870984602936B224421300001940095CF
:103AA000093B05F0B3FB002831D1434604AF3C701D
:103AB0006C2202934421012330000194009705F009
:103AC000A5FB002823D1193004F0F0F94346672202
:103AD00002934421012330000194009505F096FBE8
:103AE000002816D143462D786822029344210123F1
:103AF00030000194009705F089FB002809D10748A0
:103B00003B780570437006B080BCB846F0BDFFF747
:103B10009BFFFFF7A7FFC046F4040020F40200203B
:103B2000F0B500220A2601258DB0A14C09AB1A7010
:103B30004421009320000123029601950D3205F0E7
:103B400065FB002800D031E1052708AB1F700E226D
:103B500000934421012320000296019505F056FBB5
:103B6000002800D022E1452207AB1A7044210093BF
:103B70002000012302960195363A05F047FB002804
:103B800000D013E106AB1F700B22009344210123E8
:103B900020000296019505F039FB002800D005E1D0
:103BA000032205AB1A7044210093200001230296E2
:103BB0000195063205F02AFB002800D0F6E07922B4
:103BC0000BAB1A704421009320000123029601954B
:103BD000143A05F01BFB002800D0E7E082220AAB74
:103BE0001A70442100932000012302960195513A56
:103BF00005F00CFB002800D0D8E00A3004F056F99C
:103C00000020FFF73DFF0120FFF73AFF01784278DF
:103C10000B0213430904674C12060B4313430220A3
:103C2000A362FFF72DFF0320FFF72AFF01784278F8
:103C30000B021343090412060B4313430420E362EF
:103C4000FFF71EFF0520FFF71BFF017842780B02EC
:103C50001343090412060B43134306202363FFF7A3
:103C60000FFF0720FFF70CFF017842780B02134388
:103C7000090412060B43134308206363FFF700FF98
:103C80000920FFF7FDFE017842780B021343090477
:103C900012060B4313430A20A363FFF7F1FE0B2028
:103CA000FFF7EEFE017842780B0213430904120677
:103CB0000B4313430C20E363FFF7E2FE0D20FFF7F5
:103CC000DFFE017842780B021343090412060B430E
:103CD00013430E202364FFF7D3FE0F20FFF7D0FE1F
:103CE000017842780B021343090412060B43134375
:103CF00010206364FFF7C4FE1120FFF7C1FE0178B6
:103D000042780B021343090412060B43134312209B
:103D1000A364FFF7B5FE1320FFF7B2FE01784278E7
:103D20000B021343090412060B4313431420E364EC
:103D3000FFF7A6FE1520FFF7A3FE017842780B02DD
:103D40001343090412060B43134316202365FFF7A0
:103D500097FE1720FFF794FE017842780B02134379
:103D6000090412060B43134318206365FFF788FE0E
:103D70001920FFF785FE017842780B0213430904EE
:103D80000B43120613432A20A365FFF779FE4378FD
:103D900002781B0213432B206384FFF771FE4378E4
:103DA00002781B021343A3840DB0F0BDFFF74CFE55
:103DB000F4040020F8020020002313607047C0467E
:103DC0007047C046012313707047C04610B50122EA
:103DD0000121034804F044FE0A200AF04BFA10BD0A
:103DE00000040050F8B54746CE46164B164E80B537
:103DF00014005F681A68336805000021181C90469B
:103E00009946FCF753FB002808D176680021301C46
:103E1000FCF74CFB002801D1C846371C2800FDF7F1
:103E200061FC4146FDF780F8391CFCF7BDFC0749F1
:103E3000FDF77AF8FDF736FC2060C0BCB946B04605
:103E4000F8BDC046C843010800F801080000C84298
:103E50000023012130B50F4C83B022680193936A8F
:103E60000500DB0CDB049362936A00910B439362C1
:103E70006946200004F0FEF9200004F05DF90221FB
:103E8000200004F085F9200004F0F0F9286003B068
:103E900030BDC0460804002070B50500140082B093
:103EA000012903D00123237002B070BD0023104EFE
:103EB000019332680F4B01310093936A3000DB0CA1
:103EC000DB049362936A0B439362694604F0D2F970
:103ED000300004F031F90221300004F059F93000CB
:103EE00004F0C4F980B201F033FD2860DAE7C0467F
:103EF0000804002002000004802212069446074BAA
:103F000010B51C68064B586819686044FCF73EFE03
:103F1000FDF7C8FB2369C01AE06110BDF000002066
:103F2000C843010810B582B06A4600230400D3716B
:103F30009621FE20073202F0ADFB002804D0852335
:103F4000DB05236002B010BD6B46DB799B065B0F7F
:103F5000072B12D80A4A9B00D3589F46094BF0E71B
:103F60008323DB05EDE78423DB05EAE7064BE8E77F
:103F7000064BE6E78623DB05E3E78223DB05E0E784
:103F80003C3D010800004041000040420000C042AA
:103F9000F0B5DE464E4645465746E0B5304C8BB050
:103FA000A07CE37C00041B021843237D1843FFF729
:103FB00037FD637B0500207B1B0200041843A37BB5
:103FC0001843FFF72DFD0600A06AE16AFFF708FC21
:103FD000071CA06EE16EFFF703FCE3798046A07931
:103FE0001B0200041843237A1843FFF719FD81468A
:103FF000206F616FFFF7F4FB1A4B83461A78002A93
:1040000022D1194B9A465846FFF7A2FB4B4608901F
:10401000099140460693FFF79BFB04900591381CDD
:10402000FFF796FB114C029003912300FA225146B0
:1040300000200196009502F09DFC0BB0F0BCBB4641
:10404000B246A946A046F0BD00221A70064A0020DA
:104050009246074BF722514602F08CFCD3E7C0464C
:104060006003002000000020583401086434010877
:1040700008340108F0B5CE46474680B5092595B00D
:1040800002F0CCF924236D4424220021FE202B7061
:1040900002F086FA012800D11FE10A240B26FF272F
:1040A0006C446E4422009021FE202770377002F08D
:1040B000F1FA32009121FE2002F0ECFA894A8A4995
:1040C000914688463078237800020343009300200D
:1040D0001300502202F04EFC01229021FE2002F03B
:1040E0005FFA02229121FE2002F05AFA220090216A
:1040F000FE2002F0CFFA32009121FE2002F0CAFA2F
:10410000327823781202134341465722002000934D
:104110004B4602F02FFC0122744B30211A700A2307
:104120000932FE202B7002F03BFA0A200AF0A2F8B6
:104130002A003021FE2002F0ADFA0A200AF09AF897
:10414000072307229321FE202B7002F029FA0A2070
:104150000AF090F82A009421FE2002F09BFA0A202F
:104160000AF088F8812381229421FE202B7002F02E
:1041700017FA0A200AF07EF82A009421FE2002F0A5
:1041800089FA0A200AF076F82F237F242F2295211E
:10419000FE202B7002F004FA0A200AF06BF8962138
:1041A0002A78FE2002F0FCF97F22A421FE202C7048
:1041B00002F0F6F9FF22A521FE202F7002F0F0F99F
:1041C00003AA1470723C6C44A421FE20277002F0F4
:1041D00061FA2200A521FE2002F05CFA0F240E22D3
:1041E00000236A446C44A621FE20137023704026ED
:1041F00002F050FA2200A721FE2002F04BFA4022E2
:104200003B4904A80DF0C6FD04AC764214AF361B42
:1042100031192278FE20C9B2013402F0C1F9A74257
:10422000F6D107229F21FE2002F0BAF9C022A02178
:10423000FE2002F0B5F9F822A121FE2002F0B0F92B
:104240004022A221FE2002F0ABF900230A202B70AD
:104250000AF010F8AE212A78FE2002F0A1F90A2017
:104260000AF008F8AF212A78FE2002F099F90A2016
:104270000AF000F8B0212A78FE2002F091F90A2015
:1042800009F0F8FFB1212A78FE2002F089F90A200E
:1042900009F0F0FFB5212A78FE2002F081F90A200A
:1042A00009F0E8FFB6212A78FE2002F079F90A2009
:1042B00009F0E0FFB7212A78FE2002F071F90A2008
:1042C00009F0D8FFB8212A78FE2002F069F90A2007
:1042D00009F0D0FF0748FFF725FE15B0C0BCB9466E
:1042E000B046F0BD7C34010858340108DC030020DE
:1042F000E8320108D8030020064910B5886EC96E5F
:1043000014000022044BFEF783FAFFF793F92060B4
:1043100010BDC0466003002000005940F8B5CE46ED
:1043200047469B4B05001B7880B5002B03D1C0BCD2
:10433000B946B046F8BD974C032322000221FE2067
:1043400002F068F90028F2D123781A0700D502E1BB
:104350009B0700D588E0302263781A4215D18E4C35
:104360002368002B05D109F01BFF2060FFF710FE2A
:10437000DDE709F015FFFA2223685200C31A9342C1
:10438000D5D32060FFF704FED1E7220009232221C4
:10439000FE200F3202F03EF90028E0D1E07B237CC2
:1043A00000041B021843637C1843FFF739FBFFF737
:1043B0007DF9C822794BD204FEF72AFA784B060021
:1043C000186898460F00FFF7C3F902000B00300091
:1043D0003900FDF7E3FDE37C20626162A07C1B02F3
:1043E00000041843237D1843FFF71AFBFFF75EF91B
:1043F000C8226A4BD204FEF70BFA4346060018683F
:104400000F00FFF7A5F902000B0030003900FDF79F
:10441000C5FDA37DA062E162607D1B02000418431C
:10442000E37D1843FFF7FCFAFFF740F9C8225B4B26
:10443000D204FEF7EDF94346060018680F00FFF7B7
:1044400087F902000B0030003900FDF7A7FDE37C7F
:1044500020636163A07C1B0200041843237D184382
:10446000FFF7DEFA28607AE74E4E06233200192164
:10447000FE2002F0CFF8002800D06CE709235B4251
:1044800030789846737800041B021843B378B04420
:104490001843FFF7C5FAFFF709F9FB2300229B0534
:1044A000FEF7B6F9434618665966187B5B7B000435
:1044B0001B02184343469B7B1843FFF7B1FAFFF7F3
:1044C000F5F8FB2300229B05FEF7A2F94346986608
:1044D000D966587A9B7A00041B0218434346DB7A5C
:1044E0001843FFF79DFAFFF7E1F8C8222B4BD204DF
:1044F000FEF78EF92A4B060018680F009946FFF761
:1045000027F902000B0030003900FDF747FD434654
:1045100018645964187B5B7B00041B0218434346F4
:104520009B7B1843FFF77CFAFFF7C0F8C8221B4BB0
:10453000D204FEF76DF94B46060018680F00FFF72E
:1045400007F90B00020039003000FDF727FD434654
:104550009864D964FFE603231021E21CFE3002F0C8
:1045600059F8002801D02378F2E6E0782379000496
:104570001B02184363791843FFF752FAFFF796F8C6
:10458000094B0022FEF744F92378A065E165DFE6D8
:10459000DC03002060030020540300200030213F92
:1045A000D8030020690300200000103FF8B5002365
:1045B0000127154D13702B78060014001F4200D1FF
:1045C000F8BD03231621FE20AA1D02F023F80028BF
:1045D000F6D1A879EB7900041B0218432B7A184313
:1045E000FFF71EFAFFF762F80022084BFEF710F9FA
:1045F000002228676967064B2770FEF709F9FFF765
:1046000019F83060DCE7C046600300200000103F6E
:1046100000005940F0B5DE4657464E464546E0B5E7
:10462000002593B011AC02F0A1FA10A8FFF77AFCB4
:10463000220025709621FE2002F02CF83823402617
:10464000227896219A43103B1A432270FE2001F0F3
:10465000A7FFE74FE74B39000020E74A00960B938E
:1046600002F088F9E54B2000984685234246DB0599
:104670001360FFF757FC109B181C0993FDF712F805
:1046800081460A901198FDF70DF84B46BA22DC4C92
:10469000390002900093002023005200019602F09E
:1046A00069F90022B521FE2001F07AFF0A2009F005
:1046B000E1FD0022B621FE2001F072FF0A2009F080
:1046C000D9FD0022B721FE2001F06AFF0A2009F07F
:1046D000D1FD0022B821FE2001F062FF08AB9D83CE
:1046E000B52102230FAAFE2001F094FFC222390057
:1046F0000020C44B520002F03DF908AA527FC24B81
:10470000019208AA127F3900009286220020FF320F
:1047100002F030F9642009F0ADFD00239A463033F1
:104720009946213B9B46B94D6424AB44069702E071
:10473000013C002C12D003232A000221FE2001F0AC
:1047400069FF0028F4D14A466B781A4200D0E1E0B4
:104750001E20013C09F08EFD002CECD16421504656
:10476000FBF76EFD069FFFF75BF9FEF7CDFF4346B3
:104770000D00F221040089051868FCF7D5FBFEF74F
:10478000E7FF02000B0020002900FDF707FCFBF704
:1047900021FF06000002000AFFF742F9FEF786FF3C
:1047A000C8229B4BD204FEF733F843460400186836
:1047B0000D00FEF7CDFF02000B0020002900FDF7E1
:1047C000EDFB0022934B04000D00FEF721F8802240
:1047D00012060B00944663440690079320002900BC
:1047E0008D4A8E4BFBF742FE002800D024E12000CA
:1047F00029008B4A8B4BFBF725FE002800D030E1C7
:1048000006980799884B894AFEF702F8FEF712FFCF
:1048100003B29B4683B299461B0A9A465546C3B2D9
:104820000D930C93FFF7B4FB069807994B4605933D
:104830005B460493FEF7D4FFFEF78AFFDD227C4C33
:10484000029003912300390000205200009602F0EC
:1048500091F80C9A774B0192E022390000200095E4
:10486000520002F087F85246B521FE2001F098FE72
:104870000A2009F0FFFCB6210D9AFE2001F090FEFF
:104880000A2009F0F7FC002308AA9383B52102331C
:104890000FAAFE2001F0BEFE08AB9C461B2400239D
:1048A000644422009621FE20237001F0F3FE382399
:1048B000257809989D432570FBF774FEC0B2302817
:1048C00000D1EAE000D9C2E0102800D1DDE000D933
:1048D000D5E0082805D00C2800D0E2E008231D43CD
:1048E00025702A009621FE2001F05AFE0A9B39000D
:1048F00000200093404A0B9B02F03CF84346099A83
:104900001A6002F029F913B0F0BCBB46B246A946C2
:10491000A046F0BD09235A462221FE3001F07AFE5E
:10492000002800D014E7E87B2B7C00041B0218430E
:104930006B7C1843FFF774F8FEF7B8FEC822344BBF
:10494000D204FDF765FF4346060018680F00FEF726
:10495000FFFE02000B0030003900FDF71FFBEB7C6F
:1049600028626962A87C1B02000418432B7D18434F
:10497000FFF756F8FEF79AFEC822254BD204FDF742
:1049800047FF4346060018680F00FEF7E1FE0200ED
:104990000B0030003900FDF701FBAB7DA862E96236
:1049A000687D1B0200041843EB7D1843FFF738F8BD
:1049B000FEF77CFEC822164BD204FDF729FF4346C2
:1049C000060018680F00FEF7C3FE02000B0030005F
:1049D0003900FDF7E3FAEB7C28636963A87C1B02CE
:1049E000000418432B7D1843FFF71AF88244AFE602
:1049F0005834010890340108FD020000D80300205B
:104A0000A4340108DC3401080435010860030020E7
:104A10000030213F00408F4021982CCD1F07FF3FE1
:104A2000C8FDECBEE106FFBF4B711040F12F7C2AA0
:104A30001435010854350108DD230C930D9303331D
:104A40009A461B4BE02599461A4B9B46EAE660289E
:104A50001FD080280FD0402823D128231D43257044
:104A60003FE723230C930D93043B9A46124B1F25DB
:104A700099469B46D6E638231D43257031E720280A
:104A80000FD118231D4325702BE710231D432570DC
:104A900027E730231D43257023E720231D4325707E
:104AA0001FE7064B064A074807490CF0A9FAC0461B
:104AB000DDE00000DDE0FFFF231F0000E43301081C
:104AC0005C3D010844340108FA02000030B585B0AD
:104AD00002F04CF88022520194461C48038863443B
:104AE00099B21B042ED40A0ACCB20180B721FE2051
:104AF00001F056FD0A2009F0BDFB2200B821FE207E
:104B000001F04EFD002303AD2A002B80B7210233B4
:104B1000FE2001F07FFDFE220D4C002021000D4BF8
:104B2000520001F027FF6A78210001922A780020C4
:104B30000092FE22084BFF3201F01CFF02F00CF83D
:104B400005B030BD002100240022CEE7580300202C
:104B5000583401087C3501080435010810B50400FB
:104B60000BF0E2FD0023054A126812685362536A93
:104B7000A342FCD30BF0E4FD10BDC04608000020AA
:104B8000054B064A10B51868118803F063FF013819
:104B900043425841C0B210BD040000200200002072
:104BA000034A044B12681B8851690B4353617047D9
:104BB0000400002002000020034A044B12681988F8
:104BC00053698B43536170470400002002000020AA
:104BD000034B04491A6813680B4013607047C046C2
:104BE00004000020FFF3FFFF8023034ADB0012686C
:104BF00011680B431360704704000020F0B5454670
:104C0000DE464E465746E0B5804683B0C820FFF7E3
:104C1000A5FF0825CC24012613E0FFF7C1FF3220B1
:104C2000FFF79CFF6408FFF7D3FFC046C046C046AD
:104C3000C046C046C046C046C046C046013D002DE5
:104C40000BD0FFF7D1FFFFF7B7FF0720FFF786FF75
:104C50002642E2D1FFF7B0FFE1E7C820FFF77EFF71
:104C60000825BE24012613E0FFF79AFF3220FFF744
:104C700075FF6408FFF7ACFFC046C046C046C0469B
:104C8000C046C046C046C046C046013D002D0BD0C0
:104C9000FFF7AAFFFFF790FF0720FFF75FFF26420D
:104CA000E2D1FFF789FFE1E7C820FFF757FF02AB2A
:104CB0009A460023EB4699460125732408260027CF
:104CC000FFF77AFFFFF790FFC046C046C046FFF7E8
:104CD0007FFFFFF755FF7B08C0010343013E3020F3
:104CE000DFB2FFF73BFF002EEAD15B46C8201F7002
:104CF000FFF734FF4B465F402B003B405B427A0896
:104D0000A3435340DAB22B405B425208A3435340C3
:104D1000DAB22B405B425208A3435340DAB22B4035
:104D20005B425208A3435340DAB22B405B42520825
:104D3000A3435340DAB22B405B425208A343534093
:104D4000DAB22B405B425208A3435340DAB22B4005
:104D50005B42A34352085340DBB2994601239C4671
:104D6000E344D345AAD16B4642461B88C820138032
:104D7000FFF7F4FE08250024FFF71EFFFFF734FFBE
:104D8000C046C046C046FFF723FFFFF7F9FE6408A0
:104D9000C0010443013D3020FFF7E0FEE4B2002DE6
:104DA000EAD100204C4506D0EA22064B06495200C3
:104DB00001F0E0FD032003B0F0BCBB46B246A946BB
:104DC000A046F0BDA4350108CC350108F0B5DE469B
:104DD0004E4657464546E0B585B002F08FFFFFF7D7
:104DE000DFFEFFF701FFFFF7F3FE6F4B1426994636
:104DF0006E4B6F4F984608E0002B0ED0012B58D019
:104E00003A70013E002E00D17FE000236946CB813D
:104E10003B780022022BEFD13A700BF085FCFFF7B4
:104E2000E3FEFFF7C9FEFA204000FFF797FEFFF709
:104E3000CFFE0120FFF792FE5E4D03E0013D002D05
:104E400000D169E0FFF79CFE04000128F6D0FFF7CF
:104E500097FE0028FBD03220FFF780FE08239A46F9
:104E6000073BCC249B4617E0FFF79AFE3220FFF762
:104E700075FE6408FFF7ACFEC046C046C046C0469B
:104E8000C046C046C046C046C04601235B429C4661
:104E9000E2445346002B50D0FFF7A6FEFFF78CFEEE
:104EA0000720FFF75BFE5B462342DDD1FFF784FE60
:104EB000DCE70BF039FCFFF797FEFFF77DFEFA20E9
:104EC0004000FFF74BFEFFF783FE0120FFF746FE91
:104ED000384C02E0013C002C2AD0FFF751FE01289B
:104EE000F8D0FFF74DFE0028FBD00E236B441800CE
:104EF000FFF784FE04000BF023FC002C50D10223AA
:104F0000013E3B70002E00D07FE705B0F0BCBB46F1
:104F1000B246A946A046F0BD0BF012FC01203C7041
:104F20004B46009041460020234A01F023FD68E7EC
:104F30000BF006FC03240120F1E73220FFF70EFE00
:104F400008239A46073B44249B4617E0FFF728FEB8
:104F50003220FFF703FE6408FFF73AFEC046C04662
:104F6000C046C046C046C046C046C046C0460123F3
:104F70005B429C46E2445346002B0CD0FFF734FEC4
:104F8000FFF71AFE0720FFF7E9FD5B462342DDD15C
:104F9000FFF712FEDCE70BF0D3FB01233B7030E799
:104FA00020000324BBE7C046D8350108CC350108F2
:104FB000E4030020E9030000350200000023102173
:104FC00030B50F4C83B0226801930E4B050000935F
:104FD000936A2000DB0CDB049362936A0B439362B9
:104FE000694603F047F9200003F0A6F801212000EC
:104FF00003F0CEF8200003F039F9286003B030BD8B
:10500000080400201000001010B5FFF7EDFDFFF7B9
:10501000D3FDFA204000FFF7A1FDFFF7D9FD0120E5
:10502000FFF79CFD084C02E0013C002C09D0FFF783
:10503000A7FD0128F8D0FFF7A3FD0028FBD0012031
:1050400010BD0020FCE7C046E9030000F0B585B0C4
:1050500000236946704ECB81704B050003603378A6
:105060000022022B44D0002B43D0012B3CD10BF06B
:105070005BFBFFF7B9FDFFF79FFDFA204000FFF74C
:105080006DFDFFF7A5FD0120FFF768FD644C03E00F
:10509000013C002C00D17DE0FFF772FD0128F7D024
:1050A000FFF76EFD0028FBD00E236B441800FFF7BE
:1050B000A5FD04000BF044FB002C00D09CE06B46E7
:1050C000D88980231B02984200D398E0FEF71CFB8E
:1050D000FE2300229B05FDF79BFBFEF781FB0223CD
:1050E00028603370022001E00020327005B0F0BD6E
:1050F00032700BF019FBFFF777FDFFF75DFDFA202B
:105100004000FFF72BFDFFF763FD0120FFF726FDB1
:10511000434D02E0013D002D2FD0FFF731FD04008B
:105120000128F7D0FFF72CFD0028FBD03220FFF735
:1051300015FD0825CC24012713E0FFF731FD3220AF
:10514000FFF70CFD6408FFF743FDC046C046C046AC
:10515000C046C046C046C046C046C046013D002DC0
:105160001DD0FFF741FDFFF727FD0720FFF7F6FCF5
:105170002742E2D1FFF720FDE1E70BF0E1FA012041
:105180003470284B009028490020284A01F0F2FB97
:105190003078ABE70BF0D4FA03240120F0E732209B
:1051A000FFF7DCFC08254424012713E0FFF7F8FC97
:1051B0003220FFF7D3FC6408FFF70AFDC046C04663
:1051C000C046C046C046C046C046C046C046013D77
:1051D000002D0BD0FFF708FDFFF7EEFC0720FFF7CF
:1051E000BDFC2742E2D1FFF7E7FCE1E70BF0A8FAAC
:1051F00001230120337079E720000324C0E7C04376
:105200004004400C0130FEF77FFA0022084BFDF706
:10521000FFFAFEF7E5FA62E7E40300200000C8C2E7
:10522000E9030000D8350108CC350108350200003B
:10523000000080BFF0B5D6464F464646C0B582B0A6
:105240000700150001F092FC524E3000FFF7FEFE01
:10525000012800D198E0032800D18DE033689946F9
:1052600000234846191C9846FBF726F9041E00D077
:105270007EE049494846FBF757FEFCF713FA474BD7
:1052800080461A78002A20D04A461C70444B454973
:105290001A609A4600909D220020434B019401F031
:1052A00069FB534630683C491860FBF73DFEFBF74D
:1052B00079F980B2386001F04FFC01232B7002B005
:1052C000E0BCBA46B146A846F0BD354B3249186835
:1052D0009A46FBF729FEFCF7E5F94346314A1C1ACA
:1052E00091464246E317E4185C40009249469D22ED
:1052F00000202D4B019401F03DFBC82CD1DDA022F4
:1053000049460020294B01F035FB53461B68A22279
:10531000494600203360264B01F02CFB02F0EEFCE6
:10532000FFF73EFCFFF760FCFFF752FCFFF75CFC69
:10533000FFF742FCFA204000FFF710FCFFF748FCA3
:105340000120FFF70BFC1B4C02E0013C002C07D0B6
:10535000FFF716FC0128F8D0FFF712FC0028FBD05D
:105360000D493068FBF7E0FDFBF71CF980B2A1E7BF
:105370004346002033609DE700908B2200200E4BB7
:10538000084901F0F7FA69E700232B7001F0E4FB0C
:1053900095E7C046100000200000C8420C00002025
:1053A000E0030020CC350108FC3501082436010853
:1053B0004C360108E9030000E8350108F0B5D6468F
:1053C0004F464646C0B53E4B82B099461B68060024
:1053D00008009A469046FEF769F93A4A3A4BFDF7BB
:1053E00017FA3A4A3A4BFCF713FA02000B00FDF7A2
:1053F0000FFA040030000D00FCF774F9FEF7A8F96D
:1054000053461A685B68FCF7C9FD324B06001B68FF
:105410000F009869FEF79CF902000B00300039007C
:10542000FDF7F6F953469A69DB69FCF7F1F9534643
:105430001A6A5B6AFCF7B2FD220006000F002B001F
:1054400020002900FDF7E4F902000B0030003900CC
:10545000FCF7DEF90022204B0DF028F81B4A1C4B0C
:10546000FDF7BCFC00221D4BFDF7D2F9FEF7E2F878
:1054700043461B4C18601B4A1B4B00902100002028
:1054800001F078FA194A43469446FA221B68520002
:105490006344934208D94A46154B136002B0E0BCFE
:1054A000BA46B146A846F0BD4A46124B21001360E9
:1054B00093220020104B920001F05CFAEEE7C04608
:1054C000140000207B14AE47E17A843F666666666E
:1054D00066127140F00000200000D03F00005940EB
:1054E000CC350108460200005C36010854F2FFFF8B
:1054F00018000020700000206C360108F0B58BB059
:105500001422002105A80CF04DFBA020012202214D
:10551000C00503F0A5FA01220121504803F0A0FACA
:105520000122A02002230692002205A9C0050593AE
:105530000792089303F0BEF80A230122B0214848DD
:1055400003F0BCFF002801D00BB0F0BD02AC022379
:1055500022003421B03001F05DF800283CD0042353
:1055600022003A21B02001F055F8051E5ED001AAB4
:1055700002232821B02001F04DF86B4639491A79F1
:105580005B790291A371AA230021E371963B2171FB
:1055900062712372012008F06DFE2200092323218D
:1055A000B02000F0ADFF012008F064FE6A46092338
:1055B0000121D370B020083B033200F0A1FF01208D
:1055C00008F058FE6A4680230B21D370B0207F3B41
:1055D000033200F095FFB7E722786378224D12027C
:1055E0009B184B2122002B80B030022301F012F8CF
:1055F000237860781B022E88C01880B2801BFCF7CD
:1056000071F81A49FBF790FC194B051C1860300023
:10561000FCF7B8F81749061C281CFBF785FC011C91
:10562000301CFBF7DBFD144F386098E7029A134BF0
:1056300064201A6008F01EFE220004234521B020D9
:10564000029500F0E7FF029A0D4B49211A60B02045
:1056500001230C4A00F0DEFF89E7C0460004005039
:10566000F404002020156D05F2030020CDCC4C3D44
:10567000040400200000A04100040020F8030020E2
:10568000FC030020F4030020F8B5204B14001B7825
:10569000A52B39D11E4B18688011FCF723F81D4B40
:1056A0001968FBF781F81C4B1968FBF76FFA1B4B65
:1056B000051C1B491868FBF777F8011CFBF734FC45
:1056C000011CFBF731FC291CFBF76EF8FEF740F8D4
:1056D0000022144B0CF0EAFE134B06001A68292333
:1056E000D05C0F00FBF7FEFF104A114B051C390080
:1056F0003000FDF773FBFEF773F8011C281CFBF765
:1057000013FCFBF7CFFF2060F8BDC046F403002078
:10571000E8030020FC030020F8030020EC03002035
:10572000339388430000D03FF00000206666666631
:105730006612714010B584B000236A460400D3712C
:1057400001210133B020073200F064FF6B46DB79A2
:105750009B0601D5002801D004B010BD052304210B
:1057600002AAB03000F056FF0028F5D16A46D17A7F
:10577000127B094B090252181A806B46187A5B7A21
:105780000002C0186B469B7A0002C018FEF752F95F
:10579000024B20601860DFE7F0030020E8030020E0
:1057A000104B70B5060018881500FBF7EBFF0E4B89
:1057B0001968FBF713FD0D4B1968FBF7E7F90C4B64
:1057C000041C18600B4B1A682A23D05CFBF78AFF75
:1057D000211CFBF7A9FBFBF765FF012330602B7051
:1057E00070BDC046F0030020000400200404002027
:1057F000EC030020F00000207047C046F0B5354DA6
:105800008BB00A2305224621280003F057FE00280A
:1058100001D00BB0F0BD1022002106A80CF0C2F997
:10582000802301261B022C4805A912240A27059370
:10583000079602F03FFF1A236C4423708122462111
:105840000094193B28000297019603F06DFB132387
:105850009322237046210094123B28000297019660
:1058600003F062FB0F2384222370462100940E3B39
:1058700028000297019603F057FBF023972223702C
:1058800046210094EF3B28000297019603F04CFB61
:1058900045239422237046210094443B280013247E
:1058A0000297019603F040FBFF236C44237099227A
:1058B000FE3B4621280002970196009403F0A6FCC7
:1058C00023781B07A5D53C220420044B044901F092
:1058D00051F89EE7F4040020000400507C360108D3
:1058E000B036010810607047F0B5CE464746162521
:1058F0001726002380B587B06D446E442B7033703B
:105900000A3399460F4C0293093B070001939A22F0
:10591000462120000095984603F078FC4B46029300
:1059200043469B22019346212000009603F06EFC23
:1059300032782B78120213433B6007B0C0BCB946E3
:10594000B046F0BDF40400200023036013707047DC
:1059500070B5010088B01A48FAF772FC194BC118EB
:10596000002929D01848FAF76BFC002304006425AD
:105970000493059306930793A633029305AB019313
:1059800004AB2100009306AA07AB1048FDF7D4FF33
:105990002000079C0E4EA400A459069B6C439B005C
:1059A0009B59059A04996B436A4369436843009481
:1059B000FEF71CF808B070BD28204042FAE7C04648
:1059C00018FCE70318FCFFFF8096980000400108D0
:1059D000683D010810B582B00822002168460CF02D
:1059E000E1F880210122264C264BC9026160022188
:1059F00023600C23E2632261C222A163002123649D
:105A00000023FF326262963AFF3AA1542000283AFE
:105A10006364A364A360E3602384A362626123637D
:105A2000A3616363E36102F0ABFA00281CD1012398
:105A30000093802369465B012000019302F01AFC69
:105A400000281AD1104B69462000009302F012FC86
:105A500000280FD10D4B69462000009302F00AFC8C
:105A6000002804D102B010BD01F010F9DFE701F009
:105A70000DF9F7E701F00AF9ECE701F007F9E1E7C2
:105A8000080400200024014002000004100000105F
:105A900010B5040088B01422002102A80CF082F88E
:105AA0000E4B22689A4201D008B010BD80220C4BE8
:105AB0009200596BA0200A435A630122D96AC0059B
:105AC0001143D962DB6A02A91A400192019B132299
:105AD00003230292039302F0EDFDE5E70024014069
