:020000040800F2
:100000000050002069490008A9450008AD450008D6
:1000100000000000000000000000000000000000E0
:10002000000000000000000000000000F5CD000806
:100030000000000000000000D1CE000815CF00082D
:10004000B9490008B9490008B9490008B949000888
:10005000B9490008B9490008B9490008B949000878
:10006000B9490008B9490008B1450008B949000874
:10007000B9490008C1450008B949000811460008FF
:10008000B9490008B9490008B94900080000000052
:10009000B9490008B9490008B949000821460008D3
:1000A000B9490008B9490008B949000841460008A3
:1000B000B9490008B949000800000000514600088D
:1000C00010B5064C2378002B07D1054B002B02D02E
:1000D000044800E000BF0123237010BD2802002067
:1000E0000000000054EC0008044B10B5002B03D0B6
:1000F0000349044800E000BF10BDC04600000000F6
:100100002C02002054EC000803B47146490840005A
:100110004900095E49008E4403BC70470022430831
:100120008B4274D303098B425FD3030A8B4244D3BF
:10013000030B8B4228D3030C8B420DD3FF22090201
:1001400012BA030C8B4202D31212090265D0030BC0
:100150008B4219D300E0090AC30B8B4201D3CB03B6
:10016000C01A5241830B8B4201D38B03C01A5241F8
:10017000430B8B4201D34B03C01A5241030B8B42FA
:1001800001D30B03C01A5241C30A8B4201D3CB02E5
:10019000C01A5241830A8B4201D38B02C01A5241CA
:1001A000430A8B4201D34B02C01A5241030A8B42CD
:1001B00001D30B02C01A5241CDD2C3098B4201D3E5
:1001C000CB01C01A524183098B4201D38B01C01A63
:1001D000524143098B4201D34B01C01A52410309DA
:1001E0008B4201D30B01C01A5241C3088B4201D389
:1001F000CB00C01A524183088B4201D38B00C01A36
:10020000524143088B4201D34B00C01A5241411A5C
:1002100000D20146524110467047FFE701B5002069
:1002200000F0F0F802BDC0460029F7D076E770472D
:1002300003460B437FD4002243088B4274D3030947
:100240008B425FD3030A8B4244D3030B8B4228D3E8
:10025000030C8B420DD3FF22090212BA030C8B420E
:1002600002D31212090265D0030B8B4219D300E0AE
:10027000090AC30B8B4201D3CB03C01A5241830B33
:100280008B4201D38B03C01A5241430B8B4201D3E3
:100290004B03C01A5241030B8B4201D30B03C01A0C
:1002A0005241C30A8B4201D3CB02C01A5241830A86
:1002B0008B4201D38B02C01A5241430A8B4201D3B5
:1002C0004B02C01A5241030A8B4201D30B02C01ADF
:1002D0005241CDD2C3098B4201D3CB01C01A524146
:1002E00083098B4201D38B01C01A524143098B42CF
:1002F00001D34B01C01A524103098B4201D30B01B8
:10030000C01A5241C3088B4201D3CB00C01A5241DC
:1003100083088B4201D38B00C01A524143088B42A1
:1003200001D34B00C01A5241411A00D2014652413A
:10033000104670475DE0CA0F00D04942031000D359
:100340004042534000229C4603098B422DD3030AAE
:100350008B4212D3FC22890112BA030A8B420CD3BE
:10036000890192118B4208D3890192118B4204D3E7
:1003700089013AD0921100E08909C3098B4201D367
:10038000CB01C01A524183098B4201D38B01C01AA1
:10039000524143098B4201D34B01C01A5241030918
:1003A0008B4201D30B01C01A5241C3088B4201D3C7
:1003B000CB00C01A524183088B4201D38B00C01A74
:1003C0005241D9D243088B4201D34B00C01A52414B
:1003D000411A00D20146634652415B10104601D3D8
:1003E0004042002B00D54942704763465B1000D362
:1003F000404201B5002000F005F802BD0029F8D008
:1004000016E770477047C046844608006146FFE71C
:100410001FB500F08BFC002801D40021C8421FBD8D
:1004200010B500F017FC4042013010BD10B500F0CF
:100430007DFC002801DB002010BD012010BDC0465E
:1004400010B500F073FC002801DD002010BD012074
:1004500010BDC04610B500F023FC002801DC0020D0
:1004600010BD012010BDC04610B500F019FC0028D9
:1004700001DA002010BD012010BDC046002B11D1B3
:10048000002A0FD1002900D1002802D00021C94341
:10049000080007B4024802A14018029003BDC046FC
:1004A00065FFFFFF03B4684601B5029800F04CF801
:1004B000019B9E4602B00CBC7047C046F0B5CE46CC
:1004C0009946030C9C46130447461B0C1D000E0066
:1004D00061460404240C80B50700100C4B436543AF
:1004E000414360432C0CC01820188C46834203D92A
:1004F00080235B029846C444494679435643030C23
:100500002D042D0C8919634400044019C918C0BC7E
:10051000B946B046F0BDC0469E2110B5C905041CC1
:10052000FFF7A2FF002803D1201C00F031FF10BD0F
:100530009E21201CC90500F08BFD00F029FF8023BF
:100540001B069C466044F2E7F0B557464E464546CA
:10055000DE46E0B504000D009246994683B08B421A
:1005600030D82DD04946504601F010FB2900060036
:10057000200001F00BFB331A9846203B34D49B46F5
:1005800053465A46934042461F00534693401E002E
:10059000AF423BD8AF4200D179E05B46A41BBD41DE
:1005A000002B00DA76E00022002300920193012361
:1005B0005A4693400193012342469340009329E019
:1005C0008242CFD900220023009201930C9B002B82
:1005D00001D01C605D600098019903B0F0BCBB467F
:1005E000B246A946A046F0BD42469B4620239B1A30
:1005F0005246DA40414613004A468A4017004246B6
:100600001F43534693401E00AF42C3D9002200232C
:10061000009201934346002BD8D0FB0772081A437F
:1006200046467B080EE0AB4201D1A2420CD8A41A88
:100630009D41012024196D410021013E24184D41A6
:10064000002E06D0AB42EED9013E24196D41002E9A
:10065000F8D1009801995B4600196941002B24DB11
:100660002B005A464446D3402A00E2401C005B4619
:100670001500002B2ADB26009E403300260047464B
:10068000BE403200801A9941009001919EE7A3423A
:10069000BCD882E74246202300219B1A0022009109
:1006A00001920122DA40019285E7424620239B1AFB
:1006B0002A0046469A402300F340444613432A004A
:1006C000E2401C005B461500002BD4DA42462F00A6
:1006D0002023260097409B1ADE403B003343CDE7A2
:1006E000F8B54746CE464A0243024500C40F500AB9
:1006F000804648005B0A000E9209944680B51E00B1
:10070000814602002D0EDF00C90F8C4224D0281A2A
:1007100000280EDD002A3ED16246002A00D1FDE00D
:10072000421E012800D137E1FF2800D1A9E01000C6
:1007300039E0002863D04B46521B002D00D0E0E08A
:10074000002F00D1CEE0531E012A00D155E1FF2A2F
:1007500000D194E01A00D9E02A1A002A00DC99E0BE
:10076000002862D0FF2D00D18BE080236146DB049E
:1007700019438C461B2A00DCD2E00123DB195A0105
:100780006AD50135FF2D5BD00122A3491A405B08D1
:100790000B4013431CE0FF2D00D172E08023624622
:1007A000DB041A4394461B2800DC90E00123FB1A6B
:1007B0005A0151D59B019E09300001F0C9F933005F
:1007C00005388340854200DC75E0944A2D1A1340B9
:1007D0005A0704D00F221A40042A00D004335A01C9
:1007E0003CD5681CFE2D2BD09B015E0AC0B2C00513
:1007F0003043E4072043C0BCB946B046F8BDFE20F4
:100800006A1C104272D1002D00D0AEE0002F00D142
:10081000ECE063460020002BE9D0FB1A5A0100D41B
:10082000F3E063460C00DB1BD2E7614600295BD096
:10083000511E012A00D1A7E0FF2A22D00A0099E721
:10084000FF200026D3E7FE216A1C114273D0FF2A45
:10085000F6D0150067447B085A07BBD1DB08FF2D93
:100860000FD05B025E0AE8B2C1E76246002A08D0F8
:100870008022D203134204D04046104201D10C0022
:100880004346002BDCD08026F6031E437602FF2071
:10089000760AACE7002AD6D0421B002D5CD0FF2898
:1008A000EED08023DB041F431B2A00DC82E00123FF
:1008B0004D46634463E72022401B0130121A1900A1
:1008C0009340C1405A1E934100250B4380E72023EB
:1008D00061461B1A994062460B00C240591E8B416B
:1008E000134364E70C0043461500B8E76346FE1A5D
:1008F000730145D4002E00D05EE7002400200026BE
:1009000075E7FF2BBBD08023DB041F431B2A47DD89
:10091000012362460C004D46D31A49E705009EE7C5
:1009200061462023D1409B1A62469A4013005A1E0A
:1009300093410B4322E7002D46D1002F62D063463E
:100940000020002B00D152E73B0063445A0183D5BD
:10095000324A013513407FE7002FC4D0531E012ACD
:1009600012D0FF2A8CD01A009EE7002F00D07CE71F
:100970006346002B83D180260024FF20F60336E750
:1009800063460C00DE1B17E73B00634401255A0158
:1009900000D461E70225F7E663460125FB1A07E765
:1009A00020239B1A38009F403B00D0405A1E9341A1
:1009B0000343AEE720239B1A39009F403B00D14000
:1009C0005A1E93410B4373E7002F00D158E762464C
:1009D000002A00D155E78022D203134200D150E70C
:1009E0004146114200D04CE743464AE76346002B9C
:1009F00083D00C0046460020F9E663460C00DB1B62
:100A00000135D5E646460020F1E6002B00D023E76D
:100A100000240026EBE6C046FFFFFF7DFFFFFFFB43
:100A2000F0B54F464646D6464502C0B547000C1CB9
:100A30006D0A3F0EC60F002F00D16FE0FF2F00D1CF
:100A400074E00023802299469A46ED00D2041543B3
:100A50007F3F63025B0A984663001B0EE40F002B86
:100A60004DD0FF2B45D042468021D200C90411430E
:100A7000884600227F3B3100FF1A4B466140C9B2D5
:100A80000F2B00D9B8E070489B00C3589F46002345
:100A900098462600454692465346022B00D18DE0EB
:100AA000032B00D1A1E0012B18D03B007F33002B9A
:100AB0006DDD6A0704D00F222A40042A00D00435D5
:100AC0002A0103D5614B1D403B008033FE2B00DD26
:100AD00074E0AA01520AD8B202E00E0000200022FF
:100AE000C005F60710433043E0BCBA46B146A846FD
:100AF000F0BD4346002B3FD10222FF3F03E04346B7
:100B0000002B2DD1012231004B466140C9B2134365
:100B10000F2B38D84E489B00C3589F46002D13D149
:100B200004239946033B00279A4692E7002D05D1FE
:100B300008239946063BFF279A468AE70C239946E5
:100B4000093BFF279A4684E7280001F001F8762741
:100B5000431F9D4000237F4299469A463F1A78E7FB
:100B6000404600F0F5FF4246431F9A4076235B4221
:100B700090461B1A00227EE703234A461A439146F9
:100B8000FC33032277E70E00FF200022A8E70122B2
:100B9000D31A1B2BA2DC9E372A00BD40DA406B1E05
:100BA0009D4115436A0704D00F222A40042A00D031
:100BB00004356A0144D50120002291E7FF2000227C
:100BC0008EE780220026FF20D20389E70023984683
:100BD0008022D203154208D04346134205D11A435E
:100BE00052022600FF20520A7AE78022D2032A43CB
:100BF0005202FF20520A73E742466B015501AB4295
:100C00001AD21B200022013F01261C0052005B006B
:100C1000002C01DB9D4201D85B1B324301380028C8
:100C2000F3D1581E834113431D003B007F330E0058
:100C3000002B00DD3DE7AAE71A2001225B1BE3E75A
:100C4000AA010020520A4BE76CEC0008FFFFFFF7F7
:100C5000ACEC000870B5420045024E024C00C30FD8
:100C60006D0A0120120E760A240EC90FFF2A06D043
:100C7000FF2C03D0A24201D1B54206D070BD002D99
:100C8000FCD1FF2CFAD1002EF8D18B4206D00120E6
:100C9000002AF3D12800431E9841EFE70020EDE73A
:100CA00070B5420045024E024C00C30F6D0A120E91
:100CB000760A240EC80FFF2A1BD0FF2C0ED0002A64
:100CC0001BD1002C01D1002E1CD0002D0CD0834252
:100CD0001CD00221581E0840013870BD002E22D1C0
:100CE000002AF4D1002DF2D10028F6D10120404293
:100CF000F3E7002D17D1FF2CF0D0002CE7D1002E08
:100D0000E5D1E6E70020002DE7D0E2E7A24205DCCE
:100D1000EADBB54202D8E7D30020DEE74342584180
:100D200040000138D9E702204042D6E770B54200C2
:100D300045024E024C00C30F6D0A120E760A240EB5
:100D4000C80FFF2A0BD0FF2C0DD0002A1FD1002C7A
:100D500016D1002E14D10020002D10D009E0002D56
:100D60000CD1FF2C13D1002E08D1002A08D08342C9
:100D700012D00221581E0840013800E0022070BD48
:100D8000002DF4D10028FAD101204042F7E7002CD1
:100D9000EDD1002EEBD1ECE7A24205DCF2DBB5424F
:100DA00002D8EFD30020EAE743425841400001381F
:100DB000E5E7C04643025B0AF0B54F464646994612
:100DC000D646C30F45009846C0B54B460F1C2D0EA6
:100DD00000D1CBE0FF2D00D1CFE08022DB00D20498
:100DE0001A430023914600269A467F3D7C027B00F1
:100DF000640A1B0EFF0F002B00D1A9E0FF2B11D0BE
:100E00008022E400D204144342467F3B5B197A40BF
:100E10000020D2B25D1C0A2E13DD3A000B2E47D003
:100E200047463FE02B00FF33002C1ED10222164321
:100E3000424601357A40D2B2FF350A2E00DDE4E0A9
:100E40000220022E1CDC013E012E42D802283DD099
:100E5000012866D100200021C0050843D2071043B5
:100E6000E0BCBA46B146A846F0BD0322164342464E
:100E700001357A40D2B2FF350A2E00DDE4E00320CE
:100E80000121B140A626F60031420AD19026B600D3
:100E9000314216D1B93EFF3E0E421AD0A1468246DB
:100EA00000E0170053463A00022B0FD04C46504644
:100EB0000328CDD18021C90321434902FF20490ADB
:100EC000CAE780210022FF20C903C5E7FF200021D7
:100ED000C2E7200C49462404240C27000E0C090408
:100EE000090C74434F4346434843390C0019091811
:100EF0008C4203D980204002844666443F040804A3
:100F00003F0CC0198401671EBC41090C800E891971
:100F1000044389010C43090171D5012361081C4078
:100F20000C432B007F33002B51DD610704D00F21D0
:100F30002140042900D00434210103D5434B1C4037
:100F40002B008033FE2BC1DCA101490AD8B283E714
:100F5000002C2CD1012342461E432B007A40012055
:100F6000D2B25D1C0A2E00DD57E76AE7002B10D1D4
:100F70000123042600259A4638E7002B04D10223DA
:100F80000826FF259A4631E703230C26FF259A46BB
:100F90002CE7484600F0DCFD4A46431F76259A4080
:100FA00000236D42914600269A462D1A1EE7200026
:100FB00000F0CEFD4246431F9C402B1A763B7A4000
:100FC0000020D2B25D1C0A2E00DD26E739E70121A0
:100FD000CB1A1B2B00DD3DE79E352100AC40D940EC
:100FE000631E9C4121434B0704D00F230B40042B6D
:100FF00000D004314B0104D5012000212CE71D0055
:101000008FE789010020490A26E702230F2E0CD121
:1010100080214B46C9030B420DD00C420BD121431A
:1010200049023A00FF20490A16E70B2E00D0F7E6E6
:10103000A1469A4636E780214B46C9031943490227
:101040004246FF20490A07E70323DFE7FFFFFFF7D8
:10105000F0B5C64643025B0A4500DA00C40F4802F9
:101060004F009446420A1E00904600B52D0E3F0EDA
:10107000C90F8009FF2F59D0012251408C4239D02D
:10108000EA1B002A58DD002F68D0FF2D00D1D1E0E7
:101090008023DB0418431B2A00DCE3E001236246C3
:1010A000D31A5A0100D4ACE09B019E09300000F035
:1010B0004FFD330005388340854200DCC6E0B24A6C
:1010C0002D1A13405A0704D00F221A40042A00D0C8
:1010D00004335A0100D497E06A1CFE2D00D184E04D
:1010E0009B015E0AD2B2D0053043E407204380BCA6
:1010F000B846F0BDEA1B002A41DD002F6BD0FF2D62
:1011000000D197E08023DB0418431B2A00DCCCE0ED
:10111000012363445A0174D50135FF2D65D00122A6
:101120009A491A405B080B401343CBE700281FD0B5
:101130008C4222D02A00FF3A002A35D07A1B002D9B
:1011400000D099E06346002B00D1DDE0531E012A58
:1011500000D105E1FF2A6BD01A0094E0002873D07B
:10116000511E012A00D1DFE0FF2A63D00A0092E776
:1011700001225140A14200D082E72A00FF3A002A12
:1011800036D07A1B002D00D1AAE0FF2F00D1DAE083
:1011900080236146DB0419438C461B2A00DCD4E023
:1011A00001233D001B18B5E7FE276A1C174271D1C9
:1011B000002D00D09EE06346002B00D1D5E0002238
:1011C000002800D18FE71B1A5E0100D4D6E06346E9
:1011D0000C00C31A76E7002836D0511E012A00D130
:1011E0009AE0FF2A26D00A008FE7FF2200267AE73E
:1011F000FE276A1C174262D0FF2AF6D01500604411
:1012000043085A0700D05FE7DB08FF2D12D05B02CE
:101210005E0AEAB267E76246002A00D193E000283E
:1012200008D08022D203134204D04046104201D19C
:101230000C004346002BD8D08026F6031E437602CE
:10124000FF22760A4FE743461500DEE72022401BC7
:101250000130121A19009340C1405A1E93410025D3
:101260000B432FE720239B1A010098400300D14035
:101270005A1E93410B4312E7FF2FD9D080236446B7
:10128000DB041C43A4461B2A52DD01230C003D0055
:10129000C31A06E763461E1A730139D4002E00D024
:1012A00004E70024002200261DE720239B1A0100EA
:1012B00098400300D1405A1E93410B4329E7002D6B
:1012C000A9D16346002B56D00022002800D10AE79E
:1012D000030063445A0194D52B4A0135134090E72B
:1012E0006346002BAFD0531E012A15D0FF2A2AD007
:1012F0001A0052E76246002A91D1002898D1802630
:101300000024FF22F603EEE60C00434615007CE7BE
:1013100063460C00C61AC9E60300634401255A015E
:1013200000D46EE70225FAE6634601251B1AB8E6EB
:1013300064462023D4409B1A62469A4013005A1EEA
:1013400093412343A2E7434674E761462023D140FB
:101350009B1A62469A4013005A1E93410B4320E7A2
:1013600063460C000125C31A9BE6002899D00C00A7
:1013700046460022B7E646460022B4E6002B00D0DF
:101380003FE700240026AEE6FFFFFFFBFFFFFF7DE7
:1013900041024200C30F490A0020120E7E2A03DDDB
:1013A0009D2A02DD094A98187047802000040143F5
:1013B000952A07DC9620821AD1404842002BF3D1AF
:1013C0000800F1E7963A9140F7E7C046FFFFFF7F3C
:1013D00070B5002813D0C317C5185D40C40F28008E
:1013E00000F0B6FB9E2301001B1A962B0FDC082889
:1013F00031D008398D406D026D0AD8B202E0002468
:1014000000200025C0052843E407204370BD992B28
:101410000CDD0522121A2800D040020008001B3003
:1014200085402800451EA84102431500052916DC09
:101430002A000F4802406E0709D00F263540042DC0
:1014400005D00432550102D59F2302405B1A920158
:10145000550AD8B2D6E76D0296206D0AD2E74A1F28
:1014600095402A00024802406E07F0D0E5E7C046EA
:10147000FFFFFFFBF0B54546DE4657464E46E0B55A
:101480001F000B031B0B9B464D00CB0F0400914626
:10149000984687B06D0D00D1CDE1CE4B9D4200D175
:1014A000E9E15A46430FD2001343802212041A4343
:1014B000C3009A46C84B93469C46002300266544C9
:1014C00000933C037B004846240B5B0DFF0F002B71
:1014D00000D189E1BF4A934219D0420FE400224370
:1014E000802424041443BC4A0021944642466344A9
:1014F0005B190193019B7A400133C000D2B2029381
:101500000A2E1CDD3A000B2E5ED0474656E04946B7
:10151000B04B2143EB18019300292AD180200222ED
:1015200000012B0084461643424663447A40D2B2FF
:1015300002930A2E00DD31E2002000240221022E57
:1015400026DC013E012E52D802294CD0012900D0C0
:1015500018E10023002400251B052343D207134371
:101560002800190007B0F0BCBB46B246A946A04609
:10157000F0BD8021032209012B008C461643424610
:1015800063447A40D2B202930A2E00DD28E203219E
:101590000125B540AC46A6266346F60035403342E9
:1015A0000BD19026B600334218D1B93EFF3E1E4201
:1015B0001DD0A3468246009100E0170000993A0032
:1015C000022910D05C4650460329BFD180231B035B
:1015D0001C43240305007F4B240BBDE7802400221D
:1015E0007C4B2403B8E7002400257A4BB4E753462C
:1015F0001E04360C1F0C3300010C0004000C434386
:10160000984603007B43994633004B439C46434630
:101610000D001B0C9A467D43CC44D4440095E14513
:1016200004D980235B0299464D44009563461B0C08
:101630001D0063461B049C4643461B041B0C984636
:10164000634643440393230C984633002404240C3C
:1016500063439C4623007B43994643465E435F4376
:101660004E446346B2461E0C5644B14503D980230E
:101670005B0299464F44330C99463B004B4405931B
:101680006346AC461F043F0C3604F619B444634667
:1016900004935B461B0C9C465B461F043F0C3B00BF
:1016A00043439946634643439A464B4660461B0C68
:1016B0009B4648437943514459448A4503D9802382
:1016C0005B029A4650440B0C9A464B461B041B0C7B
:1016D00099463B006343090445464944994663469D
:1016E0005C436B439C464B461B0C98466F433F192B
:1016F00047445044BC4203D980235B029846C4440B
:10170000049B009D98464544B542B64173429846B5
:101710004B461E04059B3C049946360CA4194C44C8
:10172000A14683466E18C1448E428941CB445D4632
:1017300049426D189C42A441C1459B41834580416B
:101740008D4289415B4264421C434042039B4942B3
:10175000014370023F0C1843E419471EB841641856
:101760006444F60D61023043EC0D6E020C433043CD
:10177000C90100D4F1E00121430801400B43E00717
:10178000184364081549029B8C466344002B00DC17
:1017900097E0410709D00F210140042905D0011D20
:1017A00081428041404224180800E10106D5802191
:1017B000C9008C460A4B1C40029B634409498B427A
:1017C00000DD10E76107C50864025B050D43240BCB
:1017D0005B0DC1E6FF07000001FCFFFFFF030000F7
:1017E000FFFFFFFEFE0700004B46234359D0002CAD
:1017F00000D1A3E0200000F0ABF9010003000B3999
:101800001D22521A49461800D1404A4608388240E3
:10181000844010000C43744AEB1A944642466344D9
:101820000193019B7A4001330021D2B202930A2E28
:1018300000DD67E683E65B4603439A462AD05B46B3
:10184000002B6DD0584600F083F9010003000B39DE
:101850001D22521A210018005D46D14008388540EB
:101860000A0084402A439346A2465F4D0026ED1AA3
:101870000023009325E65B4603439A4605D10023E7
:101880009B460233082600931BE6032382460C2660
:10189000009316E600239B4601330426002500939F
:1018A0000FE64246013301951E43019B7A40013306
:1018B000002400200121D2B202930A2E00DD21E68D
:1018C0003DE60121C91A382900DD42E61F2947DD1E
:1018D0001F2625007642F31ADD402B00202905D073
:1018E0004249029D8C466544AC402043411E8841DC
:1018F000184307231D000024054003424AD00F234C
:1019000000240340042B42D0031D83428041404207
:101910002418180023023AD50123002400251BE6D1
:1019200000F016F901000300153120331C298FDD6A
:101930000838002284409246A34696E700F008F952
:1019400001000300153120331C2900DC58E7020098
:101950004C46083A002094405DE7019B029311E752
:10196000234B26009C460300029DCB406544AE40BD
:101970001E430300AB40581E834130001843CC4047
:101980004307C7D00F230340042BBDD1C2E765072F
:101990006402240BC00800230543DDE50025022373
:1019A0000F2E0CD180245B46240323420ED021420B
:1019B0000CD10C4324033A000E4B240BCCE50B2E28
:1019C00000D0A2E58B46AA460093F7E580245B464B
:1019D00024031C43240342465546064B240BBBE517
:1019E0004D4621000323DBE70DFCFFFF3E04000012
:1019F0001E040000FF07000010B5041E10D000F008
:101A0000A7F80F4B1B1A0A2811DC0B222100121A0F
:101A1000D14015300A035B058440120B5B0D01E0D9
:101A2000002300221B0513432000190010BD2200D3
:101A30000B3882405B0512030024120B5B0DF1E7AB
:101A40001E0400000200F0B54B000D03400F5B0DBB
:101A5000CC0F6D0A3A490543581CD70008420AD0FA
:101A600038495918FE2916DDFF200022C005104311
:101A7000E4072043F0BD002B06D13D4326D00522CC
:101A80009201520AD8B2F1E72F43EDD08022D2035F
:101A9000FF202A43EAE700291BDD9201501E824104
:101AA000ED007F0F2A433A43530747D00F231340DB
:101AB000042B00D004328023DB0413403ED0481CAA
:101AC000FE29D1D09201520AC0B2CFE700200022F5
:101AD000CCE70A0017322FDB802636042E431E2562
:101AE0006D1A1F2D11DD02225242521A3100D140CF
:101AF000202D04D0144A944663449E4037433A0054
:101B0000531E9A410A430021CEE7104A38009446FA
:101B1000634498403A00411E88419E40EA40304369
:101B2000024300215307C1D180211300C9040120C1
:101B30000B400A42C6D1A3E70023A0E70B009FE7B2
:101B4000FE07000080FCFFFFA2FCFFFF82FCFFFFFE
:101B50001C2101231B04984201D3000C10391B0ADD
:101B6000984201D3000A08391B09984201D30009A1
:101B7000043902A2105C40187047C04604030202F8
:101B800001010101000000000000000010B5002963
:101B900003D1FFF7DDFF203002E00800FFF7D8FF98
:101BA00010BDC04670B545464E46D646944660B513
:101BB0001A00079B00249946089B654698462C60AE
:101BC000454614602C604D46099B2C60002B21DD9E
:101BD000050003E001340435A3421BD02E688E4279
:101BE000F8DB4646146029683160002C27D0654632
:101BF000611E296016498A465444A4002458494667
:101C00000C600121002C06D0080070BCB246A94629
:101C1000A04670BD002144462468002CF4D1013B4D
:101C2000136099000B5841460B6013686246013BF4
:101C300013604A469B001B5801211360E4E7012111
:101C400011604168316061460C602C68D7E7C0467E
:101C5000FFFFFF3F70B505001C008A420DD0180041
:101C6000A94209DC0498AA4206DB6D1AC01A68432F
:101C7000511AFEF7DDFA001970BD049B9C466444BE
:101C8000E00F00194010F7E71A2110B5024B034A84
:101C900003480BF087FDC046603401081CED0008C6
:101CA000ECEC0008242110B5024B034A03480BF06A
:101CB00079FDC046603401080CED0008ECEC00082A
:101CC000F0B5C6460A23012400B5234E86B005AD03
:101CD0002870984602936B224421300001940095AD
:101CE000093B03F023FE002831D1434604AF3C708A
:101CF0006C2202934421012330000194009703F0E9
:101D000015FE002823D1193002F07EFE43466722DB
:101D100002934421012330000194009503F006FE54
:101D2000002816D143462D786822029344210123CE
:101D300030000194009703F0F9FD002809D107480D
:101D40003B780570437006B080BCB846F0BDFFF725
:101D50009BFFFFF7A7FFC04650030020A002002012
:101D6000F0B500220A2601258DB0A14C09AB1A70EE
:101D70004421009320000123029601950D3203F0C7
:101D8000D5FD002800D031E1052708AB1F700E22D9
:101D900000934421012320000296019503F0C6FD23
:101DA000002800D022E1452207AB1A70442100939D
:101DB0002000012302960195363A03F0B7FD002872
:101DC00000D013E106AB1F700B22009344210123C6
:101DD00020000296019503F0A9FD002800D005E13E
:101DE000032205AB1A7044210093200001230296C0
:101DF0000195063203F09AFD002800D0F6E0792222
:101E00000BAB1A7044210093200001230296019528
:101E1000143A03F08BFD002800D0E7E082220AABE1
:101E20001A70442100932000012302960195513A33
:101E300003F07CFD002800D0D8E00A3002F0E4FD79
:101E40000020FFF73DFF0120FFF73AFF01784278BD
:101E50000B0213430904674C12060B431343022081
:101E6000A362FFF72DFF0320FFF72AFF01784278D6
:101E70000B021343090412060B4313430420E362CD
:101E8000FFF71EFF0520FFF71BFF017842780B02CA
:101E90001343090412060B43134306202363FFF781
:101EA0000FFF0720FFF70CFF017842780B02134366
:101EB000090412060B43134308206363FFF700FF76
:101EC0000920FFF7FDFE017842780B021343090455
:101ED00012060B4313430A20A363FFF7F1FE0B2006
:101EE000FFF7EEFE017842780B0213430904120655
:101EF0000B4313430C20E363FFF7E2FE0D20FFF7D3
:101F0000DFFE017842780B021343090412060B43EB
:101F100013430E202364FFF7D3FE0F20FFF7D0FEFC
:101F2000017842780B021343090412060B43134352
:101F300010206364FFF7C4FE1120FFF7C1FE017893
:101F400042780B021343090412060B431343122079
:101F5000A364FFF7B5FE1320FFF7B2FE01784278C5
:101F60000B021343090412060B4313431420E364CA
:101F7000FFF7A6FE1520FFF7A3FE017842780B02BB
:101F80001343090412060B43134316202365FFF77E
:101F900097FE1720FFF794FE017842780B02134357
:101FA000090412060B43134318206365FFF788FEEC
:101FB0001920FFF785FE017842780B0213430904CC
:101FC0000B43120613432A20A365FFF779FE4278DC
:101FD000037812029B182B206384FFF771FE42786E
:101FE000037812029B18A3840DB0F0BDFFF74CFEDE
:101FF0005003002044020020002313607047C046B5
:102000007047C046012313707047C04610B50122C7
:102010000121034803F01CFA0A2008F0CBFC10BD94
:1020200000040050F8B54746CE46164B164E80B514
:1020300014005F681A68336805000021181C904678
:102040009946FEF7EDF9002808D176680021301C8A
:10205000FEF7E6F9002801D1C846371C2800FFF733
:10206000B7F94146FEF7A6FE391CFEF739FB0749D2
:10207000FEF7A0FEFFF78CF92060C0BCB946B04661
:10208000F8BDC0467C33010800F801080000C842D2
:102090000023012130B50F4C83B022680193936A6D
:1020A0000500DB0CDB049362936A00910B4393629F
:1020B0006946200002F08EFE200002F0EFFD0221B2
:1020C000200002F017FE200002F080FE288003B0FE
:1020D00030BDC046A802002070B50500140082B0D3
:1020E000012903D00123237002B070BD0023104EDC
:1020F000019332680F4B01310093936A3000DB0C7F
:10210000DB049362936A0B439362694602F062FEBA
:10211000300002F0C3FD0221300002F0EBFD300080
:1021200002F054FE80B200F00DFD2860DAE7C046F0
:10213000A802002002000004802212069446074BE9
:1021400010B51C68064B586819686044FEF768FCB7
:10215000FFF71EF9E389C01A206110BD440000207A
:102160007C33010810B504000AF08EFE0023054AF6
:10217000126812685362536AA342FCD30AF090FEBD
:1021800010BDC04608000020054B064A10B518686F
:10219000118803F057F9013843425841C0B210BDCD
:1021A0000400002000000020034A044B12681B8832
:1021B00051690B4353617047040000200000002068
:1021C000034A044B1268198853698B435361704763
:1021D0000400002000000020034B04491A68136823
:1021E0000B4013607047C04604000020FFF3FFFF60
:1021F0008023034ADB00126811680B4313607047A9
:1022000004000020F0B54E46DE4645465746E0B590
:10221000814683B0C820FFF7A5FF0825CC240126FE
:1022200013E0FFF7C1FF3220FFF79CFF6408FFF7C0
:10223000D3FFC046C046C046C046C046C046C046A2
:10224000C046C046013D002D0BD0FFF7D1FFFFF780
:10225000B7FF0720FFF786FF2642E2D1FFF7B0FF66
:10226000E1E7C820FFF77EFF0825BE24012613E022
:10227000FFF79AFF3220FFF775FF6408FFF7ACFF06
:10228000C046C046C046C046C046C046C046C0461E
:10229000C046013D002D0BD0FFF7AAFFFFF790FFCE
:1022A0000720FFF75FFF2642E2D1FFF789FFE1E752
:1022B000C820FFF757FF02AB984600239B46743BAC
:1022C0006E4601259A4608270024FFF779FFFFF79D
:1022D0008FFFC046C046C046FFF77EFFFFF754FFA2
:1022E0006408C0010443013F3020FFF73BFFE4B224
:1022F000002FEAD13470C820FFF734FF5B465C4002
:102300006308DBB2254202D052465340DBB21D4285
:1023100067D15B081D425FD15B081D4257D15B0846
:102320001D424FD15B081D4247D15B081D423FD182
:102330005B081D4236D15B089B4601364645C2D13B
:102340006B465A781B7812029B184A46C8201380A5
:10235000FFF708FF08250024FFF732FFFFF748FFCB
:10236000C046C046C046FFF737FFFFF70DFF6408C1
:10237000C0010443013D3020FFF7F4FEE4B2002D1C
:10238000EAD100205C4506D0D422184B18495200EF
:1023900001F094FA032003B0F0BCBB46B246A94654
:1023A000A046F0BD52465B085340DBB29B46C4E7F3
:1023B00052465B085340DBB2BBE752465B085340D2
:1023C000DBB2B3E752465B085340DBB2ABE75246A1
:1023D0005B085340DBB2A3E752465B085340DBB2D5
:1023E0009BE752465B085340DBB293E72CED0008B5
:1023F00040ED0008F0B5DE4657464E464546E0B58E
:1024000087B002F029FAFFF7CFFEFFF7F1FEFFF7E2
:10241000E3FE844B00249946834B844D9B46002366
:102420009A46834B039311E0002B17D0012B5ED00B
:1024300000202A70019000945B463022494600201B
:10244000013401F03BFA142C00D1D6E0514602AB26
:10245000D9812B780022022BE6D12A700AF014FDD4
:10246000FFF7C6FEFFF7ACFEFA204000FFF77AFE4A
:10247000FFF7B2FE0120FFF775FE6E4F02E0013F4D
:10248000002F73D0FFF780FE06000128F7D0FFF77A
:102490007BFE0028FBD03220FFF764FE0823CC2609
:1024A000984617E0FFF780FE3220FFF75BFE7608C4
:1024B000FFF792FEC046C046C046C046C046C04672
:1024C000C046C046C04601235B429C46E0444346AA
:1024D000002B5DD0FFF78CFEFFF772FE0720FFF7A1
:1024E00041FE01233342DDD1FFF76AFEDCE70AF04B
:1024F000CBFCFFF77DFEFFF763FEFA204000FFF7FD
:1025000031FEFFF769FE0120FFF72CFE494E02E085
:10251000013E002E37D0FFF737FE0128F8D0FFF735
:1025200033FE0028FBD002AA94460E236344180011
:10253000FFF768FE06000AF0B3FC002E5AD102AB8A
:10254000D88980231B0298425ED2FFF755FAFE23FA
:1025500000229B05FEF78EFFFFF774FA022336492F
:102560002B70FEF727FCFDF7D7FF63E70AF098FC16
:1025700001202E7049460090039B00202F4A01F055
:102580009DF9002056E70AF08BFC03260120F0E7B6
:102590003220FFF7E7FD08234426984617E0FFF7AF
:1025A00003FE3220FFF7DEFD7608FFF715FEC0467A
:1025B000C046C046C046C046C046C046C046C046EB
:1025C00001235B429C46E0444346002B0CD0FFF7BE
:1025D0000FFEFFF7F5FD0720FFF7C4FD012333428F
:1025E000DDD1FFF7EDFDDCE70AF05AFC0123002006
:1025F0002B701FE730000326BBE707B0F0BCBB46DB
:10260000B246A946A046F0BDC0434004400C01308C
:10261000FFF7F2F900220A4BFEF72CFFFFF712FA40
:102620009CE7C04640ED000870ED0008A2020020C3
:1026300060ED0008E90300000000C8420902000044
:10264000000080BF0023102130B50F4C83B02268FA
:1026500001930E4B05000093936A2000DB0CDB0412
:102660009362936A0B439362694602F0B3FB2000C6
:1026700002F014FB0121200002F03CFB200002F0DC
:10268000A5FB288003B030BDA80200201000001078
:1026900010B5FFF7ADFDFFF793FDFA204000FFF7FF
:1026A00061FDFFF799FD0120FFF75CFD084C02E09A
:1026B000013C002C09D0FFF767FD0128F8D0FFF797
:1026C00063FD0028FBD0012010BD0020FCE7C046C0
:1026D000E9030000F0B585B000236946CB81704B5B
:1026E000704E0360337805000022022B44D0002B8B
:1026F00043D0012B3CD10AF0C7FBFFF779FDFFF770
:102700005FFDFA204000FFF72DFDFFF765FD01207A
:10271000FFF728FD644C03E0013C002C00D17DE074
:10272000FFF732FD0128F7D0FFF72EFD0028FBD080
:102730000E236B441800FFF765FD04000AF0B0FBA0
:10274000002C00D09CE06B46D88980231B02984265
:1027500000D398E0FFF750F9FE2300229B05FEF717
:1027600089FEFFF76FF9022328600220337001E031
:102770000020327005B0F0BD32700AF085FBFFF723
:1027800037FDFFF71DFDFA204000FFF7EBFCFFF7D8
:1027900023FD0120FFF7E6FC434D02E0013D002D43
:1027A0002FD0FFF7F1FC04000128F7D0FFF7ECFC75
:1027B0000028FBD03220FFF7D5FC0825CC240127C8
:1027C00013E0FFF7F1FC3220FFF7CCFC6408FFF7C1
:1027D00003FDC046C046C046C046C046C046C046CF
:1027E000C046C046013D002D1DD0FFF701FDFFF79B
:1027F000E7FC0720FFF7B6FC2742E2D1FFF7E0FC39
:10280000E1E70AF04DFB01203470284B0090284985
:102810000020284A01F052F83078ABE70AF040FB7C
:1028200003240120F0E73220FFF79CFC0825442414
:10283000012713E0FFF7B8FC3220FFF793FC640890
:10284000FFF7CAFCC046C046C046C046C046C046A8
:10285000C046C046C046013D002D0BD0FFF7C8FC66
:10286000FFF7AEFC0720FFF77DFC2742E2D1FFF720
:10287000A7FCE1E70AF014FB01230120337079E79C
:1028800020000324C0E7C0434004400C0130FFF7A0
:10289000B3F80022084BFEF7EDFDFFF7D3F862E72F
:1028A0000000C8C2A2020020E903000060ED000899
:1028B00040ED000809020000000080BFF0B5464668
:1028C000D6464F46C0B582B08046150001F0D2F81A
:1028D000534E3000FFF7FEFE012800D19AE0032896
:1028E00000D18FE000243768211C381CFDF79EFDC5
:1028F000002800D083E04B4B1A78002A27D01870AC
:10290000494B4A491F600190381C9A46FEF752FA1B
:10291000FEF73EFD464C0090712221000020454B01
:1029200000F0CCFF5346306840491860FEF742FA89
:10293000FDF7F2FD80B24346186001F091F80123E3
:102940002B7002B0E0BCBA46B146A846F0BD37498C
:10295000381CFEF72FFAFEF71BFD334B07003349F7
:1029600018689A46FEF726FAFEF712FD304A3C1A1E
:102970009146E317E4185C407122494600202D4B34
:102980000194009700F09AFFC82CCBDD74224946D1
:102990000020294B00F092FF53461B6876224946DF
:1029A00000203360254B00F089FF01F055FFFFF751
:1029B000FBFBFFF71DFCFFF70FFCFFF719FCFFF710
:1029C000FFFBFA204000FFF7CDFBFFF705FC0120DD
:1029D000FFF7C8FB1A4C02E0013C002C07D0FFF7C0
:1029E000D3FB0128F8D0FFF7CFFB0028FBD00F491D
:1029F0003068FEF7DFF9FDF78FFD80B29BE700201E
:102A0000346098E700905F2200200E4B084900F0E8
:102A100055FF67E700232B7001F022F891E7C046CD
:102A2000100000200C000020A40200200000C8427A
:102A300040ED000898ED0008C0ED0008E8ED000842
:102A4000E903000084ED0008F0B557464E464546C0
:102A5000DE46E0B5394B07000D0016008DB09942F7
:102A600007D864212800FDF759FB83B29846332B21
:102A700008D1002333600DB0F0BCBB46B246A94676
:102A8000A046F0BD00230493059306930793089393
:102A900009930A930B934346DC0044446400284B9B
:102AA000444424019B46E0184C239A46029307AB0A
:102AB000019305AB3900009304AA06ABFFF772F847
:102AC000534681462000029331300BAB0193FF3017
:102AD00009AB009339000AAB584408AAFFF762F823
:102AE0004B46002BC5D00028C3D06424089A069812
:102AF000624308920A9A049B62430A9242466043E8
:102B00006343059954430690079A00903800049354
:102B1000FFF7A0F880460A98089B0B9A0999009045
:102B20003800FFF797F82200009043462100280064
:102B30006432FFF78FF830609DE7C0464F14000005
:102B4000F8ED000870B5010088B01A48FDF770FB79
:102B5000194BC118002929D01848FDF769FB00233B
:102B6000040064250493059306930793A633029308
:102B700005AB019304AB2100009306AA07AB1048F4
:102B8000FFF710F82000079C0E4EA400A459069BE6
:102B90006C439B009B59059A04996B436A436943B4
:102BA00068430094FFF756F808B070BD28204042F3
:102BB000FAE7C04618FCE70318FCFFFF8096980070
:102BC000882A0108202D0108F0B5354D8BB00A2365
:102BD00005224621280002F0F3FF002801D00BB0A7
:102BE000F0BD1022002106A80BF0B9FB80230126BE
:102BF0001B022C4805A912240A270593079602F008
:102C000015FB1A236C442370812246210094193B42
:102C100028000297019602F057FD13239322237098
:102C200046210094123B28000297019602F04CFDC9
:102C30000F2384222370462100940E3B2800029724
:102C4000019602F041FDF023972223704621009463
:102C5000EF3B28000297019602F036FD45239422AF
:102C6000237046210094443B2800132402970196C8
:102C700002F02AFDFF236C4423709922FE3B46217B
:102C8000280002970196009402F050FE23781B075B
:102C9000A5D53C220420044B044900F00FFE9EE71A
:102CA0005003002000040050B82F0108D82F01085D
:102CB0007047C046F0B5CE46474616251726002376
:102CC00080B587B06D446E442B7033700A339946DB
:102CD0000F4C0293093B070001939A2246212000E2
:102CE0000095984602F022FE4B46029343469B22F3
:102CF000019346212000009602F018FE32782B78CE
:102D0000120213433B8007B0C0BCB946B046F0BDC9
:102D100050030020002303601370704710B582B089
:102D20000822002168460BF01AFB80210122264C64
:102D3000264BC902236061600C230221E2632261F9
:102D4000C2222364A16300230021FF326262963A0B
:102D5000FF3AA1542000283A23846364A364A3604B
:102D6000E360A36262612363A3616363E36101F0D3
:102D7000B5FE00281CD101230093802369465B0126
:102D80002000019302F026F800281AD1104B694662
:102D90002000009302F01EF800280FD10D4B694669
:102DA0002000009302F016F8002804D102B010BDF4
:102DB00000F0F0FEDFE700F0EDFEF7E700F0EAFEDE
:102DC000ECE700F0E7FEE1E7A80200200024014064
:102DD000020000041000001010B5040088B0142296
:102DE000002102A80BF0BBFA0E4B22689A4201D0D8
:102DF00008B010BD80220C4B9200596BA0200A43F2
:102E00005A630122D96AC0051143D962DB6A02A95B
:102E10001A400192019B132203230292039302F0B2
:102E200005FAE5E7002401400010024010B50378E0
:102E30008AB0082B29D8012B25D9082B23D8534A2F
:102E40009B00D3589F46032302A90B70023B8B7053
:102E50004F4B1A685B68CA700B714E4B1B68002B96
:102E600000D18CE01A7F4A714B4ACA805B7F0B729B
:102E700007234B70494B00221868002307F0CCFF52
:102E8000002000F0FFFC0AB010BD502BFBD100F079
:102E9000F1FD0121424C4942206808F049FB3D4BBD
:102EA0001868436A002B00D09847002300220021B5
:102EB000206807F0B1FF00F0D3FDE4E78278394CD9
:102EC000394B2270012000923849602200F0F6FC54
:102ED0002378002B44D00122354B1B681A71D2E7AE
:102EE0005222344B3149012000F0E8FC324B02A958
:102EF0000B8001238B70264B1A685B68CA700B71BC
:102F0000244B1B68002B34D01A7F4A71224ACA8096
:102F10005B7F0B7207234B70204B00221868002345
:102F200007F07AFFAFE78478631E632BABD8732278
:102F30000120224B1D49009400F0C0FC00F09AFDD6
:102F40001F4B1C7000F08CFD9DE782781D4B01200B
:102F50001A70164900921C4B5A2200F0AFFC92E7FF
:102F60000121134A12681371184A1170184A13701C
:102F700089E7FF234B71084BCB800023C9E7FF2370
:102F80004B71054BCB80002371E7C0467C300108B4
:102F900000FC0108440000206464000038030020A5
:102FA00044030020260300204C30010810300108A3
:102FB00040000020F42F01080302000064300108E3
:102FC00048000020270300202C30010814000020B6
:102FD0000403002070B50D4C2378002B04D000238F
:102FE00023700278002A00D170BD094A094D137080
:102FF00043780178821C280001F00EF881B2280085
:103000000AF03AF901232370EEE7C04614000020CD
:10301000040300200803002010B588B06C46032884
:1030200005D022D801282AD0022815D160700323A8
:103030002370023BA370234B1A685B68E270237114
:10304000214B1B68002B37D01A7F62711F4AE28028
:103050005B7F2372072363701D4B002221001868D9
:10306000002307F0D9FE08B010BDFF28F4D11122CB
:103070001849A01C0BF060FA174B2380ECE7124BA9
:10308000A0701B681A7FE270104AA2805A7FA2715A
:103090000022E271DA892281104A12886281104A84
:1030A0001288A2819A8A1B8BE28123820D4B1B78A6
:1030B000A3740D4B2380CFE7FF236371034BE380A1
:1030C0000023C6E700FC01084400002064640000FF
:1030D00038030020A0300108FF100000A2030020E8
:1030E000A8030020490000200111000001230A4A22
:1030F00000B5116B83B019431163126B03211340A8
:10310000019300220A20019B01F026FF0A2001F012
:1031100055FF03B000BDC04600100240F0B5C646E2
:10312000FA2200B5022184B00120520000F05EFBBB
:103130004E4A4F4D516812684E4B0120019100924A
:103140002900FC2200F0BAFB00214B4801F0AEFE42
:10315000FF2229000120494B00F0B0FB484B494CAD
:103160009846494A4949E2614246E264484A216236
:103170006264484AA1642265474A14216265474A4D
:103180006362A265464A052322675C22A152454A32
:103190004548464F464EE266464AA060A3812063FA
:1031A000A38627606660A762E662A267424A6C3126
:1031B000E267424A01206250414A1831625084223B
:1031C0004049A3521032A150A0213F4A62503F4AC9
:1031D000043162503E4A043162503E4A1831625016
:1031E000AC22A3523C4AB733E250382229003B4B71
:1031F000FF3200F063FBFF236A46D373F03B6B445E
:10320000180001F0FDF86B46D87BFF281AD0830028
:103210001B18334ADB001B19136001F057F99F227A
:103220000090290001202F4B520000F047FB00F0D6
:10323000C9FE00F015FC002008F096FE04B080BC2A
:10324000B846F0BDFF2001F041F9A122290000900D
:10325000254B0120520000F031FB0022204B0121C0
:1032600000201A6000F0C2FAE1E7C04600FC010845
:10327000D0300108B4300108A8020020E83001086D
:103280003921000834040020000102002520000834
:103290000101010045260008BD280008F5230008AB
:1032A000492A0008020000010D20000891200008B2
:1032B000D92000080120000805200008611D000831
:1032C000F91F000803000002B52C0008152D0008A6
:1032D000C92B0008B12C000804020003F8300108D3
:1032E00044000020343101084831010810B502487B
:1032F00005F03AF810BDC04630060020094B0A4AD6
:103300001B6811685B6A581A8B4202D207498C46C7
:1033100060441360064B07491A68086080181860FB
:103320007047C0463006002048030020FFFF000021
:103330004C0300204003002010B58B220120164BC7
:10334000164900F0BBFA00F095FB00220A21144B4D
:1033500014481B681A705A709A70D9701A715A7191
:103360009A71DA7107F0D6FB0F4B0022186020210A
:10337000042007F00BFD0D4B0022186020210420D3
:1033800007F004FD0A4B002118600A4A0A4807F0BA
:10339000B5FA0A4B186010BD5C310108D030010845
:1033A0004000002034320108440300203003002094
:1033B00038030020103201081D3100083C030020B2
:1033C00030B589B01422002102A80AF0C8FF0122FA
:1033D0001D4BA025D96A1D4C1143D962D96AED0550
:1033E0000A400092009A0222D96A28001143D96249
:1033F000DB6A20211A4001920022019B02F028F88A
:1034000020000022124902F023F820000122382176
:1034100002F01EF8202201230292039300220223CD
:10342000280002A90492059301F000FF0123094A34
:103430002000029203930022002302A90492059324
:1034400001F0F4FE09B030BD00100240000400504D
:10345000018000003980000010B5194B194C012281
:103460002360194B200063600023E260A3602361A6
:103470006361A361E361236202F0CCF800280CD100
:103480000021200002F0ACFF00280ED10021200016
:1034900002F0CCFF002810D110BD00F07BFB002112
:1034A000200002F09DFF0028F0D000F073FB002107
:1034B000200002F0BBFF0028EED000F06BFBEBE732
:1034C0000054004050030020BB7C700010B5040085
:1034D00088B01422002102A80AF041FF144B226890
:1034E0009A4201D008B010BD0223124C02A9E26A30
:1034F00011481A43E262E26A13400193C022019B21
:1035000012230292039303230593023B069301F0D7
:103510008DFE8023A26B9B031343032100221720FF
:10352000A36301F019FD172001F048FDDAE7C0465A
:10353000005400400010024000040050F8B5CE4690
:103540004746454D04092E88002080B5002E03D043
:10355000A01BFDF73DFF3400404B1968FDF72AFC26
:10356000FDF716FF2418A4B22C803D4D2E68002EC6
:103570000BD1642363432B603A4B1E703A4B3000EF
:103580001C80C0BCB946B046F8BD64276743B81B71
:10359000FDF71EFF3549FDF70DFCFDF7F9FE861915
:1035A000642130002E60FCF743FE031BDA179B18E2
:1035B00053402F4A126893421EDA2E4B98461B78CE
:1035C000002B2AD02C4C2368002B42DC42460123DE
:1035D0001370244A1678002E35D0284B21681B68BA
:1035E000994230DD00236421236028681370FCF7C2
:1035F0001FFE002684B2C1E71E4B98461B78002BA5
:103600001BD00122174B844200DC002241461A7075
:1036100000220A7018490A6012E004239946164CE9
:10362000B81BFDF7D5FE1649FDF7C4FBFDF7B0FE4C
:103630004B46801928602360C8E70F4A1360094B86
:103640001E782F609AE764212868FCF7F1FD84B2A8
:1036500094E7013B9946E3E7A2030020180000200D
:10366000A4030020A0030020A80300200AD7A33B46
:10367000200000201C0000209C03002024000020CB
:103680009A99993E014B18607047C046200000206F
:1036900000230021044A1380044A1360044A117075
:1036A000044A13607047C046A2030020A403002010
:1036B000A00300209C030020F0B5C64600B51E4DB7
:1036C00082B0286800282FD007F0F6F91B4E286832
:1036D000716807F0C9F9002821D0194B00249846D9
:1036E000184F4346322239000020009400F0E6F8DB
:1036F0007168286807F0B8F9013400280FD00A2C47
:10370000EFD108F055FD104B392218603900002028
:103710000E4B00F0D3F802B080BCB846F0BD08F004
:1037200047FD094B1860F6E700220121084B0948C4
:1037300007F05AF92860C7E7AC03002028000020F2
:103740004432010860320108B003002074320108DD
:10375000CC32010859370008214B1A78002A07D0CB
:103760009A68D10705D438201E49886101329A60D1
:10377000704759780529F9D81B48890041588F4668
:1037800038201849886180208003886180204003A8
:103790008861EBE738201349886180204003886105
:1037A000802000038861E1E738200E49886180208D
:1037B00080038861DAE738200A4988618020400365
:1037C0008861D3E738200749886180200003886139
:1037D000CCE738200349886180208003DCE7C046BD
:1037E000280000200004005090320108224B10B540
:1037F0001C78002C1DD05A600022587099709A6075
:1038000005280FD81D4A80001258974638201C4AB8
:10381000906180208003906180204003906180202F
:1038200000039061022902D0012252425A60FFF740
:1038300043FF10BD3820124A9061802080039061C0
:10384000802040039061EDE738200D4A9061802090
:1038500000039061E6E73820094A90618020400328
:103860009061DFE73820064A9061802080039061F4
:10387000D8E73820024ACEE728000020A832010805
:1038800000040050382210B5044B9A61044B393AB9
:1038900098705A60FFF710FF10BDC046000400503A
:1038A000280000208021044B1B68DA691142FCD0FB
:1038B000FF2202409A627047B806002008B4F0B5B3
:1038C000C64604000E00150000B5BDB01022002150
:1038D00004A80AF044FD439B06960593394B0895CE
:1038E00009941A7A002A02D15B68A34206DD3DB032
:1038F00080BCB846F0BC08BC01B0184744AB049388
:1039000006F0E6FFFA2189000600FCF707FC3C21DF
:103910000500FCF703FC3C210400FCF7FFFBFA2147
:10392000804689003000FCF77FFC280002913C2192
:10393000FCF77AFC200001913C21FCF775FC224F3A
:1039400043463A0000910AA8C8210AF097FBC82410
:103950000500099A1D4B211A92000AA8D358401954
:103960001B4A0AF08BFB45190AA8611B069B194AE2
:1039700040190AF083FB45190AA8089B164A611BE7
:1039800040190AF07BFB46190AA8A11B049B059A63
:1039900080190AF01FFC86190AA8104B104AA11BB7
:1039A00080190AF06BFB8019C72805D882B20AA9D2
:1039B0000C4804F0B9FE9AE74F210B4B0B4A0C4818
:1039C00009F0F0FEB4030020DC3201086433010882
:1039D000F4320108FC320108003301080833010801
:1039E0000C330108B8060020603401085433010884
:1039F000103301080A480B4B70B500240025036002
:103A00000023094A04624562436083604261836225
:103A100002F03AFD002800D170BD00F0BBF8FBE7D2
:103A2000C0030020007C0040FFFF00000A4B02683A
:103A300010B59A4200D010BD8023084A1B06916B36
:103A40000D200B4393630321002201F085FA0D2022
:103A500001F0B4FAEFE7C046007C004000100240DD
:103A6000B92110B50248490002F064FE10BDC046FD
:103A7000C003002010B5024802F0B4FE10BDC046DD
:103A8000C003002000B59DB0242200210FA80AF039
:103A900066FC1422002168460AF061FC2422002101
:103AA00005A80AF05CFC2249224B0A680EA81A40BD
:103AB00080231B0113430B602A2310220E93293B02
:103AC00011931292139302221493002318921993C4
:103AD00080228023D202DB031A921B9303F0BAFEEA
:103AE000002801D072B6FEE70F2203230092019353
:103AF000002200230490012168460292039304F0FF
:103B0000AFF9002801D072B6FEE7C92305938023E0
:103B1000DB040D93802307900A90DB0205A80C9329
:103B200004F0CCFA002801D072B6FEE71DB000BD4B
:103B300000700040FFE7FFFF10B500F03FFFFFF708
:103B4000A1FFFFF73DFCFFF7D1FAFFF7E7F8FFF71A
:103B500083FC00F095FEFFF74DFF00F0DFFD00F065
:103B60001DFE002201210120FFF740FE09F0DEFAD0
:103B700006F072FEFFF7E0FB06F08AFEFEE7C046A5
:103B80008023026810B5DB059A4200D010BD00F01A
:103B900029FFFBE772B6FEE710B5002204002C23D4
:103BA000E2548B005B185B0008006160A160E1607B
:103BB00021616161A161E16121626162A1622360B1
:103BC000FDF706FC206310BD70B52C260400805D57
:103BD00025688300E3185A680130AD1A6D18256016
:103BE00059600A21FCF70AFC2800A1550A21FCF7BC
:103BF0001FFB70BDF0B5C6462C4B00B5076B05002A
:103C000018880C00FDF7E4FB011C061C381CFDF7AE
:103C10001FFAFDF7BDFBA04207DC391C301CFCF786
:103C20005FFDFDF7B5FBA0422BDA00212048214AB9
:103C3000037811700133DBB20370032B17D01E4BD6
:103C40001B6898461D4B1968381CFDF7B3F8061C15
:103C50002000FDF7BDFB4146FDF7ACF8311CFCF739
:103C60003FFD2863FDF794FB80BCB846F0BD134BC5
:103C70001349144A1960104B90461A6002230370CE
:103C8000E2E700210B480A4A037811700133DBB2E6
:103C90000370032BD3D1094B0B490C4A1960064B17
:103CA00090461A6002230370CEE7C0463C00002015
:103CB000F0030020F1030020380000203400002031
:103CC000CDCC4C3ECDCC4C3F9A99593F9899193E5A
:103CD000F0B5DE4657464E464546E0B58A4C89B0BB
:103CE0002368002B43D09B68002B40D09847236863
:103CF00018001B680E30984706ABDF1D00233B7091
:103D000023683A001800997F14305B689847642054
:103D100000F07AFE23683A001800997F14305B683F
:103D2000984723681A005969D88918321B6A89B2E2
:103D30009847764A2368100099699346FFF72CFF4D
:103D40002368D989724B18009846FFF725FF714AFE
:103D50002368100059690492FFF71EFF2368D88971
:103D6000FFF796FC23689889FFF78CFC07E006AB09
:103D7000DF1D664B9B46664B9846664B0493664B2D
:103D8000664E9946664B9A46664B0193664B059381
:103D9000664B0293664B039301210020494208F0D1
:103DA00017FC4B4601211868494207F0C1FB236804
:103DB000002B00D198E05246019811780278914288
:103DC0003FD052460378DBB21370127893009B18F1
:103DD000059ADB00944663449A682360002A01D068
:103DE0009047236818001B680E30984700233B70EB
:103DF00023683A001800997F14305B68984723685D
:103E00001A00998A1832D8891B6A9847236858463D
:103E10009969FFF7C1FE23684046D989FFF7BCFEC8
:103E2000236804985969FFF7B7FE2368D889FFF71C
:103E30002FFC23689889FFF725FC012233685A710B
:103E4000236818001B680E30984732684046537943
:103E5000013353712368D989FFF7CCFE0100404636
:103E6000FFF7B2FE236880B2D881FFF767FB029BA1
:103E7000256818702B6A002B0DD02A00A98AE889C2
:103E80002D691832401980B2984725685846A969AB
:103E9000FFF79AFEA86135686B78002B0DD00023E0
:103EA0006B703B7023683A001800997F14305B6890
:103EB00098473B78002B1FD13568012303996A7915
:103EC00064200978AB710092FCF7B2F9009A80B2D5
:103ED000824209D30023AB7101336B712B79002B24
:103EE00002D00120FFF798F84B4600220021186805
:103EF000002306F091FF4FE7256804986969FFF7F2
:103F000063FE6861D8E7C046440000200005002039
:103F100074050020F403002044030020400000202A
:103F200030040020FC04002034040020490000205C
:103F30004800002070B595220120084B0849FFF782
:103F4000BDFC084C084D012221002868524207F0B0
:103F50008BF92000FEF76AFFF5E7C04684330108BD
:103F600098330108340500203003002070B5AA22E0
:103F700001200F4B0F49FFF7A1FC0F4D0F4E104CC6
:103F8000012229003068524207F06EF901212068B1
:103F9000494207F0CDFA0128F2D12800FFF71AF8BC
:103FA000002300220021206806F036FFE8E7C04623
:103FB000B03301089833010854050020380300206D
:103FC0004403002010B500210A4A0B4806F096FC75
:103FD0000A4B002118600A4A0A4806F08FFC0A4B77
:103FE00000211860094A0A4806F088FC094B18604D
:103FF00010BDC046A4310108D13C000828030020B0
:10400000C8310108353F00082C030020EC310108BD
:104010006D3F000834030020F0B54E46DE4657469B
:104020004546E0B506001F00EE23080033707B1DF7
:10403000DBB2110073703A00B07083B0F01C984688
:104040000AF07AFAFF221100FB1C19408946F2544B
:104050001A4200D19BE0032473421C400B00013B39
:10406000092B00D895E0002C00D189E0327800922D
:10407000012C00D181E0944673786344DAB2009257
:10408000032C00D080E09446B3786344DBB2009305
:10409000032301934B461B1B9B469B089B009C469E
:1040A00034193D4BA444654600219A46B4463B482A
:1040B00008CC0E001A004B405146064002400B400F
:1040C000B2185A401100A542F2D113041B0ED318A6
:1040D000009A664694460A02120E63449B18090E23
:1040E00003225B1859469143019ADBB28A188B452B
:1040F00039D0B15C5B18511CDBB2494533DA715CD5
:104100005B18911CDBB289452DDD715C5B18D11CFD
:10411000DBB2894527DD715C5B18111DDBB2894577
:1041200021DD715C5B18511DDBB289451BDD715CC3
:104130005B18911DDBB2894515DD715C5B18D11DE3
:10414000DBB289450FDD715C5B1811000831DBB211
:10415000894508DD715C09325B18DBB2914502DDEF
:10416000B25C9B18DBB24046F619337103B0F0BC69
:10417000BB46B246A946A046F0BD0123019389E79C
:1041800000230093019385E70223019382E7002334
:10419000E9E700230022ACE7808080807F7F7F7F7B
:1041A000F0B55746DE464E464546E0B507000029C5
:1041B00000D18FE0032243421A404B1E092B00D846
:1041C0008AE0002A00D17EE003789A46012A00D1D5
:1041D00076E043785344DBB29A46032A00D076E077
:1041E00083785344DBB29A4603239C468B1A980883
:1041F00099463B4B00259846BA188000394E8018E6
:104200002C0008CA3440A3461C006B40454634408D
:104210002B405C445C4025008242F1D123041B0EFC
:10422000E3185344180023021B0EC018230EC018B5
:104230004A4603239A436346C0B2D318914539D006
:10424000FA5C80185A1CC0B28A4233DABA5C801811
:104250009A1CC0B291422DDDBA5C8018DA1CC0B243
:10426000914227DDBA5C80181A1DC0B2914221DD4F
:10427000BA5C80185A1DC0B291421BDDBA5C80182E
:104280009A1DC0B2914215DDBA5C8018DA1DC0B229
:1042900091420FDDBA5C80181A000832C0B2914218
:1042A00008DDBA5C09338018C0B2994202DDFB5CBC
:1042B000C018C0B2F0BCBB46B246A946A046F0BD8D
:1042C00001239C4692E700239C469A468EE70223F0
:1042D0009C468BE70020EDE700230020B0E7C046B6
:1042E000808080807F7F7F7F00B589B0142200218D
:1042F00002A80AF034F80223174A1848D16A194371
:10430000D1628021D26A0902134001930022019BED
:1043100001F09EF8802200231202029203930122F0
:10432000002302A90D480492059300F07FFF32207C
:1043300000F06AFB80210948090201F083F8084A6D
:104340001378012804D018218B43137009B000BDE5
:1043500007218B43F9E7C0460010024000040050DB
:10436000A805002010B586B014220021684609F087
:10437000F6FFA02000220221C00501F069F8022208
:104380000023A02000920193002300226946C0056B
:104390000292039300F04AFF00220121164801F027
:1043A00057F8322000F030FBA0200221C00501F0B8
:1043B00049F8124C237801281AD013229343012282
:1043C00001210D48237001F043F8322000F01CFB5E
:1043D000A0200221C00501F035F82378002804D17F
:1043E00013229343237006B010BD08229343F9E7CC
:1043F0000C229343E3E7C04600040050A8050020C8
:104400001F23012270B502262B4C88B023702B4B42
:104410000500D96A04A81143D962D96A0A400092FA
:10442000009ADA6A00213243DA62DB6A0C223340F6
:104430000193019B09F093FF012201230292039350
:1044400003231F4802A9059300F0F0FEFFF74CFF7D
:10445000FFF788FF1B4B9B6D002B1ED09847FEF784
:1044600017F92378002816D0012293432370FEF712
:10447000A7FFFEF753FC2378002B0AD05A1E1342E5
:1044800007D1102B05D8104A9B00D3589F46002314
:104490002B7008B070BDB343E6E72378E4E704234C
:1044A0002B70F6E701232B70F3E702232B70F0E764
:1044B00003232B70EDE7C046A80500200010024042
:1044C0000004005034040020C4330108042803D839
:1044D000024B8000C05870470148FCE77434010863
:1044E000083401080121084B10B55A6B02200A4319
:1044F0005A638022996B52050A439A630321002272
:10450000404200F029FD10BD0010024070B50100CE
:1045100086B0002206000F2000F01EFD0F2000F0E4
:104520004DFD01211B4A01A8936B0B439363694620
:1045300003F0A4FD049B002B17D103F07FFD802323
:10454000154CDB052360154B1549E360FBF7E6FDD1
:1045500000230138606020002361A36003F0BAFEED
:10456000051E06D0280006B070BD03F067FD4000B0
:10457000E5E7200003F026FF051EF3D1032E01D945
:104580000125EFE7002231000F2000F0E5FC054B8C
:104590001E60E7E700100240AC050020E7030000C2
:1045A00040420F0054000020FEE7C046FEE7C04630
:1045B00010B5024800F0E6FD10BDC04670060020B0
:1045C00010B5104801F0C2FF0F4B1B68D9790029C4
:1045D00010D101209A7818700132D2B29A700A2A4A
:1045E00009D00A4B1868002804D0002302220021B9
:1045F00008F04CF810BD58709970044B18680028EA
:10460000F3D1F7E7C003002040000020280300207A
:1046100010B5024803F0C8FF10BDC046AC0500202D
:10462000064810B503689A69E023DB001A4202D0FD
:1046300001F006FD10BD01F09FFBFBE750030020D9
:1046400010B5024804F064F910BDC046B806002059
:1046500010B5024802F06CF910BDC0464832002087
:104660000120704710B509F02FFF162303600120C9
:10467000404210BD10B509F027FF16230360FEE786
:1046800070B5161E07DD0C008D1800E000BF20700D
:104690000134AC42F9D1300070BDC04670B5161E71
:1046A00007DD0C008D1820780134FFF7FBF8AC42D1
:1046B000F9D1300070BDC046012040427047C0466D
:1046C00080239B0100204B607047C046012070474B
:1046D000002070470C490D4A0300521A0C4910B5CE
:1046E0000868002804D0C318934206D80B6010BD98
:1046F0000848C31808609342F8D909F0E5FE0C2376
:10470000036001204042F2E7000200000050002058
:10471000EC050020A83800207047C04610B586B0D0
:104720001022002102A809F01AFE08220021684682
:1047300009F015FE164C174B174A236018236360C7
:1047400000232000A360E2602361636103F0C2FDE7
:10475000002814D1802320005B0102A9029303F0FA
:1047600063FE002811D10022002369462000009238
:10477000019303F0A7FF002804D106B010BDFFF796
:1047800009FAE7E7FFF706FAF7E7FFF703FAEAE7C0
:10479000F005002000080140FFFF000010B586B0C2
:1047A0001022002102A809F0DAFD08220021684643
:1047B00009F0D5FD184C194B194A2360C823E26053
:1047C0009B0080226360002392002000A36022618E
:1047D000636103F07FFD002814D1802320005B017A
:1047E00002A9029303F020FE002811D10022002329
:1047F000694620000092019303F064FF002804D171
:1048000006B010BDFFF7C6F9E7E7FFF7C3F9F7E712
:10481000FFF7C0F9EAE7C046300600200014014067
:10482000FFFF00000368094A934209D0084A9342F7
:1048300000D070472021074A536B0B435363F8E7BE
:104840000421044A536B0B435363F2E70008014011
:1048500000140140001002400421074B5A6B0A4328
:104860005A635A6C0A435A64044B03391A68136832
:104870000B4313607047C04600100240F005002053
:104880000C220C480C4B10B503600C4B426180228B
:104890004360002312028360C36003618361C261CD
:1048A0000362436204F0D8FB002800D110BDFFF77B
:1048B00071F9FBE7B80600200038014000093D000F
:1048C00070B5040088B01422002102A809F047FD49
:1048D000214B22689A4201D008B070BD80221F4B44
:1048E000D201596BA0200A435A630122D96A0326D8
:1048F0001143D962DB6AC0051A400192C022019BB4
:104900000223D20002920393042302A90693059680
:1049100000F08CFC124D134B80222B601023AB60F7
:10492000002328006E60EB602A616B61AB61EB6174
:104930002B6200F04FFB00280AD1002203211B202C
:10494000E566AC6200F008FB1B2000F037FBC3E714
:10495000FFF720F9F1E7C04600380140001002409F
:10496000700600201C0002400D4885460D480E4987
:104970000E4A002302E0D458C4500433C4188C42B9
:10498000F9D30B4A0B4C002301E013600432A2421E
:10499000FBD3FFF7C1FE09F09DFDFFF7CDF8FEE761
:1049A000005000200000002028020020D836010816
:1049B00028020020A8380020FEE700004021084A15
:1049C00010B5136803200B431360FFF79FFD041E0F
:1049D00002D00124200010BDFFF784FDFAE7C04695
:1049E00000200240034A044B11681B785B181360D7
:1049F0007047C0463C07002050000020014B18685B
:104A00007047C0463C07002070B50400FFF7F6FF72
:104A10000500631C02D0044B1B78E418FFF7EEFF7F
:104A2000401BA042FAD370BD50000020032370B594
:104A300002680400916882B00B40012B2DD0916870
:104A4000234B194230D1012193680B439360214BD2
:104A500021491868FBF762FB0190019B002B05D0F0
:104A6000019B013B0193019B002BF9D1FFF7C6FF8E
:104A7000236806001B680125DB070BD4FFF7BEFF88
:104A80002368801B0A2802D91A68154216D01B68B1
:104A90001D42F3D0002002B070BD11680B42F9D165
:104AA00091680B4B1942CED01022636D0120134345
:104AB0006365A36D0F3A1343A365ECE71022636DA2
:104AC000012013436365A36D2B43A365E3E7C04651
:104AD000170000804C00002040420F0070B5041EFB
:104AE00000D1A8E0436D002B00D19AE0636DDB0696
:104AF00028D423689A68520724D4626D61490A4019
:104B00000631FF310A436265032299680A40012A8F
:104B100000D192E080206168C0054A0052088242BC
:104B200019D080221206914215D01A69564D920072
:104B300092081A61554A10682840106010680143B5
:104B400011600FE01022636D0120134363650022A2
:104B50005023E25470BD1A69920092081A611A69D2
:104B60000A431A611821DA688A43DA60DA68A168B0
:104B70000A43DA60454946480A6802400A60626BA7
:104B80000868520602430A60802299685205114261
:104B90004DD0DA683F49256B0A40DA602022A05CDC
:104BA000E268D9682A430A43A16989030A43E16993
:104BB000C9030A4341030A432C21615C49000A43AB
:104BC000216902394D42694189000A43C221DA60F4
:104BD000626AFF318A4204D0A56AD9682A430A432F
:104BE000DA602122A25C012A2BD0E16B012930D0AE
:104BF000012219690A4202D01969914319610721FA
:104C00005A6900208A435A615A69A16B0A435A6162
:104C100000230322A365636D9343023A1343636544
:104C200098E7502283658354FEF7D6F85EE79968CB
:104C30000A439A60ADE701208CE719680A4299D1CE
:104C400068E7002815D18022D96852020A43DA6049
:104C5000CBE71A691048656C02401A61226C18692A
:104C60002A43A56C2A4302431A611A690A431A614E
:104C7000C5E72020616D01436165A16D0A43A2650E
:104C8000B3E7C046FDFEFFFFFFFFC3FF082701405B
:104C9000FFFFFFFD1902FEFF03FCFFFF036810B5D5
:104CA0009A680400520721D45022815C01291DD04A
:104CB00001218154C269012A12D1616D0C4A002080
:104CC0001140802252000A43626550210022A265F1
:104CD00062541C321A609A684C390A439A6010BDBB
:104CE000FFF7A4FE0028FAD12368E6E70220F6E7E2
:104CF000FEF0FFFFF8B5446905000E00082C04D053
:104D000003680C24DB68DB074CD4FFF777FE070051
:104D10002A68731C28D113682342FCD08023696D54
:104D20009B000B436B65C023D1681B01194214D152
:104D30002023E95C002910D1116809070DD591687D
:104D4000490738D40C2153688B4353606B6D1E495F
:104D50000B400431FF310B436B65AB690020002B26
:104D600001D10C331360F8BD13681C42D6D1002E5C
:104D70000CD12100136819401C42CAD104226B6D6A
:104D8000032013436B655023E954ECE7FFF736FE2D
:104D90002A68C01BB042BCD92100136819401C42CC
:104DA000B7D1EBE72022436D134343650022502324
:104DB000C2540120D7E7696D0B4301216B65AB6DD0
:104DC0000B43AB65C9E7C046FEFEFFFF0368186CE6
:104DD0007047C046502330B5C25C040083B0012A3E
:104DE00055D00122C2540268906840072BD4294B49
:104DF000486898422FD00D68906A6B035B0B0343A1
:104E000093626B0317D58023234A1B0411680B435D
:104E10001360224B22491868FBF780F983001B18A6
:104E20005B000193019B002B05D0019B013B01938B
:104E3000019B002BF9D1AD0322D450230022002086
:104E4000E25403B030BD2021626D01200A43626547
:104E50000022E254F5E70B68906A5903490B884336
:104E600090625A0304D50C490E480A6802400A6051
:104E70009B03E2D5084A0C4913680B401360DCE73A
:104E80008023054ADB0311680B431360D5E702203A
:104E9000D7E7C04601100000082701404C00002061
:104EA00040420F00FFFF7FFFFFFFBFFF502370B5A1
:104EB000C25C0400012A4BD00122C25403680232B2
:104EC00099680A40012A0BD119680A4208D0436D3B
:104ED0001F3213434365012050230022E25470BD6A
:104EE000626D1C490A400631FF310A436265DE6883
:104EF000DA6801318A43DA608022996812060A432F
:104F00009A60FFF77BFD050023689A68002A13DA90
:104F1000FFF774FD2368401B0A28F6D99A68002A17
:104F2000F3DA1222636D01209343023A134363655F
:104F300000225023E254D2E70322D96816400E43E0
:104F4000DE60636D00209343023A13436365C3E759
:104F50000220C4E7FDFEFFFF70B5002814DB154BEF
:104F600003229C46FF23840802401800C026D2007A
:104F7000890190400B409340A4006444B600A559B9
:104F800085432B43A35170BD0B4A0F239446032244
:104F900003401040FC321500C000890185400A40E2
:104FA0008240083B9B089B006344DC69AC4322437E
:104FB000DA61E8E700E100E000ED00E0002805DB51
:104FC0001F22012302409340014A13607047C046EC
:104FD00000E100E070B5041E38D005681C4B1421B8
:104FE000E818FBF79BF81B4B022223642523800063
:104FF0006064E2542A68184BA1681A40E368266985
:105000000B43334366693343A6693343E66933434D
:10501000266A334313432B608023DB0199420CD073
:105020001C2101400F2088400C4A13688343136001
:10503000636810688B40034313600023252201211D
:105040000020E363A154013AA35470BD0120FCE7A2
:10505000F8FFFDBF000002400F80FFFFA8000240E4
:10506000F0B5CE464746242480B5055D012D40D0DD
:10507000012525270555C55DEEB2012D06D000237B
:1050800003550220C0BCB946B046F0BD223CC45511
:105090000024C46304682568B5432560056CA946EF
:1050A000456CA8461C2547462F40BE404D466E60C5
:1050B00063608368102B0ED0036BA160E260002B4D
:1050C0000ED00E22236813432360012223680020A0
:1050D00013432360D6E7036BA260E160002BF0D19D
:1050E000042223689343236023680632134323601A
:1050F000EBE70220C6E7C046252230B5815C0300FD
:10510000022906D0213AC2630120242200219954A9
:1051100030BD0E2401681C250868A04308600120EA
:105120000C6884430C60596C1C6C294005008D4050
:10513000656098540020E8E7252370B5C25C022A18
:1051400003D0213BC363012070BD0E2402681C25DF
:105150001168A1431160012114688C431460426CF2
:10516000046C2A400D00954000226560C154242340
:10517000C254836B002B02D098470020E4E7002044
:10518000E2E7C0461C22F8B5436C066C1340183A9F
:1051900011009940346805682F680C420DD03A42DE
:1051A0000BD02B689B0602D42B6893432B60036BB8
:1051B0007160002B00D09847F8BD02221100994081
:1051C0000C4214D03A4212D02B689B0606D42B68AE
:1051D000083293432B602523093AC254242300222A
:1051E0007160C254C36A002BE6D09847E4E70822F6
:1051F000110099400C42DFD03A42DDD00E212A68DE
:105200008A432A6001221100994025237160C263FC
:10521000C2540022013BC254436B002BCCD09847B0
:10522000CAE7C0462523C05CC0B27047F0B5DE4671
:1052300057464E464546E0B58B4609680022002396
:1052400083B000297CD001260C009E403440A24649
:1052500031426FD05C46032564682540AC46013D71
:10526000012D00D873E06546032D00D0B6E06646F8
:105270009640F54300950768009D3D402E43C025AC
:10528000AD0206602C4255D00127664E756B3D433A
:105290007563654E0237B4469D081F40BF00AD00E0
:1052A0006544BC46AE680F27B1466646B7403E002F
:1052B0004F46B743B946A027FF05B8421AD05B4F07
:1052C000B84200D19CE05A4FB84200D1A0E0594FFB
:1052D0000326B84209D0584F0426B84205D0574E8D
:1052E000B0460526404500D006266746BE404F46DC
:1052F0003743B9464E468027AE605646504D7F0232
:10530000F6432D683C4200D077E035404C4F3D607D
:105310007D68A7036ED43540494F7D60BD68E702C4
:1053200065D43540464FBD60FD68A4025BD435406E
:10533000434CE5600C000133DC400232002C82D18A
:1053400003B0F0BCBB46B246A946A046F0BD856896
:10535000A94603259540A846ED434F46009545468E
:10536000AF435D46ED68B9462F009740B8464F46BB
:1053700045462F43876045682F000125B74326091E
:105380002E409E403E434660C668009D2E40B0467B
:105390005E46B668474696403E43C66067466646E8
:1053A0009640022F00D066E7DD08AD00AC4684448D
:1053B00065462F6A07251D40AD00A84601970F25B9
:1053C0004746BD40019FAF435D46019747462D6963
:1053D000BD40019F2F4365462F624CE70325954052
:1053E000ED430095D0E754462C432500A0E75746EF
:1053F0003D4397E757463D438EE757463D4385E794
:1054000066460127B7403E004F463743B94671E72D
:10541000022637006646B7403E004F463743B9463E
:1054200068E7C04600100240000001400004005040
:1054300000080050000C005000100050001C0050EC
:105440000004014000690840431E9841C0B2704703
:10545000002A01D0816170478162FCE70223F0B528
:10546000C64604000D0016009846102700B52268B5
:105470006B1C46D1022110209369194255D19369C2
:105480001842F9D053689B0104D480235168DB0192
:105490000B43536020276B1C27D1202193691942AD
:1054A000FCD01023D3611033D36193699B0701D5DE
:1054B00000239362012391690B4202D191690B434E
:1054C000936153681A490B4053600422636C134381
:1054D000636441231C32E254002301202232A3548E
:1054E000023AA35480BCB846F0BD93691F42D8D19C
:1054F000FFF784FA801B854211D3002D0FD022685C
:10550000C9E74146936919420FD193691F42B9D146
:10551000FFF774FA801BA84201D8002DA7D12022E2
:10552000636C134363644123D5E70020DAE7C04688
:1055300000E800FEF0B5C64604000D00160000B5F8
:10554000002954D010232027984623689A691742CF
:105550005CD141469A69114232D05A68920104D412
:1055600080225968D2010A435A6020276A1C32D12E
:1055700020219A691142FCD01022DA611032DA61DE
:105580009A69920701D500229A62012299690A421A
:1055900002D199690A439A615A681D490A405A60C2
:1055A0000422636C1343636441231C32E2540023DE
:1055B00001202232A354023AA35480BCB846F0BD65
:1055C000FFF71CFA801B8542BFD22022636C134375
:1055D00063644123EAE79A691742CDD1FFF70EFAD7
:1055E000801B8542F1D3002DEFD02368BEE703680E
:1055F0009A6992060AD49A69D206AED4FFF7FEF9E8
:105600002022636C134363644123CFE70020D4E777
:1056100000E800FE10B5041E4DD04123C35CDAB291
:10562000002B43D0412324220121E25423681A682D
:105630008A431A60214962680A401A619A682049BF
:105640000A409A60E268012A2AD08421A0680902EF
:1056500001439960022A02D1802212015A605968DE
:10566000184A00200A435A60DA6815490A40DA608D
:10567000616922690A43A16909020A43DA60216A61
:10568000E2690A4301211A601A680A431A6000237A
:1056900041221F316364A15401322363A35410BD1E
:1056A0008022A16812020A439A60D8E74033C254AC
:1056B000FDF70CFFB6E70120F1E7C046FFFFFFF062
:1056C000FF7FFFFF00800002F8B55746DE464E46DA
:1056D0004546E0B599460AAB904604CB04001B88CA
:1056E0000F009B464123C35C9246202B00D0A0E0D4
:1056F000002A00D193E05B46002B00D18FE04023CD
:10570000C25C012A00D194E00122C254FFF776F96D
:10571000802506002D0205E0FFF770F9801B19288F
:1057200000D988E022689369190029402B42F3D1FF
:1057300041232120E05401331F30E054534663627B
:105740005B4661646385536861637349BF050B40C1
:105750004946C9B209040B43BF0D70493B430B4393
:105760005360200032000C99FFF778FE002800D02B
:1057700091E04B46012B00D081E043468025226812
:10578000DBB293620C9B013362D180219369194291
:10579000FCD0638DFF2B68D8638D614851689BB244
:1057A00023850140DBB239431B040B43802189046C
:1057B0000B4353605A4B8025984603E0638D002BC2
:1057C00000D189E0320020000C99FFF747FE002845
:1057D0003CD1636A22681978013391626362638DF8
:1057E000013B9BB26385238D618D013B9BB2238579
:1057F0000029E3D0002BE1D10C9B013350D19369F8
:105800001D42FCD0638DFF2B57D9FF2341462385D2
:1058100053680B4043493B430B435360CEE780231F
:1058200001209B006364F0BCBB46B246A946A0467B
:10583000F8BD0220F7E72022636C13436364412321
:10584000E25400232232A354023AA3540120EAE78F
:1058500093691D429DD1FFF7D1F80C9B801B8342B9
:105860004FD3002B4DD022688CE7FF232C49238592
:1058700053680B402B493B430B4353609AE7424626
:105880002368120A9A62200032000C99FFF7E6FDA5
:10589000002800D171E7402300220120E254C2E732
:1058A00093691D42AED1FFF7A9F80C9B801B834280
:1058B000C1D3002BBFD022689EE74046638D51685C
:1058C0009BB223850140DBB239431B040B4380218B
:1058D00089040B43536071E7320020000C99FFF7F5
:1058E00029FE0028B2D1202123680F4DD9615A68C2
:1058F0002A405A604123E1540133E054023BE05412
:1059000091E72022636C134363644123E254002235
:105910000133E254BFE7C046009800FC002000813C
:10592000009C00FC0000FF0100E800FEF0B54E46C0
:10593000DE4657464546E0B583B099460CAB01922A
:1059400004CB04001B8888469B464123C35C9246D7
:105950000E9E202B00D0A3E0002A00D195E05B46EC
:10596000002B00D191E04023C25C012A00D197E0D6
:105970000122C254FFF742F8802507002D0204E0FF
:10598000FFF73CF8C01B192872D8226893691900E8
:1059900029402B42F4D141232220E05401331E3010
:1059A000E054534661646163414663625B468D0522
:1059B0006385A90D536888467A4920000B40494603
:1059C000C9B209040B4341460B4377490B4353606B
:1059D00031003A00FFF742FD002800D0DBE04B46E3
:1059E000012B00D07EE06B4622681B799362402534
:1059F000731C00D0AAE0402193691942FCD0638D4A
:105A0000FF2B00D8AFE0FF236649238553680B4086
:105A100041460B4365490B43536080230425994657
:105A2000731C1BD193691D42FCD0526A636A1A70C1
:105A3000628D636A013A013392B26362238D62859B
:105A4000013B628D9BB22385002A01D0002B34D00C
:105A5000638D002B55D02268731CE3D093691D42DF
:105A6000E3D1FEF7CBFFC01B864201D3002EF2D15B
:105A70002022636C0120134363644123E25400231A
:105A80002232A354023AA35403E0802301209B0056
:105A9000636403B0F0BCBB46B246A946A046F0BD65
:105AA0000220F6E74946936919420DD1FEF7A6FF99
:105AB000C01B8642DCD3002EDAD02268731CF1D1E1
:105AC000494693691942FBD0638DFF2B2ED9FF23E2
:105AD0003749238553680B4041460B4335490B43F7
