:020000040800F2
:1000100000000000000000000000000000000000E0
:1000200000000000000000000000000015BE0008F5
:100030000000000000000000F1BE000835BF00080D
:10004000D1420008D1420008D1420008D142000844
:10005000D1420008D1420008D1420008D142000834
:10006000D1420008D1420008D1420008D142000824
:10007000D1420008B13F0008D14200080140000809
:10008000D1420008D1420008D1420008000000001F
:10009000D1420008D1420008D142000811400008B6
:1000A000D1420008D1420008D14200083140000886
:1000B000D1420008D1420008000000004140000881
:1000C00010B5064C2378002B07D1054B002B02D02E
:1000D000044800E000BF0123237010BD800200200F
:1000E00000000000F0F10008044B10B5002B03D015
:1000F0000349044800E000BF10BDC04600000000F6
:1001000084020020F0F1000802780B78002A03D066
:10011000013001319A42F7D0D01A70470023C25CF7
:100120000133002AFBD1581E7047000003B471460A
:10013000490840004900095E49008E4403BC7047ED
:10014000002243088B4274D303098B425FD3030A16
:100150008B4244D3030B8B4228D3030C8B420DD329
:10016000FF22090212BA030C8B4202D312120902B7
:1001700065D0030B8B4219D300E0090AC30B8B42F5
:1001800001D3CB03C01A5241830B8B4201D38B03A3
:10019000C01A5241430B8B4201D34B03C01A524148
:1001A000030B8B4201D30B03C01A5241C30A8B428B
:1001B00001D3CB02C01A5241830A8B4201D38B0276
:1001C000C01A5241430A8B4201D34B02C01A52411A
:1001D000030A8B4201D30B02C01A5241CDD2C3098C
:1001E0008B4201D3CB01C01A524183098B4201D308
:1001F0008B01C01A524143098B4201D34B01C01AF3
:10020000524103098B4201D30B01C01A5241C3086A
:100210008B4201D3CB00C01A524183088B4201D3D9
:100220008B00C01A524143088B4201D34B00C01AC5
:100230005241411A00D20146524110467047FFE731
:1002400001B5002000F0F0F802BDC0460029F7D04B
:1002500076E7704703460B437FD4002243088B4266
:1002600074D303098B425FD3030A8B4244D3030B3D
:100270008B4228D3030C8B420DD3FF22090212BA02
:10028000030C8B4202D31212090265D0030B8B427E
:1002900019D300E0090AC30B8B4201D3CB03C01A68
:1002A0005241830B8B4201D38B03C01A5241430B43
:1002B0008B4201D34B03C01A5241030B8B4201D333
:1002C0000B03C01A5241C30A8B4201D3CB02C01A9E
:1002D0005241830A8B4201D38B02C01A5241430A16
:1002E0008B4201D34B02C01A5241030A8B4201D305
:1002F0000B02C01A5241CDD2C3098B4201D3CB01AC
:10030000C01A524183098B4201D38B01C01A52415A
:1003100043098B4201D34B01C01A524103098B425E
:1003200001D30B01C01A5241C3088B4201D3CB0049
:10033000C01A524183088B4201D38B00C01A52412C
:1003400043088B4201D34B00C01A5241411A00D2DC
:1003500001465241104670475DE0CA0F00D0494245
:10036000031000D34042534000229C4603098B42B5
:100370002DD3030A8B4212D3FC22890112BA030A3D
:100380008B420CD3890192118B4208D389019211BF
:100390008B4204D389013AD0921100E08909C30944
:1003A0008B4201D3CB01C01A524183098B4201D346
:1003B0008B01C01A524143098B4201D34B01C01A31
:1003C000524103098B4201D30B01C01A5241C308A9
:1003D0008B4201D3CB00C01A524183088B4201D318
:1003E0008B00C01A5241D9D243088B4201D34B0033
:1003F000C01A5241411A00D20146634652415B1075
:10040000104601D34042002B00D549427047634655
:100410005B1000D3404201B5002000F005F802BD9A
:100420000029F8D016E770477047C0468446080098
:100430006146FFE71FB500F013FA002801D4002140
:10044000C8421FBD10B500F09FF94042013010BDF9
:1004500010B500F005FA002801DB002010BD0120D6
:1004600010BDC04610B500F0FBF9002801DD0020EA
:1004700010BD012010BDC04610B500F0ABF900283A
:1004800001DC002010BD012010BDC04610B500F0F9
:10049000A1F9002801DA002010BD012010BDC046DE
:1004A000002B15D1002A13D1002906DB01DC00281E
:1004B00006D00020C043410802E080210906002048
:1004C00007B4024801A14018029003BD5DFFFFFF81
:1004D00003B4684601B5029800F038F9019B9E46C6
:1004E00002B00CBC7047C046002B11D1002A0FD1BE
:1004F000002900D1002802D00021C943080007B418
:10050000024802A14018029003BDC0461DFFFFFF34
:1005100003B4684601B5029800F04CF8019B9E4672
:1005200002B00CBC7047C046F0B5CE469946030CED
:100530009C46130447461B0C1D000E006146040434
:10054000240C80B50700100C4B43654341436043C6
:100550002C0CC01820188C46834203D980235B02E0
:100560009846C444494679435643030C2D042D0C48
:100570008919634400044019C918C0BCB946B04683
:10058000F0BDC0469E2110B5C905041CFFF77EFFD3
:10059000002803D1201C00F095FC10BD9E21201CDA
:1005A000C90500F0EFFA00F08DFC80231B069C4685
:1005B0006044F2E7F0B557464E464546DE46E0B5A4
:1005C00004000D009246994683B08B4230D82DD05E
:1005D0004946504601F074F829000600200001F059
:1005E0006FF8331A9846203B34D49B4653465A46FC
:1005F000934042461F00534693401E00AF423BD8F3
:10060000AF4200D179E05B46A41BBD41002B00DA6C
:1006100076E0002200230092019301235A46934082
:100620000193012342469340009329E08242CFD9AF
:1006300000220023009201930C9B002B01D01C6030
:100640005D600098019903B0F0BCBB46B246A94674
:10065000A046F0BD42469B4620239B1A5246DA40F4
:10066000414613004A468A40170042461F435346FC
:1006700093401E00AF42C3D9002200230092019391
:100680004346002BD8D0FB0772081A4346467B0826
:100690000EE0AB4201D1A2420CD8A41A9D41012028
:1006A00024196D410021013E24184D41002E06D031
:1006B000AB42EED9013E24196D41002EF8D10098CD
:1006C00001995B4600196941002B24DB2B005A4637
:1006D0004446D3402A00E2401C005B461500002B34
:1006E0002ADB26009E40330026004746BE403200EB
:1006F000801A9941009001919EE7A342BCD882E7FD
:100700004246202300219B1A0022009101920122DF
:10071000DA40019285E7424620239B1A2A0046468A
:100720009A402300F340444613432A00E2401C0051
:100730005B461500002BD4DA42462F00202326000A
:1007400097409B1ADE403B003343CDE7F8B5CE46D9
:10075000474680B59146984604000D0000F0BCFF66
:1007600007000E0002000B0048464146FFF7DCFE82
:10077000241A8D41089B380031001C605D60C0BCAC
:10078000B946B046F8BDC04670B5420045024E02BB
:100790004C00C30F6D0A0120120E760A240EC90FF9
:1007A000FF2A06D0FF2C03D0A24201D1B54206D0C9
:1007B00070BD002DFCD1FF2CFAD1002EF8D18B4258
:1007C00006D00120002AF3D12800431E9841EFE70C
:1007D0000020EDE770B5420045024E024C00C30F09
:1007E0006D0A120E760A240EC80FFF2A1BD0FF2CAA
:1007F0000ED0002A1BD1002C01D1002E1CD0002DC0
:100800000CD083421CD00221581E0840013870BD14
:10081000002E22D1002AF4D1002DF2D10028F6D1E9
:1008200001204042F3E7002D17D1FF2CF0D0002C1F
:10083000E7D1002EE5D1E6E70020002DE7D0E2E782
:10084000A24205DCEADBB54202D8E7D30020DEE7AE
:100850004342584140000138D9E702204042D6E7E0
:1008600070B5420045024E024C00C30F6D0A120ED5
:10087000760A240EC80FFF2A0BD0FF2C0DD0002AB9
:100880001FD1002C16D1002E14D10020002D10D025
:1008900009E0002D0CD1FF2C13D1002E08D1002A25
:1008A00008D0834212D00221581E0840013800E0CF
:1008B000022070BD002DF4D10028FAD10120404261
:1008C000F7E7002CEDD1002EEBD1ECE7A24205DCDE
:1008D000F2DBB54202D8EFD30020EAE743425841A9
:1008E00040000138E5E7C04643025B0AF0B54F46D9
:1008F00046469946D646C30F45009846C0B54B4676
:100900000F1C2D0E00D1CBE0FF2D00D1CFE08022B7
:10091000DB00D2041A430023914600269A467F3D0D
:100920007C027B00640A1B0EFF0F002B00D1A9E0A4
:10093000FF2B11D08022E400D204144342467F3BB7
:100940005B197A400020D2B25D1C0A2E13DD3A00FA
:100950000B2E47D047463FE02B00FF33002C1ED123
:1009600002221643424601357A40D2B2FF350A2EA2
:1009700000DDE4E00220022E1CDC013E012E42D804
:1009800002283DD0012866D100200021C00508437F
:10099000D2071043E0BCBA46B146A846F0BD0322D8
:1009A0001643424601357A40D2B2FF350A2E00DDA9
:1009B000E4E003200121B140A626F60031420AD12D
:1009C0009026B600314216D1B93EFF3E0E421AD0F3
:1009D000A146824600E0170053463A00022B0FD092
:1009E0004C4650460328CDD18021C90321434902FA
:1009F000FF20490ACAE780210022FF20C903C5E77A
:100A0000FF200021C2E7200C49462404240C2700C3
:100A10000E0C0904090C74434F4346434843390CF8
:100A2000001909188C4203D980204002844666448C
:100A30003F0408043F0CC0198401671EBC41090C27
:100A4000800E8919044389010C43090171D50123E2
:100A500061081C400C432B007F33002B51DD6107E4
:100A600004D00F212140042900D00434210103D5F2
:100A7000434B1C402B008033FE2BC1DCA101490AF3
:100A8000D8B283E7002C2CD1012342461E432B0011
:100A90007A400120D2B25D1C0A2E00DD57E76AE7DA
:100AA000002B10D10123042600259A4638E7002B9D
:100AB00004D102230826FF259A4631E703230C269A
:100AC000FF259A462CE7484600F0DCFD4A46431FC6
:100AD00076259A4000236D42914600269A462D1AAB
:100AE0001EE7200000F0CEFD4246431F9C402B1A1B
:100AF000763B7A400020D2B25D1C0A2E00DD26E74C
:100B000039E70121CB1A1B2B00DD3DE79E35210083
:100B1000AC40D940631E9C4121434B0704D00F23B6
:100B20000B40042B00D004314B0104D501200021DF
:100B30002CE71D008FE789010020490A26E70223E0
:100B40000F2E0CD180214B46C9030B420DD00C4215
:100B50000BD1214349023A00FF20490A16E70B2E28
:100B600000D0F7E6A1469A4636E780214B46C903F6
:100B7000194349024246FF20490A07E70323DFE7FA
:100B8000FFFFFFF7F0B5C64643025B0A4500DA00F7
:100B9000C40F48024F009446420A1E00904600B51A
:100BA0002D0E3F0EC90F8009FF2F59D00122514051
:100BB0008C4239D0EA1B002A58DD002F68D0FF2D67
:100BC00000D1D1E08023DB0418431B2A00DCE3E0E2
:100BD00001236246D31A5A0100D4ACE09B019E095E
:100BE000300000F04FFD330005388340854200DCC3
:100BF000C6E0B24A2D1A13405A0704D00F221A40F9
:100C0000042A00D004335A0100D497E06A1CFE2D58
:100C100000D184E09B015E0AD2B2D0053043E407E4
:100C2000204380BCB846F0BDEA1B002A41DD002FFE
:100C30006BD0FF2D00D197E08023DB0418431B2AE3
:100C400000DCCCE0012363445A0174D50135FF2D4B
:100C500065D001229A491A405B080B401343CBE749
:100C600000281FD08C4222D02A00FF3A002A35D01B
:100C70007A1B002D00D099E06346002B00D1DDE007
:100C8000531E012A00D105E1FF2A6BD01A0094E01F
:100C9000002873D0511E012A00D1DFE0FF2A63D063
:100CA0000A0092E701225140A14200D082E72A00C7
:100CB000FF3A002A36D07A1B002D00D1AAE0FF2F80
:100CC00000D1DAE080236146DB0419438C461B2AFD
:100CD00000DCD4E001233D001B18B5E7FE276A1CA9
:100CE000174271D1002D00D09EE06346002B00D149
:100CF000D5E00022002800D18FE71B1A5E0100D446
:100D0000D6E063460C00C31A76E7002836D0511EA1
:100D1000012A00D19AE0FF2A26D00A008FE7FF229D
:100D200000267AE7FE276A1C174262D0FF2AF6D017
:100D30001500604443085A0700D05FE7DB08FF2D29
:100D400012D05B025E0AEAB267E76246002A00D16F
:100D500093E0002808D08022D203134204D04046FA
:100D6000104201D10C004346002BD8D08026F60358
:100D70001E437602FF22760A4FE743461500DEE760
:100D80002022401B0130121A19009340C1405A1E04
:100D9000934100250B432FE720239B1A0100984025
:100DA0000300D1405A1E93410B4312E7FF2FD9D0C5
:100DB00080236446DB041C43A4461B2A52DD012326
:100DC0000C003D00C31A06E763461E1A730139D4AE
:100DD000002E00D004E70024002200261DE7202377
:100DE0009B1A010098400300D1405A1E93410B43C7
:100DF00029E7002DA9D16346002B56D000220028F8
:100E000000D10AE7030063445A0194D52B4A013507
:100E1000134090E76346002BAFD0531E012A15D034
:100E2000FF2A2AD01A0052E76246002A91D10028F0
:100E300098D180260024FF22F603EEE60C004346FC
:100E400015007CE763460C00C61AC9E6030063443C
:100E500001255A0100D46EE70225FAE66346012512
:100E60001B1AB8E664462023D4409B1A62469A4077
:100E700013005A1E93412343A2E7434674E7614699
:100E80002023D1409B1A62469A4013005A1E934178
:100E90000B4320E763460C000125C31A9BE600289C
:100EA00099D00C0046460022B7E646460022B4E63A
:100EB000002B00D03FE700240026AEE6FFFFFFFB3B
:100EC000FFFFFF7D41024200C30F490A0020120EBE
:100ED0007E2A03DD9D2A02DD094A9818704780208A
:100EE00000040143952A07DC9620821AD14048422B
:100EF000002BF3D10800F1E7963A9140F7E7C0469E
:100F0000FFFFFF7F70B5002813D0C317C5185D40E1
:100F1000C40F280000F0B6FB9E2301001B1A962B7D
:100F20000FDC082831D008398D406D026D0AD8B227
:100F300002E0002400200025C0052843E4072043E8
:100F400070BD992B0CDD0522121A2800D04002003A
:100F500008001B3085402800451EA84102431500AB
:100F6000052916DC2A000F4802406E0709D00F261B
:100F70003540042D05D00432550102D59F2302408F
:100F80005B1A9201550AD8B2D6E76D0296206D0A17
:100F9000D2E74A1F95402A00024802406E07F0D06F
:100FA000E5E7C046FFFFFFFBF0B54546DE46574686
:100FB0004E46E0B51F000B031B0B9B464D00CB0FAD
:100FC00004009146984687B06D0D00D1CDE1CE4B1F
:100FD0009D4200D1E9E15A46430FD20013438022DB
:100FE00012041A43C3009A46C84B93469C460023FA
:100FF0000026654400933C037B004846240B5B0DB0
:10100000FF0F002B00D189E1BF4A934219D0420F54
:10101000E4002243802424041443BC4A0021944663
:10102000424663445B190193019B7A400133C0003F
:10103000D2B202930A2E1CDD3A000B2E5ED0474638
:1010400056E04946B04B2143EB18019300292AD1C1
:101050008020022200012B0084461643424663444E
:101060007A40D2B202930A2E00DD31E20020002441
:101070000221022E26DC013E012E52D802294CD03C
:10108000012900D018E10023002400251B0523437B
:10109000D20713432800190007B0F0BCBB46B24684
:1010A000A946A046F0BD8021032209012B008C46F1
:1010B0001643424663447A40D2B202930A2E00DDC0
:1010C00028E203210125B540AC46A6266346F6007A
:1010D000354033420BD19026B600334218D1B93E89
:1010E000FF3E1E421DD0A3468246009100E017003D
:1010F00000993A00022910D05C4650460329BFD11E
:1011000080231B031C43240305007F4B240BBDE7F6
:10111000802400227C4B2403B8E7002400257A4B6E
:10112000B4E753461E04360C1F0C3300010C0004B8
:10113000000C4343984603007B43994633004B43DE
:101140009C4643460D001B0C9A467D43CC44D44438
:101150000095E14504D980235B0299464D440095F2
:1011600063461B0C1D0063461B049C4643461B0440
:101170001B0C9846634643440393230C9846330064
:101180002404240C63439C4623007B439946434636
:101190005E435F434E446346B2461E0C5644B1451F
:1011A00003D980235B0299464F44330C99463B0098
:1011B0004B4405936346AC461F043F0C3604F619B6
:1011C000B444634604935B461B0C9C465B461F0479
:1011D0003F0C3B0043439946634643439A464B4684
:1011E00060461B0C9B4648437943514459448A4509
:1011F00003D980235B029A4650440B0C9A464B4617
:101200001B041B0C99463B006343090445464944B3
:10121000994663465C436B439C464B461B0C984681
:101220006F433F1947445044BC4203D980235B02BB
:101230009846C444049B009D98464544B542B64137
:10124000734298464B461E04059B3C049946360C57
:10125000A4194C44A14683466E18C1448E4289416C
:10126000CB445D4649426D189C42A441C1459B4117
:10127000834580418D4289415B4264421C43404228
:10128000039B4942014370023F0C1843E419471E77
:10129000B84164186444F60D61023043EC0D6E02EF
:1012A0000C433043C90100D4F1E00121430801405F
:1012B0000B43E007184364081549029B8C466344BE
:1012C000002B00DC97E0410709D00F2101400429E1
:1012D00005D0011D81428041404224180800E101EF
:1012E00006D58021C9008C460A4B1C40029B6344F2
:1012F00009498B4200DD10E76107C50864025B0500
:101300000D43240B5B0DC1E6FF07000001FCFFFF4E
:10131000FF030000FFFFFFFEFE0700004B462343D4
:1013200059D0002C00D1A3E0200000F0ABF901005F
:1013300003000B391D22521A49461800D1404A4673
:1013400008388240844010000C43744AEB1A9446DB
:10135000424663440193019B7A4001330021D2B29B
:1013600002930A2E00DD67E683E65B4603439A4656
:101370002AD05B46002B6DD0584600F083F901005F
:1013800003000B391D22521A210018005D46D1407E
:10139000083885400A0084402A439346A2465F4DA0
:1013A0000026ED1A0023009325E65B4603439A4688
:1013B00005D100239B460233082600931BE6032336
:1013C00082460C26009316E600239B460133042632
:1013D000002500930FE64246013301951E43019B11
:1013E0007A400133002400200121D2B202930A2E58
:1013F00000DD21E63DE60121C91A382900DD42E67B
:101400001F2947DD1F2625007642F31ADD402B00F9
:10141000202905D04249029D8C466544AC402043BA
:10142000411E8841184307231D0000240540034244
:101430004AD00F2300240340042B42D0031D8342D3
:10144000804140422418180023023AD50123002489
:1014500000251BE600F016F90100030015312033CA
:101460001C298FDD0838002284409246A34696E767
:1014700000F008F901000300153120331C2900DCBD
:1014800058E702004C46083A002094405DE7019B73
:10149000029311E7234B26009C460300029DCB409C
:1014A0006544AE401E430300AB40581E83413000EC
:1014B0001843CC404307C7D00F230340042BBDD1B2
:1014C000C2E765076402240BC00800230543DDE57D
:1014D000002502230F2E0CD180245B4624032342D7
:1014E0000ED021420CD10C4324033A000E4B240BA6
:1014F000CCE50B2E00D0A2E58B46AA460093F7E57B
:1015000080245B4624031C43240342465546064B75
:10151000240BBBE54D4621000323DBE70DFCFFFF59
:101520003E0400001E040000FF07000010B5041E6A
:1015300010D000F0A7F80F4B1B1A0A2811DC0B2261
:101540002100121AD14015300A035B058440120BAA
:101550005B0D01E0002300221B051343200019004E
:1015600010BD22000B3882405B0512030024120BD1
:101570005B0DF1E71E0400000200F0B54B000D0307
:10158000400F5B0DCC0F6D0A3A490543581CD7003C
:1015900008420AD038495918FE2916DDFF200022DA
:1015A000C0051043E4072043F0BD002B06D13D43A6
:1015B00026D005229201520AD8B2F1E72F43EDD08E
:1015C0008022D203FF202A43EAE700291BDD920193
:1015D000501E8241ED007F0F2A433A43530747D004
:1015E0000F231340042B00D004328023DB0413406C
:1015F0003ED0481CFE29D1D09201520AC0B2CFE79A
:1016000000200022CCE70A0017322FDB80263604A8
:101610002E431E256D1A1F2D11DD02225242521A31
:101620003100D140202D04D0144A944663449E409A
:1016300037433A00531E9A410A430021CEE7104A2D
:1016400038009446634498403A00411E88419E40C9
:10165000EA403043024300215307C1D180211300E7
:10166000C90401200B400A42C6D1A3E70023A0E72A
:101670000B009FE7FE07000080FCFFFFA2FCFFFFBE
:1016800082FCFFFF1C2101231B04984201D3000CA4
:1016900010391B0A984201D3000A08391B099842E5
:1016A00001D30009043902A2105C40187047C046FB
:1016B000040302020101010100000000000000001B
:1016C00010B5002903D1FFF7DDFF203002E008004C
:1016D000FFF7D8FF10BDC046F0B557464E46454609
:1016E000DE46E0B50F001900002306009846100002
:1016F00083B0002F07DA33003C0000275E42A74189
:1017000001235B429846002907DA4346DB430C007D
:101710009846030000215842A14134003D00824612
:101720008946B94269D866D049465046FFF7C8FF96
:10173000834639003000FFF7C3FF5B461B1A9C4607
:10174000203B6BD4514699409B4660460B00514666
:1017500081400A00BB4200D973E0BB4200D17AE06D
:1017600034003D005946A41A9D41002900DA75E075
:101770000021002001260090019159468E400196DB
:10178000614601268E4061460096002960D0D90747
:1017900056080E435F086146012200230CE0AF4269
:1017A00001D1A6420AD8A41BBD4124196D410139BB
:1017B000A4185D41002906D0AF42F0D9013924199F
:1017C0006D410029F8D1009801995B4600196941E3
:1017D000002B4EDB2E002C00DE406346DC405B46D7
:1017E000002B56DB34009C4023006446A6403200A8
:1017F000801A994103E0B04296D900200021434667
:10180000002B04D003000C0000215842A14103B07A
:10181000F0BCBB46B246A946A046F0BD624648466B
:101820009B462023514690409B1AD94003000091CB
:10183000009960460B43514681400A00BB4200D8E4
:101840008BE70021002000900191614600299ED184
:1018500000980199D3E7B142F3D881E76146202689
:101860000127761A00200021F7400090019101978E
:1018700086E7624620239B1A2A009A40260013001E
:101880006246D6402C001E436346DC405B46002B7C
:10189000A8DA62462023350094409B1ADD402300DD
:1018A0002B43A2E770B545464E46D646944660B5F2
:1018B0001A00079B00249946089B654698462C60B1
:1018C000454614602C604D46099B2C60002B21DDA1
:1018D000050003E001340435A3421BD02E688E427C
:1018E000F8DB4646146029683160002C27D0654635
:1018F000611E296016498A465444A400245849466A
:101900000C600121002C06D0080070BCB246A9462C
:10191000A04670BD002144462468002CF4D1013B50
:10192000136099000B5841460B6013686246013BF7
:1019300013604A469B001B5801211360E4E7012114
:1019400011604168316061460C602C68D7E7C04681
:10195000FFFFFF3F70B505001C008A420DD0180044
:10196000A94209DC0498AA4206DB6D1AC01A684332
:10197000511AFEF76FFC001970BD049B9C4664442D
:10198000E00F00194010F7E71A2110B5024B034A87
:1019900003480AF017FFC04614F2000848F2000896
:1019A00018F20008242110B5024B034A03480AF03C
:1019B00009FFC04614F2000838F2000818F20008C7
:1019C000F0B5C6460A23012400B5234E86B005AD06
:1019D0002870984602936B224421300001940095B0
:1019E000093B03F01BFA002831D1434604AF3C7099
:1019F0006C2202934421012330000194009703F0EC
:101A00000DFA002823D1193002F08AFC43466722E0
:101A100002934421012330000194009503F0FEF964
:101A2000002816D143462D786822029344210123D1
:101A300030000194009703F0F1F9002809D107481C
:101A40003B780570437006B080BCB846F0BDFFF728
:101A50009BFFFFF7A7FFC0469C030020F802002071
:101A6000F0B500220A2601258DB0A14C09AB1A70F1
:101A70004421009320000123029601950D3203F0CA
:101A8000CDF9002800D031E1052708AB1F700E22E8
:101A900000934421012320000296019503F0BEF932
:101AA000002800D022E1452207AB1A7044210093A0
:101AB0002000012302960195363A03F0AFF9002881
:101AC00000D013E106AB1F700B22009344210123C9
:101AD00020000296019503F0A1F9002800D005E14D
:101AE000032205AB1A7044210093200001230296C3
:101AF0000195063203F092F9002800D0F6E0792231
:101B00000BAB1A704421009320000123029601952B
:101B1000143A03F083F9002800D0E7E082220AABF0
:101B20001A70442100932000012302960195513A36
:101B300003F074F9002800D0D8E00A3002F0F0FB7E
:101B40000020FFF73DFF0120FFF73AFF01784278C0
:101B50000B0213430904674C12060B431343022084
:101B6000A362FFF72DFF0320FFF72AFF01784278D9
:101B70000B021343090412060B4313430420E362D0
:101B8000FFF71EFF0520FFF71BFF017842780B02CD
:101B90001343090412060B43134306202363FFF784
:101BA0000FFF0720FFF70CFF017842780B02134369
:101BB000090412060B43134308206363FFF700FF79
:101BC0000920FFF7FDFE017842780B021343090458
:101BD00012060B4313430A20A363FFF7F1FE0B2009
:101BE000FFF7EEFE017842780B0213430904120658
:101BF0000B4313430C20E363FFF7E2FE0D20FFF7D6
:101C0000DFFE017842780B021343090412060B43EE
:101C100013430E202364FFF7D3FE0F20FFF7D0FEFF
:101C2000017842780B021343090412060B43134355
:101C300010206364FFF7C4FE1120FFF7C1FE017896
:101C400042780B021343090412060B43134312207C
:101C5000A364FFF7B5FE1320FFF7B2FE01784278C8
:101C60000B021343090412060B4313431420E364CD
:101C7000FFF7A6FE1520FFF7A3FE017842780B02BE
:101C80001343090412060B43134316202365FFF781
:101C900097FE1720FFF794FE017842780B0213435A
:101CA000090412060B43134318206365FFF788FEEF
:101CB0001920FFF785FE017842780B0213430904CF
:101CC0000B43120613432A20A365FFF779FE4278DF
:101CD000037812029B182B206384FFF771FE427871
:101CE000037812029B18A3840DB0F0BDFFF74CFEE1
:101CF0009C0300209C020020002313807047C046F4
:101D00007047C046012313707047C04610B50122CA
:101D10000121024802F046FF10BDC04600040050F9
:101D2000002313807047C0460023012130B50F4CBB
:101D300083B022680193936A0500DB0CDB04936295
:101D4000936A00910B4393626946200002F0CEFC37
:101D5000200002F02FFC0121200002F057FC20009F
:101D600002F0C0FC288003B030BDC0460003002054
:101D700070B50500140082B0012903D0012323703F
:101D800002B070BD0023104E019332680F4B013139
:101D90000093936A3000DB0CDB049362936A0B437D
:101DA0009362694602F0A2FC300002F003FC0121BC
:101DB000300002F02BFC300002F094FC80B200F006
:101DC000C3FD2880DAE7C0460003002002000004BB
:101DD00010B504000AF068F80023054A126812687A
:101DE0005362536AA342FCD30AF06AF810BDC0469E
:101DF0000800002070B501250A4C0B4A6369118860
:101E00002B436361094B186802F0C6FE012804D019
:101E100000206369AB43636170BD636983436361A1
:101E2000FAE7C04600040050000000200400002033
:101E3000034A044B12681B8851690B435361704776
:101E40000400002000000020034A044B1268198897
:101E500053698B4353617047040000200000002049
:101E6000034B04491A6813680B4013607047C0465F
:101E700004000020FFF3FFFF8023034ADB00126809
:101E800011680B431360704704000020F0B54E4604
:101E9000DE4645465746E0B5814683B0C820FFF789
:101EA00097FF0825CC24012613E0FFF7C1FF32205D
:101EB000FFF78EFF6408FFF7D3FFC046C046C04659
:101EC000C046C046C046C046C046C046013D002D83
:101ED0000BD0FFF7D1FFFFF7B7FF0720FFF778FF21
:101EE0002642E2D1FFF7B0FFE1E7C820FFF770FF1D
:101EF0000825BE24012613E0FFF79AFF3220FFF7E2
:101F000067FF6408FFF7ACFFC046C046C046C04646
:101F1000C046C046C046C046C046013D002D0BD05D
:101F2000FFF7AAFFFFF790FF0720FFF751FF2642B8
:101F3000E2D1FFF789FFE1E7C820FFF749FF02ABD5
:101F4000984600239B46743B6E4601259A46082717
:101F50000024FFF779FFFFF78FFFC046C046C04659
:101F6000FFF77EFFFFF746FF6408C0010443013F0F
:101F70003020FFF72DFFE4B2002FEAD13470C820E3
:101F8000FFF726FF5B465C406308DBB2254202D0C8
:101F900052465340DBB21D4268D15B081D4260D1FE
:101FA0005B081D4258D15B081D4250D15B081D42A1
:101FB00048D15B081D4240D15B081D4237D15B0808
:101FC0009B4601364645C2D16B465A781B781202B1
:101FD0009B184A46C8201380FFF7FAFE0825002404
:101FE000FFF732FFFFF748FFC046C046C046FFF785
:101FF00037FFFFF7FFFE6408C0010443013D3020B6
:10200000FFF7E6FEE4B2002DEAD100205C4507D0E0
:10201000AE220130184B1949FF3201F0E3F90320D9
:1020200003B0F0BCBB46B246A946A046F0BD52463E
:102030005B085340DBB29B46C3E752465B08534004
:10204000DBB2BAE752465B085340DBB2B2E7524616
:102050005B085340DBB2AAE752465B085340DBB251
:10206000A2E752465B085340DBB29AE752465B0850
:102070005340DBB292E7C04658F200086CF2000809
:10208000F0B5DE4657464E464546E0B587B002F00D
:102090008DF8FFF7CDFEFFF7EFFEFFF7E1FEC24B35
:1020A00000249946C14BC24D9A46C24B039311E09E
:1020B000002B17D0012B60D000202A7001900094D3
:1020C0005346302249460120013401F08BF9142C8B
:1020D00000D1C3E0002302A9CB812B780022022B80
:1020E000E6D12A7009F0E0FEFFF7C6FEFFF7ACFE6E
:1020F000FA204000FFF76CFEFFF7B2FE0120FFF769
:1021000067FEAD4F02E0013F002F6AD0FFF772FE7D
:1021100006000128F7D0FFF76DFE0028FBD0322023
:10212000FFF756FE08239846073BCC269B4617E050
:10213000FFF77EFE3220FFF74BFE7608FFF790FE9A
:10214000C046C046C046C046C046C046C046C0465F
:10215000C04601235B429C46E0444346002B49D0E5
:10216000FFF78AFEFFF770FE0720FFF731FE5B46A0
:102170003342DDD1FFF768FEDCE709F095FEFFF79B
:102180007BFEFFF761FEFA204000FFF721FEFFF71C
:1021900067FE0120FFF71CFE874E02E0013E002E85
:1021A00023D0FFF727FE0128F8D0FFF723FE0028F1
:1021B000FBD002AA94460E2363441800FFF766FE84
:1021C000060009F07DFE002E4FD0300003262E7051
:1021D00049460090039B0120784A01F003F9002052
:1021E0006CE709F06DFE0120F1E709F069FE0326B6
:1021F0000120ECE73220FFF7EBFD08239846073B70
:1022000044269B4617E0FFF713FE3220FFF7E0FD60
:102210007608FFF725FEC046C046C046C046C04609
:10222000C046C046C046C04601235B429C46E044CF
:102230004346002B0CD0FFF71FFEFFF705FE0720DB
:10224000FFF7C6FD5B463342DDD1FFF7FDFDDCE75E
:1022500009F036FE012300202B702FE707B0F0BCF9
:10226000BB46B246A946A046F0BD02ABD889802342
:102270001B0298425ED2FFF759F9FE2300229B050C
:10228000FEF792FEFFF778F9834602232B7009F0E0
:102290000BFEFFF7F1FDFFF7D7FDFA204000FFF737
:1022A00097FDFFF7DDFD0120FFF792FD424E02E0B2
:1022B000013E002E33D0FFF79DFD0128F8D0FFF737
:1022C00099FD0028FBD03220FFF782FD0823CC26A1
:1022D000984617E0FFF7ACFD3220FFF779FD76084E
:1022E000FFF7BEFDC046C046C046C046C046C04619
:1022F000C046C046C04601235B429C46E04443467C
:10230000002B25D0FFF7B8FDFFF79EFD0720FFF754
:102310005FFD01233342DDD1FFF796FDDCE709F0D5
:10232000CFFD012326492B705846FEF7DDFAFEF754
:1023300029F9C3E6C0434004400C0130FFF7F6F82A
:102340000022204BFEF730FEFFF716F983469CE78C
:102350003220FFF73DFD08234426984617E0FFF79B
:1023600067FD3220FFF734FD7608FFF779FDC046A0
:10237000C046C046C046C046C046C046C046C0462D
:1023800001235B429C46E0444346002BC7D0FFF745
:1023900073FDFFF759FD0720FFF71AFD01233342B4
:1023A000DDD1FFF751FDDCE76CF200089CF200087C
:1023B000FA0200208CF20008E90300000E0200007F
:1023C0000000C842000080BF0023102130B50F4C30
:1023D00083B0226801930E4B05000093936A20009E
:1023E000DB0CDB049362936A0B439362694602F051
:1023F0007DF9200002F0DEF80121200002F006F94C
:10240000200002F06FF9288003B030BD00030020E7
:102410001000001010B5FFF72FFDFFF715FDFA2093
:102420004000FFF7D5FCFFF71BFD0120FFF7D0FCB4
:10243000084C02E0013C002C09D0FFF7DBFC01282E
:10244000F8D0FFF7D7FC0028FBD0012010BD0020FA
:10245000FCE7C046E9030000F0B585B000236946FB
:10246000CB81A74BA74E0360337805000022022BD7
:1024700032D0002B31D0012B2AD109F015FDFFF706
:10248000FBFCFFF7E1FCFA204000FFF7A1FCFFF79F
:10249000E7FC0120FFF79CFC9B4C03E0013C002C77
:1024A00000D16BE0FFF7A6FC0128F7D0FFF7A2FCF4
:1024B0000028FBD00E236B441800FFF7E7FC040054
:1024C00009F0FEFC002C00D18AE0200003244BE040
:1024D0000020327005B0F0BD327009F0E5FCFFF766
:1024E000CBFCFFF7B1FCFA204000FFF771FCFFF7CF
:1024F000B7FC0120FFF76CFC834D02E0013D002D8D
:102500002FD0FFF777FC04000128F7D0FFF772FC0B
:102510000028FBD03220FFF75BFC0825CC240127E4
:1025200013E0FFF785FC3220FFF752FC6408FFF749
:1025300097FCC046C046C046C046C046C046C046DE
:10254000C046C046013D002D1DD0FFF795FCFFF7AA
:102550007BFC0720FFF73CFC2742E2D1FFF774FC2D
:10256000E1E709F0ADFC01203470684B0090684948
:102570000120684A00F036FF3078ABE709F0A0FC94
:1025800003240120F0E73220FFF722FC0825442431
:10259000012713E0FFF74CFC3220FFF719FC640819
:1025A000FFF75EFCC046C046C046C046C046C046B7
:1025B000C046C046C046013D002D0BD0FFF75CFC75
:1025C000FFF742FC0720FFF703FC2742E2D1FFF7A9
:1025D0003BFCE1E709F074FC01230120337079E74B
:1025E0006B46D88980231B02984254D2FEF79EFF87
:1025F000FE2300229B05FEF7D7FCFEF7BDFF02235A
:102600002860337009F050FCFFF736FCFFF71CFC24
:10261000FA204000FFF7DCFBFFF722FC0120FFF768
:10262000D7FB394C02E0013C002C2ED0FFF7E2FB37
:102630000128F8D0FFF7DEFB0028FBD03220FFF79F
:10264000C7FB0825CC24012713E0FFF7F1FB32205C
:10265000FFF7BEFB6408FFF703FCC046C046C04658
:10266000C046C046C046C046C046C046013D002DDB
:102670001ED0FFF701FCFFF7E7FB0720FFF7A8FBE1
:102680002742E2D1FFF7E0FBE1E709F019FC012363
:10269000022033701EE7C0434004400C0130FEF7B7
:1026A00045FF00221C4BFEF77FFCFEF765FFA6E707
:1026B0003220FFF78DFB08254424012713E0FFF7A4
:1026C000B7FB3220FFF784FB6408FFF7C9FBC04665
:1026D000C046C046C046C046C046C046C046C046CA
:1026E000013D002DD1D0FFF7C7FBFFF7ADFB072061
:1026F000FFF76EFB2742E2D1FFF7A6FBE1E7C046FA
:102700000000C8C2FA020020E90300008CF20008B1
:102710006CF200080E020000000080BFF0B5DE463B
:102720004E4645465746E0B583B00500140000F01C
:1027300057FF3D4E3000FFF78FFE01286FD0022873
:1027400057D03A4A00909046012063224146384BC8
:1027500000F048FE00233768191C381C9946FDF725
:1027600077FE002857D1334B1A78002A32D13249EC
:10277000381CFEF7B9F88146FEF7A4FB82462F4BC2
:102780002D4918689B46FEF7AFF8FEF79BFB5346B2
:10279000181AC317C0185840294B984222DD7722D7
:1027A00041460120274B00F01DFE5B461868224978
:1027B0003060FEF799F8FDF7E5FE80B2288000F062
:1027C00005FF0123237003B0F0BCBB46B246A94607
:1027D000A046F0BD18701849381CFEF785F8174B55
:1027E00081469B465B4648461F60FDF7CBFE80B2A4
:1027F000E4E70E4B104930689846FEF775F8FDF790
:10280000C1FE114F80B200903B005F224146012083
:1028100000F0E8FD9EE74B4600203360CEE7002342
:10282000237000F0D3FECEE7100000206CF2000809
:10283000CCF200080C0000200000C842FC0200207E
:10284000DC050000E0F20008B0F20008F0B55746E1
:102850004E464546DE46E0B5394B07000D001600F2
:102860008DB0994207D864212800FDF769FC83B236
:102870009846332B08D1002333800DB0F0BCBB4603
:10288000B246A946A046F0BD0023049305930693E3
:102890000793089309930A930B934346DC0044443F
:1028A0006400284B444424019B46E0184C239A467C
:1028B000029307AB019305AB3900009304AA06AB62
:1028C000FEF7F0FF534681462000029331300BABF8
:1028D0000193FF3009AB009339000AAB584408AAB2
:1028E000FEF7E0FF4B46002BC5D00028C3D0642480
:1028F000089A0698624308920A9A049B62430A92D5
:10290000424660436343059954430690079A0090FA
:1029100038000493FFF71EF880460A98089B0B9A2C
:10292000099900903800FFF715F8220000904346FF
:10293000210028006432FFF70DF830809DE7C04683
:102940004F14000008F300080100FA2070B580035E
:1029500088B0FDF77FFC194B0024C11800292ADD3F
:102960001748FDF777FC7E230500029305AB019322
:1029700004AB2900009306AA07AB124804940594FF
:1029800006940794FEF78EFF2800069B079D0E4EC7
:102990009B00AD009B59059A0499AD59643463437B
:1029A0006243614360436C430094FEF7D3FFC3432B
:1029B000DB17184084B2200008B070BD18FCFFFF80
:1029C00080969800982F01089031010810B582B0C8
:1029D0000822002168460AF012FD80200121264CC1
:1029E000264BC0022360606040230720E163216121
:1029F000C2216364A063002300200422FF316162CE
:102A00009639FF396054238420002264A364A360B4
:102A1000E360A36262612363A3616363E36101F026
:102A2000E9FC00281CD101230093802369465B0147
:102A30002000019301F05AFE00281AD1104B69467C
:102A40002000009301F052FE00280FD10D4B694683
:102A50002000009301F04AFE002804D102B010BD0E
:102A600000F04AFEDFE700F047FEF7E700F044FE23
:102A7000ECE700F041FEE1E7000300200024014004
:102A8000020000041000001010B5040088B01422E9
:102A9000002102A80AF0B3FC0E4B22689A4201D032
:102AA00008B010BD80220C4B9200596BA0200A4345
:102AB0005A630122D96AC0051143D962DB6A02A9AF
:102AC0001A400192019B132203230292039301F007
:102AD00057FFE5E7002401400010024010B50378DD
:102AE0008AB0082B20D8334A9B00D3589F46324BDC
:102AF00032494E22012000F075FC314B02A90293AD
:102B000001230B712F4B1B68002B44D01A7D4A7197
:102B10002D4ACA805B7D0B7207234B702B4B002222
:102B20001868002307F0EAF90AB010BD8278284C33
:102B3000284B22700120009220495C2200F052FCB8
:102B40002378002B2DD00122234B1B681A71EBE751
:102B50008478631E632BE7D86F2201201F4B17492F
:102B6000009400F03FFC00F03BFD1D4B1C7000F09A
:102B70002DFDD9E7032302A90B701A4B4B80BFE749
:102B80008278194B01201A700C490092174B56227B
:102B900000F028FCC8E7FF234B710B4BCB800023D0
:102BA000B9E701210C4A12681371114A1170114AD8
:102BB0001370B9E71034010888330108A433010801
:102BC0000302010338000020646400009003002029
:102BD0007E030020E033010834000020F8330108B0
:102BE0003C000020010300007F030020C0330108E7
:102BF000140000205C03002070B50D4C2378002BDE
:102C000004D0002323700278002A00D170BD094A45
:102C1000094D137043780178821C280000F000FFF2
:102C200081B2280009F038FB01232370EEE7C0468B
:102C3000140000205C0300206003002010B588B061
:102C40006C46032805D01FD8012827D0022812D1AE
:102C5000607003232370234B638001232371224B75
:102C60001B68002B37D01A7D6271204AE2805B7DA1
:102C70002372072363701E4B002221001868002373
:102C800007F03CF908B010BDFF28F4D11122194912
:102C9000A01C0BF0E7F8184B2380ECE7124BA07058
:102CA0001B681A7DE270114AA2805A7DA27100222F
:102CB000E271DA892281114A12886281104A1288EF
:102CC000A2811A8A5B8AE28123820E4B1B78A3744D
:102CD0000D4B2380CFE7FF236371044BE380002378
:102CE000C6E7C0460103000038000020646400000D
:102CF0009003002034340108FF100000EE03002090
:102D0000F40300203D00002001110000FA22F0B57C
:102D1000022185B00120520000F00CFB03223F4D40
:102D20000192023A3E4B290001200092D73200F076
:102D300059FB00213B4801F045FDDB222900012021
:102D4000394B00F04FFB394C394A3A49A261626372
:102D5000394AA1602263394A6162A263384A142168
:102D6000E263384A05232264374A38482265442200
:102D7000A152374A374EE264374A384F6265384AC3
:102D80006060A265374AA38120622385266067615F
:102D9000E661E265344A2900E2666022A352334BC1
:102DA0000120A366A632324B00F01CFBFF236A46CB
:102DB000D373F03B6B44180001F026F86B46D87BC8
:102DC000FF2818D0C3001B1A2A4A9B001B19136046
:102DD00001F07CF80E22009029000120264BFF32E2
:102DE00000F000FB00F0F2FD00F0F0FB002008F026
:102DF000E9F805B0F0BDFF2001F068F812222900C3
:102E000000901E4B0120FF3200F0ECFA0022194B1B
:102E1000012100201A6000F08DFAE3E76434010814
:102E200048340108000300207C340108E805002034
:102E3000211D00080D1D000801010100C923000823
:102E40001D270008812000084D280008711D00087A
:102E500002000001291D0008011D000800010200F8
:102E6000051D0008611A0008F91C00080300000293
:102E70008C34010838000020C8340108DC34010813
:102E800010B56A220120164B164900F0ABFA00F08B
:102E9000A7FB00220A21144B14481B681A705A70B1
:102EA0009A70D9701A715A719A71DA7106F0A4FE8B
:102EB0000F4B002218602021042006F0D9FF0D4B93
:102EC000002218602021042006F0D2FF0A4B0021C6
:102ED00018600A4A0A4806F09BFD0A4B186010BDAC
:102EE000F03401086434010834000020C8350108BA
:102EF000980300208803002090030020A4350108D7
:102F00000D2D00089403002030B589B01422002153
:102F100002A80AF074FA01221D4BA025D96A1D4CA3
:102F20001143D962D96AED050A400092009A022243
:102F3000D96A28001143D962DB6A20211A40019224
:102F40000022019B01F02EFE20000022124901F018
:102F500029FE20000122382101F024FE2022012335
:102F60000292039300220223280002A904920593EF
:102F700001F006FD0123094A20000292039300227A
:102F8000002302A90492059301F0FAFC09B030BDB8
:102F90000010024000040050018000003980000051
:102FA00010B5194B194C01222360194B20006360A6
:102FB0000023E260A36023616361A361E361236294
:102FC00001F0D2FE00280CD10021200002F0A4FB69
:102FD00000280ED10021200002F0C4FB002810D1EF
:102FE00010BD00F089FB0021200002F095FB0028B5
:102FF000F0D000F081FB0021200002F0B3FB00289C
:10300000EED000F079FBEBE7005400409C03002079
:103010008266500010B5040088B01422002102A876
:103020000AF0EDF9144B22689A4201D008B010BDA5
:103030000223124C02A9E26A11481A43E262E26AD0
:1030400013400193C022019B122302920393032396
:103050000593023B069301F093FC8023A26B9B0334
:103060001343032100221720A36301F001FC172062
:1030700001F030FCDAE7C046005400400010024086
:1030800000040050F8B5CE464746454D04002E8852
:10309000002080B5002E03D0A01BFDF733FF3400C5
:1030A000404B1968FDF720FCFDF70CFF2418A4B273
:1030B0002C803D4D2E68002E0BD1642363432B6082
:1030C0003A4B1E703A4B30001C80C0BCB946B0462B
:1030D000F8BD64276743B81BFDF714FF3549FDF7BA
:1030E00003FCFDF7EFFE8619642130002E60FDF72A
:1030F000B1F8031BDA179B1853402F4A126893420A
:103100001EDA2E4B98461B78002B2AD02C4C2368B5
:10311000002B42DC424601231370244A1678002E0D
:1031200035D0284B21681B68994230DD002364218B
:10313000236028681370FDF78DF8002684B2C1E77C
:103140001E4B98461B78002B1BD00122174B844244
:1031500000DC002241461A7000220A7018490A60F9
:1031600012E004239946164CB81BFDF7CBFE164916
:10317000FDF7BAFBFDF7A6FE4B46801928602360D9
:10318000C8E70F4A1360094B1E782F609AE7642145
:103190002868FDF75FF884B294E7013B9946E3E7BE
:1031A000EE03002018000020F0030020EC030020B4
:1031B000F40300200AD7A33B200000201C000020BD
:1031C000E8030020240000209A99993E014B1860E2
:1031D0007047C0462000002000230021044A1380CD
:1031E000044A1360044A1170044A13607047C046D1
:1031F000EE030020F0030020EC030020E803002091
:10320000F0B5C64600B51E4D82B0286800282FD004
:1032100006F0C4FC1B4E2868716806F097FC002875
:1032200021D0194B00249846184F434632223900CA
:103230000120009400F0D6F87168286806F086FC3A
:10324000013400280FD00A2CEFD107F09BFF104B60
:1032500039221860390001200E4B00F0C3F802B08B
:1032600080BCB846F0BD07F08DFF094B1860F6E74B
:1032700000220121084B094806F028FC2860C7E716
:10328000F803002028000020D8350108F435010893
:10329000FC0300200836010860360108A13200084E
:1032A000214B1A78002A07D09A68D10705D4382014
:1032B0001E49886101329A60704759780529F9D80A
:1032C0001B48890041588F46382018498861802062
:1032D00080038861802040038861EBE73820134930
:1032E0008861802040038861802000038861E1E7D5
:1032F00038200E498861802080038861DAE7382011
:103300000A498861802040038861D3E73820074953
:103310008861802000038861CCE7382003498861F8
:1033200080208003DCE7C046280000200004005015
:1033300024360108224B10B51C78002C1DD05A6091
:103340000022587099709A6005280FD81D4A800095
:103350001258974638201C4A906180208003906163
:10336000802040039061802000039061022902D0F8
:10337000012252425A60FFF743FF10BD3820124A23
:103380009061802080039061802040039061EDE790
:1033900038200D4A9061802000039061E6E73820D4
:1033A000094A9061802040039061DFE73820064A97
:1033B0009061802080039061D8E73820024ACEE7F0
:1033C000280000203C360108000400508021044BF6
:1033D0001B68DA691142FCD0FF2202409A627047F2
:1033E0004407002008B4F0B54646D6464F460D00C7
:1033F000C0B5140006008FB01422002107A809F000
:10340000FEFF179B099508934F4B0C9498465B68F9
:103410000D96002B03D04246012011689847434681
:103420001B7B002B03D143469B68B34237DD474CDF
:1034300018AD27008137FF3702E00C34BC4213D0AF
:103440002368002B10D0A368B342F6DC636899466A
:103450000A9B002B19D04B4607950B9307A82368AE
:103460000C349847BC42EBD143465B68002B03D039
:1034700042460020116898470FB0E0BCBA46B146FA
:10348000A846F0BC08BC01B0184700200AF0DEF8DE
:103490000290039102A809F0BBFF0A90DBE72C4BD6
:1034A0001B68DC680A9B002B43D018AB07930B9476
:1034B00006F098FAFA2189000700FCF741FE3C214A
:1034C0000400FCF73DFE3C210500FCF7BFFE280090
:1034D0008A463C21FCF734FEFA21814689003800F7
:1034E000FCF7B4FE200001913C21FCF7AFFE194D22
:1034F00053464A46009102A8290009F059FE0D9A48
:10350000154B9200D3580C9A14490192099A0B98C2
:10351000009202AA09F0BAFD079A08990B9809F0DF
:10352000B3FA0B990A2009F0E7FD0B9809F0EEFCBD
:103530007DE700200AF08AF80290039102A809F0C2
:1035400067FF0A90B1E7C046000400201004002085
:103550002402002070360108C436010884360108B0
:103560000A480B4B70B50024002503600023094A6C
:1035700004624562436083604261836202F020F925
:10358000002800D170BD00F0B7F8FBE790050020DF
:10359000007C0040FFFF00000A4B026810B59A4211
:1035A00000D010BD8023084A1B06916B0D200B43F1
:1035B00093630321002201F05BF90D2001F08AF9E9
:1035C000EFE7C046007C004000100240B92110B572
:1035D0000248490002F04AFA10BDC046900500209A
:1035E00010B5024802F09AFA10BDC04690050020BE
:1035F00000B59DB0242200210FA809F000FF14227D
:103600000021684609F0FBFE2422002105A809F0EC
:10361000F6FE2249224B0A680EA81A4080231B019D
:1036200013430B602A2310220E93293B119312920D
:1036300013930222149300231892199380230022DB
:10364000DB031A921B9303F0A1FA002801D072B693
:10365000FEE70F220323009201930022002304902F
:10366000012168460292039303F096FD002801D0E1
:1036700072B6FEE7C92305938023DB040D938023F4
:1036800007900A90DB0205A80C9303F0B3FE002814
:1036900001D072B6FEE71DB000BDC046007000400C
:1036A000FFE7FFFF10B500F015FEFFF7A1FFFFF7E2
:1036B0002BFCFFF78BF9FFF773FC00F08BFDFFF796
:1036C0004FFF00F023FD002201210120FFF732FE11
:1036D00008F03CFD06F04AF9FFF7D2FB06F062F96C
:1036E000FEE7C0468023026810B5DB059A4200D091
:1036F00010BD00F003FEFBE772B6FEE70023037681
:103700000B040B4343608360C360036143618B0020
:103710005B185B000360704770B50400007E25688D
:103720004300E3189A884D19AD1A2560013099803D
:103730000A21FCF775FE280021760A21FCF700FD1E
:1037400080B270BDF0B5DE4657464E464546E0B500
:10375000704C89B02368002B33D09B68002B30D08D
:103760009847236818001B680E30984706AA9446AD
:10377000072363449A4600235246137023681800B7
:10378000997D10305B689847642000F0C9FD23687C
:1037900052461800997D10305B6898472368D98994
:1037A0005D4B18009B46FFF7A9FF2368198A5B4B06
:1037B00018000493FFF7A2FF2368D889FFF70CFDD8
:1037C00008E006AA9446073363449A46524B9B4648
:1037D000524B0493524B534F9846534B534E0193C5
:1037E000534B0593534B0293534B03930123994639
:1037F00001210020494207F001FF012138684942B8
:1038000006F008FF2368002B76D042460198117815
:10381000027891422AD042460378DBB213701278C4
:10382000D3009B1A059A9B00944663449A682360D0
:10383000002A01D09047236818001B680E30984773
:1038400023685846D989FFF759FF23680498198AD5
:10385000FFF754FF2368D889FFF7BEFC23689889D7
:10386000FFF7B4FC4A4633685A71236818001B6896
:103870000E309847326858465379013353712368A4
:10388000D989FFF749FF2368D881FFF7FBFB029B2B
:10389000187020688369002B04D00200018A12325C
:1038A000C089984735686B78002B0ED000235246AC
:1038B0006B70137023681800997D10305B6898470F
:1038C00053461B78002B1ED135684B46039AAB71CB
:1038D0006B79642011780093FCF7BCFC009B80B2EC
:1038E000834209D30023AB714B466B712B79002BBC
:1038F00002D00120FFF7A2F900230022002138683E
:1039000006F0FCFA74E725680498298AFFF704FF9B
:103910002882D9E7380000205C060020C00500207E
:10392000E405002098030020580600203400002001
:10393000E80500203D0000203C00002070B58A22F0
:103940000120084B0849FFF74DFD084C084D0122A6
:1039500021002868524206F0F9FC2000FFF7BEF86B
:10396000F5E7C046DC360108F0360108780600208D
:103970008803002070B5A02201200F4B0F49FFF7EC
:1039800031FD0F4D0F4E104C01222900306852427C
:1039900006F0DCFC01212068494206F03BFE0128CC
:1039A000F2D12800FFF728F9002300220021206827
:1039B00006F0A4FAE8E7C04608370108F036010827
:1039C00098060020900300209803002010B50021E5
:1039D0000A4A0B4806F01CF80A4B002118600A4AF4
:1039E0000A4806F015F80A4B00211860094A0A48EF
:1039F00006F00EF8094B186010BDC04638350108B6
:103A000045370008800300205C3501083D39000877
:103A10008403002080350108753900088C030020DC
:103A2000F0B54E46DE4657464546E0B506001F0057
:103A3000EE23080033707B1DDBB2110073703A0077
:103A4000B07083B0F01C98460AF00CFAFF22110007
:103A5000FB1C19408946F2541A4200D19BE0032412
:103A600073421C400B00013B092B00D895E0002C51
:103A700000D189E032780092012C00D181E0944697
:103A800073786344DAB20092032C00D080E094464D
:103A9000B3786344DBB20093032301934B461B1BB3
:103AA0009B469B089B009C4634193D4BA4446546AD
:103AB00000219A46B4463B4808CC0E001A004B4001
:103AC0005146064002400B40B2185A401100A54230
:103AD000F2D113041B0ED318009A664694460A02CC
:103AE000120E63449B18090E03225B18594691433A
:103AF000019ADBB28A188B4539D0B15C5B18511C36
:103B0000DBB2494533DA715C5B18911CDBB2894545
:103B10002DDD715C5B18D11CDBB2894527DD715C42
:103B20005B18111DDBB2894521DD715C5B18511DED
:103B3000DBB289451BDD715C5B18911DDBB28945E9
:103B400015DD715C5B18D11DDBB289450FDD715C41
:103B50005B1811000831DBB2894508DD715C093260
:103B60005B18DBB2914502DDB25C9B18DBB24046CC
:103B7000F619337103B0F0BCBB46B246A946A04665
:103B8000F0BD0123019389E700230093019385E7AA
:103B90000223019382E70023E9E700230022ACE738
:103BA000808080807F7F7F7FF0B55746DE464E461F
:103BB0004546E0B50700002900D18FE003224342CB
:103BC0001A404B1E092B00D88AE0002A00D17EE063
:103BD00003789A46012A00D176E043785344DBB259
:103BE0009A46032A00D076E083785344DBB29A46A3
:103BF00003239C468B1A980899463B4B0025984610
:103C0000BA188000394E80182C0008CA3440A346E8
:103C10001C006B40454634402B405C445C40250012
:103C20008242F1D123041B0EE318534418002302EF
:103C30001B0EC018230EC0184A4603239A4363463E
:103C4000C0B2D318914539D0FA5C80185A1CC0B262
:103C50008A4233DABA5C80189A1CC0B291422DDDD8
:103C6000BA5C8018DA1CC0B2914227DDBA5C8018B9
:103C70001A1DC0B2914221DDBA5C80185A1DC0B233
:103C800091421BDDBA5C80189A1DC0B2914215DDCD
:103C9000BA5C8018DA1DC0B291420FDDBA5C8018A0
:103CA0001A000832C0B2914208DDBA5C09338018AC
:103CB000C0B2994202DDFB5CC018C0B2F0BCBB468A
:103CC000B246A946A046F0BD01239C4692E70023D8
:103CD0009C469A468EE702239C468BE70020EDE740
:103CE00000230020B0E7C046808080807F7F7F7FF8
:103CF00000B589B01422002102A809F080FB02233C
:103D0000174A1848D16A1943D1628021D26A090240
:103D1000134001930022019B00F044FF8022002306
:103D20001202029203930122002302A90D48049279
:103D3000059300F025FE322000F0F2FA80210948B8
:103D4000090200F029FF084A1378012804D008214D
:103D50008B43137009B000BD07218B43F9E7C046C0
:103D60000010024000040050B806002010B586B0D4
:103D700014220021684609F042FBA0200022022103
:103D8000C00500F00FFF02220023A0200092019343
:103D9000002300226946C0050292039300F0F0FD63
:103DA00000220121164800F0FDFE322000F0B8FA92
:103DB000A0200221C00500F0EFFE124C237801285C
:103DC0001AD003229343012201210D48237000F0F1
:103DD000E9FE322000F0A4FAA0200221C00500F084
:103DE000DBFE2378002804D103229343237006B01E
:103DF00010BD08229343F9E70C229343E3E7C04642
:103E000000040050B80600200F23012270B50226DE
:103E10002A4C88B023702A4B0500D96A04A81143A4
:103E2000D962D96A0A400092009ADA6A00213243C4
:103E3000DA62DB6A0C2233400193019B09F0DFFA5E
:103E4000012301221F4802A90292039300F098FD6A
:103E5000FFF74EFFFFF78AFF1B4B1B6C002B25D093
:103E60009847FEF7D7FAC0B2237800281CD0012665
:103E7000B3432370FFF748F8FEF7A8FD2378002B23
:103E80000CD019005A1E1140134207D1042B12D036
:103E900006D8012B0CD0022B00D12B7008B070BDBE
:103EA000082BFBD12970F9E7B343E0E72378DEE77D
:103EB00003232B70F2E72E70F0E7C046B80600200F
:103EC0000010024000040050E8050020082803D834
:103ED000024B8000C05870470148FCE7703701086A
:103EE0001C3701080121084B10B55A6B02200A4308
:103EF0005A638022996B52050A439A630321002278
:103F0000404200F0B5FC10BD0010024070B5010049
:103F100086B0002206000F2000F0AAFC0F2000F05F
:103F2000D9FC01211B4A01A8936B0B43936369469B
:103F300003F040FA049B002B17D103F01BFA8023F7
:103F4000154CDB052360154B1549E360FCF7F8F8C9
:103F500000230138606020002361A36003F056FB5A
:103F6000051E06D0280006B070BD03F003FA40001D
:103F7000E5E7200003F094FB051EF3D1032E01D9E1
:103F80000125EFE7002231000F2000F071FC054B06
:103F90001E60E7E700100240BC060020E7030000B7
:103FA00040420F004C000020FEE7C046FEE7C0463E
:103FB00010B5104801F066FC0F4B1B68D979002939
:103FC00010D101209A7818700132D2B29A700A2A60
:103FD00009D00A4B1868002804D0002302220021CF
:103FE00007F06AFB10BD58709970044B18680028E0
:103FF000F3D1F7E790050020340000208003002073
:1040000010B5024803F03EFC10BDC046BC060020BF
:10401000064810B503689A69E023DB001A4202D013
:1040200001F0AAF910BD01F043F8FBE79C03002062
:1040300010B5024803F0F6FC10BDC046440700204E
:1040400010B5024801F010FE10BDC046D04300205C
:104050000120704710B509F0C3FE1623036001204C
:10406000404210BD10B509F0BBFE16230360FEE709
:1040700070B5161E07DD0C008D1800E000BF207023
:104080000134AC42F9D1300070BDC04670B5161E87
:1040900007DD0C008D1820780134FFF797F9AC424A
:1040A000F9D1300070BDC046012040427047C04683
:1040B00080239B0100204B607047C0460120704761
:1040C000002070470C490D4A0300521A0C4910B5E4
:1040D0000868002804D0C318934206D80B6010BDAE
:1040E0000848C31808609342F8D909F079FE0C23F8
:1040F000036001204042F2E700020000005000206F
:1041000000070020584A00207047C04610B586B00E
:104110001022002102A809F072F908220021684645
:1041200009F06DF9164C174B174A2360182363608A
:1041300000232000A360E2602361636103F066FA5C
:10414000002814D1802320005B0102A9029303F010
:10415000D9FA002811D100220023694620000092DC
:10416000019303F01DFC002804D106B010BDFFF739
:10417000C3FAE7E7FFF7C0FAF7E7FFF7BDFAEAE7A8
:104180000407002000080140FFFF0000054B026803
:104190009A4200D070470421034A536B0B43536388
:1041A000F8E7C04600080140001002400421074B18
:1041B0005A6B0A435A635A6C0A435A64044B0339D4
:1041C0001A6813680B4313607047C0460010024022
:1041D000040700200C480D4B10B50360E1235B027F
:1041E0000C224360002342618360C36003618361EA
:1041F000C3610362436203F0B9FF002800D110BD20
:10420000FFF77AFAFBE7C046440700200038014078
:1042100010B5040088B01422002102A809F0EFF8BC
:10422000154B22689A4201D008B010BD8022134B72
:10423000D201596BA0200A435A630122D96AC005F2
:104240001143D962DB6A02A91A400192C022019B84
:104250000223D200029203930323059301330693B2
:1042600000F08EFB002203211B2000F001FB1B202D
:1042700000F030FBD8E7C046003801400010024093
:104280000D4885460D480E490E4A002302E0D458D9
:10429000C4500433C4188C42F9D30B4A0B4C00238E
:1042A00001E013600432A242FBD3FFF72DFF09F0B7
:1042B0009DFDFFF7F7F9FEE7005000200000002009
:1042C00080020020203C010880020020544A002087
:1042D000FEE700004021084A10B5136803200B4395
:1042E0001360FFF713FE041E02D00124200010BD4E
:1042F000FFF7F8FDFAE7C04600200240034A044BEE
:1043000011681B785B1813607047C046C80700200F
:1043100048000020014B18687047C046C8070020BD
:1043200070B50400FFF7F6FF0500631C02D0044BD4
:104330001B78E418FFF7EEFF401BA042FAD370BDD4
:1043400048000020032370B502680400916882B021
:104350000B40012B2DD09168234B194230D1012104
:1043600093680B439360214B21491868FBF7E8FEE3
:104370000190019B002B05D0019B013B0193019B08
:10438000002BF9D1FFF7C6FF236806001B68012543
:10439000DB070BD4FFF7BEFF2368801B0A2802D976
:1043A0001A68154216D01B681D42F3D0002002B0D7
:1043B00070BD11680B42F9D191680B4B1942CED0F8
:1043C0001022636D012013436365A36D0F3A1343FD
:1043D000A365ECE71022636D012013436365A36DB1
:1043E0002B43A365E3E7C04617000080440000208C
:1043F00040420F0070B5041E00D1A8E0436D002BB1
:1044000000D19AE0636DDB0628D423689A685207CE
:1044100024D4626D61490A400631FF310A43626566
:10442000032299680A40012A00D192E08020616845
:10443000C0054A005208824219D0802212069142D9
:1044400015D01A69564D920092081A61554A1068A3
:10445000284010601068014311600FE01022636D66
:1044600001201343636500225023E25470BD1A6992
:10447000920092081A611A690A431A611821DA68CF
:104480008A43DA60DA68A1680A43DA604549464837
:104490000A6802400A60626B0868520602430A60BA
:1044A00080229968520511424DD0DA683F49256B48
:1044B0000A40DA602022A05CE268D9682A430A43F5
:1044C000A16989030A43E169C9030A4341030A4315
:1044D0002C21615C49000A43216902394D4269413E
:1044E00089000A43C221DA60626AFF318A4204D03D
:1044F000A56AD9682A430A43DA602122A25C012A0C
:104500002BD0E16B012930D0012219690A4202D077
:1045100019699143196107215A6900208A435A6138
:104520005A69A16B0A435A6100230322A365636D94
:104530009343023A1343636598E75022836583549B
:10454000FEF7A2FA5EE799680A439A60ADE7012098
:104550008CE719680A4299D168E7002815D18022B2
:10456000D96852020A43DA60CBE71A691048656CD1
:1045700002401A61226C18692A43A56C2A4302433F
:104580001A611A690A431A61C5E72020616D014367
:104590006165A16D0A43A265B3E7C046FDFEFFFF5A
:1045A000FFFFC3FF08270140FFFFFFFD1902FEFFC9
:1045B00003FCFFFF036810B59A680400520721D47A
:1045C0005022815C01291DD001218154C269012A38
:1045D00012D1616D0C4A00201140802252000A4322
:1045E000626550210022A26562541C321A609A68EA
:1045F0004C390A439A6010BDFFF7A4FE0028FAD197
:104600002368E6E70220F6E7FEF0FFFFF8B544690D
:1046100005000E00082C04D003680C24DB68DB07BF
:104620004CD4FFF777FE07002A68731C28D1136863
:104630002342FCD08023696D9B000B436B65C02334
:10464000D1681B01194214D12023E95C002910D143
:10465000116809070DD59168490738D40C215368B2
:104660008B4353606B6D1E490B400431FF310B438C
:104670006B65AB690020002B01D10C331360F8BDD2
:1046800013681C42D6D1002E0CD1210013681940AA
:104690001C42CAD104226B6D032013436B65502367
:1046A000E954ECE7FFF736FE2A68C01BB042BCD9DC
:1046B0002100136819401C42B7D1EBE72022436D5B
:1046C0001343436500225023C2540120D7E7696D8C
:1046D0000B4301216B65AB6D0B43AB65C9E7C0466E
:1046E000FEFEFFFF0368186C7047C046502330B5CC
:1046F000C25C040083B0012A55D00122C254026872
:10470000906840072BD4294B486898422FD00D68F9
:10471000906A6B035B0B034393626B0317D5802393
:10472000234A1B0411680B431360224B224918686B
:10473000FBF706FD83001B185B000193019B002B18
:1047400005D0019B013B0193019B002BF9D1AD03E7
:1047500022D4502300220020E25403B030BD202197
:10476000626D01200A4362650022E254F5E70B689E
:10477000906A5903490B884390625A0304D50C4947
:104780000E480A6802400A609B03E2D5084A0C49B9
:1047900013680B401360DCE78023054ADB031168D4
:1047A0000B431360D5E70220D7E7C0460110000095
:1047B000082701404400002040420F00FFFF7FFF18
:1047C000FFFFBFFF502370B5C25C0400012A4BD02D
:1047D0000122C2540368023299680A40012A0BD1AF
:1047E00019680A4208D0436D1F3213434365012004
:1047F00050230022E25470BD626D1C490A4006310C
:10480000FF310A436265DE68DA6801318A43DA60A3
:104810008022996812060A439A60FFF77BFD050023
:1048200023689A68002A13DAFFF774FD2368401B97
:104830000A28F6D99A68002AF3DA1222636D012059
:104840009343023A1343636500225023E254D2E7B4
:104850000322D96816400E43DE60636D0020934347
:10486000023A13436365C3E70220C4E7FDFEFFFF7E
:1048700070B5002814DB154B03229C46FF238408E7
:1048800002401800C026D200890190400B4093409E
:10489000A4006444B600A55985432B43A35170BDC1
:1048A0000B4A0F239446032203401040FC321500AC
:1048B000C000890185400A408240083B9B089B005C
:1048C0006344DC69AC432243DA61E8E700E100E0DD
:1048D00000ED00E0002805DB1F2201230240934089
:1048E000014A13607047C04600E100E0252230B560
:1048F000815C0300022906D0213AC26301202422F0
:104900000021995430BD0E2401681C250868A0437D
:10491000086001200C6884430C60596C1C6C2940B1
:1049200005008D40656098540020E8E7252370B5A8
:10493000C25C022A03D0213BC363012070BD0E2458
:1049400002681C251168A1431160012114688C4381
:104950001460426C046C2A400D0095400022656092
:10496000C1542423C254836B002B02D098470020EB
:10497000E4E70020E2E7C0462523C05CC0B27047F0
:10498000F0B5DE4657464E464546E0B58B460968CB
:104990000022002383B000297CD001260C009E4019
:1049A0003440A24631426FD05C46032564682540FE
:1049B000AC46013D012D00D873E06546032D00D0C3
:1049C000B6E066469640F54300950768009D3D4079
:1049D0002E43C025AD0206602C4255D00127664EFD
:1049E000756B3D437563654E0237B4469D081F40A5
:1049F000BF00AD006544BC46AE680F27B1466646B1
:104A0000B7403E004F46B743B946A027FF05B8421E
:104A10001AD05B4FB84200D19CE05A4FB84200D147
:104A2000A0E0594F0326B84209D0584F0426B84297
:104A300005D0574EB0460526404500D006266746AD
:104A4000BE404F463743B9464E468027AE60564675
:104A5000504D7F02F6432D683C4200D077E0354050
:104A60004C4F3D607D68A7036ED43540494F7D6053
:104A7000BD68E70265D43540464FBD60FD68A402BD
:104A80005BD43540434CE5600C000133DC4002321E
:104A9000002C82D103B0F0BCBB46B246A946A0466A
:104AA000F0BD8568A94603259540A846ED434F46CD
:104AB00000954546AF435D46ED68B9462F009740E7
:104AC000B8464F4645462F43876045682F0001256D
:104AD000B74326092E409E403E434660C668009D6F
:104AE0002E40B0465E46B668474696403E43C66096
:104AF000674666469640022F00D066E7DD08AD00A7
:104B0000AC46844465462F6A07251D40AD00A84683
:104B100001970F254746BD40019FAF435D46019772
:104B200047462D69BD40019F2F4365462F624CE7E4
:104B300003259540ED430095D0E754462C432500CE
:104B4000A0E757463D4397E757463D438EE7574614
:104B50003D4385E766460127B7403E004F46374351
:104B6000B94671E7022637006646B7403E004F4619
:104B70003743B94668E7C0460010024000000140D4
:104B80000004005000080050000C005000100050BD
:104B9000001C00500004014000690840431E984179
:104BA000C0B27047002A01D0816170478162FCE782
:104BB0000223F0B5C64604000D00160098461027E3
:104BC00000B522686B1C46D102211020936919425E
:104BD00055D193691842F9D053689B0104D48023BE
:104BE0005168DB010B43536020276B1C27D1202128
:104BF00093691942FCD01023D3611033D3619369B8
:104C00009B0701D500239362012391690B4202D1D6
:104C100091690B43936153681A490B405360042216
:104C2000636C1343636441231C32E254002301206C
:104C30002232A354023AA35480BCB846F0BD936913
:104C40001F42D8D1FFF766FB801B854211D3002D90
:104C50000FD02268C9E74146936919420FD1936981
:104C60001F42B9D1FFF756FB801BA84201D8002D87
:104C7000A7D12022636C134363644123D5E700204E
:104C8000DAE7C04600E800FEF0B5C64604000D00B5
:104C9000160000B5002954D0102320279846236819
:104CA0009A6917425CD141469A69114232D05A68DA
:104CB000920104D480225968D2010A435A60202705
:104CC0006A1C32D120219A691142FCD01022DA618B
:104CD0001032DA619A69920701D500229A620122A4
:104CE00099690A4202D199690A439A615A681D4931
:104CF0000A405A600422636C1343636441231C32EC
:104D0000E254002301202232A354023AA35480BC6F
:104D1000B846F0BDFFF7FEFA801B8542BFD22022C5
:104D2000636C134363644123EAE79A691742CDD168
:104D3000FFF7F0FA801B8542F1D3002DEFD02368F6
:104D4000BEE703689A6992060AD49A69D206AED47D
:104D5000FFF7E0FA2022636C134363644123CFE73B
:104D60000020D4E700E800FE10B5041E4DD041231A
:104D7000C35CDAB2002B43D0412324220121E25448
:104D800023681A688A431A60214962680A401A61D6
:104D90009A6820490A409A60E268012A2AD0842150
:104DA000A068090201439960022A02D180221201FF
:104DB0005A605968184A00200A435A60DA6815494F
:104DC0000A40DA60616922690A43A16909020A435B
:104DD000DA60216AE2690A4301211A601A680A430B
:104DE0001A60002341221F316364A15401322363FE
:104DF000A35410BD8022A16812020A439A60D8E72A
:104E00004033C254FEF706F9B6E70120F1E7C04689
:104E1000FFFFFFF0FF7FFFFF00800002F0B54E466E
:104E2000DE4657464546E0B583B099460CAB019245
:104E300004CB04001B8888469B464123C35C9246F2
:104E40000E9E202B00D0A3E0002A00D195E05B4607
:104E5000002B00D191E04023C25C012A00D197E0F1
:104E60000122C254FFF756FA802507002D0204E004
:104E7000FFF750FAC01B192872D8226893691900ED
:104E800029402B42F4D141232220E05401331E302B
:104E9000E054534661646163414663625B468D053D
:104EA0006385A90D536888467A4920000B4049461E
:104EB000C9B209040B4341460B4377490B43536086
:104EC00031003A00FFF774FE002800D0DBE04B46CB
:104ED000012B00D07EE06B4622681B79936240254F
:104EE000731C00D0AAE0402193691942FCD0638D65
:104EF000FF2B00D8AFE0FF236649238553680B40A2
:104F000041460B4365490B43536080230425994672
:104F1000731C1BD193691D42FCD0526A636A1A70DC
:104F2000628D636A013A013392B26362238D6285B6
:104F3000013B628D9BB22385002A01D0002B34D027
:104F4000638D002B55D02268731CE3D093691D42FA
:104F5000E3D1FFF7DFF9C01B864201D3002EF2D167
:104F60002022636C0120134363644123E254002335
:104F70002232A354023AA35403E0802301209B0071
:104F8000636403B0F0BCBB46B246A946A046F0BD80
:104F90000220F6E74946936919420DD1FFF7BAF9A5
:104FA000C01B8642DCD3002EDAD02268731CF1D1FC
:104FB000494693691942FBD0638DFF2B2ED9FF23FD
:104FC0003749238553680B4041460B4335490B4312
:104FD0005360B5E7019D23682A0A9A6231003A00BE
:104FE0002000FFF7E5FD00284DD12268EBB2936267
:104FF00075E73A0031002000FFF746FE002847D150
:1050000020212368284DD9615A682A405A604123DB
:10501000E1540133E054023BE054B2E7638D204891
:1050200051689BB2014040462385DBB201431B041B
:105030000B43802189040B43536081E793691D4230
:1050400000D054E7FFF766F9C01B864212D3002E4A
:1050500010D0226844E7638D0E4851689BB201402E
:1050600040462385DBB201431B040B430F490B432E
:1050700053604AE72022636C134363644123E25484
:1050800000220133E254402300220120E25478E759
:10509000012076E7009800FC002000800024FF81BA
:1050A000009C00FC0000FF0100E800FE00240082DC
:1050B000036810B599691A68436B002B00D09847B4
:1050C00010BDC0467047C0467047C046422110B56B
:1050D000002403681A684454510421D51A682049F1
:1050E0000A401A604122815C292923D0815C2A2947
:1050F00000D010BD2224023981540463825C114027
:1051000028394A425141B02249420A401968F53AC9
:105110000A401A6040230022C254FFF7D5FFE8E797
:105120001204DFD51A680F490A401A604122815CD7
:105130002929DBD12124013981540463825C114087
:1051400028394A425141B02249420A401968F33A8B
:105150000A401A6040230022C254FFF7B3FFC8E799
:10516000FFBFFFFFFF7FFFFF7047C046F0B5C64699
:10517000FE250368C66899699A69C903120C9C6880
:1051800000B5DF68C90F2A40022E13D1A405A60D71
:10519000B4460626640F5440320022409046264210
:1051A00012D1846C01348464826C022A18D080BCD1
:1051B000B846F0BDB8251C68AC431C6040230024F1
:1051C000C454FFF7D1FFF2E7B8241A68A2431A606B
:1051D00040230022C2542A003A40FFF7C5FFE6E709
:1051E000424682640822DA6142464023C254624643
:1051F000FFF7BAFFDBE7C0467047C0467047C046BE
:105200007047C046806A10B5836B002B01D0002226
:105210009A63C36B002B01D000229A634123C25CC6
:10522000602A06D00023402203638354FFF7E6FF81
:1052300010BD403AC2540023203203638354FFF769
:10524000DFFFF5E7412270B50400835C42250020B2
:105250006055444D283BE5626085606C084360649E
:10526000022B34D82820A35C0340283B59424B41F1
:10527000B0215B421940A35CF7391840282801D0BF
:10528000F721494223681A680A401A6028214122FE
:10529000A154354AA06B6263226B002804D0110030
:1052A00010251139A94320D0E06B002803D010212C
:1052B000123A8A432ED04123E25C602A48D0002370
:1052C000402223632000A354FFF798FF70BDFE2007
:1052D000A35CA35C2368196881431960A15C602901
:1052E00001D02021A1540022D4E71A6852042AD404
:1052F000FFF742FB0128DED0A06B1C4B002283632A
:105300004023E254FFF712FB0028DFD0A06B836B31
:105310009847DBE71A68120403D51A6814490A4053
:105320001A60FFF729FB0128C5D0E06B0F4B002264
:1053300083634023E254FFF7F9FA0028C6D0E06BFC
:10534000836B9847C2E71A680A490A401A60CFE798
:10535000403AE2540023203223632000A354FFF795
:105360004FFFB3E70000FFFF61550008055200083A
:10537000FF7FFFFFFFBFFFFF70B58024026864005E
:105380009369116823422AD00D061BD50125416C73
:1053900029434164D461590526D50824416C214331
:1053A00041648021C900D1619B0506D50221436C6F
:1053B0000B43436480239B00D3610B23416C0B425E
:1053C0000AD170BD5C05F8D49B05F6D50906EDD46D
:1053D0000B23416C0B42F4D0FFF734FFF1E75C057F
:1053E000F2D50906D9D4E8E79B05DFD4E5E7C04646
:1053F000F8B504004125202603681868625DDE6167
:10540000183EB243212A4ED0222A00D171E08022D8
:105410005D6812022A435A605A684D4D2A405A600C
:105420009A69920701D500229A6201229D692A4257
:1054300002D19D692A439A6142043BD51A684548C6
:1054400002401A60A26B002A03D01268526892B21E
:105450006285490708D55A6A636A1A70636A01331C
:105460006362238D002B3DD1638D002B03D004227A
:10547000636C13436364002742256755666C67635A
:10548000002E3DD1E36A344DAB421DD14123E25C95
:10549000222A53D02022E254402326632000E654DF
:1054A000FFF710FEF8BD655D1D68F236B5431D605F
:1054B0002263ACE70004CCD51A68284802401A6081
:1054C000E26B002AC1D1C4E72000FFF7FFFD4123B2
:1054D0002022E562E254013B26632000E654FFF7F8
:1054E0008BFEDFE7013B2385638D013B9BB2638528
:1054F000BAE7FC26655D1D68B5431D60226386E73B
:105500002000616CFFF79EFE4123E25C282AC9D18E
:10551000114AFE21E26220222763E2546755676345
:10552000E25CE35C236820001A688A431A60102258
:10553000DA614023E754FFF75FFEB3E7023AE25433
:10554000013B26632000E654FFF7BEFDAAE7C046F4
:1055500000E800FEFFBFFFFF0000FFFFFF7FFFFF2F
:10556000F8B540231600C25C04000D00C76A012A8A
:1055700000D179E00122C254203B0B4201D03342DA
:105580005ED110232B4217D0334215D0628D91B2D9
:10559000002A5BD13133E25C282A00D16EE041233E
:1055A000E35C292B00D19DE010222368DA614023BF
:1055B00000220020E254F8BD04232B420DD1082321
:1055C0002B4227D0334225D04122A15C193A0A4010
:1055D000282A4FD02268D361E9E73342EFD0638DA8
:1055E000002B0DD023685A6A636A1A70636A01330C
:1055F0006362238D013B2385638D013B9BB26385F1
:10560000638D002BD3D1424B9F42D0D02000FFF7B7
:105610005DFDCCE702232B42C9D03342C7D0638D56
:10562000002B23D0636A2268197801339162636288
:10563000638D013B9BB26385238D013B2385B6E7D8
:10564000FFF7D6FE10232B42B6D09DE72268D36128
:105650000422636C134363642E4B1F42A7D12000C6
:10566000616CFFF7EFFDA2E70220A4E7294B1F4280
:10567000CCD09CE72000FFF779FD98E780229204C8
:10568000974200D08BE7224AE26220222163E25453
:105690000133E1543E3B61632B4212D02268516AD0
:1056A000626A1170626A01326262228D002A08D039
:1056B000013A2285628D013A92B26285626C13438F
:1056C00063644123FE21E25CE35C236820001A68E6
:1056D0008A431A601022DA6140230022E254FFF765
:1056E0008BFD64E70A4B9F4200D15DE710222368DF
:1056F000DA619A69920701D500229A6201229969BA
:105700000A4200D082E799690A439A617EE7C0465F
:105710000000FFFFFFFFFFFEF0B54124035D8C4654
:10572000DDB2202B1AD14026835D012B16D0242315
:105730000127035503680A491A68BA431A601A68B0
:105740000A401A6062461968114319601A683A43A0
:105750001A600023055583550020F0BD0220FCE7A8
:10576000FFEFFFFFF0B5CE464746412480B5035D0D
:10577000DDB2202B1FD14026835D012B1BD02423BB
:10578000012703550268B94613680902BB43136039
:10579000136898464746094B1F40394311604946F4
:1057A00013680B4313600023055583550020C0BCCC
:1057B000B946B046F0BD0220F9E7C046FFF0FFFF52
:1057C000F8B5041E48D02E23C35CDAB2002B3ED0BD
:1057D0002E230222E25420686568C368A66A012D60
:1057E00032D08022120496422ED061691B4A914227
:1057F00001D01B4A13401B4A276A1A40A3682B4357
:105800003B43676A3B4333431343002D13D0012DC1
:1058100015D1E26825692A431343104A914204D006
:10582000A2691143E26911430B43C36001222E2395
:105830000020E254F8BDE26925692A43134380221F
:1058400012049642E9D1E4E71E229343CDE72D33BB
:10585000C254FDF7A1FEBBE70120EBE7FFFF00000C
:105860003F1FFFFFFEF119FF7047C0467047C0465B
:105870007047C0467047C0467047C0467047C04634
:105880007047C0460122036810B5196804000A4237
:1058900002D099680A422FD1022219680A4202D026
:1058A00099680A422DD1042219680A4202D09968E7
:1058B0000A422CD1082219680A4202D099680A4289
:1058C0002BD1102219680A4202D099680A422AD1C3
:1058D000202219680A4202D099680A4229D140223E
:1058E00019680A4202D099680A4200D110BD20000E
:1058F0005A60FFF7C5FFF9E75A60FFF7B5FF236865
:10590000CAE75A602000FFF7B1FF2368CBE75A606F
:105910002000FFF7ADFF2368CCE75A602000FFF7B7
:10592000A9FF2368CDE75A602000FFF7A5FF236891
:10593000CEE75A602000FFF7A1FF2368CFE7C046FB
:10594000F8B5CE464746050080B572B6424B0468AE
:105950009C4259D0A668E7686369A26991461A43D8
:1059600042D000229046002B1FD0012122690A4319
:1059700022616361394B3A491868FAF7E1FB02008A
:1059800043011B1A98008018C00001380822002823
:1059900005D023681A4206D101380028F9D12368BE
:1059A00003222E23EA54082363604B46002B18D0B1
:1059B000012223692A49134323614B46A361274BE4
:1059C0001868FAF7BDFB102143011B1A9B001B1836
:1059D000DB00013B002B12D022681142F9D01023CA
:1059E00063601D4B9C422FD00122236993432361A6
:1059F000A660E76062B6C0BCB946B046F8BD236891
:105A000003222E23EA54EAE7164AD36CA668984686
:105A1000E7686369A1698946916A8C46802160467E
:105A2000090601439162916A490049089162494619
:105A30001943D9D0C0214046090308408046D16CA3
:105A400009480140D1648EE7064A0749D36C0B40F0
:105A500041460B43D364C7E7007C0040440000206C
:105A6000204E000000100240FFFFF3FF2E23022211
:105A700070B5C25480230500244A9B051068034377
:105A800013606B68012B04D08023AA6A1B049A421E
:105A900036D02C680122236910261343236110237A
:105AA00063601B4BA16118681A49FAF749FB43016F
:105AB0001B1A9B001B18DB00013B002B1DD022682A
:105AC0001642F9D02800FFF73BFF2E216B5CD8B2BD
:105AD000032B14D0022004242B689A6832439A6066
:105AE0009A6802439A601A69013802431A611A6976
